:020000040800F2
:1000000000500020F5330008E5320008E732000810
:10001000E9320008EB320008ED3200080000000071
:10002000000000000000000000000000EF320008A7
:10003000F132000800000000F3320008F532000839
:100040003D3400083D3400083D3400083D340008CC
:100050003D3400083D340008FD3200083D340008FE
:100060003D340008073300083D3400081133000810
:100070003D3400083D3400083D3400083D3400089C
:100080003D3400083D3400083D3400083D3400088C
:100090003D3400083D3400083D3400082133000899
:1000A0003D3400082D3300083D3300084D3300086F
:1000B0005D3300083D3400083D3400083D3400083D
:1000C0003D3400083D3400083D3400083D3400084C
:1000D0003D3400083D3400083D3400083D3400083C
:1000E0003D3400083D3400083D34000800000000A5
:1000F0000000000000000000000000000000000000
:0C01000000000000000000005FF808F1A3
:1001100010B5054C237833B9044B13B10448AFF341
:1001200000800123237010BD780000200000000033
:10013000203A000808B5034B1BB103490348AFF34D
:10014000008008BD000000007C000020203A00086C
:1001500081F0004102E000BF83F0004330B54FEA78
:1001600041044FEA430594EA050F08BF90EA020FE5
:100170001FBF54EA000C55EA020C7FEA645C7FEA78
:10018000655C00F0E2804FEA5454D4EB5555B8BF9B
:100190006D420CDD2C4480EA020281EA030382EA0C
:1001A000000083EA010180EA020281EA0303362D9E
:1001B00088BF30BD11F0004F4FEA01314FF4801C71
:1001C0004CEA113102D0404261EB410113F0004F83
:1001D0004FEA03334CEA133302D0524263EB43033A
:1001E00094EA050F00F0A780A4F10104D5F1200ED8
:1001F0000DDB02FA0EFC22FA05F2801841F1000133
:1002000003FA0EF2801843FA05F359410EE0A5F106
:1002100020050EF1200E012A03FA0EFC28BF4CF037
:10022000020C43FA05F3C01851EBE37101F00045ED
:1002300007D54FF0000EDCF1000C7EEB00006EEBFA
:100240000101B1F5801F1BD3B1F5001F0CD3490884
:100250005FEA30004FEA3C0C04F101044FEA4452DB
:1002600012F5800F80F09A80BCF1004F08BF5FEA62
:10027000500C50F1000041EB045141EA050130BD42
:100280005FEA4C0C404141EB010111F4801FA4F1E5
:100290000104E9D191F0000F04BF01460020B1FA3A
:1002A00081F308BF2033A3F10B03B3F120020CDA72
:1002B0000C3208DD02F1140CC2F10C0201FA0CF050
:1002C00021FA02F10CE002F11402D8BFC2F1200CB5
:1002D00001FA02F120FA0CFCDCBF41EA0C0190406B
:1002E000E41AA2BF01EB0451294330BD6FEA0404B4
:1002F0001F3C1CDA0C340EDC04F11404C4F120029F
:1003000020FA04F001FA02F340EA030021FA04F3B0
:1003100045EA030130BDC4F10C04C4F1200220FA07
:1003200002F001FA04F340EA0300294630BD21FA45
:1003300004F0294630BD94F0000F83F4801306BF0B
:1003400081F480110134013D4EE77FEA645C18BFFF
:100350007FEA655C29D094EA050F08BF90EA020F96
:1003600005D054EA000C04BF1946104630BD91EA8E
:10037000030F1EBF0021002030BD5FEA545C05D191
:100380004000494128BF41F0004130BD14F58004D0
:100390003CBF01F5801130BD01F0004545F0FE4144
:1003A00041F470014FF0000030BD7FEA645C1ABF79
:1003B000194610467FEA655C1CBF0B46024650EAB0
:1003C000013406BF52EA033591EA030F41F40021DC
:1003D00030BD00BF90F0000F04BF0021704730B562
:1003E0004FF4806404F132044FF000054FF0000137
:1003F00050E700BF90F0000F04BF0021704730B5F8
:100400004FF4806404F1320410F0004548BF4042CC
:100410004FF000013EE700BF42004FEAE2014FEA21
:1004200031014FEA02701FBF12F07F4393F07F4FFC
:1004300081F06051704732F07F4208BF704793F0FF
:100440007F4F04BF41F40021704730B54FF4607412
:1004500001F0004521F000411CE700BF50EA010215
:1004600008BF704730B54FF000050AE050EA0102BE
:1004700008BF704730B511F0004502D5404261EB2E
:1004800041014FF4806404F132045FEA915C3FF46F
:10049000D8AE4FF003025FEADC0C18BF03325FEA0C
:1004A000DC0C18BF033202EBDC02C2F1200300FABD
:1004B00003FC20FA02F001FA03FE40EA0E0021FAE2
:1004C00002F11444BDE600BF70B54FF0FF0C4CF4D0
:1004D000E06C1CEA11541DBF1CEA135594EA0C0F82
:1004E00095EA0C0F00F0DEF82C4481EA030621EABD
:1004F0004C5123EA4C5350EA013518BF52EA0335F8
:1005000041F4801143F4801338D0A0FB02CE4FF0A9
:100510000005E1FB02E506F00042E0FB03E54FF0D9
:100520000006E1FB03569CF0000F18BF4EF0010ED1
:10053000A4F1FF04B6F5007F64F5407404D25FEACD
:100540004E0E6D4146EB060642EAC62141EA555180
:100550004FEAC52040EA5E504FEACE2EB4F1FD0CC2
:1005600088BFBCF5E06F1ED8BEF1004F08BF5FEA40
:10057000500E50F1000041EB045170BD06F00046F2
:1005800046EA010140EA020081EA0301B4EB5C049F
:10059000C2BFD4EB0C0541EA045170BD41F4801197
:1005A0004FF0000E013C00F3AB8014F1360FDEBFBC
:1005B000002001F0004170BDC4F10004203C35DA98
:1005C0000C341BDC04F11404C4F1200500FA05F31B
:1005D00020FA04F001FA05F240EA020001F00042BC
:1005E00021F0004110EBD37021FA04F642EB060132
:1005F0005EEA430E08BF20EAD37070BDC4F10C045C
:10060000C4F1200500FA04F320FA05F001FA04F21F
:1006100040EA020001F0004110EBD37041F100010B
:100620005EEA430E08BF20EAD37070BDC4F1200516
:1006300000FA05F24EEA020E20FA04F301FA05F27E
:1006400043EA020321FA04F001F0004121FA04F226
:1006500020EA020000EBD3705EEA430E08BF20EAF6
:10066000D37070BD94F0000F0FD101F00046400030
:1006700041EB010111F4801F08BF013CF7D041EAB2
:10068000060195F0000F18BF704703F000465200B6
:1006900043EB030313F4801F08BF013DF7D043EA87
:1006A0000603704794EA0C0F0CEA135518BF95EA3D
:1006B0000C0F0CD050EA410618BF52EA4306D1D1C4
:1006C00081EA030101F000414FF0000070BD50EAE3
:1006D000410606BF1046194652EA430619D094EA6D
:1006E0000C0F02D150EA013613D195EA0C0F05D157
:1006F00052EA03361CBF104619460AD181EA0301AB
:1007000001F0004141F0FE4141F470014FF0000062
:1007100070BD41F0FE4141F4780170BD70B54FF0FD
:10072000FF0C4CF4E06C1CEA11541DBF1CEA13557D
:1007300094EA0C0F95EA0C0F00F0A7F8A4EB05045F
:1007400081EA030E52EA03354FEA013100F0888056
:100750004FEA03334FF0805545EA131343EA12631F
:100760004FEA022245EA111545EA10654FEA0026D4
:100770000EF000419D4208BF964244F1FD0404F58D
:10078000407402D25B084FEA3202B61A65EB0305E9
:100790005B084FEA32024FF480104FF4002CB6EBA6
:1007A000020E75EB030E22BFB61A754640EA0C0026
:1007B0005B084FEA3202B6EB020E75EB030E22BF66
:1007C000B61A754640EA5C005B084FEA3202B6EBA7
:1007D000020E75EB030E22BFB61A754640EA9C0066
:1007E0005B084FEA3202B6EB020E75EB030E22BF36
:1007F000B61A754640EADC0055EA060E18D04FEAF4
:10080000051545EA16754FEA06164FEAC30343EA93
:1008100052734FEAC2025FEA1C1CC0D111F4801F60
:100820000BD141EA00014FF000004FF0004CB6E759
:1008300011F4801F04BF01430020B4F1FD0C88BFF8
:10084000BCF5E06F3FF6AFAEB5EB030C04BFB6EB03
:10085000020C5FEA500C50F1000041EB045170BDF6
:100860000EF0004E4EEA113114EB5C04C2BFD4EB23
:100870000C0541EA045170BD41F480114FF0000EA7
:10088000013C90E645EA060E8DE60CEA135594EA23
:100890000C0F08BF95EA0C0F3FF43BAF94EA0C0F26
:1008A0000AD150EA01347FF434AF95EA0C0F7FF49B
:1008B00025AF104619462CE795EA0C0F06D152EAEF
:1008C00003353FF4FDAE1046194622E750EA4106D3
:1008D00018BF52EA43067FF4C5AE50EA41047FF4E4
:1008E0000DAF52EA43057FF4EBAE12E74FF0FF3C49
:1008F00006E000BF4FF0010C02E000BF4FF0010C1A
:100900004DF804CD4FEA410C7FEA6C5C4FEA430C92
:1009100018BF7FEA6C5C1BD001B050EA410C0CBFE1
:1009200052EA430C91EA030F02BF90EA020F002043
:10093000704710F1000F91EA030F58BF994208BFAA
:1009400090422CBFD8176FEAE37040F00100704767
:100950004FEA410C7FEA6C5C02D150EA013C07D1BE
:100960004FEA430C7FEA6C5CD6D152EA033CD3D009
:100970005DF8040B704700BF8446104662468C4603
:100980001946634600E000BF01B5FFF7B7FF002836
:1009900048BF10F1000F01BD4DF808EDFFF7F4FF5F
:1009A0000CBF012000205DF808FB00BF4DF808EDEA
:1009B000FFF7EAFF34BF012000205DF808FB00BF0D
:1009C0004DF808EDFFF7E0FF94BF012000205DF82F
:1009D00008FB00BF4DF808EDFFF7CEFF94BF0120E4
:1009E00000205DF808FB00BF4DF808EDFFF7C4FFDD
:1009F00034BF012000205DF808FB00BF4FEA410C26
:100A00007FEA6C5C02D150EA013C0AD14FEA430C08
:100A10007FEA6C5C02D152EA033C02D14FF0000045
:100A200070474FF0010070474A0011D212F50012D2
:100A300011D20DD56FF47873B3EB62520ED44FEA36
:100A4000C12343F0004343EA505323FA02F07047B6
:100A50004FF00000704750EA013002D14FF0FF30F4
:100A600070474FF00000704710B504460E4B1878E1
:100A70004FF47A73B3FBF0F30C4A1068B0FBF3F059
:100A800000F000FB68B90F2C01D901200AE0002218
:100A900021464FF0FF3000F0B5FA034B5C600020B8
:100AA00000E0012010BD00BF000000200800002071
:100AB00008B5074A136843F010031360032000F0E1
:100AC0008FFA0020FFF7D0FF02F0B2FA002008BD35
:100AD00000200240034A1168034B1B780B4413604B
:100AE000704700BFAC00002000000020014B1868D8
:100AF000704700BFAC00002038B50446FFF7F6FF92
:100B00000546B4F1FF3F02D0044B1B781C44FFF7AD
:100B1000EDFF401BA042FAD338BD00BF000000200B
:100B2000704708B5436A9A6A12F0500F03D01B6AE7
:100B30001B6B984708BD9A6A42F400729A621A6861
:100B4000926802F46022B2F5602F03D01846FFF7D6
:100B5000E7FFEFE7DA68002AF8D19A6A22F4807298
:100B60009A629A6A12F4805FF0D19A6A42F00102A6
:100B70009A62EBE7704708B5406AFFF7FBFF08BDD4
:100B8000704708B5406A836A43F040038362C36AD2
:100B900043F00403C362FFF7F3FF08BD30B482B033
:100BA0000023019390F82430012B00F08B80024643
:100BB000012380F824304B68062B29D80568686B20
:100BC00003EB8303053B1F249C4020EA04000C68D0
:100BD00004FA03F303436B630B68092B38D91568D8
:100BE000E86803EB43031E3B07249C4020EA040013
:100BF0008C6804FA03F30343EB600B68103B012B92
:100C000034D90020002382F8243002B030BC704771
:100C10000C2B0ED80568286B03EB8303233B1F24A2
:100C20009C4020EA04000C6804FA03F303432B639E
:100C3000D2E70568E86A03EB8303413B1F249C402D
:100C400020EA04000C6804FA03F30343EB62C3E7F1
:100C50001568286903EB430307249C4020EA04003D
:100C60008C6804FA03F303432B61C6E71368164844
:100C7000834205D0936A43F0200393620120C1E7C9
:100C8000986810F4000F1BD1986840F40000986039
:100C90000B68102B01D00020B4E70C4B1B680C49EB
:100CA000A1FB03139B0C03EB83035900019102E0AA
:100CB000019B013B0193019B002BF9D10020A1E78F
:100CC00000209FE70220A0E7002401400800002048
:100CD00083DE1B4330B583B00023019303689A6819
:100CE00012F0010F2ED19A6842F001029A60174B60
:100CF0001B68174AA2FB03239B0C019302E0019B94
:100D0000013B0193019B002BF9D10446FFF7EEFE56
:100D1000054623689B6813F0010F11D1FFF7E6FE2B
:100D2000401B0228F5D9A36A43F01003A362E36ACB
:100D300043F00103E362002384F82430012002E041
:100D4000002000E0002003B030BD00BF08000020FC
:100D500083DE1B43F8B50468454DAC425BD0454B80
:100D60009C4258D090F82440012C7ED016460D4667
:100D70000446012380F82430FFF7ACFF0746002823
:100D80006ED1A36A23F4706323F0010343F48073EC
:100D9000A3622268374B9A4244D0A36A23F480139B
:100DA000A362536813F4806F05D0A36A23F4405301
:100DB00043F48053A362A36A13F4805F48D0E36ACC
:100DC00023F00603E362002384F82430236A2A4ACE
:100DD0009A62236A294ADA62236A294A1A632368D3
:100DE0006FF002021A602268936843F48073936084
:100DF000216833462A464C31206A00F0A5F9226862
:100E0000936803F46023B3F5602F24D0936843F410
:100E10008013936027E0164B5B6813F4702FA1D00A
:100E2000012720E0A3F580635B6813F4702FB4D032
:100E3000A36A43F48013A3620D4B5B6813F4806FC5
:100E4000B9D0A36A23F4405343F48053A362B2E7BA
:100E50000023E362B7E7936843F4A003936002E0E2
:100E6000002384F824303846F8BD0227FBE700BF92
:100E70000024014000280140230B0008770B0008E4
:100E8000830B000838B503689A6812F0010F01D18E
:100E9000002038BD04469A6822F001029A60FFF7EC
:100EA00025FE054623689B6813F0010F0ED0FFF75F
:100EB0001DFE401B0228F5D9A36A43F01003A3626C
:100EC000E36A43F00103E3620120E2E70020E0E788
:100ED00000287FD038B50446836A002B33D02046E3
:100EE000FFF7D0FFA36A13F010036DD100286BD178
:100EF000A26A22F4885222F0020242F00202A262A6
:100F00006268E1690A43E56842EA4502A168B1F511
:100F1000807F21D001291CD0616901291FD025685B
:100F2000696821F469410B436B6021688D682A4B25
:100F30002B4013438B60A368B3F5807F20D0012B37
:100F40001ED000211FE0C36280F8243002F092F826
:100F5000C5E74FF48073DFE74FF48073DCE735B902
:100F6000A169013943EA413343F40063D7E7A16A39
:100F700041F02001A162E16A41F00101E162CEE7A6
:100F80002369013B19052568EB6A23F470030B43C1
:100F9000EB6223689968114B0B409A420BD0A36A0D
:100FA00023F0120343F01003A362E36A43F001034A
:100FB000E36201200DE00023E362A36A23F0030350
:100FC00043F00103A36204E0A36A43F01003A362A9
:100FD000012038BD01207047FDF7E1FFFE0E1FFF25
:100FE000074AD36823F4E0631B041B0C000200F4DF
:100FF000E060184340F0BF6040F40030D0607047BC
:1010000000ED00E030B4174BDB68C3F30223C3F1FB
:101010000704042C28BF04241D1D062D18D9033BEA
:101020004FF0FF3505FA04F421EA0401994005FA6E
:1010300003F322EA0303194300280BDB0901C9B2B9
:1010400000F1604000F5614080F8001330BC70474B
:101050000023E5E700F00F000901C9B2024B195463
:10106000F4E700BF00ED00E014ED00E000F01F0227
:10107000400901239340024A42F82030704700BFE4
:1010800000E100E00138B0F1807F0AD2064B5860E1
:10109000064AF02182F823100020986007221A6087
:1010A00070470120704700BF10E000E000ED00E055
:1010B00070B4066CC56B0124B4406C600468636056
:1010C0004368102B05D0036899600368DA6070BC30
:1010D000704703689A600368D960F8E760B310B49A
:1010E00002460168154B0B441548A0FB03031B097E
:1010F0009B001364134BD363022382F821300868EA
:1011000020F47F5020F03000536894682343D46863
:101110002343146923435469234394692343D469C3
:10112000234303430B6000209063012382F82130A6
:1011300082F8200010BC704701207047F8FFFDBF07
:10114000CDCCCCCC0000024038B590F82040012C2A
:1011500032D0012480F8204090F82140012C04D0A6
:10116000002380F82030022038BD0446022084F895
:1011700021000020A0632568286820F00100286075
:101180002046FFF795FFE36A5BB12268136843F0DE
:101190000E0313602268136843F0010313600020FC
:1011A000E2E72268136823F00403136022681368DF
:1011B00043F00A031360EDE70220D5E738B5C36BAF
:1011C0001A6804682568016C04238B40134235D0EB
:1011D00015F0040F32D0236813F0200F03D12368D9
:1011E00023F0040323600368434A934214D014326B
:1011F000934218D01432934217D01432934217D02E
:101200001432934217D01432934202D04FF08062CE
:1012100003E04FF4800200E00422384B5A60C36AB6
:1012200003B1984738BD4022F7E74FF48062F4E7F6
:101230004FF48042F1E74FF48022EEE702238B4027
:1012400013423CD015F0020F39D0236813F0200F61
:1012500006D1236823F00A032360012380F821309C
:101260000368254A934214D0143293421CD014329E
:1012700093421BD0143293421BD0143293421BD0A2
:101280001432934202D04FF0007203E04FF4001288
:1012900000E00222194B5A60002380F82030836A54
:1012A000002BBFD09847BDE72022F3E74FF4007230
:1012B000F0E74FF40052EDE74FF40032EAE708237D
:1012C00003FA01F11142ADD015F0080FAAD023683E
:1012D00023F00E032360026CC16B012303FA02F2B8
:1012E0004A60836380F82130002380F82030036B4C
:1012F000002B97D0984795E7080002400000024075
:10130000F0B482B000263546A1E0002C59D0012C63
:1013100000D1CE68FF2B68D88446FF2B68D8AC007C
:10132000DCF800200F27A74022EA070206FA04F49F
:101330002243CCF800204A6812F0805F00F08680DB
:101340005E4A946944F001049461926902F00102DA
:101350000192019AAC08A71C594A52F8272005F0BF
:101360000307BF004FF00F0C0CFA07FC22EA0C0C2D
:10137000544A904242D002F5806290427FD002F5FA
:10138000806290427DD002F58062904234D0042287
:1013900035E04D4FBC4214D00BD94C4FBC4210D05D
:1013A00007F58037BC420CD0A7F58017BC42B1D1FD
:1013B00007E0A7F58017BC4203D007F58037BC4291
:1013C000A8D18C687CB1012C08D042610826A1E725
:1013D000CE6808369EE7CE680C369BE70261082689
:1013E00098E7002696E7042694E700F1040C94E7BA
:1013F000A5F10804A40093E7032200E00022BA400C
:1014000042EA0C0202342E4F47F824204A6812F4B4
:10141000803F38D02E4C22681A4322604A6812F46A
:10142000003F36D02A4C62681A4362604A6812F460
:10143000801F34D0264CA2681A43A2604A6812F476
:10144000001F32D0224CE2681343E36001350F2DB8
:1014500031D80122AA400B6813409A42F6D14C6859
:10146000122CB8D095D8022CB2D07FF64EAF032CF8
:10147000B7D0112C7FF44EAFCE6804364AE7012274
:10148000BDE70222BBE7124C226822EA0302226077
:10149000C4E70F4C626822EA03026260C6E70C4CA4
:1014A000A26822EA0302A260C8E7094CE26822EAC5
:1014B0000303E360CAE702B0F0BC704700100240CB
:1014C0000000014000080140000021100000311020
:1014D00000040140F0B400240EE000F1040C15E01B
:1014E000A4F10806B70014E0032700E0002707FA7C
:1014F00002F2B2423ED0013431FA04F351D001235A
:10150000A3400B40F7D0FF2BE7D88446FF2BE7D84A
:10151000A700DCF800200F2505FA07F622EA0602EC
:101520000426BE403243CCF80020C268DB431A4098
:10153000C2604FEA940C0CF102061B4A52F8266076
:1015400004F00302920095402E40184FB842CDD0CF
:1015500007F58067B84209D007F58067B84207D021
:1015600007F58067B842BFD00427C0E70127BEE770
:101570000227BCE70C4F0CF1020257F8226026EA62
:10158000050547F822500A4A15681D401560556840
:101590001D40556095681D409560D5682B40D3600F
:1015A000A9E7F0BC704700BF0000014000080140FF
:1015B0000004014012B909040161704701617047DC
:1015C000C3685940C160704708B5054B5B69034269
:1015D00000D108BD024B586101F076FCF9E700BF6D
:1015E0000004014082B0084B1B68084AA2FB032399
:1015F0005B0A00FB03F0019000BF019B5A1E0192A1
:10160000002BF9D102B0704708000020D34D6210C2
:1016100070B582B00446036813F0010F2CD0AB4BB9
:101620005B6803F00C03042B1DD0A84B5B6803F030
:101630000C03082B12D06368B3F5803F41D0002B18
:1016400055D103F1804303F504331A6822F4803244
:101650001A601A6822F480221A6037E09B4B5B689C
:1016600013F4803FE7D0994B1B6813F4003F03D07D
:101670006368002B00F0AE81236813F0020F76D070
:10168000924B5B6813F00C0F5FD0904B5B6803F0DC
:101690000C03082B54D02369002B00F08A808C4B5C
:1016A00001221A60FFF722FA0546884B1B6813F0E7
:1016B000020F75D1FFF71AFA401B0228F5D9032053
:1016C0008BE1824A136843F480331360636843B349
:1016D000FFF70CFA05467D4B1B6813F4003FCBD196
:1016E000FFF704FA401B6428F5D9032075E1B3F530
:1016F000A02F09D0754B1A6822F480321A601A683C
:1017000022F480221A60E1E703F18043A3F53C3321
:101710001A6842F480221A601A6842F480321A6011
:10172000D4E7FFF7E3F90546684B1B6813F4003F65
:10173000A2D0FFF7DBF9401B6428F5D903204CE168
:10174000624B5B6813F4803FA5D1604B1B6813F0BC
:10175000020F04D02369012B01D001203DE15B4A37
:10176000136823F0F803616943EAC1031360236837
:1017700013F0080F32D0A369002B5BD0554B012228
:101780001A60FFF7B3F90546504B5B6A13F0020F7E
:1017900021D1FFF7ABF9401B0228F5D903201CE14A
:1017A0004A4A136823F0F803616943EAC1031360EE
:1017B000DDE7474B00221A60FFF798F90546434BD7
:1017C0001B6813F0020FD2D0FFF790F9401B0228DC
:1017D000F5D9032001E10120FFF704FF236813F08E
:1017E000040F00F09780394BDB6913F0805F33D131
:1017F000364BDA6942F08052DA61DB6903F08053DC
:101800000193019B0125344B1B6813F4807F25D085
:10181000E368012B36D0002B4CD103F1804303F554
:1018200004331A6A22F001021A621A6A22F00402D0
:101830001A622CE0274B00221A60FFF757F9054681
:10184000224B5B6A13F0020FC8D0FFF74FF9401B21
:101850000228F5D90320C0E00025D4E71E4A13680A
:1018600043F480731360FFF741F906461A4B1B6877
:1018700013F4807FCCD1FFF739F9801B6428F5D9A8
:101880000320AAE0114A136A43F001031362E368DC
:1018900073B3FFF72BF906460C4B1B6A13F0020FCC
:1018A00037D1FFF723F9801B41F288339842F3D9EF
:1018B000032092E0052B11D0044B1A6A22F001029A
:1018C0001A621A6A22F004021A62E0E7001002406B
:1018D000000042428004424200700040414B1A6ABC
:1018E00042F004021A621A6A42F001021A62CEE75A
:1018F000FFF7FCF806463B4B1B6A13F0020F08D0BB
:10190000FFF7F4F8801B41F288339842F3D90320A3
:1019100063E0E5B9E369002B5ED0324A526802F019
:101920000C02082A5BD0022B17D02F4B00221A6022
:10193000FFF7DCF804462B4B1B6813F0007F47D001
:10194000FFF7D4F8001B0228F5D9032045E0254A0B
:10195000D36923F08053D361DCE7234B00221A6064
:10196000FFF7C4F805461F4B1B6813F0007F06D035
:10197000FFF7BCF8401B0228F5D903202DE0236AAD
:10198000B3F5803F1AD017494B6823F47413226AC9
:10199000606A024313434B60134B01221A60FFF746
:1019A000A5F804460F4B1B6813F0007F0ED1FFF71C
:1019B0009DF8001B0228F5D903200EE0094A536860
:1019C00023F40033A1680B435360DCE7002004E0FC
:1019D000002002E0012000E0002002B070BD0120E4
:1019E000FBE700BF001002406000424210B487B025
:1019F000164C94E80F000DF1180C0CE90F00238A27
:101A0000ADF80430124B5B6803F00C02082A1AD1BF
:101A1000C3F38342624412F8102C13F4803F05D1C3
:101A20000C4800FB02F007B010BC7047084B5B6825
:101A3000C3F34043634413F8143C074800FB02F02F
:101A4000B0FBF3F0EFE70448EDE700BF383A0008D9
:101A50000010024000093D0000127A00624B1B6832
:101A600003F007038B420CD25F4A136823F007038D
:101A70000B431360136803F007038B4201D001206E
:101A8000704770B5036813F0020F17D013F0040FFE
:101A900004D0564A536843F4E0635360036813F07C
:101AA000080F04D0514A536843F4605353604F4ABF
:101AB000536823F0F0038468234353600D460446C3
:101AC000036813F0010F52D04368012B23D0022B7F
:101AD00028D0464A126812F0020F00F08280434973
:101AE0004A6822F0030213434B60FEF7FFFF0646ED
:101AF0006368012B1DD0022B2AD03C4B5B6813F08E
:101B00000C0F34D0FEF7F2FF801B41F2883398426D
:101B1000F3D9032064E0354A126812F4003FDED1A5
:101B200001205DE0314A126812F0007FD7D1012018
:101B300056E02E4B5B6803F00C03042B17D0FEF726
:101B4000D5FF801B41F288339842F2D9032047E049
:101B5000264B5B6803F00C03082B08D0FEF7C6FF8A
:101B6000801B41F288339842F2D9032038E01E4BA3
:101B70001B6803F00703AB420CD91B4A136823F020
:101B800007032B431360136803F00703AB4201D034
:101B9000012025E0236813F0040F06D0134A536890
:101BA00023F4E063E1680B435360236813F0080FEC
:101BB00007D00E4A536823F46053216943EAC103F6
:101BC0005360FFF713FF094B5B68C3F30313084A25
:101BD000D35CD840074B18600020FEF745FF00207B
:101BE00070BD0120FCE700BF002002400010024051
:101BF0004C3A00080800002070B582B00446036823
:101C000013F0010F34D03E4BDB6913F0805F48D1F5
:101C10003B4BDA6942F08052DA61DB6903F08053B2
:101C20000193019B0125374B1B6813F4807F3AD049
:101C3000334B1B6A13F4407311D0626802F4407294
:101C40009A420CD02E4A136A23F440702E49012682
:101C50000E6000260E60106213F0010F37D1284A83
:101C6000136A23F4407361680B431362002D3FD164
:101C7000236813F0020F06D0214A536823F440432F
:101C8000A1680B435360236813F0100F35D01C4A32
:101C9000536823F48003E1680B435360002002B0D3
:101CA00070BD0025BFE7174A136843F480731360C3
:101CB000FEF71CFF0646134B1B6813F4807FB7D159
:101CC000FEF714FF801B6428F5D90320E7E7FEF731
:101CD0000DFF06460A4B1B6A13F0020FBFD1FEF739
:101CE00005FF801B41F288339842F3D90320D6E7E1
:101CF000D36923F08053D361BAE70020CFE700BF58
:101D0000001002400070004040044242F8B5054611
:101D10000F4616461C463BE02CB1FEF7E7FE069B3D
:101D2000C01AA04234D32A68536823F0E0035360FA
:101D30006B68B3F5827F0BD0AB6AB3F5005F14D04C
:101D4000012385F85130002385F85030032027E027
:101D5000AB68B3F5004F02D0B3F5806FECD12A68C1
:101D6000136823F040031360E6E72A68136823F43E
:101D700000531B041B0C13602A68136843F40053C0
:101D80001360DDE70123B34209D0B4F1FF3FC3D1B3
:101D90002B689B6837EA0303F4D00023F3E70020A5
:101DA000F8BD10B582B0044600920B460022802197
:101DB000FFF7ACFF034610B9184602B010BD636DC3
:101DC00043F0200363650323F6E790B110B50446A2
:101DD000022380F851300268136823F04003136037
:101DE00001F000FA0020606584F8510084F850008A
:101DF00010BD012070472DE9F04184B01E4690F8D7
:101E00005030012B00F0C88004460D469046012357
:101E100080F85030FEF76AFE074694F85130DBB286
:101E2000012B0AD00223012284F85120002284F8D9
:101E30005020184604B0BDE8F081002D00F0A480C9
:101E4000B8F1000F00F0A280032384F85130002382
:101E500063652563A4F83480A4F83680A363A38760
:101E6000E38763642364A368B3F5004F1BD0236842
:101E70001A6812F0400F03D11A6842F040021A604B
:101E8000E368B3F5006F14D063681BB1E38E9BB2B7
:101E9000012B3ED1236815F8012B1A73E38E013B09
:101EA0009BB2E38635E02268136843F480431360F5
:101EB000DDE763681BB1E38E9BB2012B0DD1236874
:101EC00035F8022BDA60E38E013B9BB2E38604E037
:101ED000002E5DD0B6F1FF3F0FD1E38E9BB27BB3F6
:101EE00023689A6812F0020FF2D035F8022BDA60FC
:101EF000E38E013B9BB2E386EFE7FEF7F7FDC01BE5
:101F0000B042EAD303238EE7002E43D0B6F1FF3F61
:101F10000FD1E38E9BB29BB123689A6812F0020F37
:101F2000F2D015F8012B1A73E38E013B9BB2E386C6
:101F3000EFE7FEF7DBFDC01BB042EAD3032372E7F5
:101F400000973346012202212046FFF7DFFE08B149
:101F5000032368E73A4631462046FFF722FF03464F
:101F600018B12023636501235DE7A26832B90392AB
:101F70002268D168039192680392039A626D002AE5
:101F80003FF451AF01234EE701234CE701234AE719
:101F9000032348E7032346E702234AE72DE9F043FA
:101FA00085B099460C9D90F85030012B00F01081BF
:101FB00004460F461646012380F85030FEF796FD82
:101FC000804694F85130DBB26268012B15D0B2F52F
:101FD000827F0AD00223012284F85120002284F853
:101FE0005020184605B0BDE8F083A268002A40F0F2
:101FF000E780042B01D00223EDE7002F00F0E28000
:10200000002E00F0E180B9F1000F00F0DF8094F8BD
:102010005130DBB2012B2BD000236365A663A4F8FB
:102020003E90A4F83C902763A4F83690A4F834902E
:102030002364636423681A6812F0400F03D11A689E
:1020400042F040021A60E368B3F5006F14D0636891
:102050001BB1E38E9BB2012B07D1236817F8012B2C
:102060001A73E38E013B9BB2E3864FF0010961E0F6
:10207000052384F85130CFE763681BB1E38E9BB230
:10208000012B07D1236837F8022BDA60E38E013B7E
:102090009BB2E3864FF0010913E0E38F9BB26BB173
:1020A00023689A6812F0010F08D0DB6826F8023B1B
:1020B000E38F013B9BB2E3874FF00109B5F1FF3F8E
:1020C0001CD1E38E9BB21BB9E38F9BB2002B55D082
:1020D000B9F1000FE1D0E38E9BB2002BDDD0236875
:1020E0009A6812F0020FD8D037F8022BDA60E38E2C
:1020F000013B9BB2E3864FF00009CEE7FEF7F6FC0A
:10210000A0EB0800A842DCD3032364E7E38F9BB273
:102110006BB123689A6812F0010F08D0DB68337046
:10212000E38F013B9BB2E38701364FF00109B5F124
:10213000FF3F1BD1E38E9BB213B9E38F9BB2EBB190
:10214000B9F1000FE2D0E38E9BB2002BDED0236802
:102150009A6812F0020FD9D03A781A73E38E013BD5
:102160009BB2E38601374FF00009CFE7FEF7BEFCD4
:10217000A0EB0800A842DDD303232CE7CDF80080B4
:102180002B46012202212046FFF7C0FD08B10323A0
:1021900021E7424629462046FFF703FE034618B1D1
:1021A00020236365012316E7A268002A7FF413AF9A
:1021B00003922268D168039192680392039A0AE716
:1021C000022308E7012306E7012304E7012302E7CE
:1021D000022306E700283CD010B5044600238362A2
:1021E00090F85130002B31D0022384F8513022680E
:1021F000136823F0400313606368A2681343E26826
:1022000013432269134362691343A26902F4007203
:102210001343E2691343226A1343A16A22680B4302
:102220001360638B03F00403616A22680B435360FD
:102230002368E26A1A612268D36923F40063D361D8
:1022400000206065012384F8513010BD00F05EFF6E
:10225000CAE70120704710B4036A046A24F001043D
:102260000462846924F0F00444EA021223F00A03B1
:102270000B438261036210BC704710B4036A23F001
:10228000100303628469036A24F4704444EA02324E
:1022900023F0A00343EA01138261036210BC70477C
:1022A000836823F0700341F0070119438160704790
:1022B00010B4846824F47F4442EA03230B4323438D
:1022C000836010BC70470268D36843F00103D36099
:1022D0000268136843F0010313600020704790F810
:1022E0003C30012B7DD010B50446012380F83C30F2
:1022F000022380F83D300268936823F47F4323F083
:10230000770393600B68402B57D010D9702B3ED0C9
:102310001FD8502B47D0602B32D1CA68496800685B
:10232000FFF7ABFF60212068FFF7BAFF28E0102B12
:102330004DD008D9202B4FD0302B21D1302100682F
:10234000FFF7AEFF1CE0DBB900210068FFF7A8FF34
:1023500016E0B3F5805F0ED0B3F5005F10D1CB6807
:102360004A6889680068FFF7A3FF2268936843F40E
:102370008043936004E00268936823F0070393604E
:10238000012384F83D30002084F83C0010BDCB6868
:102390004A6889680068FFF78BFF2268936843F0FA
:1023A00077039360ECE7CA6849680068FFF753FF5A
:1023B00050212068FFF774FFE2E7CA6849680068A7
:1023C000FFF749FF40212068FFF76AFFD8E7102197
:1023D0000068FFF765FFD3E720210068FFF760FF83
:1023E000CEE702207047704770477047704710B5BE
:1023F000044603681A6912F0020F11D0DA6812F06D
:10240000020F0DD06FF002021A61012303770368F7
:102410009B6913F0030F70D0FFF7E6FF00232377CB
:1024200023681A6912F0040F12D0DA6812F0040F50
:102430000ED06FF004021A610223237723689B6990
:1024400013F4407F5FD02046FFF7CEFF00232377B1
:1024500023681A6912F0080F12D0DA6812F0080F18
:102460000ED06FF008021A61042323772368DB691A
:1024700013F0030F4ED02046FFF7B6FF002323775B
:1024800023681A6912F0100F12D0DA6812F0100FD8
:102490000ED06FF010021A61082323772368DB69DE
:1024A00013F4407F3DD02046FFF79EFF00232377A3
:1024B00023681A6912F0010F03D0DA6812F0010FD5
:1024C00036D123681A6912F0800F03D0DA6812F04F
:1024D000800F34D123681A6912F0400F03D0DA68F4
:1024E00012F0400F32D123681A6912F0200F03D086
:1024F000DA6812F0200F30D110BDFFF774FF2046CC
:10250000FFF773FF8AE72046FFF76DFF2046FFF7CE
:102510006CFF9BE72046FFF766FF2046FFF765FF4D
:10252000ACE72046FFF75FFF2046FFF75EFFBDE701
:102530006FF001021A61204600F09EFCC1E76FF0C7
:1025400080021A61204600F08CF8C3E76FF0400269
:102550001A612046FFF74AFFC5E76FF020021A61B3
:10256000204600F07DF8C7E703681B4A90420AD076
:10257000B0F1804F07D0A2F59432904203D002F51B
:102580008062904203D123F070034A681343124AD9
:1025900090420AD0B0F1804F07D0A2F59432904219
:1025A00003D002F58062904203D123F44073CA68DD
:1025B000134323F080034A69134303608B68C362AB
:1025C0000B688362044B984202D001234361704739
:1025D0000B690363F9E700BF002C0140A8B110B5F7
:1025E000044690F83D305BB1022384F83D30211D54
:1025F0002068FFF7B9FF012384F83D30002010BDAB
:1026000080F83C3000F016FEEEE70120704790F8AD
:102610003C30012B22D030B4012280F83C20022330
:1026200080F83D300468636823F0700363600468D9
:1026300063680D682B4363600468A36823F080031C
:10264000A3600468A36849680B43A36080F83D2039
:10265000002380F83C30184630BC70470220704799
:102660007047704708B502382C2834D8DFE810F0DE
:102670002D0034003B00420048003300330033009B
:102680004E0054005A00600066006C007200780032
:102690007E0084008A0090009700330033009E0083
:1026A000A500AC00B300BA00C100C800CF00D6003E
:1026B000DD0033003300E400EB00F200F800FE0020
:1026C00004010A013300100117010A464FF40051BA
:1026D0007648FEF76FFF08BD0A464FF48041734805
:1026E000FEF768FFF7E70A464FF400416F48FEF730
:1026F00061FFF0E70A4601216D48FEF75BFFEAE75C
:102700000A4602216A48FEF755FFE4E70A4601211E
:102710006848FEF74FFFDEE70A4602216548FEF7EC
:1027200049FFD8E70A4604216248FEF743FFD2E793
:102730000A4608215F48FEF73DFFCCE70A46102114
:102740005C48FEF737FFC6E70A4620215948FEF7E6
:1027500031FFC0E70A4640215648FEF72BFFBAE793
:102760000A4680215348FEF725FFB4E70A460121B7
:102770005148FEF71FFFAEE70A4602214E48FEF71A
:1027800019FFA8E70A4604214B48FEF713FFA2E70A
:102790000A464FF480614848FEF70CFF9BE70A4663
:1027A0004FF400614448FEF705FF94E70A464FF4F2
:1027B00080514148FEF7FEFE8DE70A464FF4005176
:1027C0003D48FEF7F7FE86E70A464FF480413A4857
:1027D000FEF7F0FE7FE70A464FF400413648FEF769
:1027E000E9FE78E70A464FF480713248FEF7E2FED0
:1027F00071E70A464FF400712E48FEF7DBFE6AE7E8
:102800000A464FF480612B48FEF7D4FE63E70A4680
:102810004FF400612748FEF7CDFE5CE70A464FF40F
:1028200080512448FEF7C6FE55E70A464FF4005192
:102830002048FEF7BFFE4EE70A464FF480411D4890
:10284000FEF7B8FE47E70A464FF400411948FEF785
:10285000B1FE40E70A4608211748FEF7ABFE3AE70B
:102860000A4610211448FEF7A5FE34E70A46202147
:102870001148FEF79FFE2EE70A4640210E48FEF75C
:1028800099FE28E70A4680210B48FEF793FE22E7CF
:102890000A464FF480710848FEF78CFE1BE70A4693
:1028A0004FF400710448FEF785FE14E70010014064
:1028B0000014014000080140000C014070B582B0D6
:1028C00006460D460D4C2068FFF784FC8DF8046029
:1028D0008DF805500A4D00212878FFF7C3FE3223FA
:1028E000022201A92068FFF786FA01212878FFF764
:1028F000B9FE2068FFF769FA02B070BDB40000208D
:10290000B800002030B585B060F03F008DF80F00B2
:102910000D4C00212078FFF7A5FE0C4B186801250F
:102920000095032303AA0DF10F01FFF737FB29469A
:102930002078FFF797FE9DF80E301B021BB29DF822
:102940000D00184305B030BDB8000020B4000020D1
:1029500010B504462D20FFF7D5FF20F0080149B23D
:102960002143C9B22D20FFF7A9FF10BD00000000D0
:1029700038B505463120FFF7C5FF20F0030044B20B
:102980002846FDF727FD00F05BFD09A3D3E90023EE
:10299000FDF7C4FE0022084BFDF7DEFBFEF744F80E
:1029A00040B244EA0001C9B23120FFF787FF38BDC9
:1029B000EF39FAFE422EE63F0000F03F0000000033
:1029C00038B505462C20FFF79DFF00F0100044B2FB
:1029D0002846FDF7FFFC00220D4BFDF79FFE00F09F
:1029E0002FFD09A3D3E90023FDF798FE0022094B30
:1029F000FDF7B4FBFEF718F840B244EA0001C9B293
:102A00002C20FFF75BFF38BDEF39FAFE422EE63F80
:102A1000000019400000184010B50C460A4B186021
:102A20000A4B19607F212F20FFF748FF00212E203D
:102A3000FFF744FF00213820FFF740FF0121E0B2FB
:102A4000FFF710FE10BD00BFB4000020B80000204A
:102A500070B584B004461A4D2868FFF7BBFBF2231B
:102A60008DF80F30174E00213078FFF7FBFD4FF443
:102A7000FA730093072302AA0DF10F012868FFF7EC
:102A80008DFA01213078FFF7EDFD9DF80A209DF8C1
:102A9000093043EA022323809DF80C209DF80B3077
:102AA00043EA022363809DF80E209DF80D3043EA2F
:102AB0000223A3802868FFF788F9204604B070BD80
:102AC000B4000020B80000202DE9F04389B00024B4
:102AD00004940594069407944B4B9A6942F01002B3
:102AE0009A619A6902F010020092009A9A6942F083
:102AF00020029A619A6902F020020192019A9A6971
:102B000042F004029A619A6902F004020292029A67
:102B10009A6942F008029A619B6903F008030393E3
:102B2000039B3A4E01224FF400513046FEF742FD1E
:102B3000374D22464FF404712846FEF73BFD354FD2
:102B400022464FF480513846FEF734FD4FF40053CF
:102B500004931123059306944FF00208CDF81C80CE
:102B600004A93046FEF7CCFB08230493DFF8AC90B1
:102B7000CDF81490069404A92846FEF7C1FB4FF443
:102B800004730493012605960694CDF81C8004A9CD
:102B90002846FEF7B5FB0496CDF81490069404A9D8
:102BA0003846FEF7ADFB4FF4805304930596069428
:102BB000CDF81C8004A93846FEF7A2FB4FF48073C1
:102BC0000493154B0593069604A92846FEF798FB37
:102BD000224621460620FEF715FA0620FEF746FAA1
:102BE000224621460920FEF70DFA0920FEF73EFA9B
:102BF000224621461720FEF705FA1720FEF736FA7F
:102C000009B0BDE8F08300BF001002400010014091
:102C100000080140000C01400000211000001110CC
:102C200000B583B00A4B5A6942F001025A615B69F0
:102C300003F001030193019B002211460B20FEF7D4
:102C4000E1F90B20FEF712FA03B05DF804FB00BFB8
:102C50000010024030B585B0002301930293039326
:102C60000C4C0D4A2260A360E36063614FF4602264
:102C7000E2616360012525612046FEF729F90923F9
:102C8000019302950623039301A92046FDF786FFD1
:102C900005B030BD740100200024014008B50C4887
:102CA0000C4B03604FF48273436000238360C36066
:102CB000036143614FF4007282611822C2610362B2
:102CC000436283620A23C362FFF784FA08BD00BF30
:102CD000440200200030014008B50C480C4B036052
:102CE0004FF48273436000238360C36003614361D8
:102CF0004FF4007282610822C26103624362836200
:102D00000A23C362FFF766FA08BD00BFC0000020B7
:102D10000038004030B587B0002402940394049436
:102D20000594009401940D4D0D4B2B606C60AC60CC
:102D3000EC602C61AC612846FFF750FC4FF48053E7
:102D4000029302A92846FFF7CAFA00940194694643
:102D50002846FFF75CFC07B030BD00BF2C01002007
:102D60000004004030B587B000240294039404941A
:102D70000594009401940F4D0F4B2B602C236B6036
:102D8000AC604FF4FA73EB602C616C618023AB6133
:102D90002846FFF723FC4FF48053029302A92846EC
:102DA000FFF79DFA0094019469462846FFF72FFC2F
:102DB00007B030BD04020020002C014030B587B0C0
:102DC00000240294039404940594009401940F4DFC
:102DD0004FF080432B6040F2F3136B60AC6048F619
:102DE000A043EB602C61AC612846FFF7F7FB4FF482
:102DF0008053029302A92846FFF771FA00940194C8
:102E000069462846FFF703FC07B030BD9C0200204E
:102E100030B595B000240C940D940F941094059443
:102E200006940794089409940194029403940494DA
:102E300001220A924FF480330B930E9202251195D2
:102E400012934FF4E01313930AA8FEF7E1FB0F234C
:102E50000593069507944FF48063089309942946D7
:102E600005A8FEF7FBFD01954FF40043039301A86D
:102E7000FEF7C2FE15B030BD10B582B00D4B9842C2
:102E800004D00D4B98420FD002B010BD0B4C6846D9
:102E9000FFF7DEFD009B2360BDF80430A380084AE5
:102EA000136801331360EFE74FF400510548FEF754
:102EB00087FBE9E7040200209C0200206C0100204F
:102EC0009400002000100140B0F5807F00D07047D2
:102ED000014B01221A71FAE79400002010B5044654
:102EE00001600068800000F027FD60600023A3609F
:102EF0004FF0FF32E260236110BD034641688268F3
:102F0000501C986051F8220099681A68914203D0C9
:102F10001A69013A1A61704700229A60F8E70000C6
:102F200010B5FDF7C5FDFFF773FFFFF7CDFDFFF708
:102F300077FEFFF78FFEFFF7B1FEFFF7CDFEFFF73D
:102F4000E9FEFFF70FFFFFF739FF002208212F48A6
:102F5000FEF730FB2E4C01224FF400512046FEF7C5
:102F600029FB6420FDF7C8FD4FF400512046FEF711
:102F700027FB6420FDF7C0FD4FF400512046FEF70B
:102F80001FFB6420FDF7B8FD4FF400512046FEF70B
:102F900017FB6420FDF7B0FD4FF400512046FEF70B
:102FA0000FFB6420FDF7A8FD00224FF400512046DE
:102FB000FEF700FB64211748FFF790FF0122164936
:102FC0001648FDF7C7FE0E211548FFF725FD102016
:102FD000FFF7CEFC4FF44860FFF7F2FC0120FFF74B
:102FE000B7FC1048FFF76FF90F4B1B68B3F5486F3C
:102FF000FAD14FF400510648FEF7E2FA0548FFF710
:103000007CFF094B00221A60EEE700BF000C014074
:103010000010014018010020DC0200207401002093
:1030200044020020040200209400002070470000A9
:1030300082B00E4B9A6942F001029A619A6902F0DD
:1030400001020092009ADA6942F08052DA61DB698B
:1030500003F080530193019B054A536823F0E0631A
:1030600043F00073536002B0704700BF001002408D
:103070000000014010B586B000230293039304932F
:10308000059302681D4B9A4201D006B010BD04465C
:1030900003F56C439A6942F400729A619A6902F4EA
:1030A00000720092009A9A6942F008029A619B6944
:1030B00003F008030193019B02230293032303936C
:1030C00002A90F48FEF71CF90E480F4B03600023BE
:1030D000436083608022C2604FF4807202614FF4CB
:1030E000806242618361C361FDF7F8FF18B9054B47
:1030F00023625C62C9E7FFF799FFF8E7002401400B
:10310000000C0140C00100200800024010B588B04A
:103110000023049305930693079303682C4A934274
:1031200004D02C4A934229D008B010BD2A4B9A698A
:1031300042F480529A619A6902F480520092009A95
:103140009A6942F004029A619B6903F004030193B7
:10315000019BA023049302230593032307931F4C91
:1031600004A92046FEF7CCF84023049300230593DE
:10317000069304A92046FEF7C3F8D5E7164BDA6993
:1031800042F48042DA61DA6902F480420292029AE1
:103190009A6942F008029A619B6903F0080303935D
:1031A000039B4FF4204304930223059303230793C7
:1031B0000B4C04A92046FEF7A3F84FF48043049378
:1031C00000230593069304A92046FEF799F8ABE780
:1031D000003001400038004000100240000801406B
:1031E000000C014008B503680E4A934203D00E4A12
:1031F00093420BD008BD02F56042936923F48053DB
:103200009361E0210948FEF765F9F3E702F5EC3236
:10321000D36923F48043D3614FF460410448FEF73F
:1032200059F9E7E70030014000380040000801404C
:10323000000C014000B585B00368274A934208D0CE
:10324000B3F1804F28D0254A934239D005B05DF8BC
:1032500004FB234B9A6942F400629A619B6903F470
:1032600000630193019B002211461920FDF7CAFE5D
:103270001920FDF7FBFE002211461A20FDF7C2FEC1
:103280001A20FDF7F3FE002211461B20FDF7BAFEBF
:103290001B20FDF7EBFED9E703F50433DA6942F0B2
:1032A0000102DA61DB6903F001030293029B002251
:1032B00011461C20FDF7A6FE1C20FDF7D7FEC5E732
:1032C000074BDA6942F00202DA61DB6903F00203BC
:1032D0000393039BBAE700BF002C014000040040A9
:1032E000001002407047FEE7FEE7FEE7FEE770478A
:1032F0007047704708B5FDF7EDFB08BD08B5012024
:10330000FEF762F908BD08B50820FEF75DF908BDB3
:1033100008B50248FDF752FF08BD00BFC0010020FC
:1033200008B54FF48070FEF74FF908BD08B50248A4
:10333000FFF75DF808BD00BF0402002008B5024891
:10334000FFF755F808BD00BF0402002008B5024889
:10335000FFF74DF808BD00BF0402002008B5024881
:10336000FFF745F808BD00BF9C02002008B50346E2
:103370000B4A126842B10A4A106803446A469342F3
:1033800006D8074A136008BD054A06491160F2E7EE
:1033900000F0A8FA0C2303604FF0FF30F3E700BF02
:1033A0009C000020E80200200F4B1A6842F0010246
:1033B0001A6059680D4A0A405A601A6822F08472ED
:1033C00022F480321A601A6822F480221A605A6845
:1033D00022F4FE025A604FF41F029A60044B4FF031
:1033E00000629A60704700BF001002400000FFF8C2
:1033F00000ED00E0002103E00B4B5B58435004312B
:103400000A480B4B42189A42F6D30A4A02E00023BC
:1034100042F8043B084B9A42F9D3FFF7C5FF00F08E
:1034200067FAFFF77DFD7047743A0008000000203E
:103430007400002078000020E4020020FEE7000075
:103440002DE9F0438BB004460D4600F079F8364B79
:10345000804693F900608946731C0DD022462B46A6
:1034600020462946FDF7CAFA30B90022002320463B
:103470002946FDF7B9FA20B1404649460BB0BDE8F0
:10348000F0832A4B0890CDE90245CDE9044501932C
:10349000DEB94FF06046264F204629460022002321
:1034A000CDE90667FDF778FA002835D002230093AE
:1034B000684600F00FFAB8B1089BD3B9DDE9068978
:1034C000404649460BB0BDE8F0830022194B204628
:1034D000CDE90623294600220023FDF75DFA68B1F5
:1034E00002239E420093E3D100F0FCF92223036003
:1034F000E2E700F0F7F9089B0360DFE70123022E03
:1035000000930BD100F0EEF9212303600A4800F08C
:10351000E3F9CDE90601CFE701230093684600F007
:10352000D9F90028F2D1EDE70C000020643A000838
:10353000FFFFEFC70000F0FF683A0008000000003E
:103540002DE9F04FB1F5801F85B006460F460B46BA
:1035500080F2D180024621F00044224300F0DA805C
:103560000029C0F2E9800022D54BFCF7ADFF0B46E5
:10357000D44A064693420F466FF0350E00F3C180E1
:10358000C3F3130505F5152C0CF6647C0CF4801CB4
:103590008CF07F5282F440121C1542EA0507A4F217
:1035A000FF3474440022C84B3046394604EB1C54A7
:1035B000FCF7D2FDAB1CC3F31303022B82468B46F0
:1035C0004FF0000240F3AF804FF08043FCF7C6FDA0
:1035D00002460B4650465946FDF7A0F806462046DF
:1035E0000F46FCF707FF3246CDE902013B46304665
:1035F0003946CDE90067FCF767FF02460B46804677
:103600008946FCF761FF9AA3D3E9002306460F46DB
:10361000FCF75AFF98A3D3E90023FCF79FFD32463D
:103620003B46FCF751FF96A3D3E90023FCF796FD38
:1036300032463B46FCF748FF93A3D3E90023FCF74F
:103640008DFD42464B46FCF73FFF91A3D3E9002393
:103650008046894630463946FCF736FF8EA3D3E9CB
:103660000023FCF77BFD32463B46FCF72DFF8CA385
:10367000D3E90023FCF772FD32463B46FCF724FFFA
:103680000B46024649464046FCF768FDA5F5C223B5
:10369000C5F5D725A3F27A4351351D43002D0646C3
:1036A0000F4640F387800022884B50465946FCF76E
:1036B0000BFF52465B46FCF707FF02460B4680466F
:1036C000894630463946FCF749FDDDE90023FCF721
:1036D000FBFE06460F46002C40F0818002460B465A
:1036E00040464946FCF738FD02460B4650465946CF
:1036F000FCF732FD0BE0734A4FF0000E93427FF768
:103700003FAF32463B4630463946FCF727FD05B011
:10371000BDE8F08F0022002300206D49FCF7FEFF7A
:1037200005B0BDE8F08F0023FDF736F960B1002C3D
:103730007CD100200021EAE70246FCF70DFD0022C3
:103740000023FCF7EBFFE2E757A3D3E90023504641
:103750005946FCF7B9FE02460B4600205B49FCF7D0
:10376000FBFC524606460F465B4650465946FCF760
:10377000ABFE02460B4630463946FCF7A5FE064630
:103780000F462CB32046FCF735FE49A3D3E90023AE
:1037900080468946FCF798FE47A3D3E900230446F8
:1037A0000D4640464946FCF78FFE02460B46304622
:1037B00039462CE002460B4650465946FCF7CCFCF5
:1037C000DDE90023FCF780FE06460F46002C47D1BA
:1037D00032463B4650465946FCF7BEFC97E734A3B9
:1037E000D3E90023DDE90201FCF76EFE32A3D3E941
:1037F000002304460D46DDE90201FCF765FE324672
:103800003B46FCF7ABFC02460B4640464946FCF7FC
:10381000A3FC52465B46FCF79FFC02460B46204643
:103820002946FCF799FC05B0BDE8F08F2046FCF76F
:10383000E1FD1FA3D3E9002306460F46FCF744FE33
:103840001DA3D3E9002304460D4630463946FCF754
:103850003BFE02460B4620462946FCF77FFC56E716
:10386000DDE9028912A3D3E900234046494691E7E6
:1038700044523EDF12F1C23FDE03CB966446C73F9F
:10388000599322942449D23F935555555555E53FB8
:103890009FC678D0099AC33FAF788E1DC571CC3FC3
:1038A00004FA97999999D93F555555555555D53F8E
:1038B0000000E0FE422EE63F763C7935EF39EA3DE6
:1038C00000005043FFFFEF7F0000F03F0000E03FAB
:1038D000000050C30020704700200149704700BF1E
:1038E0000000F87F014B1868704700BF10000020EF
:1038F00070B500250C4E0D4CA41BA410A54209D197
:1039000000F08EF800250A4E0A4CA41BA410A54214
:1039100005D170BD56F8253098470135EEE756F8C9
:10392000253098470135F2E76C3A00086C3A0008F8
:103930006C3A0008703A0008024B0146186800F023
:1039400003B800BF1000002070B5CD1C25F00305A2
:1039500008350C2D38BF0C25002D064601DBA94289
:1039600003D90C233360002070BD00F057F8214AC2
:103970001468214691B9204C23681BB9304600F0E9
:103980003DF820602946304600F038F8431C24D129
:103990000C233046336000F042F8E4E70B685B1B11
:1039A00018D40B2B0FD90B60CC18CD50304600F03B
:1039B00036F804F10B00231D20F00700C31AD3D002
:1039C0005A42E250D0E74B688C4216BF63601360E6
:1039D0000C46EBE70C464968CCE7C41C24F0030412
:1039E000A04205D0211A304600F008F80130CFD0AF
:1039F0002560DBE7A4000020A800002038B50023E4
:103A0000054C054608462360FFF7B0FC431C02D175
:103A1000236803B12B6038BDE00200207047704777
:103A2000F8B500BFF8BC08BC9E467047F8B500BFAB
:083A3000F8BC08BC9E4670477B
:103A380002030405060708090A0B0C0D0E0F1010E7
:103A48000102000000000000000000000102030461
:103A58000607080900000000010203046C6F6700F4
:043A6800000000005A
:043A6C003501000818
:043A70001101000838
:103A7400010000001000000000A24A040100000040
:103A840014000020000000000000000000000000FE
:103A94000000000000000000000000000000000022
:103AA4000000000000000000000000000000000012
:103AB4000000000000000000000000000000000002
:103AC40000000000000000000000000000000000F2
:103AD40000000000000000000000000000000000E2
:043AE40000000000DE
:04000005080033F5C7
:00000001FF
