:020000040800F2
:1000000000500020D12A0008D5290008D92900086D
:10001000DD290008E1290008E529000800000000AA
:10002000000000000000000000000000E9290008B6
:10003000ED29000800000000F1290008F52900085A
:10004000192B0008192B0008192B0008192B000880
:10005000192B0008192B0008192B0008192B000870
:10006000192B0008192B0008192B0008F929000882
:10007000192B0008192B0008192B0008192B000850
:10008000192B0008192B0008052A0008192B000855
:10009000192B0008192B0008192B0008192B000830
:1000A000192B0008212A0008192B0008192B000819
:1000B0002D2A0008192B0008392A0008192B0008DE
:1000C000192B0008192B0008192B0008192B000800
:1000D000192B0008192B0008192B0008192B0008F0
:1000E000192B0008192B0008192B0008000000002C
:1000F0000000000000000000000000000000000000
:0C01000000000000000000005FF808F1A3
:1001100010B5054C237833B9044B13B10448AFF341
:1001200000800123237010BDDC01002000000000CE
:10013000B045000808B5034B1BB103490348AFF3B2
:10014000008008BD00000000E0010020B04500086C
:10015000034613F8012B002AFBD1181A0138704707
:1001600081F0004102E000BF83F0004330B54FEA68
:1001700041044FEA430594EA050F08BF90EA020FD5
:100180001FBF54EA000C55EA020C7FEA645C7FEA68
:10019000655C00F0E2804FEA5454D4EB5555B8BF8B
:1001A0006D420CDD2C4480EA020281EA030382EAFC
:1001B000000083EA010180EA020281EA0303362D8E
:1001C00088BF30BD11F0004F4FEA01314FF4801C61
:1001D0004CEA113102D0404261EB410113F0004F73
:1001E0004FEA03334CEA133302D0524263EB43032A
:1001F00094EA050F00F0A780A4F10104D5F1200EC8
:100200000DDB02FA0EFC22FA05F2801841F1000122
:1002100003FA0EF2801843FA05F359410EE0A5F1F6
:1002200020050EF1200E012A03FA0EFC28BF4CF027
:10023000020C43FA05F3C01851EBE37101F00045DD
:1002400007D54FF0000EDCF1000C7EEB00006EEBEA
:100250000101B1F5801F1BD3B1F5001F0CD3490874
:100260005FEA30004FEA3C0C04F101044FEA4452CB
:1002700012F5800F80F09A80BCF1004F08BF5FEA52
:10028000500C50F1000041EB045141EA050130BD32
:100290005FEA4C0C404141EB010111F4801FA4F1D5
:1002A0000104E9D191F0000F04BF01460020B1FA2A
:1002B00081F308BF2033A3F10B03B3F120020CDA62
:1002C0000C3208DD02F1140CC2F10C0201FA0CF040
:1002D00021FA02F10CE002F11402D8BFC2F1200CA5
:1002E00001FA02F120FA0CFCDCBF41EA0C0190405B
:1002F000E41AA2BF01EB0451294330BD6FEA0404A4
:100300001F3C1CDA0C340EDC04F11404C4F120028E
:1003100020FA04F001FA02F340EA030021FA04F3A0
:1003200045EA030130BDC4F10C04C4F1200220FAF7
:1003300002F001FA04F340EA0300294630BD21FA35
:1003400004F0294630BD94F0000F83F4801306BFFB
:1003500081F480110134013D4EE77FEA645C18BFEF
:100360007FEA655C29D094EA050F08BF90EA020F86
:1003700005D054EA000C04BF1946104630BD91EA7E
:10038000030F1EBF0021002030BD5FEA545C05D181
:100390004000494128BF41F0004130BD14F58004C0
:1003A0003CBF01F5801130BD01F0004545F0FE4134
:1003B00041F470014FF0000030BD7FEA645C1ABF69
:1003C000194610467FEA655C1CBF0B46024650EAA0
:1003D000013406BF52EA033591EA030F41F40021CC
:1003E00030BD00BF90F0000F04BF0021704730B552
:1003F0004FF4806404F132044FF000054FF0000127
:1004000050E700BF90F0000F04BF0021704730B5E7
:100410004FF4806404F1320410F0004548BF4042BC
:100420004FF000013EE700BF42004FEAE2014FEA11
:1004300031014FEA02701FBF12F07F4393F07F4FEC
:1004400081F06051704732F07F4208BF704793F0EF
:100450007F4F04BF41F40021704730B54FF4607402
:1004600001F0004521F000411CE700BF50EA010205
:1004700008BF704730B54FF000050AE050EA0102AE
:1004800008BF704730B511F0004502D5404261EB1E
:1004900041014FF4806404F132045FEA915C3FF45F
:1004A000D8AE4FF003025FEADC0C18BF03325FEAFC
:1004B000DC0C18BF033202EBDC02C2F1200300FAAD
:1004C00003FC20FA02F001FA03FE40EA0E0021FAD2
:1004D00002F11444BDE600BF70B54FF0FF0C4CF4C0
:1004E000E06C1CEA11541DBF1CEA135594EA0C0F72
:1004F00095EA0C0F00F0DEF82C4481EA030621EAAD
:100500004C5123EA4C5350EA013518BF52EA0335E7
:1005100041F4801143F4801338D0A0FB02CE4FF099
:100520000005E1FB02E506F00042E0FB03E54FF0C9
:100530000006E1FB03569CF0000F18BF4EF0010EC1
:10054000A4F1FF04B6F5007F64F5407404D25FEABD
:100550004E0E6D4146EB060642EAC62141EA555170
:100560004FEAC52040EA5E504FEACE2EB4F1FD0CB2
:1005700088BFBCF5E06F1ED8BEF1004F08BF5FEA30
:10058000500E50F1000041EB045170BD06F00046E2
:1005900046EA010140EA020081EA0301B4EB5C048F
:1005A000C2BFD4EB0C0541EA045170BD41F4801187
:1005B0004FF0000E013C00F3AB8014F1360FDEBFAC
:1005C000002001F0004170BDC4F10004203C35DA88
:1005D0000C341BDC04F11404C4F1200500FA05F30B
:1005E00020FA04F001FA05F240EA020001F00042AC
:1005F00021F0004110EBD37021FA04F642EB060122
:100600005EEA430E08BF20EAD37070BDC4F10C044B
:10061000C4F1200500FA04F320FA05F001FA04F20F
:1006200040EA020001F0004110EBD37041F10001FB
:100630005EEA430E08BF20EAD37070BDC4F1200506
:1006400000FA05F24EEA020E20FA04F301FA05F26E
:1006500043EA020321FA04F001F0004121FA04F216
:1006600020EA020000EBD3705EEA430E08BF20EAE6
:10067000D37070BD94F0000F0FD101F00046400020
:1006800041EB010111F4801F08BF013CF7D041EAA2
:10069000060195F0000F18BF704703F000465200A6
:1006A00043EB030313F4801F08BF013DF7D043EA77
:1006B0000603704794EA0C0F0CEA135518BF95EA2D
:1006C0000C0F0CD050EA410618BF52EA4306D1D1B4
:1006D00081EA030101F000414FF0000070BD50EAD3
:1006E000410606BF1046194652EA430619D094EA5D
:1006F0000C0F02D150EA013613D195EA0C0F05D147
:1007000052EA03361CBF104619460AD181EA03019A
:1007100001F0004141F0FE4141F470014FF0000052
:1007200070BD41F0FE4141F4780170BD70B54FF0ED
:10073000FF0C4CF4E06C1CEA11541DBF1CEA13556D
:1007400094EA0C0F95EA0C0F00F0A7F8A4EB05044F
:1007500081EA030E52EA03354FEA013100F0888046
:100760004FEA03334FF0805545EA131343EA12630F
:100770004FEA022245EA111545EA10654FEA0026C4
:100780000EF000419D4208BF964244F1FD0404F57D
:10079000407402D25B084FEA3202B61A65EB0305D9
:1007A0005B084FEA32024FF480104FF4002CB6EB96
:1007B000020E75EB030E22BFB61A754640EA0C0016
:1007C0005B084FEA3202B6EB020E75EB030E22BF56
:1007D000B61A754640EA5C005B084FEA3202B6EB97
:1007E000020E75EB030E22BFB61A754640EA9C0056
:1007F0005B084FEA3202B6EB020E75EB030E22BF26
:10080000B61A754640EADC0055EA060E18D04FEAE3
:10081000051545EA16754FEA06164FEAC30343EA83
:1008200052734FEAC2025FEA1C1CC0D111F4801F50
:100830000BD141EA00014FF000004FF0004CB6E749
:1008400011F4801F04BF01430020B4F1FD0C88BFE8
:10085000BCF5E06F3FF6AFAEB5EB030C04BFB6EBF3
:10086000020C5FEA500C50F1000041EB045170BDE6
:100870000EF0004E4EEA113114EB5C04C2BFD4EB13
:100880000C0541EA045170BD41F480114FF0000E97
:10089000013C90E645EA060E8DE60CEA135594EA13
:1008A0000C0F08BF95EA0C0F3FF43BAF94EA0C0F16
:1008B0000AD150EA01347FF434AF95EA0C0F7FF48B
:1008C00025AF104619462CE795EA0C0F06D152EADF
:1008D00003353FF4FDAE1046194622E750EA4106C3
:1008E00018BF52EA43067FF4C5AE50EA41047FF4D4
:1008F0000DAF52EA43057FF4EBAE12E74FF0FF3C39
:1009000006E000BF4FF0010C02E000BF4FF0010C09
:100910004DF804CD4FEA410C7FEA6C5C4FEA430C82
:1009200018BF7FEA6C5C1BD001B050EA410C0CBFD1
:1009300052EA430C91EA030F02BF90EA020F002033
:10094000704710F1000F91EA030F58BF994208BF9A
:1009500090422CBFD8176FEAE37040F00100704757
:100960004FEA410C7FEA6C5C02D150EA013C07D1AE
:100970004FEA430C7FEA6C5CD6D152EA033CD3D0F9
:100980005DF8040B704700BF8446104662468C46F3
:100990001946634600E000BF01B5FFF7B7FF002826
:1009A00048BF10F1000F01BD4DF808EDFFF7F4FF4F
:1009B0000CBF012000205DF808FB00BF4DF808EDDA
:1009C000FFF7EAFF34BF012000205DF808FB00BFFD
:1009D0004DF808EDFFF7E0FF94BF012000205DF81F
:1009E00008FB00BF4DF808EDFFF7CEFF94BF0120D4
:1009F00000205DF808FB00BF4DF808EDFFF7C4FFCD
:100A000034BF012000205DF808FB00BF4FEA410C15
:100A10007FEA6C5C02D150EA013C0AD14FEA430CF8
:100A20007FEA6C5C02D152EA033C02D14FF0000035
:100A300070474FF0010070474FEA410212F5001273
:100A400015D211D56FF47873B3EB625212D94FEA15
:100A5000C12343F0004343EA505311F0004F23FAFF
:100A600002F018BF404270474FF00000704750EA54
:100A7000013005D111F0004008BF6FF00040704711
:100A80004FF00000704700BF4FF47A7370B50D4D02
:100A90000D4A29781268B3FBF1F30646B2FBF3F076
:100AA00000F0A0FB08B90F2E01D9012070BD04464B
:100AB000024631464FF0FF3000F052FB6E60204698
:100AC00070BD00BF0000002008000020074A08B5E4
:100AD0001368032043F01003136000F02FFB002085
:100AE000FFF7D2FF01F032FE002008BD00200240D7
:100AF000034A044B11681B780B441360704700BF16
:100B00000C02002000000020014B1868704700BF55
:100B10000C02002038B50446FFF7F6FF631C0546BB
:100B200002D0044B1B781C44FFF7EEFF401BA04291
:100B3000FAD338BD00000020436A9A6A12F0500FC1
:100B400002D01B6A1B6B18479A6A196842F400723C
:100B500010B59A628A6802F46022B2F5602F03D061
:100B6000184601F0EBFD10BDDA68002AF8D19A6A48
:100B700022F480729A629A6AD204F1D49A6A42F09C
:100B800001029A62ECE700BF704700BF08B5406AF7
:100B9000FFF7FAFF08BD00BF704700BF036810B53C
:100BA0005A680446900602D51A6891072AD45A68F2
:100BB000100602D51A68510706D45A68520602D5A3
:100BC0001B68DB0733D410BDA26AD20603D4A26A25
:100BD00042F40052A2629A6802F4E042B2F5E04F99
:100BE00034D05A68500505D49A6802F46022B2F5F0
:100BF000602F28D0204600F069FA6FF00C022368BD
:100C00001A60DAE7A26AD20603D4A26A42F400723A
:100C1000A2629A6802F46022B2F5602F26D02046C4
:100C200001F08CFD6FF0120223681A60BFE7A36A1F
:100C3000204643F48033A362FFF7AEFF6FF001025A
:100C400023681A6010BDE268002AD3D15A6822F0E6
:100C500080025A60A36A23F48053A362A36AD90571
:100C6000C8D4A36A43F00103A362C3E7E268002A81
:100C7000D5D15A6822F020025A60A36A23F4807307
:100C8000A362A36ADB04CAD4A36A43F00103A3628C
:100C9000C5E700BF704700BF08B5436A9A6A1846A7
:100CA00042F040029A62DA6A42F00402DA62FFF726
:100CB000F1FF08BD002270B490F8243083B0012BFE
:100CC00001925FD001234D680468062D80F824301E
:100CD0000A6805EB85034FF01F0625D90C2D47D870
:100CE000233B256B9E4025EA060502FA03F32B43BE
:100CF0002363092A8B684FF0070602EB420123D9D0
:100D00001E39E5688E408B4025EA06010B43E360FF
:100D1000A2F11003012B22D90023002280F8242005
:100D2000184603B070BC7047053B656B9E4025EAD2
:100D3000060502FA03F32B43092A63634FF0070603
:100D40008B6802EB4201DBD825698E408B4025EA97
:100D500006010B432361A2F11003012BDCD81A4BCF
:100D60009C4214D0826A012342F020028262D4E7BE
:100D7000413BE56A9E4025EA060502FA03F32B4350
:100D8000E362B6E70223184603B070BC7047A3685D
:100D90001B02C1D4A368102A43F40003A360BBD193
:100DA0000A4B0B4A1B68A2FB03239B0C03EB830338
:100DB0005B000193019B002BAED0019B013B019393
:100DC000019B002BF9D1A7E7002401400800002077
:100DD00083DE1B43002370B5026882B001939368E1
:100DE000DB0721D4184B194C1B689168A4FB034303
:100DF00041F001019B0C91600193019B2BB1019B80
:100E0000013B0193019B002BF9D10546FFF77CFEC6
:100E1000064604E0FFF778FE801B022807D82B68FF
:100E20009C6814F00104F5D0002002B070BD0120D0
:100E3000AB6A85F8244043F01003AB62EB6A0343CE
:100E4000EB6202B070BD00BF0800002083DE1B43D0
:100E500038B503689A68D20701D4002038BD9A6873
:100E6000044622F001029A60FFF74EFE0546236811
:100E70009B68DB07F1D5FFF747FE401B0228F6D938
:100E80000120A36A43F01003A362E36A0343E36211
:100E900038BD00BF002857D0F8B5836A0446002B40
:100EA00045D02046FFF7D4FFA36A13F0100338D1D2
:100EB000002836D1D4E90257A26AE669616822F4B3
:100EC000885222F0020242F002023143B5F5807FDF
:100ED000A26241EA47016669226837D0012D4FD0EE
:100EE000012E52D055683C4B25F4694555600546A6
:100EF000966833400B439360D36A384E23F47003F3
:100F00002B43D36293681E40B14230D00120A36AC4
:100F100023F0120343F01003A362E36A0343E36286
:100F2000F8BDA36A012043F01003A362F8BDC362B9
:100F300080F8243001F02CFC2046FFF789FFA36ADB
:100F400013F01003EDD1B3E701207047012E3FD01D
:100F50005568214B25F4694545F4807555609568C1
:100F60002B400B4393602369013B1D05C4E700231D
:100F7000E362A36A23F0030343F00103A362F8BD15
:100F8000012E08BF4FF48073E2D1D7B1A66A46F0B4
:100F90002006A662E66A46F00106E66257680E4E33
:100FA00027F469473B4353609368B5F5807F06EAB1
:100FB000030646EA01069660D5D0012DD3D0002560
:100FC0009AE7A669013E43EA463343F40063E5E746
:100FD0002B46002FDAD1F4E7FDF7E1FFFE0E1FFFED
:100FE000F0B590F824508DB0012D15D00125324F69
:100FF0000446BE6880F8245006F46026B6F5602FDB
:1010000000970DD00022836A80F8242043F020034B
:10101000836228460DB0F0BD022528460DB0F0BD14
:1010200017460E46FFF7D6FE054618B1002384F892
:101030002430EEE76846FFF7CDFE05460028F5D1DF
:10104000A26A1E4B2168134043F48073A3624B686D
:101050005B0505D5A36A23F4405343F48053A36290
:1010600000236FF00202206ADFF858C0E36284F8C0
:101070002430C0F828C0124BDFF84CC04C31C0E916
:101080000BC341F84C2C51F8442C3B4642F480777A
:1010900041F8447C324600F0F1F82268936803F48A
:1010A0006023B3F5602F93680CBF43F4A00343F4AF
:1010B00080139360ADE700BF00280140FEFCEFFF06
:1010C000990C0008390B00088D0B0008704700BF11
:1010D00090F82420012A2AD0034601201A6883F8B8
:1010E00024009068C00712D41248806810F00100F4
:1010F0000DD130B4104CA24212D001209A6A42F0B5
:1011000020029A62002230BC83F8242070479A6A39
:10111000012042F020029A62002283F824207047C6
:1011200054680D6824F4702129435160EAE70220D5
:10113000704700BF00280140002401404FF6FF0126
:10114000064A0002D36800F4E0600B4043F0BF633E
:1011500043F400330343D360704700BF00ED00E069
:10116000184B30B4DB68C3F30223C3F10705042D29
:1011700003F1040428BF0425062C19D94FF0FF34CD
:10118000033B9C4022EA04044FF0FF32AA4021EACC
:10119000020101FA03F2224312010028D2B20ADB53
:1011A00000F1604000F5614080F8002330BC7047DA
:1011B00000242346E8E7044B00F00F0003441A76AE
:1011C00030BC704700ED00E0FCEC00E0012300F0D3
:1011D0001F01034A40098B4042F82030704700BF8E
:1011E00000E100E00138B0F1807F0DD230B4F0258D
:1011F00000220721054B064C586084F82350104606
:1012000030BC9A60196070470120704710E000E020
:1012100000ED00E050B30246F0B4D0E901360024FE
:1012200001253343D6680068334311491669114FCD
:10123000014433435669A7FB017133439669D7696B
:10124000334306680909890026F47F563B4326F09C
:101250003006116408493343D16303602046946328
:1012600082F8204082F82150F0BC7047012070477E
:10127000F8FFFDBFCDCCCCCC00000240F0B590F81B
:101280002040012C32D0012490F8215080F82040D9
:10129000A54225D100264FF0020E04688663266819
:1012A000076CD0F83CC0BD4026F00106476880F8C6
:1012B00021E02660CCF804506360C36A102F0BBF96
:1012C000A260A160E160E2609BB1236843F00E037D
:1012D000236000232268184642F001022260F0BD1C
:1012E0000022022380F820201846F0BD0223184671
:1012F000F0BD236823F004032360236843F00A034E
:101300002360E6E7042270B4D0E90F613468036813
:101310008A4022421D681FD06A071DD51A689106AF
:1013200003D41A6822F004021A603F4A93425CD048
:101330001432934261D01432934268D014329342F3
:101340006BD0143293425DD0143293420CBF4FF4F1
:1013500080034FF0806349E002228A40224222D07B
:10136000AA0720D51A68910606D401211A6822F02E
:101370000A021A6080F821102B4A93422BD01432B3
:10138000934242D01432934244D01432934236D026
:101390001432934244D0143293420CBF4FF40013E2
:1013A0004FF0007318E008228A4022421BD02A071F
:1013B00019D5012200251C6802FA01F124F00E045F
:1013C0001C60036B7160826380F8212080F82050DC
:1013D0004BB170BC184702230021144C826A636031
:1013E00080F820103AB970BC704704230F49C26AD4
:1013F0004B60002AF7D070BC10474023F6E74FF44B
:101400000053E9E74FF48023F0E72023E4E74FF4AB
:101410008063EBE74FF40073DEE74FF48043E5E7CA
:101420004FF40033D8E700BF08000240000002403C
:101430002DE9F04F4FF0000883B04446DFF8C0C1FB
:10144000694EDFF8C0E102E00134102C78D00123AE
:101450000A68A3401A409342F6D14D68122D00F05D
:101460009C807ED8022D00F0948074D9032D00F06A
:101470008D80112D02D1CB6803F10408FF2A62D8B8
:1014800082460368A5004FF00F0909FA05FB23EA1D
:101490000B0308FA05F52B43CAF80030D1F804A075
:1014A0001AF0805FD0D0514F24F00305BB6905F1DD
:1014B000804543F00103BB61BB6905F5803503F04E
:1014C0000103019304F0030B019B4FEA8B0BAB6804
:1014D00009FA0BF9604523EA09030FD0704560D083
:1014E000434FB84278D0434FB8420CBF4FF0030986
:1014F0004FF0040909FA0BFB43EA0B03AB603368B6
:101500001AF4803F14BF13439343336073681AF493
:10151000003F14BF134393437360B3681AF4801FF2
:1015200014BF13439343B360F3681AF4001F04F12C
:10153000010414BF1A4323EA0202102CF26086D180
:1015400003B0BDE8F08F04F18045083D4368AD006D
:1015500000F1040A97E7A5B1012D8FD1D1F80C80D5
:101560008CE7254FBD420CD029D9244FBD4208D06D
:1015700007F58037BD4204D0DFF88C904D457FF4ED
:101580007DAF8D68A5B94FF0040877E74FF00008EC
:1015900074E7CB6803F1080870E7CB6803F10C0827
:1015A0006CE74FF0010909FA0BFB43EA0B03A5E7CF
:1015B000012D0CBF036143614FF008085EE7DFF8BF
:1015C0004C904D45DDD009F580394D457FF456AF3F
:1015D0008D68002DD7D0EBE74FF0020909FA0BFB1D
:1015E00043EA0B038AE700BF0004014000100240F9
:1015F00000100140001401400000211000003110D3
:1016000000080140000C01400000221000001110F1
:1016100002B9090401617047C3685940C16070474D
:101620002DE9F041036882B0DD07044630D5AB49AF
:101630004A6802F00C02042A00F0DA804A6802F0DC
:101640000C02082A00F0D0806368B3F5803F00F0F8
:101650000F81002B00F02781B3F5A02F00F0B5819A
:101660009E4B1A6822F480321A601A6822F4802293
:101670001A60FFF749FA994D064605E0FFF744FA6C
:10168000801B642800F20B812B689A03F6D523682F
:101690009F0728D5914A516811F00C0F00F0B680D1
:1016A000516801F00C01082900F0AC802369002B7F
:1016B00000F0418101228A4B884D1A60FFF724FA1D
:1016C000064605E0FFF720FA801B022800F2E780BB
:1016D0002B689807F6D52B68626923F0F80343EA74
:1016E000C2032B6023681A0722D5A369002B00F0E0
:1016F000988001227B4B794D1A60FFF705FA064668
:1017000005E0FFF701FA801B022800F2C8806B6A2F
:101710009B07F6D5744B754A1B68A2FB03235B0A33
:10172000019300BF019B5A1E0192002BF9D123683F
:101730005D0739D5694BDA69D00040F18280002518
:101740006B4B1A68D10540F19980E368012B0FD0EB
:10175000002B00F0D180052B604B1A6A00F0FC8052
:1017600022F001021A621A6A22F004021A6204E0EC
:101770005A4A136A43F001031362FFF7C5F9574E43
:10178000804641F2883706E0FFF7BEF9A0EB08007B
:10179000B84200F28480336A9B07F5D525B14F4AE1
:1017A000D36923F08053D361E269CAB14B4D6968B4
:1017B00001F00C01082930D0022A4FF000014D4AF7
:1017C00000F0D2801160FFF79FF92C46054604E037
:1017D000FFF79AF9401B022861D823689B01F7D4D0
:1017E000002002B0BDE8F0814A68D0037FF52CAF3D
:1017F0003A4A126891037FF54BAF6268002A7FF482
:1018000047AF0AE05268D6033FF550AF334A12683B
:10181000950721D52269012A1ED0012002B0BDE81A
:10182000F081304A2D4D1360FFF76EF9064604E053
:10183000FFF76AF9801B022831D86B6A9F07F7D43B
:1018400075E7DA69012542F08052DA61DB6903F05D
:1018500080530093009B73E7204960690A6822F077
:10186000F80242EAC0020A601A077FF561AF3CE75E
:101870001A4A136843F480331360FAE61A681E4666
:1018800042F480721A60FFF73FF907463368DA05C1
:101890003FF55BAFFFF738F9C01B6428F6D903208A
:1018A00002B0BDE8F08103F1804303F504331A6808
:1018B0001D4622F480321A601A6822F480221A60CF
:1018C000FFF722F9064604E0FFF71EF9801B6428A3
:1018D000E5D82B689B03F7D4D9E600BF001002407F
:1018E000000042428004424208000020D34D6210B2
:1018F000007000406000424203F1804303F504336E
:101900001A6A1E4622F001021A621A6A41F28838E7
:1019100022F004021A62FFF7F7F8074604E0FFF727
:10192000F3F8C01B4045BAD8336A9807F7D4002DA6
:101930003FF43AAF33E72B4A2B4D1360FFF7E4F83F
:10194000064604E0FFF7E0F8801B0228A7D82B68C2
:101950009907F7D42368C6E642F004021A621A6AAD
:1019600042F001021A6208E71160FFF7CDF806465F
:1019700004E0FFF7C9F8801B022890D82B68990172
:10198000F7D4226AB2F5803F05D16B68A16823F4D1
:1019900000330B436B600125134B606A59680243A7
:1019A00021F4741111480A435A6005601C46FFF780
:1019B000ABF8054605E0FFF7A7F8401B02283FF605
:1019C0006EAF23689A01F6D50AE703F18043A3F5C9
:1019D0003C331A6842F480221A601A6842F480325A
:1019E0001A6046E600004242001002406000424297
:1019F00040F2012286B0154B0DF1180CADF8042011
:101A00000FCB0CE90F0012494B6803F00C02082AB7
:101A100002D0104806B07047C3F383426244DB0330
:101A200012F8102C04D40C4800FB02F006B07047EA
:101A30004B680848C3F3404300FB02F0634413F8CB
:101A4000143CB0FBF3F006B0704700BFC845000877
:101A50000010024000127A0000093D00544A136849
:101A600003F007038B420BD2136823F007030B43E9
:101A70001360136803F007038B4201D00120704705
:101A800003682DE9F0419D0714D55C0704D5494C46
:101A9000626842F4E06262601A0704D5454C6268ED
:101AA00042F460526260434C8568626822F0F00242
:101AB0002A436260DF0704460E4622D542683D4B4A
:101AC000012A1B686FD0022A6AD0990729D5394D9F
:101AD00041F288386B6823F0030313436B60FFF710
:101AE00013F863680746012B49D0022B05D151E05A
:101AF000FFF70AF8C01B404558D86B6813F00C0F6D
:101B0000F6D12B4A136803F00703B3420CD91368CC
:101B100023F0070333431360136803F00703B34252
:101B200002D00120BDE8F08123685A0706D521497B
:101B3000E0684A6822F4E06202434A601B0707D566
:101B40001C4A2169536823F4605343EAC10353607C
:101B5000FFF74EFF174B18495B68184AC3F303138E
:101B6000CB5C20FA03F300201360FEF78DFF00200A
:101B7000BDE8F081FEF7C8FFC01B404516D86B6872
:101B800003F00C03042BF5D1BBE7FEF7BDFFC01B30
:101B900040450BD86B6803F00C03082BF5D1B0E778
:101BA000980194D4BDE79D0391D4BAE70320B9E727
:101BB0000020024000100240D84500080800002024
:101BC0002DE9F0410446006882B0C5072AD53A4B9A
:101BD000DA69D1003DD5394B00251A68D20546D5C2
:101BE000354960680A6A12F440720FD000F44073FD
:101BF00093420BD0012700260B6A314A23F4407030
:101C0000176016600862D80745D460682A4A136ACC
:101C100023F44073034313621DB1D36923F080534F
:101C2000D3612068830706D5234AA168536823F44B
:101C300040430B43536010F0100007D000201E4AB1
:101C4000E168536823F480030B43536002B0BDE89E
:101C5000F081DA69012542F08052DA61DB6903F034
:101C600080530193019B154B1A68D205B8D41A68AA
:101C70001E4642F480721A60FEF746FF074633683C
:101C8000DB05ADD4FEF740FFC01B6428F7D9032065
:101C900002B0BDE8F0810E46FEF736FF41F288370C
:101CA0008046336A9A07B0D4FEF72EFFA0EB0800F7
:101CB000B842F6D9EBE700BF0010024000700040C8
:101CC00040044242002839D0F8B5002390F8512052
:101CD0000446836272B31A46D4E901360227002112
:101CE0000125E06833432669034360693343E669AD
:101CF00003433343206AA66984F85170034327687D
:101D000006F40070034313433A68606A22F040020D
:101D1000360C3A6006F004063B60E36A06437E60D8
:101D20003B61FB69084623F40063FB61616584F84D
:101D30005150F8BD00F0ACFDA26ACDE7012070471C
:101D4000026AF0B422F001028D680262036A4768F9
:101D500023F0020382692B430D4D0C6822F07302BD
:101D6000A84242EA040206D0496847608261F0BC9A
:101D7000416303627047CE6823F00803D1E905454B
:101D800027F4407733432C4323F004032743EBE746
:101D9000002C0140026AF0B422F480728D68026265
:101DA000036A476823F40073C26943EA05230F4DB1
:101DB0000C6822F07302A84242EA040206D0496885
:101DC0004760C261F0BCC16303627047CE6823F410
:101DD0000063D1E9054527F4405743EA06232C4325
:101DE00023F4806347EA0417E9E700BF002C0140B1
:101DF000026A70B422F480528E680262036A4568F7
:101E000023F40053C26943EA06330A4E0C6822F4F5
:101E1000E642B04242EA042204D14C6925F48045EE
:101E200045EA841549684560C26170BC016403627B
:101E3000704700BF002C0140704700BF90F83C3055
:101E4000012B67D00222F0B40125036880F83D2001
:101E50009A680C6822F47F4222F07702402C80F8C6
:101E60003C509A6000F0938018D9702C7FD02BD909
:101E7000B4F5805F76D0B4F5005F1CD1D1E9015292
:101E8000CC6899682A4342EA042221F47F410A433C
:101E90009A609A6842F480429A600CE0102C42D01A
:101EA0002FD9202C38D0302C05D19A6822F070021E
:101EB00042F037029A600023F0BC012280F83C30E7
:101EC00080F83D2018467047502C33D0602CF2D15A
:101ED0001C6A4D6824F01004CE681C6299691A6A65
:101EE00021F4704122F0A00242EA051241EA0631D3
:101EF00099611A629A6822F0700242F067029A6051
:101F0000D9E7002CD7D19A6822F0700242F007027C
:101F10009A60D0E7022070479A6822F0700242F07F
:101F200027029A60C7E79A6822F0700242F017020F
:101F30009A60C0E71D6A1E6A4C6826F00106CF68E9
:101F40001E629A6925F00A0122F0F00242EA0712A5
:101F500021439A6119629A6822F0700242F0570296
:101F60009A60A8E79A6822F007029A60A3E7D1E98D
:101F70000152CC6899682A4342EA042221F47F4145
:101F80000A439A609A6842F077029A6093E71D6A62
:101F90001E6A4C6826F00106CF681E629A6925F019
:101FA0000A0122F0F00242EA071221439A61196203
:101FB0009A6822F0700242F047029A607BE700BF05
:101FC000704700BF704700BF704700BF704700BF39
:101FD000704700BF036810B51A690446910702D51F
:101FE000DA6892075FD41A69500702D5DA68510798
:101FF00046D41A69120702D5DA6810072ED41A6976
:10200000D20602D5DA68D00618D41A69D10702D5EB
:10201000DA68D2075DD41A69100602D5DA681106AB
:102020005FD41A69520602D5DA68500661D41A697B
:10203000910602D5DA68920643D410BD6FF0100104
:1020400008221961DB69204613F4407F227764D0AF
:10205000FFF7BAFF002223682277D6E76FF0080166
:1020600004221961DB6920469907227752D1FFF7D4
:10207000A9FF2046FFF7AAFF002223682277BEE7C8
:102080006FF00401022219619B69204613F4407F1E
:1020900022773CD1FFF796FF2046FFF797FF0022FB
:1020A00023682277A5E76FF00201012219619B697D
:1020B00002779B0725D0FFF787FF0022236822774E
:1020C00091E76FF020022046BDE810401A6100F051
:1020D00023B96FF0010220461A61FFF771FF2368F0
:1020E00099E76FF0800220461A6100F017F9236823
:1020F00097E76FF0400220461A61FFF769FF2368F7
:1021000095E7FFF75FFF2046FFF760FFD5E7FFF792
:102110005BFFC4E7FFF758FFAEE7FFF753FF20462A
:10212000FFF754FF96E700BF70B41C4E0368B0423F
:102130004D698C680A681DD0B0F1804F11D0A6F5AA
:102140009436B0420DD006F58066B04209D023F037
:1021500080032B4303600123C462826270BC43612D
:1021600070474E6823F070033343C96823F440730B
:102170000B43ECE74E6823F070033343CE6823F43F
:102180004073334323F080032B430360C4628262B5
:102190000B6970BC0363012343617047002C01404D
:1021A000B8B190F83D3010B503F0FF0204465BB1C2
:1021B0000223206884F83D30211DFFF7B5FF01237D
:1021C000002084F83D3010BD80F83C2000F09CFBDE
:1021D000EEE70120704700BFB8B190F83D3010B570
:1021E00003F0FF0204465BB10223206884F83D300F
:1021F000211DFFF799FF0123002084F83D3010BD19
:1022000080F83C20FFF718FEEEE70120704700BF82
:10221000026AF0B422F010028D680262036A476815
:1022200023F02003826943EA05130F4D0C6822F462
:10223000E642A84242EA042206D049684760826129
:10224000F0BC816303627047CE6823F08003D1E95C
:10225000054527F4406743EA06132C4323F0400367
:1022600047EA8407E9E700BF002C014090F83C30C2
:10227000012B28D010B502230446012084F83D30FC
:1022800084F83C000C2A0BD8DFE802F0070A0A0A9F
:10229000150A0A0A190A0A0A11002068FFF750FDF8
:1022A0000123002084F83D3084F83C0010BD2068F4
:1022B000FFF79EFDF4E72068FFF7AAFFF0E720682C
:1022C000FFF768FDECE70220704700BF90F83C3054
:1022D000012B1ED002460220F0B40025012613680F
:1022E00082F83D005C680F6824F070045C605868F8
:1022F0004C6838435860986820F08000986099686E
:1023000028462143996082F83D6082F83C50F0BC39
:1023100070470220704700BF704700BF704700BF82
:1023200030B50122002402254FF480334FF4E01130
:1023300095B00AA80A920E920B93129313910C94E3
:10234000059401940D94CDE90F44CDE90644CDE9FF
:102350000844CDE9024404941195FFF761F90F2276
:102360004FF48063294605A805920893CDE90654E9
:102370000994FFF773FB4FF4004301A80195039301
:10238000FFF71EFC15B030BD2DE9F04F00244FF4CF
:1023900080594FF002084FF0010A95B0FEF796FB06
:1023A000FFF7BEFFCDE90D44CDE90F44CC4D2246E9
:1023B000AB69494643F02003AB61AB69C94803F000
:1023C00020030493049BAB694FF4007743F00403AC
:1023D000AB61AB69C44E03F004030593059BAB6985
:1023E000DFF830B343F00803AB61AB6903F00803D7
:1023F0000693069BFFF70CF922464FF4E061BB48B9
:10240000FFF706F90DA9B748CDF840800F94CDE944
:102410000D9AFFF70DF84FF4E0630DA9B348CDF81E
:1024200040800D93CDE90EA4FFF702F86B692246B8
:1024300043EA0A036B616B69214603EA0A030393CB
:102440000B20039BFEF78CFE0B20FEF7BFFE4FF424
:10245000827510210A22A64BDFF8BCC21846C3E9D8
:1024600000C5D961DA62C3E90244C3E90444C3E99F
:1024700008449C629F61FFF725FC4FF42023F36121
:102480004FF480739B4A30463260C6F81080B360C8
:10249000F460746174600994CDE90D440F94FEF703
:1024A000F9FC4FF4C02314AD45F82C3D29463046C5
:1024B000FEF70EFE07230DA93046CDE90D8A0F93D6
:1024C000FEF7F8FB04230DA93046CDF838800D93B4
:1024D000FEF7F0FB40F28A22802342F6F82186487C
:1024E000CBF80C20CBF800005846CBF81830CBF8CE
:1024F00004106C60CBF80840CBE90444CDE90D44EE
:10250000CDE90F440994FFF74BFE0DA95846CDF8CD
:102510003490FFF793FC29465846CDE90944FFF76C
:10252000D5FE4FF0804040F2CF2C80230921734A22
:102530006C6010601046C2F80CC0936151609460EA
:1025400014610192CDE90D44CDE90F440994FFF7E0
:1025500027FE019A0DA91046CDF83490FFF76EFCC6
:10256000019ADFF8B8B129461046CDE90944FFF7D2
:10257000ADFE634A5846CBF800206C60CBE90144BD
:10258000CBE90344CBF81840CDE90D44CDE90F4425
:102590000994FFF705FE0DA95846CDF83490FFF7D2
:1025A0004DFC29465846CDE90944FFF78FFE4FF40C
:1025B00060224FF48073DFF868B152495846CBE986
:1025C0000234CBF81080CBF80010CBF81C20CDE9FA
:1025D0000D440F94CBF81440CBF80440FEF75AFC9E
:1025E000072303220DA958460F930D92CDF838A06A
:1025F000FEF760FB05220DA95846CDE90D28FEF730
:1026000059FB4FF0710C80232522DFF818813E49D9
:102610004046C8F81830C8F80CC0C8E90012C5E92F
:102620000144EC6009940794CDE90D44CDE90F44D1
:10263000CDE911441394C8F80840C8F81040089434
:10264000FFF7AEFD29464046CDF82490FFF7F6FB94
:102650004046FFF7C1FD07A94046CDE90744FFF713
:1026600035FE0C220DA94046CDE90D440F9411947E
:10267000FFF7FCFD4FF47A70FEF74CFA39461B4821
:10268000FEF7CAFFC820FEF745FA39461748FEF79D
:10269000C3FFC820FEF73EFA39461448FEF7BCFFD8
:1026A000C820FEF737FA39461048FEF7B5FFC820B4
:1026B000FEF730FA39460D48FEF7AEFFC820FEF7A8
:1026C00029FA39460948FEF7A7FFC820FEF722FA83
:1026D000304604220D49FEF783FC0D4D034E23E0E6
:1026E00000100240000C01402803002000080140B7
:1026F0001002002000240140002C0140DC030020D7
:10270000000400400028014000080040D8020020DA
:10271000F80100209C03002000380040E80200205F
:10272000A8020020680200202B78002BFCD04FF478
:10273000007130462C70FEF76FFFF5E70122014B68
:102740001A707047F8010020704700BF0E4B82B02E
:102750009A690E4942F001029A619A6902F00102F7
:102760000092009ADA6942F08052DA61DB6903F084
:1027700080530193019B4B6823F0E06343F00073A7
:102780004B6002B0704700BF0010024000000140E3
:10279000F0B500240368384A89B09342CDE9044477
:1027A000CDE9064404D0354A93423FD009B0F0BD8C
:1027B000054614200326324B04A99A69802742F467
:1027C00000729A619A6902F400720092009A9A6902
:1027D00042F004029A619B69049003F004030193A0
:1027E0002848019B0596FEF723FE4FF480714FF4B5
:1027F00080622023244E2548F76030603046C6E9C9
:102800000144F461C6E90412B361FEF703FD08B1A7
:10281000FFF79AFF00222E62114612207562FEF722
:102820009FFC1220FEF7D2FC09B0F0BD2820032542
:10283000134B04A99A6942F480629A619A6902F47E
:1028400080620292029A9A6942F004029A619B693C
:10285000049003F0040303930A48039B0595FEF7D5
:10286000E7FD224621461220FEF77AFC1220FEF7F1
:10287000ADFC09B0F0BD00BF0024014000280140BC
:1028800000100240000801405803002008000240E8
:1028900070B5002402681A4B86B09A42CDE9024412
:1028A000CDE9044401D006B070BD4FF420410226AA
:1028B000032503F5EC33DA69124842F48042DA6109
:1028C000DA6902F480420092009A9A6942F00802A2
:1028D0009A619B69029103F00803019302A9019B8D
:1028E00003960595FEF7A4FD4FF4804302A9054821
:1028F000CDE903440293FEF79BFD06B070BD00BF17
:1029000000380040000C014010B503682D4A84B027
:1029100093422BD0B3F1804F3DD02B4A934219D034
:102920002A4A934201D004B010BD0022284B114620
:10293000DC691E2044F00404DC61DB6903F004035D
:102940000393039BFEF70CFC1E2004B0BDE810406F
:10295000FEF73CBC1E4BDA6942F00202DA61DB6929
:1029600003F002030293029B04B010BD0022184B37
:1029700011469C69192044F400649C619B6903F42E
:1029800000630093009BFEF7EBFB192004B0BDE849
:102990001040FEF71BBC002203F50433DC6911462E
:1029A00044F00104DC61DB691C2003F001030193A6
:1029B000019BFEF7D5FB1C2004B0BDE81040FEF7DC
:1029C00005BC00BF002C014000040040000800408E
:1029D00000100240704700BFFEE700BFFEE700BFE7
:1029E000FEE700BFFEE700BF704700BF704700BFB3
:1029F000704700BFFEF77CB80148FEF783BC00BFFC
:102A00005803002008B50448FEF7C8F8BDE80840A0
:102A10000248FEF7C3B800BF28030020A802002028
:102A20000148FFF7D7BA00BF9C0300200148FFF719
:102A3000D1BA00BFDC0300200148FFF7CBBA00BFCA
:102A4000680200200C4A08B5136833B1694618447F
:102A5000884209D81060184608BD08490B46116025
:102A6000694618448842F5D900F058F80C224FF016
:102A7000FF330260184608BDFC010020200400203E
:102A800030B44FF41F054FF000640E4B0E4A196826
:102A90000E4841F00101196059680A405A601A68ED
:102AA00022F0847222F480321A601A6822F48022A2
:102AB0001A605A6822F4FE025A609D60846030BC3D
:102AC000704700BF001002400000FFF800ED00E07A
:102AD000002103E00B4B5B58435004310A480B4B79
:102AE00042189A42F6D30A4A02E0002342F8043B15
:102AF000084B9A42F9D3FFF7C3FF00F015F8FFF730
:102B000043FC70472048000800000020DC01002042
:102B1000DC01002020040020FEE70000014B1868C3
:102B2000704700BF0C00002070B500250C4E0D4C06
:102B3000A41BA410A54209D101F03AFD00250A4EBC
:102B40000A4CA41BA410A54205D170BD56F825302F
:102B500098470135EEE756F8253098470135F2E7FA
:102B60001848000818480008184800081C480008C1
:102B700003460244934200D1704703F8011BF9E772
:102B8000002B2DE9F0471E46BBBF03F100431E4654
:102B900000232D2388B0149FDDE9121A27F02007A7
:102BA000462F1446109D0B7004D0452F00D10135DF
:102BB000022300E0032307AA049206AACDE902A299
:102BC000CDE900352246334600F0A6FB472F80466C
:102BD00002D1119BDB0726D5462F08EB050911D141
:102BE00098F80030302B0AD10022002320463146CD
:102BF000FDF7DAFE18B9C5F10105CAF80050DAF898
:102C0000003099440022002320463146FDF7CCFED7
:102C100038B93022079B4B4505D2591C07911A70D1
:102C2000F8E7CDF81C904046079B159AA3EB0803E4
:102C3000136008B0BDE8F087F7B50029B4BF2D23B5
:102C40002B230446B8BF4942092904F8022B4370DC
:102C500021DD0DF107031F460A2691FBF6F506FB61
:102C60001511092D01F1300103F8011C03F1FF32A8
:102C7000294609DC3031023B02F8011CBB422246E6
:102C800004D3101A03B0F0BD1346E6E713F8012B86
:102C900004F8012BF2E7302319448370021DC17040
:102CA000EFE700002DE9F04F91B00C461A9F9346D4
:102CB0001E46054601F0E4F8036818460993FDF73F
:102CC00047FA00230E933B680A90073323F007036B
:102CD00003F1080294F81880D4F800A03A60D3E910
:102CE0000023C4E91223D4E9127929F000430B939D
:102CF0004FF0FF32A64B38460B99FDF787FE68BBB5
:102D00004FF0FF32A24B38460B99FDF761FE28BB0E
:102D10000022002338464946FDF750FE10B12D230E
:102D200084F843309B4F9C4BB8F1470F98BF1F4628
:102D300003234FF0000923612AF004032360009667
:102D40005B460FAA2146284600F0E2F9013040F028
:102D500090804FF0FF3011B0BDE8F08F3A464B46FF
:102D600038464946FDF752FE10B18C4F8C4BDBE7DD
:102D700063684AF48062591C0DA80EA940D106234D
:102D800063604FF0000C0DF13303CDE9012363685C
:102D90002260CDE9030800933A464B46CDE9051C75
:102DA0002846FFF7EDFE08F0DF03472B074609D161
:102DB0000D9BD81C02DB6268934247DDA8F1020834
:102DC0005FFA88F8B8F1650F0D9924D801394246A9
:102DD00004F150000D91FFF72FFF0E9A8146131852
:102DE000012A236102DC2268D10701D50133236166
:102DF0009DF83330002BA2D02D2384F843309EE77A
:102E0000B8F1670F00F06E81B8F1470FB9D1002B10
:102E1000B7D10123B4E7B8F1660F19D1002963686F
:102E20000CDD216113B92268D20702D501330B44AE
:102E300023610D9B4FF00009A365D9E713B9226800
:102E4000D00701D50233F3E70123F1E74FF067081C
:102E5000DDE90D32934205DB22682361D107E8D515
:102E60000133E5E7002BCCBF0123C3F10203134478
:102E7000DEE723685A0507D423693A4659462846AF
:102E8000B047013029D164E7B8F1650F40F2D7802F
:102E9000D4E9120100220023FDF786FD88B3012347
:102EA000404A59462846B04701303FF452AFDDE969
:102EB0000D239A4202DB2368D8070ED5DDE90923EA
:102EC00059462846B04701303FF443AF002704F18C
:102ED0001A080E9B013BBB4209DC23689F0700F1E7
:102EE000FD80E0680F9B9842B8BF184633E7012386
:102EF000424659462846B04701303FF42AAF0137D1
:102F0000E7E70D9B002B2BDC0123264A5946284678
:102F1000B04701303FF41DAF0D9B23B90E9B13B991
:102F20002368D907D9D5DDE9092359462846B04792
:102F300001303FF40EAF4FF0000804F11A090D9B69
:102F40005B42434501DC0E9B97E701234A46594605
:102F50002846B04701303FF4FCAE08F10108EEE727
:102F60000E9AA36D9A42A8BF1A46002A904607DD22
:102F7000134659463A462846B04701303FF4E9AE79
:102F800004F11A034FF0000A28EAE8780B9315E0E1
:102F9000FFFFEF7FF4450008F0450008FC450008FE
:102FA000F84500080046000801230B9A59462846B8
:102FB000B04701303FF4CDAE0AF1010AD4F8589081
:102FC000A9EB08035345EFDCDDE90D239A424F449A
:102FD00014DB2368DA0711D40E9B0D99A3EB0902C9
:102FE000A3EB01099145A8BF9146B9F1000F0DDC93
:102FF000002729EAE97904F11A0818E0DDE9092334
:1030000059462846B0470130E6D1A2E64B463A463B
:1030100059462846B0470130EAD19AE60123424694
:1030200059462846B04701303FF493AE0137DDE9F9
:103030000D239B1AA3EB0903BB42EFDC4DE70E9A6D
:10304000012A01DCDB0738D501233A4659462846D8
:10305000B04701303FF47DAEDDE9092359462846EB
:10306000B047013007F101073FF473AED4E9120114
:103070000E9B002203F1FF380023FDF795FCC0B939
:1030800043463A4659462846B04701300DD160E6DE
:103090000123424659462846B04701303FF459AE15
:1030A00001370E9B013BBB42F2DC4B4604F1500260
:1030B000E4E6002704F11A08F3E70123E1E701231E
:1030C000424659462846B04701303FF442AE0137E8
:1030D000E3680F9A9B1ABB42F1DC02E7002704F178
:1030E0001908F5E7002B3FF494AE4FF0000CCDE942
:1030F000051C0DF133012260CDE90308CDE9012162
:1031000000933A464B462846FFF73AFD07464FE6FE
:103110002DE9F04791461F468A680B69064693429F
:10312000B8BF1346C9F8003091F843200C46DDF8CB
:10313000208012B10133C9F800302368990642BFDC
:10314000D9F800300233C9F80030256815F00605BB
:1031500007D104F1190AE368D9F800209B1AAB42A1
:1031600029DC94F843302268003318BF012392060B
:103170002ED404F1430239463046C047013021D0F5
:103180002368E56803F00603042B18BF0025D9F86F
:1031900000204FF0000908BFAD1AA368226908BFDC
:1031A00025EAE5759342C4BF9B1AED181A344D45C4
:1031B0001AD1002008E00123524639463046C04764
:1031C000013003D14FF0FF30BDE8F0870135C2E791
:1031D0003020E11881F843005A1C94F8451022442D
:1031E000023382F84310C4E70123224639463046B1
:1031F000C0470130E6D009F10109D8E72DE9F74FC2
:1032000003690C698046A342C0F28480013C01F14D
:10321000140700F1140657F8245056F8240001351D
:10322000B0FBF5F54FEA840C06EB0C0307EB0C0939
:1032300001939DB34FF0000A3846B646D34650F886
:10324000042B93B205FB03A3120C4FEA134A05FBB0
:1032500002A29BB2ABEB0303DEF800B04FEA124AC6
:103260001FFA8BFB5B441FFA82FBDEF800208145CE
:10327000CBEB124202EB23429BB243EA02434FEAFA
:10328000224B4EF8043BDAD256F80C3033B9019B8E
:10329000043B9E421A4631D3C8F81040404601F024
:1032A00025F8002826DB30464FF0000C013557F892
:1032B000041BD0F800E08BB2ACEB03031FFA8EF2D4
:1032C00013440A0CC2EB1E4202EB23429BB243EAB8
:1032D0000243B9454FEA224C40F8043BE7D256F886
:1032E000242006EB84032AB9043B9E421A460BD3E2
:1032F000C8F81040284603B0BDE8F08F1268043BC0
:10330000002AC9D1013CC4E71268043B002AEFD16E
:10331000013CEAE70020EEE72DE9F04F16461F4694
:10332000456A95B00446DDF88480CDE902673DB971
:10333000102000F0B3FD6062C0E901550560C56072
:10334000636A196851B15A68012393404A608B60DF
:10335000204600F0EAFD0022636A1A603B1EAFBF00
:103360000023012223F000430393ACBFC8F80030D0
:10337000C8F80020AE4BDDF80C8033EA08031BD1FF
:1033800042F20F73209A1360029B23B9C8F3130013
:10339000002800F04585229B53B9A64B21E0A64B9F
:1033A00006930833229A1360069815B0BDE8F08F93
:1033B000A04B06930333F5E7DDE902670022002303
:1033C00030463946FDF7F0FA824660B10123209A73
:1033D0001360229B002B00F02085984B229A1360EB
:1033E000013B0693E0E712AB019313AB0093324627
:1033F0003B46204600F0F2FFC8F30A558346002DF5
:103400007DD0B046C7F3130343F07F5949F4401908
:10341000A5F2FF35CDF840A00022894B4046494631
:10342000FCF7A2FE7CA3D3E90023FDF755F87CA3AB
:10343000D3E90023FCF79AFE064628460F46FCF720
:10344000E1FF79A3D3E90023FDF746F802460B46D6
:1034500030463946FCF78AFE06460F46FDF7ECFA81
:1034600000228246002330463946FDF7A7FA48B1CC
:103470005046FCF7C7FF32463B46FDF795FA08B9C0
:103480000AF1FF3ABAF1160F5AD8DDE902236D4965
:1034900001EBCA01D1E90001FDF7AEFA002851D0D5
:1034A00000230AF1FF3A0D93129B5D1B6B1E0793DD
:1034B00043BF0023C5F1010907934FF00009BAF19A
:1034C000000F41DB079BCDF830A053440793002346
:1034D00008931E9B092B00F28F80052BC4BF043B71
:1034E0001E931E9BC8BF0025A3F10203D8BF012570
:1034F000032B00F28D80DFE803F07B7D2F6FDDE989
:1035000012531D4405F23240202813DDC0F1400063
:10351000029B08FA00F805F2124023FA00F048EA8C
:103520000000FCF75FFF01238046A1F1F879013D1F
:10353000109371E7029BC0F1200003FA00F0F0E75E
:103540000123B0E70D90AFE7CAF100030893002311
:10355000A9EB0A090C93BCE7012309931F9B002BDD
:1035600074DD984604930022666A7260042202F1B8
:103570001400984271686ED9204600F0A2FC636A7C
:1035800030601B68B8F10E0F069300F2ED80002D3D
:1035900000F0EA80DDE90223BAF1000FCDE90E2345
:1035A00077DD284A0AF00F034FEA2A1602EBC3031D
:1035B000F006D3E90023CDE90A2368D5DDE90E0141
:1035C000214B0325D3E90823FDF7B0F8CDE902012B
:1035D00006F00F061C4F4FE0012309931F9B534435
:1035E00003F1010804934346012BB8BF0123BAE756
:1035F0000023B2E70023F0E70125002309951E937D
:103600004FF0FF3300220493984612231F92AAE73B
:1036100001230993F4E700BF61436F63A787D23F9B
:10362000B3C8608B288AC63FFB799F501344D33FB1
:103630000000F07F0B460008024600080146000823
:103640000000F83F384600081046000801230493A4
:1036500098461A46DAE701317160520087E7F107B0
:1036600008D5DDE90A01D7E90023FCF735FFCDE9EC
:103670000A01013576100837002EF0D1DDE90A2362
:10368000DDE90201FDF752F8CDE902011BE0022558
:10369000A0E700F0A480DDE90E01CAF10006A04B0E
:1036A00006F00F0203EBC203D3E90023FCF714FF7B
:1036B00002250023CDE902019A4F3611002E40F079
:1036C0008380002BE0D10D9B002B00F08A80DDE988
:1036D0000223CDE90A23DDE90A010022924BFDF71E
:1036E0006DF900287DD0B8F1000F7AD0049B002B33
:1036F00036DDDDE90A0100228C4BFCF7EDFECDE959
:103700000201049E0AF1FF3701352846FCF77AFED4
:10371000DDE90223FCF7E0FE0022854BFCF726FDE5
:10372000A1F15075CDE90A010B95002E5CD1DDE9C0
:10373000020100227F4BFCF717FD0A9A2B46CDE9C8
:103740000201FDF759F9002840F08182DDE902010C
:103750000A9A05F10043FDF731F9002840F075821F
:10376000DDE90E23CDE90223139B002BC0F24B8130
:10377000BAF10E0F00F34781694B03EBCA03D3E99B
:103780000023CDE904231F9B002B80F2D780B8F1E2
:10379000000F00F3D38040F05782DDE904010022DE
:1037A000644BFCF799FEDDE90223FDF71BF9464661
:1037B0004746002840F02D82069B069A5D1C312367
:1037C0000AF1010A137028E2F20705D5D7E90023B0
:1037D000FCF782FE01230135761008376EE70225DB
:1037E00071E75746464690E74D4B03EBC60353E956
:1037F0000201099B002B48D002460B4600204E498F
:10380000FCF794FFDDE90A23FCF7AEFCCDE90A01E1
:10381000069DDDE90201FDF70FF91190FCF7F2FDBD
:1038200002460B46DDE90201FCF79EFC119BCDE947
:103830000201303305F8013BDDE90A23FDF7BEF84C
:10384000002863D1DDE9022300203749FCF78CFC16
:10385000DDE90A23FDF7B2F8002840F0B580069BA9
:10386000EB1A9E427FF77CAFDDE90A0100222F4B65
:10387000FCF732FE0022CDE90A01DDE902012B4B03
:10388000FCF72AFECDE90201C3E7DDE90A23FCF7D4
:1038900023FE069BCDE90A019D191E46DDE90201C2
:1038A000FDF7CAF81190FCF7ADFD02460B46DDE9C5
:1038B0000201FCF759FC119BCDE90201303306F8F7
:1038C000013BAE424FF0000224D1DDE90A011A4B60
:1038D000FCF74CFC02460B46DDE90201FDF78CF8D3
:1038E000002871D1DDE90A2300201349FCF73CFCD4
:1038F00002460B46DDE90201FDF760F800283FF4BF
:103900002FAF15F8013C6A1E302B01D0BA464AE0B1
:103910001546F6E7054BFCF7DFFDCDE90201BDE7F3
:1039200038460008104600080000F03F0000244020
:1039300000001C40000014400000E03F069DDDE94F
:103940000267DDE9042330463946FCF7EFFEFDF758
:1039500073F88146FCF756FDDDE90423FCF7BCFD56
:1039600002460B4630463946FCF7FEFB09F13006AD
:1039700005F8016B069E0246AE1BB0450B4635D1DD
:10398000FCF7F4FBDDE9042306460F46FDF734F8A7
:10399000C8B9DDE9042330463946FDF705F810B112
:1039A00019F0010F0FD15946204600F0BEFA00234E
:1039B000209A2B700AF101031360229B002B3FF425
:1039C000F3AC1D60F0E4574615F8012C6B1E392A44
:1039D00006D1069A9A4207D1302313701346013755
:1039E0001A7801321A7091E71D46EDE70022994BD3
:1039F000FCF772FD0022002306460F46FCF7D4FFB9
:103A000000289ED0CFE7099A002A00F088801E9AED
:103A1000012A6DDC109A002A66D003F233434D462A
:103A2000089E079A01211A4420469944079200F003
:103A30001CFB0746002D0BDD079B002B08DDAB426E
:103A4000A8BF2B46079AA9EB0309ED1AD31A0793CF
:103A5000089BEBB1099B002B65D08EB139463246ED
:103A6000204600F0A1FB5A4601460746204600F0DA
:103A700005FB59460A90204600F057FA0A9B9B46E0
:103A8000089B9A1B04D05946204600F08DFB8346C4
:103A90000121204600F0E9FA0C9B0646002B00F0BD
:103AA000C6811A460146204600F07EFB1E9B064654
:103AB000012B3EDC029B002B37D1039BC3F3130386
:103AC000002B34D1039B23F000431B0D1B052BB1AE
:103AD000079B09F1010901330793012308930C9B0C
:103AE000002B28D101202EE0129BC3F1360396E76C
:103AF000089B08F1FF36B342B7BF089B9E1BF21A22
:103B00000C9BBFBF08969B180C930026B8F1000FC2
:103B1000B9BFA9EB080500234D46434681E7089E3F
:103B20004D46099F86E7089AADE70023D6E7029B3A
:103B3000D4E700230893336906EB8303186900F088
:103B400046FAC0F12000079B184410F01F0047D030
:103B5000C0F12003042B3BDD079BC0F11C00814416
:103B6000054403440793B9F1000F05DD59464A4661
:103B7000204600F067FB8346079B002B05DD31469E
:103B80001A46204600F05EFB06460D9B53B33146B5
:103B9000584600F0ABFB002824DA002359460A22DD
:103BA000204600F0D9F9099B0AF1FF3A8346002B21
:103BB00000F04481002339460A22204600F0CCF967
:103BC000049B0746002B4DDC1E9B022B4ADD11E0B7
:103BD000C9D0079A1C331A4499441D441346C1E7BF
:103BE0000346F6E7B8F1000F36DC1E9B022B33DDEF
:103BF000CDF81080049B63B931460522204600F0C1
:103C0000ABF901460646584600F070FB00283FF726
:103C1000D3AD1F9B069D6FEA030A4FF000093146A2
:103C2000204600F082F9002F3FF4BDAEB9F1000F3D
:103C300005D0B94503D04946204600F076F939460B
:103C4000204600F072F9AEE600263746E1E7BA46B4
:103C50003746B1E500002440099BCDF81080002BC9
:103C600000F0F380002D05DD39462A46204600F09D
:103C7000E9FA0746089B002B4CD07968204600F0F3
:103C800020F905463A6907F10C01023292000C3026
:103C900000F00CF901222946204600F0D3FAB9467B
:103CA0000746069B0793029B03F0010308933146E6
:103CB0005846FFF7A3FA4946054600F13008584632
:103CC00000F014FB3A4602903146204600F028FBF3
:103CD000C368024603BB01460990584600F006FB44
:103CE0000346099A11462046099300F01EF9099BE4
:103CF000A3B91E9A92B9089A82B9B8F1390F29D09E
:103D0000029B002B01DD05F13108079B5D1C83F848
:103D1000008084E73846C2E70123E3E7029A002ADD
:103D200004DB23D11E9A0ABB089AFAB9002BECDDFA
:103D300059460122204600F085FA3146834600F0BC
:103D4000D5FA002803DCE0D118F0010FDDD0B8F17E
:103D5000390FD8D1079B079A5D1C3923137015F8CA
:103D6000013C6A1E392B4DD0013352E0079A002BDB
:103D700002F1010506DDB8F1390FEBD008F10108B9
:103D8000079BC4E7069B049AEB1A934205F8018C43
:103D900021D0594600230A22204600F0DDF8B9451B
:103DA00083464FF000034FF00A024946204605D1F2
:103DB00000F0D2F881460746079578E700F0CCF886
:103DC0003946814600230A22204600F0C5F80746FE
:103DD000F2E74FF0000959460122204600F032FA7E
:103DE0003146834600F082FA0028B8DC02D118F090
:103DF000010FB4D115F8013C6A1E302B7FF40FAFD0
:103E00001546F7E7069B934205D13123069A0AF13E
:103E1000010A137003E71546A1E7174BFFF7E1BA54
:103E2000229B002B7FF4BBAA144BFFF7DABA1E9B30
:103E3000012B7FF73FAE0C9B089353E6049B002BAE
:103E400003DC1E9B022B3FF7D5AE069D314658463C
:103E5000FFF7D4F9069B00F1300805F8018B049AAE
:103E6000EB1A9A42B5DD594600230A22204600F09B
:103E700073F88346EAE700BF0046000802460008E0
:103E8000044B1B68186A044B002808BF1846F03022
:103E9000704700BF0C00002070000020024B01465C
:103EA000186800F0F9BA00BF0C00002010B5431EDE
:103EB0000A44914200D110BD11F8014B03F8014FA3
:103EC000F7E770B5456A04460E463DB91020FFF786
:103ED000E5FF6062C0E901550560C560656AEB6891
:103EE00083B1636ADB6853F82600B8B9012101FA8F
:103EF00006F56A1D9200204600F0BFFA60B1C0E9E5
:103F000001650EE021220421204600F0B6FA636A22
:103F1000E860DB68002BE4D1002070BD026843F844
:103F200026200023C0E90333F7E770B5446A06464C
:103F30000D463CB91020FFF7B1FF7062C0E90144A3
:103F40000460C4603DB1736A6A68DB6853F822108C
:103F5000296043F8225070BD2DE9F0411F46064606
:103F60000C4600230D6901F1140CDCF8000001334C
:103F700081B202FB0171000C0F0C02FB007089B2D0
:103F800001EB00419D424FEA10474CF8041BECDC6A
:103F9000D7B1A368AB4212DC616830460131FFF74C
:103FA00090FF8046226904F10C01023292000C302D
:103FB000FFF77CFF21463046FFF7B7FF444604EB8E
:103FC000850301355F6125612046BDE8F081020C63
:103FD00012040346B2B90304102013F07F4F04BF4C
:103FE0001B02083013F0704F04BF1B01043013F0A4
:103FF000404F04BF9B000230002B06DB5B0003D563
:10400000013070470020E8E7202070470368014630
:1040100013F007020BD0DA0723D4980749BF5B08D7
:104020009B0801200B605CBF0B600220704798B2B8
:10403000A8B910201B0C13F0FF0F04BF1B0A083097
:104040001A0704BF1B0904309A0704BF9B080230FB
:10405000DA0702D45B0806D001300B6070471046C7
:10406000E9E7002070472020704710B50C46012179
:10407000FFF727FF01224461026110BD2DE9F74FD0
:1040800014460A69236988469A42BEBF0B46A04679
:104090001C46D8F81070D4F81090D8F80830D8F82A
:1040A000041007EB0906B342B8BF0131FFF709FF5F
:1040B00000F114052B46002205EB860E734516D33E
:1040C00004F1140208F1140102EB890301EB8707E4
:1040D0000093009B019293420CD8002E03DD5EF802
:1040E000043D002B5DD0066103B0BDE8F08F43F8BE
:1040F000042BE3E7B2F800B0BBF1000F23D08946F0
:10410000AC464FF0000859F8044BDCF800A0A3B20D
:104110001FFA8AFA0BFB03A34FEA144ADCF80040AB
:1041200043444FEA14480BFB0A84E24604EB134471
:104130009BB243EA04434F454FEA14484AF8043B14
:104140002BD8CCF80480019B0432B3F802A0BAF15A
:10415000000F20D08946A8464FF0000B2B68B9F815
:1041600000C0B8F802409BB20AFB0C44C4465C4451
:1041700043EA04434CF8043B59F8043BB8F804B054
:104180001B0C0AFB03B34F4503EB14434FEA134BDD
:1041900005D8C8F8043004359BE7D446B3E7E046B9
:1041A000DDE7013E99E700002DE9F843154612F0DE
:1041B000030206460F4607D0214C013A002354F86B
:1041C0002220FFF7C9FE0746AD1035D0746A3CB90E
:1041D0001020FFF763FE7062C0E901440460C46010
:1041E000D6F82480D8F808404CB940F27121304606
:1041F000FFF73BFF00230446C8F8080003604FF0B8
:104200000008EB070AD5394622463046FFF736FF4D
:10421000814639463046FFF788FE4F466D100BD079
:10422000206838B9224621463046FFF727FF206034
:10423000C0F800800446E4E73846BDE8F88300BFD4
:10424000004700082DE9F0470C460746164623694B
:104250004FEA621A0AEB03094968A36809F10105EC
:10426000AB4232DB3846FFF72CFE002380461A466D
:1042700000F1140153452BDB20692AEAEA7A04F1A4
:10428000140316F01F0201EB8A0103EB800C25D00A
:104290000020C2F1200E8A461E68964030434AF83C
:1042A000040B53F8040B9C4520FA0EF014D8486018
:1042B00008B109F10205013D3846C8F81050214601
:1042C000FFF733FE4046BDE8F08701315B00C7E7EA
:1042D00041F823200133CDE75146DCE7043953F898
:1042E000042B9C4541F8042FF9D8E4E703690A69D7
:1042F00030B59B1A0CD1920014301431841811443B
:1043000054F8045D51F8042D954203D005D30123E0
:10431000184630BDA042F3D3FAE74FF0FF33F7E77A
:104320002DE9F0470D460746114628461446FFF78B
:10433000DDFF061E08D131463846FFF7C2FD0123D6
:10434000C0E90436BDE8F087A4BF23462C463846B2
:104350006168A6BF1D4600260126FFF7B2FD4FF09B
:10436000000EC6602B69266904F1140205F11409D8
:1043700002EB860709EB830800F1140152F804AB45
:1043800059F8045B1FFA8AF37344ACB21B1B2C0C64
:10439000C4EB1A4404EB23449BB24FEA244EC845B5
:1043A00043EA0444944641F8044BE7D8BC4504D39F
:1043B00051F8043D83B10661C4E75CF8044BA2B236
:1043C0007244131403EB144392B242EA03424FEADD
:1043D000234E41F8042BE9E7013EE9E72DE9F341DB
:1043E0001C46DDE9086501219046FFF76AFDC4F32C
:1043F0001302C4F30A54074634BB0192B8F1000219
:1044000027D002A840F8082DFFF700FE0099F0B170
:10441000019AC0F1200302FA03F30B43C2407B610F
:104420000192019B002B14BF02210121BB61396164
:10443000C4B1A4F2334404443460C0F135002860B0
:10444000384602B0BDE8F08142F48012D5E77961C8
:10445000E7E701A8FFF7DAFD0121019B39617B61E4
:104460002030E5E7A0F2324007EB810330601869A5
:10447000FFF7ADFDC0EB4110E1E738B502FB01F4F9
:10448000214600F009F8054618B122460021FEF742
:104490006FFB284638BD000070B5CD1C25F0030524
:1044A00008350C2D38BF0C25002D064601DBA9422E
:1044B00003D90C233360002070BD00F069F8214A55
:1044C0001468214691B9204C23681BB9304600F08E
:1044D0003DF820602946304600F038F8431C24D1CE
:1044E0000C233046336000F054F8E4E70B685B1BA4
:1044F00018D40B2B0FD90B60CC18CD50304600F0E0
:1045000048F804F10B00231D20F00700C31AD3D094
:104510005A42E250D0E74B688C4216BF636013608A
:104520000C46EBE70C464968CCE7C41C24F00304B6
:10453000A04205D0211A304600F008F80130CFD053
:104540002560DBE7040200200802002038B50023C4
:10455000054C054608462360FEF774FA431C02D159
:10456000236803B12B6038BD1C04002082B001B960
:1045700001A942B14BB113780B601278101C18BF1F
:10458000012002B070471046FBE76FF00100F8E72A
:104590007047704749B1FF2A8BBF8A230A700360B6
:1045A000012088BF4FF0FF30704708467047000079
:1045B000F8B500BFF8BC08BC9E467047F8B500BF10
:0845C000F8BC08BC9E467047E0
:1045C80002030405060708090A0B0C0D0E0F10104C
:1045D80000000000000000000102030406070809AB
:1045E8000000000001020304494E4600696E66009F
:1045F8004E414E006E616E003000496E66696E690C
:104608007479004E614E00000080E03779C3414361
:10461800176E05B5B5B89346F5F93FE9034F384D20
:10462800321D30F94877825A3CBF737FDD4F1575CC
:10463800000000000000F03F0000000000002440DF
:1046480000000000000059400000000000408F40BA
:10465800000000000088C34000000000006AF84025
:104668000000000080842E4100000000D012634149
:104678000000000084D797410000000065CDCD41BF
:10468800000000205FA00242000000E876483742A0
:10469800000000A2941A6D42000040E59C30A2423E
:1046A8000000901EC4BCD64200003426F56B0C43B3
:1046B8000080E03779C3414300A0D885573476435A
:1046C80000C84E676DC1AB43003D9160E458E143BB
:1046D800408CB5781DAF154450EFE2D6E41A4B4430
:1046E80092D54D06CFF08044F64AE1C7022DB54475
:1046F800B49DD9794378EA44050000001900000008
:104708007D0000004300504F534958002E00002000
:104718002020202020202020282828282820202069
:104728002020202020202020202020202020208819
:10473800101010101010101010101010101010047D
:1047480004040404040404040410101010101010CD
:1047580041414141414101010101010101010101C1
:1047680001010101010101010101101010101010D7
:104778004242424242420202020202020202020291
:1047880002020202020202020202101010102000AD
:104798000000000000000000000000000000000011
:1047A8000000000000000000000000000000000001
:1047B80000000000000000000000000000000000F1
:1047C80000000000000000000000000000000000E1
:1047D80000000000000000000000000000000000D1
:1047E80000000000000000000000000000000000C1
:1047F80000000000000000000000000000000000B1
:1048080000000000000000000000000000000000A0
:04481800350100085E
:04481C00110100087E
:10482000010000001000000000A24A041000002057
:104830000000000000000000000000000000000078
:104840000000000000000000000000000000000068
:104850000000000000000000000000000000000058
:104860000000000000000000000000000000000048
:104870000000000000000000000000000000000038
:104880000000000000000000000000000000000028
:1048900043000000000000000000000000000000D5
:1048A0000000000000000000000000000000000008
:1048B00043000000000000000000000000000000B5
:1048C00000000000000000000000000000000000E8
:1048D0004300000000000000000000000000000095
:1048E00000000000000000000000000000000000C8
:1048F0004300000000000000000000000000000075
:1049000000000000000000000000000000000000A7
:104910004300000000000000000000000000000054
:104920000000000000000000000000000000000087
:104930004300000000000000000000000000000034
:104940000000000000000000000000000000000067
:104950004300000000000000000000000000000014
:104960000000000000000000000000000000000047
:10497000954500086D450008000000001647000836
:104980001447000815470008154700081547000898
:104990001547000815470008154700081547000887
:1049A0001547000815470008FFFFFFFFFFFFFFFF47
:1049B000FFFFFFFFFFFF0000010041534349490093
:1049C00000000000000000000000000000000000E7
:1049D000000000000000000000004153434949006E
:1049E00000000000000000000000000000000000C7
:0C49F000000000000000000000000000BB
:0400000508002AD1F4
:00000001FF
