:020000040800F2
:1000000000500020993C0008B93B0008BD3B0008A7
:10001000C13B0008C53B0008C93B000800000000C8
:10002000000000000000000000000000CD3B0008C0
:10003000D13B000800000000D53B0008D93B000878
:10004000E13C0008E13C0008E13C0008E13C00081C
:10005000E13C0008E13C0008E13C0008E13C00080C
:10006000E13C0008E13C0008E13C0008DD3B000801
:10007000E13C0008E13C0008E13C0008E13C0008EC
:10008000E13C0008E13C0008E93B0008E13C0008D5
:10009000E13C0008E13C0008E13C0008E13C0008CC
:1000A000E13C0008F53B0008E13C0008E13C0008A9
:1000B000013C0008E13C0008E13C0008E13C00088C
:1000C000E13C0008E13C0008E13C0008E13C00089C
:1000D000E13C0008E13C0008E13C0008E13C00088C
:1000E000E13C0008E13C0008E13C000800000000A1
:1000F0000000000000000000000000000000000000
:0C01000000000000000000005FF808F1A3
:1001100010B5054C237833B9044B13B10448AFF341
:1001200000800123237010BDDC01002000000000CE
:10013000E85D000808B5034B1BB103490348AFF362
:10014000008008BD00000000E0010020E85D00081C
:1001500081F0004102E000BF83F0004330B54FEA78
:1001600041044FEA430594EA050F08BF90EA020FE5
:100170001FBF54EA000C55EA020C7FEA645C7FEA78
:10018000655C00F0E2804FEA5454D4EB5555B8BF9B
:100190006D420CDD2C4480EA020281EA030382EA0C
:1001A000000083EA010180EA020281EA0303362D9E
:1001B00088BF30BD11F0004F4FEA01314FF4801C71
:1001C0004CEA113102D0404261EB410113F0004F83
:1001D0004FEA03334CEA133302D0524263EB43033A
:1001E00094EA050F00F0A780A4F10104D5F1200ED8
:1001F0000DDB02FA0EFC22FA05F2801841F1000133
:1002000003FA0EF2801843FA05F359410EE0A5F106
:1002100020050EF1200E012A03FA0EFC28BF4CF037
:10022000020C43FA05F3C01851EBE37101F00045ED
:1002300007D54FF0000EDCF1000C7EEB00006EEBFA
:100240000101B1F5801F1BD3B1F5001F0CD3490884
:100250005FEA30004FEA3C0C04F101044FEA4452DB
:1002600012F5800F80F09A80BCF1004F08BF5FEA62
:10027000500C50F1000041EB045141EA050130BD42
:100280005FEA4C0C404141EB010111F4801FA4F1E5
:100290000104E9D191F0000F04BF01460020B1FA3A
:1002A00081F308BF2033A3F10B03B3F120020CDA72
:1002B0000C3208DD02F1140CC2F10C0201FA0CF050
:1002C00021FA02F10CE002F11402D8BFC2F1200CB5
:1002D00001FA02F120FA0CFCDCBF41EA0C0190406B
:1002E000E41AA2BF01EB0451294330BD6FEA0404B4
:1002F0001F3C1CDA0C340EDC04F11404C4F120029F
:1003000020FA04F001FA02F340EA030021FA04F3B0
:1003100045EA030130BDC4F10C04C4F1200220FA07
:1003200002F001FA04F340EA0300294630BD21FA45
:1003300004F0294630BD94F0000F83F4801306BF0B
:1003400081F480110134013D4EE77FEA645C18BFFF
:100350007FEA655C29D094EA050F08BF90EA020F96
:1003600005D054EA000C04BF1946104630BD91EA8E
:10037000030F1EBF0021002030BD5FEA545C05D191
:100380004000494128BF41F0004130BD14F58004D0
:100390003CBF01F5801130BD01F0004545F0FE4144
:1003A00041F470014FF0000030BD7FEA645C1ABF79
:1003B000194610467FEA655C1CBF0B46024650EAB0
:1003C000013406BF52EA033591EA030F41F40021DC
:1003D00030BD00BF90F0000F04BF0021704730B562
:1003E0004FF4806404F132044FF000054FF0000137
:1003F00050E700BF90F0000F04BF0021704730B5F8
:100400004FF4806404F1320410F0004548BF4042CC
:100410004FF000013EE700BF42004FEAE2014FEA21
:1004200031014FEA02701FBF12F07F4393F07F4FFC
:1004300081F06051704732F07F4208BF704793F0FF
:100440007F4F04BF41F40021704730B54FF4607412
:1004500001F0004521F000411CE700BF50EA010215
:1004600008BF704730B54FF000050AE050EA0102BE
:1004700008BF704730B511F0004502D5404261EB2E
:1004800041014FF4806404F132045FEA915C3FF46F
:10049000D8AE4FF003025FEADC0C18BF03325FEA0C
:1004A000DC0C18BF033202EBDC02C2F1200300FABD
:1004B00003FC20FA02F001FA03FE40EA0E0021FAE2
:1004C00002F11444BDE600BF80F0004002E000BF2E
:1004D00081F0004142001FBF5FEA410392EA030F2F
:1004E0007FEA226C7FEA236C6AD04FEA1262D2EB79
:1004F0001363C1BFD218414048404140B8BF5B427E
:10050000192B88BF704710F0004F40F4000020F016
:100510007F4018BF404211F0004F41F4000121F02C
:100520007F4118BF494292EA030F3FD0A2F1010276
:1005300041FA03FC10EB0C00C3F1200301FA03F1B4
:1005400000F0004302D5494260EB4000B0F5000FD7
:1005500013D3B0F1807F06D340084FEA310102F196
:100560000102FE2A51D2B1F1004F40EBC25008BF48
:1005700020F0010040EA03007047490040EB000012
:1005800010F4000FA2F10102EDD1B0FA80FCACF141
:10059000080CB2EB0C0200FA0CF0AABF00EBC25040
:1005A00052421843BCBFD0401843704792F0000F2E
:1005B00081F4000106BF80F400000132013BB5E781
:1005C0004FEA41037FEA226C18BF7FEA236C21D0F7
:1005D00092EA030F04D092F0000F08BF084670475C
:1005E00090EA010F1CBF0020704712F07F4F04D12A
:1005F000400028BF40F00040704712F100723CBF3D
:1006000000F50000704700F0004343F0FE4040F466
:10061000000070477FEA226216BF08467FEA236324
:100620000146420206BF5FEA412390EA010F40F40F
:10063000800070474FF0000304E000BF10F000435B
:1006400048BF40425FEA000C08BF704743F0964342
:1006500001464FF000001CE050EA010208BF70475D
:100660004FF000030AE000BF50EA010208BF7047E4
:1006700011F0004302D5404261EB41015FEA010CF9
:1006800002BF84460146002043F0B64308BFA3F1F1
:100690008053A3F50003BCFA8CF2083AA3EBC253D3
:1006A00010DB01FA02FC634400FA02FCC2F12002F2
:1006B000BCF1004F20FA02F243EB020008BF20F029
:1006C0000100704702F1200201FA02FCC2F120028F
:1006D00050EA4C0021FA02F243EB020008BF20EA84
:1006E000DC707047034613F8012B002AFBD1181A5F
:1006F0000138704770B54FF0FF0C4CF4E06C1CEA09
:1007000011541DBF1CEA135594EA0C0F95EA0C0F07
:1007100000F0DEF82C4481EA030621EA4C5123EA7A
:100720004C5350EA013518BF52EA033541F48011A9
:1007300043F4801338D0A0FB02CE4FF00005E1FB5C
:1007400002E506F00042E0FB03E54FF00006E1FBA6
:1007500003569CF0000F18BF4EF0010EA4F1FF04E9
:10076000B6F5007F64F5407404D25FEA4E0E6D4129
:1007700046EB060642EAC62141EA55514FEAC5203A
:1007800040EA5E504FEACE2EB4F1FD0C88BFBCF5B6
:10079000E06F1ED8BEF1004F08BF5FEA500E50F167
:1007A000000041EB045170BD06F0004646EA01012D
:1007B00040EA020081EA0301B4EB5C04C2BFD4EB5F
:1007C0000C0541EA045170BD41F480114FF0000E58
:1007D000013C00F3AB8014F1360FDEBF002001F0C6
:1007E000004170BDC4F10004203C35DA0C341BDC40
:1007F00004F11404C4F1200500FA05F320FA04F012
:1008000001FA05F240EA020001F0004221F0004145
:1008100010EBD37021FA04F642EB06015EEA430EB8
:1008200008BF20EAD37070BDC4F10C04C4F12005E8
:1008300000FA04F320FA05F001FA04F240EA02009B
:1008400001F0004110EBD37041F100015EEA430E6C
:1008500008BF20EAD37070BDC4F1200500FA05F28C
:100860004EEA020E20FA04F301FA05F243EA02030B
:1008700021FA04F001F0004121FA04F220EA02001A
:1008800000EBD3705EEA430E08BF20EAD37070BD60
:1008900094F0000F0FD101F00046400041EB010140
:1008A00011F4801F08BF013CF7D041EA060195F022
:1008B000000F18BF704703F00046520043EB0303DC
:1008C00013F4801F08BF013DF7D043EA06037047C9
:1008D00094EA0C0F0CEA135518BF95EA0C0F0CD0D4
:1008E00050EA410618BF52EA4306D1D181EA03011A
:1008F00001F000414FF0000070BD50EA410606BF14
:100900001046194652EA430619D094EA0C0F02D158
:1009100050EA013613D195EA0C0F05D152EA03369D
:100920001CBF104619460AD181EA030101F00041BB
:1009300041F0FE4141F470014FF0000070BD41F004
:10094000FE4141F4780170BD70B54FF0FF0C4CF4DE
:10095000E06C1CEA11541DBF1CEA135594EA0C0FFD
:1009600095EA0C0F00F0A7F8A4EB050481EA030E4A
:1009700052EA03354FEA013100F088804FEA033331
:100980004FF0805545EA131343EA12634FEA0222FF
:1009900045EA111545EA10654FEA00260EF00041C0
:1009A0009D4208BF964244F1FD0404F5407402D212
:1009B0005B084FEA3202B61A65EB03055B084FEAA3
:1009C00032024FF480104FF4002CB6EB020E75EBA0
:1009D000030E22BFB61A754640EA0C005B084FEAC8
:1009E0003202B6EB020E75EB030E22BFB61A754645
:1009F00040EA5C005B084FEA3202B6EB020E75EB90
:100A0000030E22BFB61A754640EA9C005B084FEA07
:100A10003202B6EB020E75EB030E22BFB61A754614
:100A200040EADC0055EA060E18D04FEA051545EA03
:100A300016754FEA06164FEAC30343EA52734FEAAC
:100A4000C2025FEA1C1CC0D111F4801F0BD141EA25
:100A500000014FF000004FF0004CB6E711F4801F8A
:100A600004BF01430020B4F1FD0C88BFBCF5E06F6A
:100A70003FF6AFAEB5EB030C04BFB6EB020C5FEA7A
:100A8000500C50F1000041EB045170BD0EF0004ECF
:100A90004EEA113114EB5C04C2BFD4EB0C0541EA01
:100AA000045170BD41F480114FF0000E013C90E6FE
:100AB00045EA060E8DE60CEA135594EA0C0F08BFC2
:100AC00095EA0C0F3FF43BAF94EA0C0F0AD150EAC1
:100AD00001347FF434AF95EA0C0F7FF425AF104654
:100AE00019462CE795EA0C0F06D152EA03353FF47C
:100AF000FDAE1046194622E750EA410618BF52EAF9
:100B000043067FF4C5AE50EA41047FF40DAF52EACC
:100B100043057FF4EBAE12E74FF0FF3C06E000BF69
:100B20004FF0010C02E000BF4FF0010C4DF804CD76
:100B30004FEA410C7FEA6C5C4FEA430C18BF7FEA36
:100B40006C5C1BD001B050EA410C0CBF52EA430C64
:100B500091EA030F02BF90EA020F0020704710F1E4
:100B6000000F91EA030F58BF994208BF90422CBF73
:100B7000D8176FEAE37040F0010070474FEA410C6C
:100B80007FEA6C5C02D150EA013C07D14FEA430C8A
:100B90007FEA6C5CD6D152EA033CD3D05DF8040BFB
:100BA000704700BF8446104662468C46194663462D
:100BB00000E000BF01B5FFF7B7FF002848BF10F104
:100BC000000F01BD4DF808EDFFF7F4FF0CBF012049
:100BD00000205DF808FB00BF4DF808EDFFF7EAFFC5
:100BE00034BF012000205DF808FB00BF4DF808ED80
:100BF000FFF7E0FF94BF012000205DF808FB00BF75
:100C00004DF808EDFFF7CEFF94BF012000205DF8FE
:100C100008FB00BF4DF808EDFFF7C4FF34BF01200B
:100C200000205DF808FB00BF4FEA410C7FEA6C5CD6
:100C300002D150EA013C0AD14FEA430C7FEA6C5CD6
:100C400002D152EA033C02D14FF0000070474FF04E
:100C5000010070474FEA410212F5001215D211D57A
:100C60006FF47873B3EB625212D94FEAC12343F0A9
:100C7000004343EA505311F0004F23FA02F018BF2B
:100C8000404270474FF00000704750EA013005D1F4
:100C900011F0004008BF6FF0004070474FF00000B7
:100CA000704700BF4FF47A7370B50D4D0D4A297827
:100CB0001268B3FBF1F30646B2FBF3F000F0AEFBB3
:100CC00008B90F2E01D9012070BD044602463146F5
:100CD0004FF0FF3000F060FB6E60204670BD00BF3B
:100CE0000000002008000020074A08B51368032010
:100CF00043F01003136000F03DFB0020FFF7D2FF2C
:100D000002F05AFE002008BD00200240034A044BB6
:100D100011681B780B441360704700BFB0040020BB
:100D200000000020014B1868704700BFB00400208D
:100D300038B50446FFF7F6FF631C054602D0044BA6
:100D40001B781C44FFF7EEFF401BA042FAD338BDCE
:100D500000000020436A9A6A12F0500F02D01B6A0A
:100D60001B6B18479A6A196842F4007210B59A62B0
:100D70008A6802F46022B2F5602F03D0184602F0B0
:100D8000F9F910BDDA68002AF8D19A6A22F4807263
:100D90009A629A6AD204F1D49A6A42F001029A6283
:100DA000ECE700BF704700BF08B5406AFFF7FAFFE5
:100DB00008BD00BF704700BF036810B55A680446FD
:100DC000900602D51A6891072AD45A68100602D5EF
:100DD0001A68510706D45A68520602D51B68DB0709
:100DE00033D410BDA26AD20603D4A26A42F40052E0
:100DF000A2629A6802F4E042B2F5E04F34D05A6839
:100E0000500505D49A6802F46022B2F5602F28D00C
:100E1000204600F0ADFA6FF00C0223681A60DAE7A2
:100E2000A26AD20603D4A26A42F40072A2629A684D
:100E300002F46022B2F5602F26D0204602F09AF923
:100E40006FF0120223681A60BFE7A36A204643F4DA
:100E50008033A362FFF7AEFF6FF0010223681A60D0
:100E600010BDE268002AD3D15A6822F080025A608D
:100E7000A36A23F48053A362A36AD905C8D4A36AE2
:100E800043F00103A362C3E7E268002AD5D15A68A0
:100E900022F020025A60A36A23F48073A362A36A3B
:100EA000DB04CAD4A36A43F00103A362C5E700BF11
:100EB000704700BF08B5436A9A6A184642F040027C
:100EC0009A62DA6A42F00402DA62FFF7F1FF08BDC3
:100ED000002270B490F8243083B0012B01925FD0CF
:100EE00001234D680468062D80F824300A6805EB5C
:100EF00085034FF01F0625D90C2D47D8233B256BC2
:100F00009E4025EA060502FA03F32B432363092AD0
:100F10008B684FF0070602EB420123D91E39E568C2
:100F20008E408B4025EA06010B43E360A2F11003DB
:100F3000012B22D90023002280F82420184603B078
:100F400070BC7047053B656B9E4025EA060502FABA
:100F500003F32B43092A63634FF007068B6802EB08
:100F60004201DBD825698E408B4025EA06010B4300
:100F70002361A2F11003012BDCD81A4B9C4214D040
:100F8000826A012342F020028262D4E7413BE56A93
:100F90009E4025EA060502FA03F32B43E362B6E717
:100FA0000223184603B070BC7047A3681B02C1D46B
:100FB000A368102A43F40003A360BBD10A4B0B4A79
:100FC0001B68A2FB03239B0C03EB83035B000193D1
:100FD000019B002BAED0019B013B0193019B002B99
:100FE000F9D1A7E7002401400800002083DE1B435D
:100FF000002370B5026882B001939368DB0721D4A7
:10100000184B194C1B689168A4FB034341F0010184
:101010009B0C91600193019B2BB1019B013B0193C0
:10102000019B002BF9D10546FFF77CFE064604E044
:10103000FFF778FE801B022807D82B689C6814F005
:101040000104F5D0002002B070BD0120AB6A85F824
:10105000244043F01003AB62EB6A0343EB6202B03F
:1010600070BD00BF0800002083DE1B43F8B5404B75
:1010700004689C4216D003F580639C4212D090F81D
:101080002430012B63D0012380F8243017460E460C
:101090000446FFF7ADFF054660B10023284684F8FB
:1010A0002430F8BD324B5B6813F4702FE7D0012574
:1010B0002846F8BDA36A216823F470632D4A23F003
:1010C000010343F480739142A36243D0A36A23F4E3
:1010D0008013A3624B685A0505D5A36A23F44053D5
:1010E00043F48053A362A36A6FF0020213F48053A7
:1010F00018BFE36A206A18BF23F00603E3620023E7
:10110000DFF878C084F824301B4B4C31C0E90AC3A7
:10111000DFF86CC03B46C0F830C041F84C2C51F8A9
:10112000447C324647F4807741F8447C00F0C2F9B1
:1011300022682846936803F46023B3F5602F936810
:101140000CBF43F4A00343F480139360F8BD022561
:101150002846F8BD064B5A6812F4702FB6D0A26A22
:1011600042F48012A2625B685B05BCD5B5E700BFA4
:101170000024014000280140A90D0008550D000879
:10118000B50E000838B503689A68D20701D400206C
:1011900038BD9A68044622F001029A60FFF7C2FD4A
:1011A000054623689B68DB07F1D5FFF7BBFD401BB5
:1011B0000228F6D90120A36A43F01003A362E36A70
:1011C0000343E36238BD00BF002857D0F8B5836AF7
:1011D0000446002B45D02046FFF7D4FFA36A13F046
:1011E000100338D1002836D1D4E90257A26AE66943
:1011F000616822F4885222F0020242F00202314376
:10120000B5F5807FA26241EA47016669226837D05E
:10121000012D4FD0012E52D055683C4B25F4694525
:1012200055600546966833400B439360D36A384E49
:1012300023F470032B43D36293681E40B14230D035
:101240000120A36A23F0120343F01003A362E36AB0
:101250000343E362F8BDA36A012043F01003A362D5
:10126000F8BDC36280F8243002F0C8FB2046FFF7C7
:1012700089FFA36A13F01003EDD1B3E70120704793
:10128000012E3FD05568214B25F4694545F4807502
:10129000556095682B400B4393602369013B1D0506
:1012A000C4E70023E362A36A23F0030343F00103CE
:1012B000A362F8BD012E08BF4FF48073E2D1D7B10D
:1012C000A66A46F02006A662E66A46F00106E662D5
:1012D00057680E4E27F469473B4353609368B5F552
:1012E000807F06EA030646EA01069660D5D0012D06
:1012F000D3D000259AE7A669013E43EA463343F47A
:101300000063E5E72B46002FDAD1F4E7FDF7E1FFB4
:10131000FE0E1FFF90F82430012B20D0012310B5C2
:1013200080F824300446FFF72DFF18B1002384F81D
:10133000243010BD2268206A936823F48073936080
:1013400000F0FCF8A36A60B923F4885323F001038A
:1013500043F00103A362002384F8243010BD02206F
:10136000704743F04003A362002384F8243010BD8B
:10137000704700BF4FF6FF01064A0002D36800F431
:10138000E0600B4043F0BF6343F400330343D3609A
:10139000704700BF00ED00E0184B30B4DB68C3F3CA
:1013A0000223C3F10705042D03F1040428BF04251B
:1013B000062C19D94FF0FF34033B9C4022EA040469
:1013C0004FF0FF32AA4021EA020101FA03F2224360
:1013D00012010028D2B20ADB00F1604000F5614042
:1013E00080F8002330BC704700242346E8E7044B14
:1013F00000F00F0003441A7630BC704700ED00E0A7
:10140000FCEC00E0012300F01F01034A40098B407F
:1014100042F82030704700BF00E100E00138B0F131
:10142000807F0DD230B4F02500220721054B064CF9
:10143000586084F82350104630BC9A601960704799
:101440000120704710E000E000ED00E050B30246DC
:10145000F0B4D0E90136002401253343D668006892
:10146000334311491669114F014433435669A7FBB1
:10147000017133439669D7693343066809098900C6
:1014800026F47F563B4326F0300611640849334367
:10149000D16303602046946382F8204082F8215093
:1014A000F0BC704701207047F8FFFDBFCDCCCCCC1D
:1014B00000000240F0B590F82040012C32D0012409
:1014C00090F8215080F82040A54225D100264FF009
:1014D000020E046886632668076CD0F83CC0BD40E5
:1014E00026F00106476880F821E02660CCF8045019
:1014F0006360C36A102F0BBFA260A160E160E2606D
:101500009BB1236843F00E03236000232268184632
:1015100042F001022260F0BD0022022380F8202068
:101520001846F0BD02231846F0BD236823F00403DB
:101530002360236843F00A032360E6E7034670B4A0
:10154000012500240268016C1068DE6B20F00E009B
:101550001060106805FA01F120F001001060716060
:10156000204683F8215083F8204070BC704700BFAC
:10157000042270B4D0E90F61346803688A402242C3
:101580001D681FD06A071DD51A68910603D41A6812
:1015900022F004021A603F4A93425CD01432934214
:1015A00061D01432934268D0143293426BD014321B
:1015B00093425DD0143293420CBF4FF480034FF03E
:1015C000806349E002228A40224222D0AA0720D525
:1015D0001A68910606D401211A6822F00A021A60DC
:1015E00080F821102B4A93422BD01432934242D0E0
:1015F0001432934244D01432934236D01432934280
:1016000044D0143293420CBF4FF400134FF00073D8
:1016100018E008228A4022421BD02A0719D501224D
:1016200000251C6802FA01F124F00E041C60036B13
:101630007160826380F8212080F820504BB170BC2B
:10164000184702230021144C826A636080F820103E
:101650003AB970BC704704230F49C26A4B60002A34
:10166000F7D070BC10474023F6E74FF40053E9E78A
:101670004FF48023F0E72023E4E74FF48063EBE7A7
:101680004FF40073DEE74FF48043E5E74FF4003397
:10169000D8E700BF08000240000002402DE9F04FEB
:1016A0004FF0000883B04446DFF8C0C1694EDFF850
:1016B000C0E102E00134102C78D001230A68A34075
:1016C0001A409342F6D14D68122D00F09C807ED8CE
:1016D000022D00F0948074D9032D00F08D80112D1F
:1016E00002D1CB6803F10408FF2A62D8824603685E
:1016F000A5004FF00F0909FA05FB23EA0B0308FACE
:1017000005F52B43CAF80030D1F804A01AF0805F29
:10171000D0D0514F24F00305BB6905F1804543F05B
:101720000103BB61BB6905F5803503F0010301933B
:1017300004F0030B019B4FEA8B0BAB6809FA0BF922
:10174000604523EA09030FD0704560D0434FB8428B
:1017500078D0434FB8420CBF4FF003094FF0040953
:1017600009FA0BFB43EA0B03AB6033681AF4803FC2
:1017700014BF13439343336073681AF4003F14BFDC
:10178000134393437360B3681AF4801F14BF134369
:101790009343B360F3681AF4001F04F1010414BF0B
:1017A0001A4323EA0202102CF26086D103B0BDE88E
:1017B000F08F04F18045083D4368AD0000F1040A54
:1017C00097E7A5B1012D8FD1D1F80C808CE7254F7B
:1017D000BD420CD029D9244FBD4208D007F580372F
:1017E000BD4204D0DFF88C904D457FF47DAF8D680D
:1017F000A5B94FF0040877E74FF0000874E7CB680D
:1018000003F1080870E7CB6803F10C086CE74FF0B0
:10181000010909FA0BFB43EA0B03A5E7012D0CBFF5
:10182000036143614FF008085EE7DFF84C904D45D7
:10183000DDD009F580394D457FF456AF8D68002D18
:10184000D7D0EBE74FF0020909FA0BFB43EA0B0391
:101850008AE700BF00040140001002400010014070
:101860000014014000002110000031100008014068
:10187000000C0140000022100000111002B9090400
:1018800001617047C3685940C16070472DE9F0415C
:10189000036882B0DD07044630D5AB494A6802F0E0
:1018A0000C02042A00F0DA804A6802F00C02082ACE
:1018B00000F0D0806368B3F5803F00F00F81002B0B
:1018C00000F02781B3F5A02F00F0B5819E4B1A6878
:1018D00022F480321A601A6822F480221A60FFF71C
:1018E00021FA994D064605E0FFF71CFA801B642893
:1018F00000F20B812B689A03F6D523689F0728D541
:10190000914A516811F00C0F00F0B680516801F057
:101910000C01082900F0AC802369002B00F0418104
:1019200001228A4B884D1A60FFF7FCF9064605E054
:10193000FFF7F8F9801B022800F2E7802B68980770
:10194000F6D52B68626923F0F80343EAC2032B60E3
:1019500023681A0722D5A369002B00F09880012282
:101960007B4B794D1A60FFF7DDF9064605E0FFF77E
:10197000D9F9801B022800F2C8806B6A9B07F6D554
:10198000744B754A1B68A2FB03235B0A019300BFDB
:10199000019B5A1E0192002BF9D123685D0739D5AE
:1019A000694BDA69D00040F1828000256B4B1A68E0
:1019B000D10540F19980E368012B0FD0002B00F096
:1019C000D180052B604B1A6A00F0FC8022F00102E6
:1019D0001A621A6A22F004021A6204E05A4A136A6E
:1019E00043F001031362FFF79DF9574E804641F221
:1019F000883706E0FFF796F9A0EB0800B84200F23E
:101A00008480336A9B07F5D525B14F4AD36923F00B
:101A10008053D361E269CAB14B4D696801F00C0192
:101A2000082930D0022A4FF000014D4A00F0D28040
:101A30001160FFF777F92C46054604E0FFF772F9CD
:101A4000401B022861D823689B01F7D4002002B014
:101A5000BDE8F0814A68D0037FF52CAF3A4A12689E
:101A600091037FF54BAF6268002A7FF447AF0AE02D
:101A70005268D6033FF550AF334A1268950721D517
:101A80002269012A1ED0012002B0BDE8F081304A4F
:101A90002D4D1360FFF746F9064604E0FFF742F9C3
:101AA000801B022831D86B6A9F07F7D475E7DA6983
:101AB000012542F08052DA61DB6903F08053009324
:101AC000009B73E7204960690A6822F0F80242EA45
:101AD000C0020A601A077FF561AF3CE71A4A136833
:101AE00043F480331360FAE61A681E4642F48072AB
:101AF0001A60FFF717F907463368DA053FF55BAF61
:101B0000FFF710F9C01B6428F6D9032002B0BDE826
:101B1000F08103F1804303F504331A681D4622F473
:101B200080321A601A6822F480221A60FFF7FAF8ED
:101B3000064604E0FFF7F6F8801B6428E5D82B681A
:101B40009B03F7D4D9E600BF0010024000004242D8
:101B50008004424208000020D34D62100070004013
:101B60006000424203F1804303F504331A6A1E46C3
:101B700022F001021A621A6A41F2883822F0040245
:101B80001A62FFF7CFF8074604E0FFF7CBF8C01B57
:101B90004045BAD8336A9807F7D4002D3FF43AAFDE
:101BA00033E72B4A2B4D1360FFF7BCF8064604E0E1
:101BB000FFF7B8F8801B0228A7D82B689907F7D43D
:101BC0002368C6E642F004021A621A6A42F0010271
:101BD0001A6208E71160FFF7A5F8064604E0FFF770
:101BE000A1F8801B022890D82B689901F7D4226AAB
:101BF000B2F5803F05D16B68A16823F400330B4335
:101C00006B600125134B606A5968024321F474111B
:101C100011480A435A6005601C46FFF783F80546E1
:101C200005E0FFF77FF8401B02283FF66EAF236800
:101C30009A01F6D50AE703F18043A3F53C331A680D
:101C400042F480221A601A6842F480321A6046E632
:101C500000004242001002406000424240F2012275
:101C600086B0154B0DF1180CADF804200FCB0CE924
:101C70000F0012494B6803F00C02082A02D01048EA
:101C800006B07047C3F383426244DB0312F8102CA2
:101C900004D40C4800FB02F006B070474B680848BB
:101CA000C3F3404300FB02F0634413F8143CB0FB61
:101CB000F3F006B0704700BF005E0008001002405D
:101CC00000127A0000093D00544A136803F007032C
:101CD0008B420BD2136823F007030B431360136886
:101CE00003F007038B4201D00120704703682DE900
:101CF000F0419D0714D55C0704D5494C626842F455
:101D0000E06262601A0704D5454C626842F4605292
:101D10006260434C8568626822F0F0022A43626088
:101D2000DF0704460E4622D542683D4B012A1B6858
:101D30006FD0022A6AD0990729D5394D41F28838E7
:101D40006B6823F0030313436B60FEF7EBFF6368DC
:101D50000746012B49D0022B05D151E0FEF7E2FFE7
:101D6000C01B404558D86B6813F00C0FF6D12B4AB6
:101D7000136803F00703B3420CD9136823F0070379
:101D800033431360136803F00703B34202D001200A
:101D9000BDE8F08123685A0706D52149E0684A6802
:101DA00022F4E06202434A601B0707D51C4A2169FE
:101DB000536823F4605343EAC1035360FFF74EFFB7
:101DC000174B18495B68184AC3F30313CB5C20FA1E
:101DD00003F300201360FEF765FF0020BDE8F081EB
:101DE000FEF7A0FFC01B404516D86B6803F00C033C
:101DF000042BF5D1BBE7FEF795FFC01B40450BD880
:101E00006B6803F00C03082BF5D1B0E7980194D46C
:101E1000BDE79D0391D4BAE70320B9E70020024053
:101E200000100240205E0008080000202DE9F0416B
:101E30000446006882B0C5072AD53A4BDA69D1005A
:101E40003DD5394B00251A68D20546D5354960681D
:101E50000A6A12F440720FD000F4407393420BD020
:101E6000012700260B6A314A23F440701760166080
:101E70000862D80745D460682A4A136A23F440737D
:101E8000034313621DB1D36923F08053D3612068EB
:101E9000830706D5234AA168536823F440430B43C4
:101EA000536010F0100007D000201E4AE16853680C
:101EB00023F480030B43536002B0BDE8F081DA697C
:101EC000012542F08052DA61DB6903F0805301930F
:101ED000019B154B1A68D205B8D41A681E4642F405
:101EE00080721A60FEF71EFF07463368DB05ADD42B
:101EF000FEF718FFC01B6428F7D9032002B0BDE825
:101F0000F0810E46FEF70EFF41F288378046336AB5
:101F10009A07B0D4FEF706FFA0EB0800B842F6D946
:101F2000EBE700BF00100240007000404004424256
:101F30002DE9F04180460F4616461D46D8F8004070
:101F400001E06B1C0AD1A06837EA00030CBF012036
:101F500000208642F5D10020BDE8F0813DB1FEF7BA
:101F6000E1FE069BC01AA842E8D3D8F80040636897
:101F7000D8F8042023F0E003B2F5827F636015D027
:101F8000D8F82830B3F5005F08D14DF6FF7223680A
:101F900013402360236843F400532360012200238D
:101FA00088F8512088F850300320D5E7D8F8083059
:101FB000B3F5004F02D0B3F5806FE1D1236823F071
:101FC00040032360DCE700BF2DE9F0430446012015
:101FD00085B084F85000164699460F460C9DFEF7D2
:101FE000A1FE94F851308046DBB2012B626811D01B
:101FF000B2F5827F09D002200122002384F851200B
:1020000084F8503005B0BDE8F083A1680029F2D112
:10201000042BF0D1002F60D0002E5ED0B9F1000F5C
:102020005BD094F851302168012B04BF052384F85C
:10203000513000236365A4F83E90A4F836900868F8
:10204000A6634006A4F83C902763A4F83490C4E942
:10205000103344D5E368B3F5006F45D0002A71D141
:1020600017F8013B0B73E38E013B9BB2E3864FF005
:102070000109E38E9BB21BB9E38F9BB2002B41D0C9
:10208000B9F1000F0FD0E38E9BB263B123689A6859
:10209000910708D54FF000093A7801371A73E38E9B
:1020A000013B9BB2E386E38F9BB263B123689A68DE
:1020B000D20708D54FF00109DB683370E38F4E4437
:1020C000013B9BB2E3876B1CD3D0FEF72BFEA0EB4A
:1020D00008008542CDD803208EE701208CE70B68ED
:1020E00043F040030B60B5E7002A5CD0E38E9BB25F
:1020F000012B58D04FF00109E38E9BB23BBBE38F1D
:102100009BB223BBCDF800802B4601220221204642
:10211000FFF70EFF0028DED10246CDF800802B46E7
:1021200080212046FFF704FF002844D1A368002B3C
:102130007FF462AF23680390DA6803929B6803938D
:10214000039B59E7E38E9BB2012B90D188E7B9F14D
:10215000000F0FD0E38E9BB263B123689A6891079A
:1021600008D54FF0000937F8022BDA60E38E013B07
:102170009BB2E386E38F9BB263B123689A68D20770
:1021800008D54FF00109DB6826F8023BE38F013BDD
:102190009BB2E387681CAFD0FEF7C4FDA0EB08003C
:1021A0008542A9D897E737F8023BCB60E38E013B25
:1021B0009BB2E3869EE72022636D01201343636593
:1021C000626519E710B490F85040012C02D010BCA1
:1021D000FFF7FABE022010BC704700BF002839D0BC
:1021E000F8B5002390F851200446836272B31A4672
:1021F000D4E90136022700210125E068334326692E
:10220000034360693343E66903433343206AA669A5
:1022100084F851700343276806F4007003431343A6
:102220003A68606A22F04002360C3A6006F0040612
:102230003B60E36A06437E603B61FB69084623F42A
:102240000063FB61616584F85150F8BD01F02CFC1E
:10225000A26ACDE701207047022210B40124034690
:10226000016880F83D200A68002022430A6083F854
:102270003D4010BC704700BF0346022041F21111DF
:102280001A6883F83D00106A084208D140F24441C0
:10229000106A084203D1116821F001011160012286
:1022A000002083F83D20704703680020DA6842F080
:1022B0000102DA601A6842F001021A60704700BF3A
:1022C00041F211110368DA6822F00102DA601A6A39
:1022D0000A4208D140F24442196A114203D11A68F5
:1022E00022F001021A600020704700BF90F83C30D5
:1022F000012B67D00222F0B40125036880F83D204D
:102300009A680C6822F47F4222F07702402C80F811
:102310003C509A6000F0938018D9702C7FD02BD954
:10232000B4F5805F76D0B4F5005F1CD1D1E90152DD
:10233000CC6899682A4342EA042221F47F410A4387
:102340009A609A6842F480429A600CE0102C42D065
:102350002FD9202C38D0302C05D19A6822F0700269
:1023600042F037029A600023F0BC012280F83C3032
:1023700080F83D2018467047502C33D0602CF2D1A5
:102380001C6A4D6824F01004CE681C6299691A6AB0
:1023900021F4704122F0A00242EA051241EA06311E
:1023A00099611A629A6822F0700242F067029A609C
:1023B000D9E7002CD7D19A6822F0700242F00702C8
:1023C0009A60D0E7022070479A6822F0700242F0CB
:1023D00027029A60C7E79A6822F0700242F017025B
:1023E0009A60C0E71D6A1E6A4C6826F00106CF6835
:1023F0001E629A6925F00A0122F0F00242EA0712F1
:1024000021439A6119629A6822F0700242F05702E1
:102410009A60A8E79A6822F007029A60A3E7D1E9D8
:102420000152CC6899682A4342EA042221F47F4190
:102430000A439A609A6842F077029A6093E71D6AAD
:102440001E6A4C6826F00106CF681E629A6925F064
:102450000A0122F0F00242EA071221439A6119624E
:102460009A6822F0700242F047029A607BE700BF50
:10247000704700BF704700BF704700BF704700BF84
:10248000036810B51A690446910702D5DA68920705
:102490005FD41A69500702D5DA68510746D41A6921
:1024A000120702D5DA6810072ED41A69D20602D5AF
:1024B000DA68D00618D41A69D10702D5DA68D207CB
:1024C0005DD41A69100602D5DA6811065FD41A695C
:1024D000520602D5DA68500661D41A69910602D50F
:1024E000DA68920643D410BD6FF01001082219611A
:1024F000DB69204613F4407F227764D0FFF7BAFFF0
:10250000002223682277D6E76FF0080104221961C0
:10251000DB6920469907227752D1FFF7A9FF2046B1
:10252000FFF7AAFF002223682277BEE76FF00401BD
:10253000022219619B69204613F4407F22773CD127
:10254000FFF796FF2046FFF797FF002223682277C8
:10255000A5E76FF00201012219619B6902779B07D1
:1025600025D0FFF787FF00222368227791E76FF0DD
:1025700020022046BDE810401A6100F0A9B86FF0B3
:10258000010220461A6100F045FE236899E76FF0CA
:10259000800220461A6100F09DF8236897E76FF0EB
:1025A000400220461A61FFF769FF236895E7FFF7AD
:1025B0005FFF2046FFF760FFD5E7FFF75BFFC4E74B
:1025C000FFF758FFAEE7FFF753FF2046FFF754FF32
:1025D00096E700BF70B41C4E0368B0424D698C682A
:1025E0000A681DD0B0F1804F11D0A6F59436B042E4
:1025F0000DD006F58066B04209D023F080032B434E
:1026000003600123C462826270BC436170474E68FC
:1026100023F070033343C96823F440730B43ECE7A2
:102620004E6823F070033343CE6823F44073334382
:1026300023F080032B430360C46282620B6970BC89
:102640000363012343617047002C0140B8B190F847
:102650003D3010B503F0FF0204465BB10223206851
:1026600084F83D30211DFFF7B5FF0123002084F8D9
:102670003D3010BD80F83C2001F052FAEEE7012019
:10268000704700BF90F83C30012B1ED0024602205C
:10269000F0B400250126136882F83D005C680F68DD
:1026A00024F070045C6058684C683843586098683F
:1026B00020F080009860996828462143996082F84C
:1026C0003D6082F83C50F0BC70470220704700BF6C
:1026D000704700BF704700BF30B54FF47A710025D6
:1026E0004FF6FF730D4C0E4A87B02046C4E9002117
:1026F000C4E902532561A561FFF7A8FF4FF4805399
:1027000006A941F8103D2046FFF7F0FD2046694636
:10271000CDE90055FFF7B6FF07B030BDF801002046
:10272000000400402DE9F8430F1E16DD4FF00008AD
:102730000125C1460A4C0B4E2F44C4F82490304664
:10274000FFF78AFD636A002BFCD001353046FFF7A6
:1027500093FDBD42C4F82480EFD1BDE8F88300BFEB
:1027600000040040F801002002382C2800F2FB8011
:10277000DFE810F0F300ED00E700E200DD00F90013
:10278000F900F900D800D300CE00C900C400BF0092
:10279000BA00B500B000AB00A600A0009A00F90096
:1027A000F90094008E00880082007C0076007000A2
:1027B0006A0064005E00F900F900580052004D0004
:1027C000480043003E003900F90033002D000A465E
:1027D00065484FF40071FFF751B80A4662484FF45C
:1027E0008071FFF74BB80A465F488021FFF746B873
:1027F0000A465D484021FFF741B80A465A48202161
:10280000FFF73CB80A4658481021FFF737B80A4688
:1028100055480821FFF732B80A4654484FF40041A2
:10282000FFF72CB80A4651484FF48041FFF726B80D
:102830000A464E484FF40051FFF720B80A464B486D
:102840004FF48051FFF71AB80A4648484FF4006128
:10285000FFF714B80A4645484FF48061FFF70EB8F9
:102860000A4642484FF40071FFF708B80A463F484D
:102870004FF48071FFF702B80A463B484FF400411D
:10288000FEF7FCBF0A4638484FF48041FEF7F6BF1A
:102890000A4635484FF40051FEF7F0BF0A46324869
:1028A0004FF48051FEF7EABF0A462F484FF400610B
:1028B000FEF7E4BF0A462C484FF48061FEF7DEBF06
:1028C0000A4629480421FEF7D9BF0A4626480221B4
:1028D000FEF7D4BF0A4624480121FEF7CFBF0A46BF
:1028E00022488021FEF7CABF0A4620484021FEF751
:1028F000C5BF0A461D482021FEF7C0BF0A461B4837
:102900001021FEF7BBBF0A4618480821FEF7B6BFE4
:102910000A4616480421FEF7B1BF0A4613480221B1
:10292000FEF7ACBF0A4611480121FEF7A7BF0A46D1
:102930000F480221FEF7A2BF0A460D480121FEF70B
:102940009DBF0A460B484FF40041FEF797BF0A4669
:1029500008484FF48041FEF791BF0A4605484FF4FE
:102960000051FEF78BBF7047000C0140000801408A
:102970000014014000100140F0B5044664260D46E5
:10298000174685B000790021FFF7EEFE45F02005DF
:10299000D4F8AC000DF10F020DF10E0100960123E9
:1029A0008DF80E50FFF70EFC04A901F8037DD4F852
:1029B000AC000DF10F0201230096FFF703FC207914
:1029C0000121FFF7D1FE05B0F0BD00BF2DE9F041B8
:1029D00006460D4664271C4684B0007900219046C7
:1029E00045F02005FFF7C0FED6F8AC000DF10F0250
:1029F000009701230DF10D018DF80D50FFF7E2FB5B
:102A0000002C11DD08EB840454F8045DD6F8AC000A
:102A1000012300970DF10F020DF10E018DF80E50FC
:102A2000FFF7D0FBA045EFD130790121FFF79CFEE5
:102A300004B0BDE8F08100BF38B5044600F10805D8
:102A40002A4605231021FFF7C1FF05232A46204609
:102A50000A21FFF7BBFF94F8A42020461121FFF7BD
:102A60008BFFD4F89830D3B1012B19D0022B1FD093
:102A7000032B23D0042B07BFA26F0E21D4F8902084
:102A80000F212046FFF778FFD4F8981020460C4419
:102A900094F8A4201131BDE83840FFF76DBF38BD70
:102AA000052304F120020B212046FFF78FFFEBE7FF
:102AB000A26C0C212046FFF75FFFE5E7226E0D2197
:102AC0002046FFF759FFDFE770B5044664250E4640
:102AD00084B000790021FFF747FED4F8AC000DF177
:102AE0000F020DF10E01009501238DF80E60FFF726
:102AF00069FBFF2304A901F8033DD4F8AC000DF1F4
:102B00000F0201230095FFF75DFB20799DF80F4030
:102B10000121FFF729FE204604B070BD38B50446F8
:102B200000210078FFF720FE20460021FFF7CCFFB0
:102B3000002140F003022046FFF71EFF04F10805C4
:102B4000204670220721FFF717FF2A46204605235B
:102B50001021FFF73BFF05232A4620460A21FFF7F5
:102B600035FF94F8A42020461121FFF705FF2046E9
:102B7000FF22E121FFF700FF2046FF22E221FFF7BD
:102B8000FBFE20780121FFF7EFFD2046BDE838402D
:102B90000121FFF7C7BD00BF2DE9F0410C4684B00D
:102BA00060210546FFF790FF64270646002128793B
:102BB000FFF7DAFD4FF0610CD5F8AC000DF10F0214
:102BC000009701230DF10D018DF80DC0FFF7FAFA02
:102BD000002E15DD4FF0FF08013C2644D5F8AC006F
:102BE000012300970DF10F020DF10E018DF80E80FB
:102BF000FFF7E8FA9DF80F3004F8013FB442EDD139
:102C000028790121FFF7B0FD284640220721FFF770
:102C1000B3FE04B0BDE8F0812DE9F04F85B0CDE9F9
:102C20000232122383649DF83830002610251127C4
:102C300001931323044600F108090366009100F193
:102C4000200AC661C0E90255C0E9045585614663A2
:102C5000C0E90955C56207620763C664C0E90E751D
:102C6000C0E910554666C0E91475C0E91655C66737
:102C7000C0E91A75C0E91C551420DFF814C24FF0E2
:102C8000010B4FF0FF08A0679CE80300C4F89C000C
:102C900015200CF1080CA4F8A010C4F89000C4F89A
:102CA00094609CE80300C4E92075C4F8A400A4F86B
:102CB000A810C4E9225584F8A26084F8B16084F8B1
:102CC000B26084F8B36084F8B46084F8B56084F8C6
:102CD000A38084F8B0B0FFF7FFFC029B039A009931
:102CE00063602260D0B2C4F8AC103146FFF73CFDFF
:102CF00059462079FFF738FD20464FF0FF32042176
:102D0000FFF73AFE20460621FFF7DEFE062140EAE5
:102D100001022046FFF730FE20460621FFF7D4FED1
:102D200020F0280242F0080220460621FFF724FE88
:102D3000324620461C21FFF71FFE20467022072145
:102D4000FFF71AFE31462046FFF7BEFE314640F03F
:102D500070022046FFF710FE31462046FFF7B4FE12
:102D6000314640F00C022046FFF706FE019A20464D
:102D70007D2A28BF7D220521FFF7FEFD94F89E20C5
:102D800094F89D10920042EA410294F89F1094F842
:102D9000A0C042EA0B0294F8A10042EAC10141EA54
:102DA0000C1242EA401284F89CB020460221FFF740
:102DB000E3FD29464A4620460523FFF707FE4A461B
:102DC000204605230A21FFF701FE394694F8A42086
:102DD0002046FFF7D1FD0523524620460B21FFF781
:102DE000F5FD94F8A52020461221FFF7C5FDA26C41
:102DF00020460C21FFF7C0FD94F8A62020461321A1
:102E0000FFF7BAFD226E20460D21FFF7B5FD94F8BD
:102E1000A72020461421FFF7AFFDA26F20460E2108
:102E2000FFF7AAFD94F8A82020461521FFF7A4FD7E
:102E3000D4F8902020460F21FFF79EFD94F8A9209A
:102E400020461621FFF798FD31462078FFF78CFCCD
:102E500042462046E121FFF78FFD42462046E2210F
:102E6000FFF78AFD20461D21FFF72EFE1D2140F0B1
:102E700006022046FFF780FD20463F221C21FFF777
:102E80007BFD2046FFF74AFE204605B0BDE8F08FE7
:102E9000105E000810B590F8A23004467BB1002304
:102EA00080F8A230FFF7C8FD2046FFF737FE172154
:102EB0002046FFF709FEC3070BD5002010BD702286
:102EC0000721FFF759FD17212046FFF7FDFDC30736
:102ED000F3D420460721FFF7F7FDC0F3420001308D
:102EE00010BD00BF0123014410B481F89C3090F85C
:102EF0009E3090F89D2090F89C109B0043EA42037E
:102F000090F89F200B4390F8A01043EAC20390F87A
:102F1000A12043EA011343EA4212022110BCFFF749
:102F20002BBD00BF4B1E70B50D460446042B04D8C4
:102F3000DFE803F051575D4B6B00002300F10806FA
:102F4000C0F8983000212078FFF70EFC631993F841
:102F50009C30ABB30E2200212046FFF70DFD7022FE
:102F600007212046FFF708FD0523324610212046A1
:102F7000FFF72CFD324605230A212046FFF726FDE8
:102F8000D4F898301121234493F8A4202046FFF769
:102F9000F3FC012D31D0AB1E032B05D805F10A013E
:102FA000A2692046FFF7E8FC2046FF22E121FFF757
:102FB000E3FC2046BDE87040FF22E221FFF7DCBCC5
:102FC00029462046FFF78EFFC4E7042300F1680678
:102FD000C0F89830B6E7012300F12006C0F8983019
:102FE000B0E7022300F13806C0F89830AAE70323BF
:102FF00000F15006C0F89830A4E7052304F1080258
:103000000B212046FFF7E2FCCEE7052300F1800606
:10301000C0F8983096E700BF10B517210446FFF7B7
:1030200053FDC30701D5002010BD2046BDE8104068
:103030006021FFF749BD00BF2DE9F041164690F829
:10304000A220202EB04684B005460C4628BF4FF083
:103050002008002A4ED090F8A3209A4244D106219D
:103060002846FFF75FFB702207212846FFF784FC04
:10307000002128796427FFF777FB4FF0A00CD5F8E3
:10308000AC000DF10F02009701230DF10D018DF839
:103090000DC0FFF797F886B1A04414F8016BD5F87E
:1030A000AC00012300970DF10F020DF10E018DF818
:1030B0000E60FFF787F84445EFD128790121FFF72B
:1030C00053FB28780121FFF74FFB28460A21FFF721
:1030D00029FB00212878FFF747FB2846FFF79CFFD4
:1030E000C0B204B0BDE8F08180F8A3301946FFF704
:1030F00019FFB4E7012280F8A330194680F8A22016
:10310000FFF710FFB4E700BF70B5012200240225CD
:103110004FF480334FF4E01194B00AA80A920E9253
:103120000B93129313910C94059401940D94CDE993
:103130000F44CDE90644CDE90844CDE902440494A6
:1031400011950F26FEF7A2FB4FF480624FF4A063A7
:10315000294605A8CDE908230794CDE90565FEF7C2
:10316000B3FD4FF4404301A801950393FEF75EFEC3
:1031700014B070BD264B10B4D96D1A6D186C013A9D
:10318000914204BF4FF0FF32DA65D96D5A6D0131BB
:10319000D965D96D42F82100196E586C0131196654
:1031A000DC6D196D01398C4204BF4FF0FF31D965D8
:1031B000D96D0131D965D96D42F82100196E986C2D
:1031C00001311966DC6D196D01398C4204BF4FF075
:1031D000FF31D965D96D0131D965D96D42F821002A
:1031E000196ED86C01311966DC6D196D01398C428C
:1031F00004BF4FF0FF31D965D96D10BC0131D965DD
:10320000D96D42F821001A6E01321A66704700BF6C
:10321000F80100200F4B03F16402904204D003F147
:10322000AC0290420BD07047D3F8A42001320A2A96
:103230000ABF0022C3F8A420C3E929227047D3F8AB
:10324000EC204FF4007101320348C3F8EC20FEF784
:1032500019BB00BFF80100200008014070B5054609
:103260000C460A4E013CE4B2FF2C0DD04FF4007125
:103270003046FEF707FB002DF4D0013C2846E4B2AF
:10328000FDF756FDFF2CF1D170BD00BF00080140D5
:1032900070B505460C460A4E013CE4B2FF2C0DD039
:1032A0004FF480613046FEF7EDFA002DF4D0013C7A
:1032B0002846E4B2FDF73CFDFF2CF1D170BD00BF04
:1032C00000080140000000002DE9F04F0026DFB0AB
:1032D000FDF70AFDFFF718FFCDE93066CDE932664C
:1032E000B74C3246A3694FF4805143F01003A361F9
:1032F000A369B44803F010030B930B9BA369032548
:1033000043F02003A361A3694FF0010803F02003F9
:103310000C930C9BA369022743F00403A361A369E8
:103320004FF4805A03F004030D930D9BA3694FF0F3
:10333000040943F00803A361A36903F008030E9393
:103340000E9BFEF79BFA32464FF4E0619E48FEF773
:1033500095FA4FF4604330A99C48CDE93035FEF72B
:103360009DF949F6C30330A99748CDE93035FEF7FA
:1033700095F940F6FF7330A99248CDE93035FEF754
:103380008DF930A98F4833973296CDE930A8FEF7F2
:1033900085F94FF4E06330A98B4833973093CDE93A
:1033A0003186FEF77BF96369324643EA08036361BD
:1033B0006369314603EA08030A930B200A9BFDF771
:1033C000EBFF0B20FEF71EF84FF4827C4FF40071E8
:1033D00008220A237E4C7F48C4F8F4C0C4F8F000E9
:1033E00004F1F000C4F80811C4F80C21C4F81C3131
:1033F000C4E93E66C4F80061C4F80461C4F8106111
:10340000C4F81461C4F81861FEF7E8FE4FF4807246
:103410004FF46023704904F5A470C4F85021C4F837
:103420004811C4F86431CDE930663296C4F854814D
:10343000C4F85C61C4F84C61C4F85891FDF7C4FE4F
:10344000062330A904F5A4703293CDE93078FDF756
:103450003FFD30A904F5A470CDE93057FDF738FDE4
:1034600030A904F5A470CDE93095FDF731FD0523B1
:1034700030A904F5A470CDE930398027FDF728FD87
:1034800040F2AF423C23554904F16400C4E91912EB
:103490002367CDE93066CDE93266E666C4E91D668C
:1034A000CDE91766E767FFF7D1F830A904F16400AA
:1034B000CDF8C0A0FEF71AFF17A904F16400CDE90A
:1034C0001766FFF7DFF842F20F724FF4E1534FF047
:1034D0008041642504F1AC00C4E92B12C4F8B83073
:1034E000CDE93066CDE93266CDE91766C4F8B4603F
:1034F000C4F8BC60C4F8C470FFF7A8F830A904F1A0
:10350000AC00CDF8C0A0FEF7F1FE17A904F1AC00A5
:10351000CDE91766FFF7B6F8314B20462360CDE9B9
:103520003066CDE93266CDE91766C4E90166C4E9C3
:103530000366A661FFF78AF830A92046CDF8C0A03F
:10354000FEF7D4FE17A92046CDE91766FFF79AF8D3
:1035500009962565206D0796800000F0EDFB4FF081
:10356000FF3360654FF49670A665E3652666FDF748
:10357000DFFB142304F1F00100931D22192330A86E
:10358000FFF74AFB28460721FFF768FE94F87831D9
:103590000696002B00F094800025D4F854C0236ECA
:1035A000002B00F08880236E002B6BD0042E69D88E
:1035B00006EB46030FAA02EB4303B64617E000BF33
:1035C00000100240000C01400008014000100140C2
:1035D000F80100200038004000240140002C014088
:1035E00000040040BEF1050F03F106034CD0A26DAC
:1035F000511CA1655CF82220A06D216D884200D18C
:10360000A565216E0EF1010E01392166A16D481CE0
:10361000A0655CF82100A66D216D8E4208BFA565EE
:10362000216E01392166A16D4E1CA6655CF82160F2
:10363000A76D216D8F4208BFA565216E01392166F6
:10364000A16D4F1CA7655CF82110D4F85880276D38
:103650001A70B84508BFA565276EC2F30322013F63
:10366000276642EA00125A70C6F30327226E47EA21
:103670000117000909099870DE701F715971002A3D
:10368000B0D17646052E8AD1069E00231F220FA9AF
:1036900030A88DF85A60FFF7CFFCD8B9069BFE2BF7
:1036A00015D00133DBB20693236E0026D4F854C044
:1036B000002B7FF478AF94F87831002B7FF46FAF54
:1036C00030A8FFF7E7FBD8B994F8783161E7002319
:1036D0000693E9E717A930A8FFF75EFA0422AA4982
:1036E00017A801F05FF806460028D7D1A748FDF7D4
:1036F00011FE07216420FFF7B1FD84F87861CDE762
:1037000017A930A8FFF748FA0522A14917A801F028
:1037100049F8B8B105229F4917A801F043F80546BA
:1037200050BB079B9C48002B00F0BF80FEF7C8FDF4
:1037300001224FF4007199480795FEF79FF894F81D
:10374000783126E7079B13B19348FEF7B9FD4FF494
:1037500000719248FEF796F806216420FFF798FD65
:1037600001238F49042201F5847084F87831FDF734
:103770007DFC94F878310CE70B228A4917A801F0F8
:1037800011F80546002800F097800622864917A800
:1037900001F008F8002897D1079B002B40F0E38048
:1037A00000224FF400717D48FEF768F87C4904223E
:1037B00001F58470FDF75AFC7748FEF775FD00218E
:1037C000636D0D46884689468A460E460A46C4F809
:1037D000EC1003E0206E002840F08A80D4F8EC1052
:1037E0000029F7D06948FDF795FD6B48FEF768FDA5
:1037F00001224FF400716948FEF740F8236E8BB147
:103800000021626DA36D581CA06552F82330A06D95
:10381000236D984208BFA165236E013B2366236E8A
:10382000002BEFD1BAFBF6F0FCF704FF8246B9FBA0
:10383000F6F0C4F87CA1FCF7FDFE8146B8FBF6F07B
:10384000C4F88091FCF7F6FE8046B5FBF6F0C4F8AC
:103850008481FCF7EFFE00250646C4F8EC50504684
:10386000C4F88861FCF7D8FD824630468B46FCF7E9
:10387000D3FDCDE904014046FCF7CEFDCDE90201C0
:103880004846FCF7C9FD5246CDE900015B46474971
:1038900017A800F067FF2B461F2217A930A8FFF7D3
:1038A000CBFB2E4694F8783173E6FEF7FDFC01233E
:1038B000079394F878316CE62DA3D3E900232EA169
:1038C000D1E90001CDE90423CDE90201CDE90023CE
:1038D0002BA3D3E90023364917A800F043FF2B465A
:1038E0001F2217A930A8FFF7A7FB94F8783150E6FC
:1038F000A06D0136471CA76553F82000D4F858C0C6
:10390000276D8244BC4508BFA165216E013921663F
:10391000A16D481CA06553F82100A76D216D81445D
:103920008F4208BFA265216E01392166A16D481C36
:10393000A06553F82100A76D216D80448F4208BF18
:10394000A265216E01392166A16D481CA06553F85E
:103950002100A76D216D05448F4208BFA265216E2D
:10396000013921663AE70C48FEF7AAFC18E700BFC8
:103970009F5A58E9A985753F790515AFA0E2753FB3
:10398000112942953704753F885E000840030020E6
:10399000385E0008405E0008A402002000080140D4
:1039A00038020020485E00086C5E0008745E000863
:1039B000545E0008704700BF0E4B82B09A690E49F2
:1039C00042F001029A619A6902F001020092009AA3
:1039D000DA6942F08052DA61DB6903F080530193C7
:1039E000019B4B6823F0E06343F000734B6002B02F
:1039F000704700BF0010024000000140F0B50024F5
:103A00000268254B87B09A42CDE90244CDE90444CF
:103A100001D007B0F0BD06463C20032503F56C43FA
:103A20009A6902A942F400729A619A69802702F4A5
:103A300000720092009A9A6942F004029A619B69AE
:103A4000029003F0040301931448019B0395FDF7D2
:103A500025FE4FF400714FF400622023104D1148F1
:103A6000EF6028602846C5E90144EC61C5E904120D
:103A7000AB61FDF7EBFC58B900223562114612200C
:103A80006E62FDF789FC1220FDF7BCFC07B0F0BDAB
:103A9000FFF790FFF0E700BF00240140000801405D
:103AA000580400200800024070B5002402681A4B38
:103AB00086B09A42CDE90244CDE9044401D006B073
:103AC00070BD4FF420410226032503F5EC33DA697B
:103AD000124842F48042DA61DA6902F480420092CC
:103AE000009A9A6942F008029A619B69029103F078
:103AF0000803019302A9019B03960595FDF7CEFDEE
:103B00004FF4804302A90548CDE903440293FDF731
:103B1000C5FD06B070BD00BF00380040000C01407C
:103B200010B50368214A84B0934213D0B3F1804F9B
:103B300025D01F4A934201D004B010BD1D4BDA6955
:103B400042F00202DA61DB6903F002030393039B94
:103B500004B010BD0022174B11469C69192044F493
:103B600000649C619B6903F400630193019BFDF772
:103B700013FC192004B0BDE81040FDF743BC00223F
:103B800003F50433DC69114644F00104DC61DB69B0
:103B90001C2003F001030293029BFDF7FDFB1C2098
:103BA00004B0BDE81040FDF72DBC00BF002C014063
:103BB0000004004000100240704700BFFEE700BF55
:103BC000FEE700BFFEE700BFFEE700BF704700BF93
:103BD000704700BF704700BFFDF798B80148FDF778
:103BE000C7BC00BF580400200148FDF7E5B800BF7E
:103BF000400300200148FEF743BC00BF5C020020E8
:103C00000148FEF73DBC00BFA40200200C4A08B5E5
:103C1000136833B169461844884209D810601846C1
:103C200008BD08490B461160694618448842F5D919
:103C300000F058F80C224FF0FF330260184608BD20
:103C4000A0040020B804002030B44FF41F054FF04A
:103C500000640E4B0E4A19680E4841F001011960CC
:103C600059680A405A601A6822F0847222F480323D
:103C70001A601A6822F480221A605A6822F4FE023E
:103C80005A609D60846030BC704700BF00100240E5
:103C90000000FFF800ED00E0002103E00B4B5B5853
:103CA000435004310A480B4B42189A42F6D30A4A51
:103CB00002E0002342F8043B084B9A42F9D3FFF795
:103CC000C3FF00F015F8FFF7FFFA7047F86000082F
:103CD00000000020DC010020DC010020B8040020EE
:103CE000FEE70000014B1868704700BF0C00002081
:103CF00070B500250C4E0D4CA41BA410A54209D193
:103D000002F072F800250A4E0A4CA41BA410A5422A
:103D100005D170BD56F8253098470135EEE756F8C5
:103D2000253098470135F2E7F0600008F0600008A0
:103D3000F0600008F4600008024B0146186800F0CB
:103D400057B800BF0C00002003460244934200D144
:103D5000704703F8011BF9E738B50546002943D041
:103D600051F8043C0C1F002BB8BFE41801F097FB7E
:103D70001E4A1368104633B9636014602846BDE8D4
:103D8000384001F08DBBA3420BD9216862189342E1
:103D900001BF1A685B685218226063600460EDE737
:103DA00013465A680AB1A242FAD919685818A042B3
:103DB0000BD120680144581882421960DED1106886
:103DC0005268014419605A60D8E702D90C232B606D
:103DD000D4E7206821188A4201BF11685268091887
:103DE000216062605C60C9E738BD00BFA8040020A4
:103DF00070B5CD1C25F0030508350C2D38BF0C25FA
:103E0000002D064601DBA94203D90C2333600020B4
:103E100070BD01F044FB214A1468214691B9204C41
:103E200023681BB9304600F08DFC206029463046DF
:103E300000F088FC431C24D10C233046336001F091
:103E40002FFBE4E70B685B1B18D40B2B0FD90B601F
:103E5000CC18CD50304601F023FB04F10B00231D9C
:103E600020F00700C31AD3D05A42E250D0E74B6883
:103E70008C4216BF636013600C46EBE70C46496842
:103E8000CCE7C41C24F00304A04205D0211A30461C
:103E900000F058FC0130CFD02560DBE7A8040020FB
:103EA000AC040020002B2DE9F0471E46BBBF03F1F8
:103EB00000431E4600232D2388B0149FDDE9121A0B
:103EC00027F02007462F1446109D0B7004D0452F75
:103ED00000D10135022300E0032307AA049206AAB9
:103EE000CDE902A2CDE900352246334600F0FCFCC4
:103EF000472F804602D1119BDB0726D5462F08EBC2
:103F0000050911D198F80030302B0AD10022002386
:103F100020463146FCF756FE18B9C5F10105CAF82E
:103F20000050DAF800309944002200232046314640
:103F3000FCF748FE38B93022079B4B4505D2591C87
:103F400007911A70F8E7CDF81C904046079B159A28
:103F5000A3EB0803136008B0BDE8F087F7B50029AC
:103F6000B4BF2D232B230446B8BF4942092904F8C6
:103F7000022B437021DD0DF107031F460A2691FB3A
:103F8000F6F506FB1511092D01F1300103F8011CAE
:103F900003F1FF32294609DC3031023B02F8011CF3
:103FA000BB42224604D3101A03B0F0BD1346E6E725
:103FB00013F8012B04F8012BF2E730231944837026
:103FC000021DC170EFE700002DE9F04F91B00C46E3
:103FD0001A9F93461E46054601F03AFA03681846B2
:103FE0000993FCF77FFB00230E933B680A9007338D
:103FF00023F0070303F1080294F81880D4F800A016
:104000003A60D3E90023C4E91223D4E9127929F0F4
:1040100000430B934FF0FF32A64B38460B99FCF749
:1040200003FE68BB4FF0FF32A24B38460B99FCF7FA
:10403000DDFD28BB0022002338464946FCF7CCFDB5
:1040400010B12D2384F843309B4F9C4BB8F1470FA0
:1040500098BF1F4603234FF0000923612AF0040391
:10406000236000965B460FAA2146284600F0E2F93D
:10407000013040F090804FF0FF3011B0BDE8F08F7C
:104080003A464B4638464946FCF7CEFD10B18C4FB8
:104090008C4BDBE763684AF48062591C0DA80EA9BB
:1040A00040D1062363604FF0000C0DF13303CDE9DE
:1040B000012363682260CDE9030800933A464B462A
:1040C000CDE9051C2846FFF7EDFE08F0DF03472B7E
:1040D000074609D10D9BD81C02DB6268934247DD7D
:1040E000A8F102085FFA88F8B8F1650F0D9924D895
:1040F0000139424604F150000D91FFF72FFF0E9A4F
:1041000081461318012A236102DC2268D10701D5F8
:10411000013323619DF83330002BA2D02D2384F886
:1041200043309EE7B8F1670F00F06E81B8F1470F9A
:10413000B9D1002BB7D10123B4E7B8F1660F19D17B
:10414000002963680CDD216113B92268D20702D50A
:1041500001330B4423610D9B4FF00009A365D9E7A0
:1041600013B92268D00701D50233F3E70123F1E741
:104170004FF06708DDE90D32934205DB22682361C9
:10418000D107E8D50133E5E7002BCCBF0123C3F10C
:1041900002031344DEE723685A0507D423693A462D
:1041A00059462846B047013029D164E7B8F1650F78
:1041B00040F2D780D4E9120100220023FCF702FD6F
:1041C00088B30123404A59462846B04701303FF49E
:1041D00052AFDDE90D239A4202DB2368D8070ED5E2
:1041E000DDE9092359462846B04701303FF443AF83
:1041F000002704F11A080E9B013BBB4209DC23682F
:104200009F0700F1FD80E0680F9B9842B8BF1846F9
:1042100033E70123424659462846B04701303FF470
:104220002AAF0137E7E70D9B002B2BDC0123264A41
:1042300059462846B04701303FF41DAF0D9B23B9C6
:104240000E9B13B92368D907D9D5DDE9092359464F
:104250002846B04701303FF40EAF4FF0000804F19C
:104260001A090D9B5B42434501DC0E9B97E7012336
:104270004A4659462846B04701303FF4FCAE08F1A3
:104280000108EEE70E9AA36D9A42A8BF1A46002ACB
:10429000904607DD134659463A462846B047013056
:1042A0003FF4E9AE04F11A034FF0000A28EAE87877
:1042B0000B9315E0FFFFEF7F945E0008905E00080F
:1042C0009C5E0008985E0008A05E000801230B9A1F
:1042D00059462846B04701303FF4CDAE0AF1010AF5
:1042E000D4F85890A9EB08035345EFDCDDE90D2322
:1042F0009A424F4414DB2368DA0711D40E9B0D99C0
:10430000A3EB0902A3EB01099145A8BF9146B9F1BE
:10431000000F0DDC002729EAE97904F11A0818E0FA
:10432000DDE9092359462846B0470130E6D1A2E627
:104330004B463A4659462846B0470130EAD19AE6FC
:104340000123424659462846B04701303FF493AE18
:104350000137DDE90D239B1AA3EB0903BB42EFDC18
:104360004DE70E9A012A01DCDB0738D501233A46D6
:1043700059462846B04701303FF47DAEDDE90923B8
:1043800059462846B047013007F101073FF473AEA4
:10439000D4E912010E9B002203F1FF380023FCF741
:1043A00011FCC0B943463A4659462846B047013049
:1043B0000DD160E60123424659462846B0470130F8
:1043C0003FF459AE01370E9B013BBB42F2DC4B463A
:1043D00004F15002E4E6002704F11A08F3E7012390
:1043E000E1E70123424659462846B04701303FF4F1
:1043F00042AE0137E3680F9A9B1ABB42F1DC02E739
:10440000002704F11908F5E7002B3FF494AE4FF0B4
:10441000000CCDE9051C0DF133012260CDE9030844
:10442000CDE9012100933A464B462846FFF73AFD75
:1044300007464FE62DE9F04791461F468A680B690B
:1044400006469342B8BF1346C9F8003091F843209E
:104450000C46DDF8208012B10133C9F80030236822
:10446000990642BFD9F800300233C9F800302568F8
:1044700015F0060507D104F1190AE368D9F8002000
:104480009B1AAB4229DC94F843302268003318BFF2
:10449000012392062ED404F1430239463046C04728
:1044A000013021D02368E56803F00603042B18BF10
:1044B0000025D9F800204FF0000908BFAD1AA36805
:1044C000226908BF25EAE5759342C4BF9B1AED181F
:1044D0001A344D451AD1002008E0012352463946CE
:1044E0003046C047013003D14FF0FF30BDE8F087C0
:1044F0000135C2E73020E11881F843005A1C94F8D6
:1045000045102244023382F84310C4E701232246B7
:1045100039463046C0470130E6D009F10109D8E7F5
:104520002DE9F04301F1430C0C46097E85B06E295C
:104530001746064698460C9A00F0B38022D86329A5
:1045400036D00AD8002900F0B980582900F08380BD
:1045500004F1420584F8421032E0642901D069294F
:10456000F6D120681368050603F104012AD51B68FB
:104570001160002B03DA2D225B4284F843206F4840
:104580000A2239E0732900F09D8008D86F2920D0D5
:104590007029DDD1236843F02003236003E07529EF
:1045A00017D07829D4D17823654884F8453055E070
:1045B000136804F14205191D1B68116084F842302C
:1045C00001238CE01B6810F0400F116018BF1BB274
:1045D000CFE713682568181D1060280601D51B68F1
:1045E00002E06806FBD51B886F2914BF0A22082247
:1045F0005248002184F843106568002DA560C0F280
:104600009580216821F004012160002B3DD1002D0F
:1046100040F08E806546082A0BD12368DB0708D559
:10462000236962689A42DEBF302305F8013C05F138
:10463000FF35ACEB05032361CDF800803B4603AAB0
:1046400021463046FFF7F6FE01304DD14FF0FF30E6
:1046500005B0BDE8F083394884F845101368216837
:104660001D1D1B6815600A060BD5CA0744BF41F023
:10467000200121601BB9226822F020022260102252
:10468000B7E74D0648BF9BB2EFE76546B3FBF2F1D3
:1046900002FB1133C35C05F8013D0B460029F5D13F
:1046A000B9E713682568181D6169106028061B6842
:1046B00001D5196002E06A06FBD519800023654622
:1046C0002361B9E71368191D11601D686268002134
:1046D000284600F0CBFE08B1401B60606368236190
:1046E000002384F84330A7E723692A463946304639
:1046F000C0470130AAD023689B0713D4E068039B0E
:104700009842B8BF1846A3E701234A4639463046C7
:10471000C04701309AD00135E368039A9B1AAB4237
:10472000F2DCEBE7002504F11909F5E7002BACD129
:10473000037804F1420584F842306CE7A25E000879
:10474000B35E000838B50023054C054608462360D3
:10475000FFF75CFA431C02D1236803B12B6038BD1C
:10476000B40400200EB46FF0004100B59CB01DAB46
:1047700002900690079104910848094953F8042BC8
:104780000591006802A9019301F0D0F90022029B73
:104790001A701CB05DF804EB03B070470C000020E9
:1047A0000802FFFF10B56AB10139841810F8013B07
:1047B00011F8012F934203D1A04201D0002BF5D173
:1047C000981A10BD1046FCE72DE9F74F03690C69F4
:1047D0008046A342C0F28480013C01F1140700F13D
:1047E000140657F8245056F824000135B0FBF5F5AF
:1047F0004FEA840C06EB0C0307EB0C0901939DB305
:104800004FF0000A3846B646D34650F8042B93B210
:1048100005FB03A3120C4FEA134A05FB02A29BB24D
:10482000ABEB0303DEF800B04FEA124A1FFA8BFB32
:104830005B441FFA82FBDEF800208145CBEB12427D
:1048400002EB23429BB243EA02434FEA224B4EF86B
:10485000043BDAD256F80C3033B9019B043B9E423C
:104860001A4631D3C8F81040404601F02FF800280E
:1048700026DB30464FF0000C013557F8041BD0F80A
:1048800000E08BB2ACEB03031FFA8EF213440A0C68
:10489000C2EB1E4202EB23429BB243EA0243B945FC
:1048A0004FEA224C40F8043BE7D256F8242006EBAE
:1048B00084032AB9043B9E421A460BD3C8F8104021
:1048C000284603B0BDE8F08F1268043B002AC9D126
:1048D000013CC4E71268043B002AEFD1013CEAE73F
:1048E0000020EEE7000000002DE9F04F16461F46BD
:1048F000456A95B00446DDF88480CDE902673DB98C
:104900001020FFF719FA6062C0E901550560C56023
:10491000636A196851B15A68012393404A608B60F9
:10492000204600F0F2FD0022636A1A603B1EAFBF12
:104930000023012223F000430393ACBFC8F80030EA
:10494000C8F80020AE4BDDF80C8033EA08031BD119
:1049500042F20F73209A1360029B23B9C8F313002D
:10496000002800F04585229B53B9A64B21E0A64BB9
:1049700006930833229A1360069815B0BDE8F08FAD
:10498000A04B06930333F5E7DDE90267002200231D
:1049900030463946FCF716F9824660B10123209A69
:1049A0001360229B002B00F02085984B229A136005
:1049B000013B0693E0E712AB019313AB0093324641
:1049C0003B46204600F0FAFFC8F30A558346002D07
:1049D0007DD0B046C7F3130343F07F5949F4401923
:1049E000A5F2FF35CDF840A00022894B404649464C
:1049F000FBF7B2FB7CA3D3E90023FBF77BFE7CA390
:104A0000D3E90023FBF7AAFB064628460F46FBF72F
:104A1000F1FC79A3D3E90023FBF76CFE02460B46B9
:104A200030463946FBF79AFB06460F46FCF712F96B
:104A300000228246002330463946FCF7CDF848B1C3
:104A40005046FBF7D7FC32463B46FCF7BBF808B9AB
:104A50000AF1FF3ABAF1160F5AD8DDE902236D497F
:104A600001EBCA01D1E90001FCF7D4F8002851D0CC
:104A700000230AF1FF3A0D93129B5D1B6B1E0793F7
:104A800043BF0023C5F1010907934FF00009BAF1B4
:104A9000000F41DB079BCDF830A053440793002360
:104AA00008931E9B092B00F28F80052BC4BF043B8B
:104AB0001E931E9BC8BF0025A3F10203D8BF01258A
:104AC000032B00F28D80DFE803F07B7D2F6FDDE9A3
:104AD00012531D4405F23240202813DDC0F140007E
:104AE000029B08FA00F805F2124023FA00F048EAA7
:104AF0000000FBF76FFC01238046A1F1F879013D2E
:104B0000109371E7029BC0F1200003FA00F0F0E778
:104B10000123B0E70D90AFE7CAF10003089300232B
:104B2000A9EB0A090C93BCE7012309931F9B002BF7
:104B300074DD984604930022666A7260042202F1D2
:104B40001400984271686ED9204600F0AAFC636A8E
:104B500030601B68B8F10E0F069300F2ED80002D57
:104B600000F0EA80DDE90223BAF1000FCDE90E235F
:104B700077DD284A0AF00F034FEA2A1602EBC30337
:104B8000F006D3E90023CDE90A2368D5DDE90E015B
:104B9000214B0325D3E90823FBF7D6FECDE902011B
:104BA00006F00F061C4F4FE0012309931F9B53444F
:104BB00003F1010804934346012BB8BF0123BAE770
:104BC0000023B2E70023F0E70125002309951E9397
:104BD0004FF0FF3300220493984612231F92AAE756
:104BE00001230993F4E700BF61436F63A787D23FB6
:104BF000B3C8608B288AC63FFB799F501344D33FCC
:104C00000000F07FCD5E0008C45E0008A15E0008D1
:104C10000000F83F005F0008D85E000801230493FD
:104C200098461A46DAE701317160520087E7F107CA
:104C300008D5DDE90A01D7E90023FBF75BFDCDE9E3
:104C40000A01013576100837002EF0D1DDE90A237C
:104C5000DDE90201FBF778FECDE902011BE0022548
:104C6000A0E700F0A480DDE90E01CAF10006A04B28
:104C700006F00F0203EBC203D3E90023FBF73AFD72
:104C800002250023CDE902019A4F3611002E40F093
:104C90008380002BE0D10D9B002B00F08A80DDE9A2
:104CA0000223CDE90A23DDE90A010022924BFBF73A
:104CB00093FF00287DD0B8F1000F7AD0049B002B21
:104CC00036DDDDE90A0100228C4BFBF713FDCDE94F
:104CD0000201049E0AF1FF3701352846FBF78AFBE3
:104CE000DDE90223FBF706FD0022854BFBF736FAD0
:104CF000A1F15075CDE90A010B95002E5CD1DDE9DB
:104D0000020100227F4BFBF727FA0A9A2B46CDE9D6
:104D10000201FBF77FFF002840F08182DDE90201FC
:104D20000A9A05F10043FBF757FF002840F075820F
:104D3000DDE90E23CDE90223139B002BC0F24B814A
:104D4000BAF10E0F00F34781694B03EBCA03D3E9B5
:104D50000023CDE904231F9B002B80F2D780B8F1FC
:104D6000000F00F3D38040F05782DDE904010022F8
:104D7000644BFBF7BFFCDDE90223FBF741FF46462E
:104D80004746002840F02D82069B069A5D1C312381
:104D90000AF1010A137028E2F20705D5D7E90023CA
:104DA000FBF7A8FC01230135761008376EE70225D2
:104DB00071E75746464690E74D4B03EBC60353E970
:104DC0000201099B002B48D002460B4600204E49A9
:104DD000FBF7BAFDDDE90A23FBF7BEF9CDE90A01CD
:104DE000069DDDE90201FBF735FF1190FBF702FBA1
:104DF00002460B46DDE90201FBF7AEF9119BCDE956
:104E00000201303305F8013BDDE90A23FBF7E4FE3C
:104E1000002863D1DDE9022300203749FBF79CF924
:104E2000DDE90A23FBF7D8FE002840F0B580069B99
:104E3000EB1A9E427FF77CAFDDE90A0100222F4B7F
:104E4000FBF758FC0022CDE90A01DDE902012B4BFA
:104E5000FBF750FCCDE90201C3E7DDE90A23FBF7CC
:104E600049FC069BCDE90A019D191E46DDE90201B8
:104E7000FBF7F0FE1190FBF7BDFA02460B46DDE9A9
:104E80000201FBF769F9119BCDE90201303306F805
:104E9000013BAE424FF0000224D1DDE90A011A4B7A
:104EA000FBF75CF902460B46DDE90201FBF7B2FEB7
:104EB000002871D1DDE90A2300201349FBF74CF9E2
:104EC00002460B46DDE90201FBF786FE00283FF4AF
:104ED0002FAF15F8013C6A1E302B01D0BA464AE0CC
:104EE0001546F6E7054BFBF705FCCDE90201BDE7EA
:104EF000005F0008D85E00080000F03F000024407A
:104F000000001C40000014400000E03F069DDDE969
:104F10000267DDE9042330463946FBF715FDFBF750
:104F200099FE8146FBF766FADDE90423FBF7E2FB15
:104F300002460B4630463946FBF70EF909F13006BA
:104F400005F8016B069E0246AE1BB0450B4635D1F7
:104F5000FBF704F9DDE9042306460F46FBF75AFE8A
:104F6000C8B9DDE9042330463946FBF72BFE10B102
:104F700019F0010F0FD15946204600F0C6FA002360
:104F8000209A2B700AF101031360229B002B3FF43F
:104F9000F3AC1D60F0E4574615F8012C6B1E392A5E
:104FA00006D1069A9A4207D130231370134601376F
:104FB0001A7801321A7091E71D46EDE70022994BED
:104FC000FBF798FB0022002306460F46FBF7FAFD8D
:104FD00000289ED0CFE7099A002A00F088801E9A08
:104FE000012A6DDC109A002A66D003F233434D4645
:104FF000089E079A01211A4420469944079200F01E
:1050000024FB0746002D0BDD079B002B08DDAB4280
:10501000A8BF2B46079AA9EB0309ED1AD31A0793E9
:10502000089BEBB1099B002B65D08EB13946324607
:10503000204600F0A9FB5A4601460746204600F0EC
:105040000DFB59460A90204600F05FFA0A9B9B46EA
:10505000089B9A1B04D05946204600F095FB8346D6
:105060000121204600F0F1FA0C9B0646002B00F0CF
:10507000C6811A460146204600F086FB1E9B064666
:10508000012B3EDC029B002B37D1039BC3F31303A0
:10509000002B34D1039B23F000431B0D1B052BB1C8
:1050A000079B09F1010901330793012308930C9B26
:1050B000002B28D101202EE0129BC3F1360396E786
:1050C000089B08F1FF36B342B7BF089B9E1BF21A3C
:1050D0000C9BBFBF08969B180C930026B8F1000FDD
:1050E000B9BFA9EB080500234D46434681E7089E5A
:1050F0004D46099F86E7089AADE70023D6E7029B55
:10510000D4E700230893336906EB8303186900F0A2
:105110004EFAC0F12000079B184410F01F0047D042
:10512000C0F12003042B3BDD079BC0F11C00814430
:10513000054403440793B9F1000F05DD59464A467B
:10514000204600F06FFB8346079B002B05DD3146B0
:105150001A46204600F066FB06460D9B53B33146C7
:10516000584600F0B3FB002824DA002359460A22EF
:10517000204600F0E1F9099B0AF1FF3A8346002B33
:1051800000F04481002339460A22204600F0D4F979
:10519000049B0746002B4DDC1E9B022B4ADD11E0D1
:1051A000C9D0079A1C331A4499441D441346C1E7D9
:1051B0000346F6E7B8F1000F36DC1E9B022B33DD09
:1051C000CDF81080049B63B931460522204600F0DB
:1051D000B3F901460646584600F078FB00283FF731
:1051E000D3AD1F9B069D6FEA030A4FF000093146BD
:1051F000204600F08AF9002F3FF4BDAEB9F1000F50
:1052000005D0B94503D04946204600F07EF939461D
:10521000204600F07AF9AEE600263746E1E7BA46C6
:105220003746B1E500002440099BCDF81080002BE3
:1052300000F0F380002D05DD39462A46204600F0B7
:10524000F1FA0746089B002B4CD07968204600F005
:1052500028F905463A6907F10C01023292000C3038
:1052600000F012F901222946204600F0DBFAB94687
:105270000746069B0793029B03F001030893314600
:105280005846FFF7A1FA4946054600F1300858464E
:1052900000F01CFB3A4602903146204600F030FBFD
:1052A000C368024603BB01460990584600F00EFB56
:1052B0000346099A11462046099300F026F9099BF6
:1052C000A3B91E9A92B9089A82B9B8F1390F29D0B8
:1052D000029B002B01DD05F13108079B5D1C83F863
:1052E000008084E73846C2E70123E3E7029A002AF8
:1052F00004DB23D11E9A0ABB089AFAB9002BECDD15
:1053000059460122204600F08DFA3146834600F0CE
:10531000DDFA002803DCE0D118F0010FDDD0B8F190
:10532000390FD8D1079B079A5D1C3923137015F8E4
:10533000013C6A1E392B4DD0013352E0079A002BF5
:1053400002F1010506DDB8F1390FEBD008F10108D3
:10535000079BC4E7069B049AEB1A934205F8018C5D
:1053600021D0594600230A22204600F0E5F8B9452D
:1053700083464FF000034FF00A024946204605D10C
:1053800000F0DAF881460746079578E700F0D4F890
:105390003946814600230A22204600F0CDF8074610
:1053A000F2E74FF0000959460122204600F03AFA90
:1053B0003146834600F08AFA0028B8DC02D118F0A2
:1053C000010FB4D115F8013C6A1E302B7FF40FAFEA
:1053D0001546F7E7069B934205D13123069A0AF159
:1053E000010A137003E71546A1E7174BFFF7E1BA6F
:1053F000229B002B7FF4BBAA144BFFF7DABA1E9B4B
:10540000012B7FF73FAE0C9B089353E6049B002BC8
:1054100003DC1E9B022B3FF7D5AE069D3146584656
:10542000FFF7D2F9069B00F1300805F8018B049ACA
:10543000EB1A9A42B5DD594600230A22204600F0B5
:105440007BF88346EAE700BFA05E0008C45E000860
:10545000044B1B68186A044B002808BF1846F0303C
:10546000704700BF0C0000207000002010B5C9B2CA
:1054700002449042034601D1002303E01C7801302E
:105480008C42F6D1184610BD10B5431E0A44914215
:1054900000D110BD11F8014B03F8014FF7E7704739
:1054A000704770B5456A04460E463DB91020FEF7B8
:1054B00043FC6062C0E901550560C560656AEB6840
:1054C00083B1636ADB6853F82600B8B9012101FA99
:1054D00006F56A1D9200204600F0BFFA60B1C0E9EF
:1054E00001650EE021220421204600F0B6FA636A2D
:1054F000E860DB68002BE4D1002070BD026843F84F
:1055000026200023C0E90333F7E770B5446A064656
:105510000D463CB91020FEF70FFC7062C0E9014453
:105520000460C4603DB1736A6A68DB6853F8221096
:10553000296043F8225070BD2DE9F0411F46064610
:105540000C4600230D6901F1140CDCF80000013356
:1055500081B202FB0171000C0F0C02FB007089B2DA
:1055600001EB00419D424FEA10474CF8041BECDC74
:10557000D7B1A368AB4212DC616830460131FFF756
:1055800090FF8046226904F10C01023292000C3037
:10559000FFF77AFF21463046FFF7B7FF444604EB9A
:1055A000850301355F6125612046BDE8F081020C6D
:1055B00012040346B2B90304102013F07F4F04BF56
:1055C0001B02083013F0704F04BF1B01043013F0AE
:1055D000404F04BF9B000230002B06DB5B0003D56D
:1055E000013070470020E8E720207047036801463B
:1055F00013F007020BD0DA0723D4980749BF5B08E2
:105600009B0801200B605CBF0B600220704798B2C2
:10561000A8B910201B0C13F0FF0F04BF1B0A0830A1
:105620001A0704BF1B0904309A0704BF9B08023005
:10563000DA0702D45B0806D001300B6070471046D1
:10564000E9E7002070472020704710B50C46012183
:10565000FFF727FF01224461026110BD2DE9F74FDA
:1056600014460A69236988469A42BEBF0B46A04683
:105670001C46D8F81070D4F81090D8F80830D8F834
:10568000041007EB0906B342B8BF0131FFF709FF69
:1056900000F114052B46002205EB860E734516D348
:1056A00004F1140208F1140102EB890301EB8707EE
:1056B0000093009B019293420CD8002E03DD5EF80C
:1056C000043D002B5DD0066103B0BDE8F08F43F8C8
:1056D000042BE3E7B2F800B0BBF1000F23D08946FA
:1056E000AC464FF0000859F8044BDCF800A0A3B218
:1056F0001FFA8AFA0BFB03A34FEA144ADCF80040B6
:1057000043444FEA14480BFB0A84E24604EB13447B
:105710009BB243EA04434F454FEA14484AF8043B1E
:105720002BD8CCF80480019B0432B3F802A0BAF164
:10573000000F20D08946A8464FF0000B2B68B9F81F
:1057400000C0B8F802409BB20AFB0C44C4465C445B
:1057500043EA04434CF8043B59F8043BB8F804B05E
:105760001B0C0AFB03B34F4503EB14434FEA134BE7
:1057700005D8C8F8043004359BE7D446B3E7E046C3
:10578000DDE7013E99E700002DE9F843154612F0E8
:10579000030206460F4607D0214C013A002354F875
:1057A0002220FFF7C9FE0746AD1035D0746A3CB918
:1057B0001020FEF7C1FA7062C0E901440460C460C1
:1057C000D6F82480D8F808404CB940F27121304610
:1057D000FFF73BFF00230446C8F8080003604FF0C2
:1057E0000008EB070AD5394622463046FFF736FF58
:1057F000814639463046FFF788FE4F466D100BD084
:10580000206838B9224621463046FFF727FF20603E
:10581000C0F800800446E4E73846BDE8F88300BFDE
:10582000C85F00082DE9F0470C4607461646236975
:105830004FEA621A0AEB03094968A36809F10105F6
:10584000AB4232DB3846FFF72CFE002380461A4677
:1058500000F1140153452BDB20692AEAEA7A04F1AE
:10586000140316F01F0201EB8A0103EB800C25D014
:105870000020C2F1200E8A461E68964030434AF846
:10588000040B53F8040B9C4520FA0EF014D8486022
:1058900008B109F10205013D3846C8F8105021460B
:1058A000FFF733FE4046BDE8F08701315B00C7E7F4
:1058B00041F823200133CDE75146DCE7043953F8A2
:1058C000042B9C4541F8042FF9D8E4E703690A69E1
:1058D00030B59B1A0CD19200143014318418114445
:1058E00054F8045D51F8042D954203D005D30123EB
:1058F000184630BDA042F3D3FAE74FF0FF33F7E785
:105900002DE9F0470D460746114628461446FFF795
:10591000DDFF061E08D131463846FFF7C2FD0123E0
:10592000C0E90436BDE8F087A4BF23462C463846BC
:105930006168A6BF1D4600260126FFF7B2FD4FF0A5
:10594000000EC6602B69266904F1140205F11409E2
:1059500002EB860709EB830800F1140152F804AB4F
:1059600059F8045B1FFA8AF37344ACB21B1B2C0C6E
:10597000C4EB1A4404EB23449BB24FEA244EC845BF
:1059800043EA0444944641F8044BE7D8BC4504D3A9
:1059900051F8043D83B10661C4E75CF8044BA2B240
:1059A0007244131403EB144392B242EA03424FEAE7
:1059B000234E41F8042BE9E7013EE9E72DE9F341E5
:1059C0001C46DDE9086501219046FFF76AFDC4F336
:1059D0001302C4F30A54074634BB0192B8F1000223
:1059E00027D002A840F8082DFFF700FE0099F0B17B
:1059F000019AC0F1200302FA03F30B43C2407B611A
:105A00000192019B002B14BF02210121BB6139616E
:105A1000C4B1A4F2334404443460C0F135002860BA
:105A2000384602B0BDE8F08142F48012D5E77961D2
:105A3000E7E701A8FFF7DAFD0121019B39617B61EE
:105A40002030E5E7A0F2324007EB810330601869AF
:105A5000FFF7ADFDC0EB4110E1E738B502FB01F403
:105A60002146FEF7C5F9054618B122460021FEF78A
:105A70006BF9284638BD2DE9F0478E6882469E4274
:105A80000C469046994637D88A8912F4906F31D0E7
:105A90000223256809696F1A656905EB450595FBC1
:105AA000F3F509F101033B449D4238BF1D46530500
:105AB00030D52946FEF79CF9064650B90C234FF025
:105AC000FF30CAF80030A38943F04003A381BDE84A
:105AD000F0873A462169FFF7D7FCA38923F4906346
