:020000040800F2
:10000000005000208D2A0008D9290008DD290008A9
:10001000E1290008E5290008E9290008000000009E
:10002000000000000000000000000000ED290008B2
:10003000F129000800000000F5290008F92900084E
:10004000D52A0008D52A0008D52A0008D52A000894
:10005000D52A0008D52A0008D52A0008D52A000884
:10006000D52A0008D52A0008D52A0008FD2900084D
:10007000D52A0008D52A0008D52A0008D52A000864
:10008000D52A0008D52A0008092A0008D52A000820
:10009000D52A0008D52A0008D52A0008D52A000844
:1000A000D52A0008252A0008D52A0008D52A0008E4
:1000B000312A0008D52A0008D52A0008D52A0008C8
:1000C000D52A0008D52A0008D52A0008D52A000814
:1000D000D52A0008D52A0008D52A0008D52A000804
:1000E000D52A0008D52A0008D52A000800000000FB
:1000F0000000000000000000000000000000000000
:0C01000000000000000000005FF808F1A3
:10010C0010B5054C237833B9044B13B10448AFF345
:10011C0000800123237010BD0C00002000000000A3
:10012C00202B000808B5034B1BB103490348AFF360
:10013C00008008BD0000000010000020202B0008EB
:10014C004FF47A7370B50D4D0D4A29781268B3FBD4
:10015C00F1F30646B2FBF3F000F080FB08B90F2E6A
:10016C0001D9012070BD0446024631464FF0FF30E4
:10017C0000F032FB6E60204670BD00BF0000002016
:10018C0008000020074A08B51368032043F0100349
:10019C00136000F00FFB0020FFF7D2FF02F0ECFA27
:1001AC00002008BD00200240034A044B11681B7854
:1001BC000B441360704700BFF401002000000020C6
:1001CC00014B1868704700BFF401002038B5044695
:1001DC00FFF7F6FF631C054602D0044B1B781C444A
:1001EC00FFF7EEFF401BA042FAD338BD0000002001
:1001FC00436A9A6A12F0500F02D01B6A1B6B1847A5
:10020C009A6A196842F4007210B59A628A6802F40C
:10021C006022B2F5602F03D0184602F0A3FA10BD8D
:10022C00DA68002AF8D19A6A22F480729A629A6A81
:10023C00D204F1D49A6A42F001029A62ECE700BF50
:10024C00704700BF08B5406AFFF7FAFF08BD00BF52
:10025C00704700BF036810B55A680446900602D573
:10026C001A6891072AD45A68100602D51A685107E1
:10027C0006D45A68520602D51B68DB0733D410BD6E
:10028C00A26AD20603D4A26A42F40052A2629A680D
:10029C0002F4E042B2F5E04F34D05A68500505D470
:1002AC009A6802F46022B2F5602F28D0204600F044
:1002BC007FFA6FF00C0223681A60DAE7A26AD206A2
:1002CC0003D4A26A42F40072A2629A6802F4602219
:1002DC00B2F5602F26D0204602F044FA6FF01202DD
:1002EC0023681A60BFE7A36A204643F48033A362F5
:1002FC00FFF7AEFF6FF0010223681A6010BDE268D1
:10030C00002AD3D15A6822F080025A60A36A23F4DF
:10031C008053A362A36AD905C8D4A36A43F001032E
:10032C00A362C3E7E268002AD5D15A6822F0200202
:10033C005A60A36A23F48073A362A36ADB04CAD451
:10034C00A36A43F00103A362C5E700BF704700BF77
:10035C0008B5436A9A6A184642F040029A62DA6A11
:10036C0042F00402DA62FFF7F1FF08BD002270B41C
:10037C0090F8243083B0012B01925FD001234D689B
:10038C000468062D80F824300A6805EB85034FF0CD
:10039C001F0625D90C2D47D8233B256B9E4025EAFB
:1003AC00060502FA03F32B432363092A8B684FF0EB
:1003BC00070602EB420123D91E39E5688E408B40BB
:1003CC0025EA06010B43E360A2F11003012B22D9AD
:1003DC000023002280F82420184603B070BC70471C
:1003EC00053B656B9E4025EA060502FA03F32B4399
:1003FC00092A63634FF007068B6802EB4201DBD8D6
:10040C0025698E408B4025EA06010B432361A2F13E
:10041C001003012BDCD81A4B9C4214D0826A0123A6
:10042C0042F020028262D4E7413BE56A9E4025EA15
:10043C00060502FA03F32B43E362B6E702231846E0
:10044C0003B070BC7047A3681B02C1D4A368102A08
:10045C0043F40003A360BBD10A4B0B4A1B68A2FBFD
:10046C0003239B0C03EB83035B000193019B002B89
:10047C00AED0019B013B0193019B002BF9D1A7E767
:10048C00002401400800002083DE1B43002370B5CC
:10049C00026882B001939368DB0721D4184B194C86
:1004AC001B689168A4FB034341F001019B0C916014
:1004BC000193019B2BB1019B013B0193019B002BF1
:1004CC00F9D10546FFF77CFE064604E0FFF778FEFF
:1004DC00801B022807D82B689C6814F00104F5D007
:1004EC00002002B070BD0120AB6A85F8244043F0B7
:1004FC001003AB62EB6A0343EB6202B070BD00BF4A
:10050C000800002083DE1B43F8B5404B04689C4276
:10051C0016D003F580639C4212D090F82430012B46
:10052C0063D0012380F8243017460E460446FFF7AB
:10053C00ADFF054660B10023284684F82430F8BD91
:10054C00324B5B6813F4702FE7D001252846F8BDB9
:10055C00A36A216823F470632D4A23F0010343F44A
:10056C0080739142A36243D0A36A23F48013A362E5
:10057C004B685A0505D5A36A23F4405343F48053C2
:10058C00A362A36A6FF0020213F4805318BFE36AEC
:10059C00206A18BF23F00603E3620023DFF878C05B
:1005AC0084F824301B4B4C31C0E90AC3DFF86CC013
:1005BC003B46C0F830C041F84C2C51F8447C3246D4
:1005CC0047F4807741F8447C00F094F9226828467F
:1005DC00936803F46023B3F5602F93680CBF43F466
:1005EC00A00343F480139360F8BD02252846F8BDA0
:1005FC00064B5A6812F4702FB6D0A26A42F48012DD
:10060C00A2625B685B05BCD5B5E700BF0024014066
:10061C000028014051020008FD0100085D0300089C
:10062C0038B503689A68D20701D4002038BD9A689F
:10063C00044622F001029A60FFF7C2FD05462368CA
:10064C009B68DB07F1D5FFF7BBFD401B0228F6D9F1
:10065C000120A36A43F01003A362E36A0343E3623D
:10066C0038BD00BF002857D0F8B5836A0446002B6C
:10067C0045D02046FFF7D4FFA36A13F0100338D1FE
:10068C00002836D1D4E90257A26AE669616822F4DF
:10069C00885222F0020242F002023143B5F5807F0B
:1006AC00A26241EA47016669226837D0012D4FD01A
:1006BC00012E52D055683C4B25F4694555600546D2
:1006CC00966833400B439360D36A384E23F470031F
:1006DC002B43D36293681E40B14230D00120A36AF1
:1006EC0023F0120343F01003A362E36A0343E362B3
:1006FC00F8BDA36A012043F01003A362F8BDC362E6
:10070C0080F8243002F05AF82046FFF789FFA36ADC
:10071C0013F01003EDD1B3E701207047012E3FD049
:10072C005568214B25F4694545F4807555609568ED
:10073C002B400B4393602369013B1D05C4E7002349
:10074C00E362A36A23F0030343F00103A362F8BD41
:10075C00012E08BF4FF48073E2D1D7B1A66A46F0E0
:10076C002006A662E66A46F00106E66257680E4E5F
:10077C0027F469473B4353609368B5F5807F06EADD
:10078C00030646EA01069660D5D0012DD3D000258C
:10079C009AE7A669013E43EA463343F40063E5E772
:1007AC002B46002FDAD1F4E7FDF7E1FFFE0E1FFF19
:1007BC00704700BF4FF6FF01064A0002D36800F4F1
:1007CC00E0600B4043F0BF6343F400330343D3605A
:1007DC00704700BF00ED00E0184B30B4DB68C3F38A
:1007EC000223C3F10705042D03F1040428BF0425DB
:1007FC00062C19D94FF0FF34033B9C4022EA040429
:10080C004FF0FF32AA4021EA020101FA03F222431F
:10081C0012010028D2B20ADB00F1604000F5614001
:10082C0080F8002330BC704700242346E8E7044BD3
:10083C0000F00F0003441A7630BC704700ED00E066
:10084C00FCEC00E0012300F01F01034A40098B403F
:10085C0042F82030704700BF00E100E00138B0F1F1
:10086C00807F0DD230B4F02500220721054B064CB9
:10087C00586084F82350104630BC9A601960704759
:10088C000120704710E000E000ED00E050B302469C
:10089C00F0B4D0E90136002401253343D668006852
:1008AC00334311491669114F014433435669A7FB71
:1008BC00017133439669D769334306680909890086
:1008CC0026F47F563B4326F0300611640849334327
:1008DC00D16303602046946382F8204082F8215053
:1008EC00F0BC704701207047F8FFFDBFCDCCCCCCDD
:1008FC0000000240F0B590F82040012C32D00124C9
:10090C0090F8215080F82040A54225D100264FF0C8
:10091C00020E046886632668076CD0F83CC0BD40A4
:10092C0026F00106476880F821E02660CCF80450D8
:10093C006360C36A102F0BBFA260A160E160E2602C
:10094C009BB1236843F00E032360002322681846F2
:10095C0042F001022260F0BD0022022380F8202028
:10096C001846F0BD02231846F0BD236823F004039B
:10097C002360236843F00A032360E6E7042270B483
:10098C00D0E90F61346803688A4022421D681FD089
:10099C006A071DD51A68910603D41A6822F004025E
:1009AC001A603F4A93425CD01432934261D01432A5
:1009BC00934268D0143293426BD0143293425DD080
:1009CC00143293420CBF4FF480034FF0806349E024
:1009DC0002228A40224222D0AA0720D51A68910608
:1009EC0006D401211A6822F00A021A6080F821103C
:1009FC002B4A93422BD01432934242D0143293425E
:100A0C0044D01432934236D01432934244D0143230
:100A1C0093420CBF4FF400134FF0007318E0082200
:100A2C008A4022421BD02A0719D5012200251C68B6
:100A3C0002FA01F124F00E041C60036B71608263F6
:100A4C0080F8212080F820504BB170BC184702234D
:100A5C000021144C826A636080F820103AB970BC93
:100A6C00704704230F49C26A4B60002AF7D070BC50
:100A7C0010474023F6E74FF40053E9E74FF4802387
:100A8C00F0E72023E4E74FF48063EBE74FF40073C7
:100A9C00DEE74FF48043E5E74FF40033D8E700BFBF
:100AAC0008000240000002402DE9F04F4FF0000812
:100ABC0083B04446DFF8C0C1694EDFF8C0E102E004
:100ACC000134102C78D001230A68A3401A409342B9
:100ADC00F6D14D68122D00F09C807ED8022D00F0CE
:100AEC00948074D9032D00F08D80112D02D1CB6828
:100AFC0003F10408FF2A62D882460368A5004FF070
:100B0C000F0909FA05FB23EA0B0308FA05F52B4339
:100B1C00CAF80030D1F804A01AF0805FD0D0514F41
:100B2C0024F00305BB6905F1804543F00103BB616B
:100B3C00BB6905F5803503F00103019304F0030B49
:100B4C00019B4FEA8B0BAB6809FA0BF9604523EA62
:100B5C0009030FD0704560D0434FB84278D0434F53
:100B6C00B8420CBF4FF003094FF0040909FA0BFB14
:100B7C0043EA0B03AB6033681AF4803F14BF134392
:100B8C009343336073681AF4003F14BF13439343C9
:100B9C007360B3681AF4801F14BF13439343B3609C
:100BAC00F3681AF4001F04F1010414BF1A4323EA7A
:100BBC000202102CF26086D103B0BDE8F08F04F174
:100BCC008045083D4368AD0000F1040A97E7A5B1E4
:100BDC00012D8FD1D1F80C808CE7254FBD420CD064
:100BEC0029D9244FBD4208D007F58037BD4204D027
:100BFC00DFF88C904D457FF47DAF8D68A5B94FF033
:100C0C00040877E74FF0000874E7CB6803F1080895
:100C1C0070E7CB6803F10C086CE74FF0010909FA97
:100C2C000BFB43EA0B03A5E7012D0CBF03614361EA
:100C3C004FF008085EE7DFF84C904D45DDD009F524
:100C4C0080394D457FF456AF8D68002DD7D0EBE73A
:100C5C004FF0020909FA0BFB43EA0B038AE700BFCA
:100C6C00000401400010024000100140001401403B
:100C7C00000021100000311000080140000C014060
:100C8C00000022100000111002B909040161704724
:100C9C00C3685940C16070472DE9F041036882B0C8
:100CAC00DD07044630D5AB494A6802F00C02042A31
:100CBC0000F0DA804A6802F00C02082A00F0D080BA
:100CCC006368B3F5803F00F00F81002B00F02781A3
:100CDC00B3F5A02F00F0B5819E4B1A6822F4803238
:100CEC001A601A6822F480221A60FFF769FA994D8B
:100CFC00064605E0FFF764FA801B642800F20B81BE
:100D0C002B689A03F6D523689F0728D5914A51681A
:100D1C0011F00C0F00F0B680516801F00C0108299D
:100D2C0000F0AC802369002B00F0418101228A4B3A
:100D3C00884D1A60FFF744FA064605E0FFF740FAC3
:100D4C00801B022800F2E7802B689807F6D52B68E9
:100D5C00626923F0F80343EAC2032B6023681A0785
:100D6C0022D5A369002B00F0988001227B4B794D92
:100D7C001A60FFF725FA064605E0FFF721FA801BFB
:100D8C00022800F2C8806B6A9B07F6D5744B754A33
:100D9C001B68A2FB03235B0A019300BF019B5A1E35
:100DAC000192002BF9D123685D0739D5694BDA69BB
:100DBC00D00040F1828000256B4B1A68D10540F1C0
:100DCC009980E368012B0FD0002B00F0D180052B0C
:100DDC00604B1A6A00F0FC8022F001021A621A6A57
:100DEC0022F004021A6204E05A4A136A43F0010327
:100DFC001362FFF7E5F9574E804641F2883706E05B
:100E0C00FFF7DEF9A0EB0800B84200F28480336AE9
:100E1C009B07F5D525B14F4AD36923F08053D36195
:100E2C00E269CAB14B4D696801F00C01082930D058
:100E3C00022A4FF000014D4A00F0D2801160FFF7FA
:100E4C00BFF92C46054604E0FFF7BAF9401B02280F
:100E5C0061D823689B01F7D4002002B0BDE8F08173
:100E6C004A68D0037FF52CAF3A4A126891037FF59C
:100E7C004BAF6268002A7FF447AF0AE05268D60392
:100E8C003FF550AF334A1268950721D52269012AE4
:100E9C001ED0012002B0BDE8F081304A2D4D136008
:100EAC00FFF78EF9064604E0FFF78AF9801B02284B
:100EBC0031D86B6A9F07F7D475E7DA69012542F0E0
:100ECC008052DA61DB6903F080530093009B73E777
:100EDC00204960690A6822F0F80242EAC0020A60FE
:100EEC001A077FF561AF3CE71A4A136843F4803365
:100EFC001360FAE61A681E4642F480721A60FFF715
:100F0C005FF907463368DA053FF55BAFFFF758F931
:100F1C00C01B6428F6D9032002B0BDE8F08103F1B0
:100F2C00804303F504331A681D4622F480321A609C
:100F3C001A6822F480221A60FFF742F9064604E090
:100F4C00FFF73EF9801B6428E5D82B689B03F7D488
:100F5C00D9E600BF00100240000042428004424229
:100F6C0008000020D34D6210007000406000424227
:100F7C0003F1804303F504331A6A1E4622F0010282
:100F8C001A621A6A41F2883822F004021A62FFF7D8
:100F9C0017F9074604E0FFF713F9C01B4045BAD810
:100FAC00336A9807F7D4002D3FF43AAF33E72B4A56
:100FBC002B4D1360FFF704F9064604E0FFF700F928
:100FCC00801B0228A7D82B689907F7D42368C6E69C
:100FDC0042F004021A621A6A42F001021A6208E72D
:100FEC001160FFF7EDF8064604E0FFF7E9F8801B07
:100FFC00022890D82B689901F7D4226AB2F5803F69
:10100C0005D16B68A16823F400330B436B60012599
:10101C00134B606A5968024321F4741111480A4356
:10102C005A6005601C46FFF7CBF8054605E0FFF754
:10103C00C7F8401B02283FF66EAF23689A01F6D51D
:10104C000AE703F18043A3F53C331A6842F480228B
:10105C001A601A6842F480321A6046E60000424276
:10106C00001002406000424240F2012286B0154B53
:10107C000DF1180CADF804200FCB0CE90F00124940
:10108C004B6803F00C02082A02D0104806B07047D7
:10109C00C3F383426244DB0312F8102C04D40C48D3
:1010AC0000FB02F006B070474B680848C3F340439E
:1010BC0000FB02F0634413F8143CB0FBF3F006B0F1
:1010CC00704700BF382B00080010024000127A0055
:1010DC0000093D00544A136803F007038B420BD2FE
:1010EC00136823F007030B431360136803F0070323
:1010FC008B4201D00120704703682DE9F0419D0718
:10110C0014D55C0704D5494C626842F4E062626015
:10111C001A0704D5454C626842F460526260434C35
:10112C008568626822F0F0022A436260DF07044699
:10113C000E4622D542683D4B012A1B686FD0022A0D
:10114C006AD0990729D5394D41F288386B6823F05C
:10115C00030313436B60FFF733F863680746012BF7
:10116C0049D0022B05D151E0FFF72AF8C01B4045AE
:10117C0058D86B6813F00C0FF6D12B4A136803F098
:10118C000703B3420CD9136823F0070333431360EE
:10119C00136803F00703B34202D00120BDE8F081CD
:1011AC0023685A0706D52149E0684A6822F4E062B0
:1011BC0002434A601B0707D51C4A2169536823F474
:1011CC00605343EAC1035360FFF74EFF174B1849B6
:1011DC005B68184AC3F30313CB5C20FA03F30020BB
:1011EC001360FEF7ADFF0020BDE8F081FEF7E8FFCD
:1011FC00C01B404516D86B6803F00C03042BF5D1CB
:10120C00BBE7FEF7DDFFC01B40450BD86B6803F056
:10121C000C03082BF5D1B0E7980194D4BDE79D03DE
:10122C0091D4BAE70320B9E7002002400010024035
:10123C00582B0008080000202DE9F04104460068F6
:10124C0082B0C5072AD53A4BDA69D1003DD5394B66
:10125C0000251A68D20546D5354960680A6A12F429
:10126C0040720FD000F4407393420BD0012700263C
:10127C000B6A314A23F44070176016600862D80775
:10128C0045D460682A4A136A23F4407303431362FB
:10129C001DB1D36923F08053D3612068830706D531
:1012AC00234AA168536823F440430B43536010F066
:1012BC00100007D000201E4AE168536823F4800315
:1012CC000B43536002B0BDE8F081DA69012542F0AE
:1012DC008052DA61DB6903F080530193019B154B5B
:1012EC001A68D205B8D41A681E4642F480721A6085
:1012FC00FEF766FF07463368DB05ADD4FEF760FFEB
:10130C00C01B6428F7D9032002B0BDE8F0810E465B
:10131C00FEF756FF41F288378046336A9A07B0D4FD
:10132C00FEF74EFFA0EB0800B842F6D9EBE700BF82
:10133C000010024000700040400442422DE9F04190
:10134C0080460F4616461D46D8F8004001E06B1C3F
:10135C000AD1A06837EA00030CBF012000208642A6
:10136C00F5D10020BDE8F0813DB1FEF729FF069BC9
:10137C00C01AA842E8D3D8F800406368D8F8042013
:10138C0023F0E003B2F5827F636015D0D8F82830E3
:10139C00B3F5005F08D14DF6FF722368134023604C
:1013AC00236843F4005323600122002388F8512062
:1013BC0088F850300320D5E7D8F80830B3F5004F43
:1013CC0002D0B3F5806FE1D1236823F04003236092
:1013DC00DCE700BF2DE9F0430446012085B084F81A
:1013EC005000164699460F460C9DFEF7E9FE94F800
:1013FC0051308046DBB2012B626811D0B2F5827F8E
:10140C0009D002200122002384F8512084F85030A6
:10141C0005B0BDE8F083A1680029F2D1042BF0D10E
:10142C00002F60D0002E5ED0B9F1000F5BD094F885
:10143C0051302168012B04BF052384F8513000235F
:10144C006365A4F83E90A4F836900868A66340063D
:10145C00A4F83C902763A4F83490C4E9103344D525
:10146C00E368B3F5006F45D0002A71D117F8013B42
:10147C000B73E38E013B9BB2E3864FF00109E38EC5
:10148C009BB21BB9E38F9BB2002B41D0B9F1000F7B
:10149C000FD0E38E9BB263B123689A68910708D58D
:1014AC004FF000093A7801371A73E38E013B9BB277
:1014BC00E386E38F9BB263B123689A68D20708D5A1
:1014CC004FF00109DB683370E38F4E44013B9BB254
:1014DC00E3876B1CD3D0FEF773FEA0EB08008542AC
:1014EC00CDD803208EE701208CE70B6843F0400336
:1014FC000B60B5E7002A5CD0E38E9BB2012B58D071
:10150C004FF00109E38E9BB23BBBE38F9BB223BB35
:10151C00CDF800802B46012202212046FFF70EFF5A
:10152C000028DED10246CDF800802B4680212046D3
:10153C00FFF704FF002844D1A368002B7FF462AFAF
:10154C0023680390DA6803929B680393039B59E723
:10155C00E38E9BB2012B90D188E7B9F1000F0FD02D
:10156C00E38E9BB263B123689A68910708D54FF05C
:10157C00000937F8022BDA60E38E013B9BB2E3865D
:10158C00E38F9BB263B123689A68D20708D54FF0FA
:10159C000109DB6826F8023BE38F013B9BB2E38732
:1015AC00681CAFD0FEF70CFEA0EB08008542A9D852
:1015BC0097E737F8023BCB60E38E013B9BB2E386A7
:1015CC009EE72022636D012013436365626519E772
:1015DC0010B490F85040012C02D010BCFFF7FABEAA
:1015EC00022010BC704700BF002839D0F8B500238A
:1015FC0090F851200446836272B31A46D4E901363E
:10160C00022700210125E068334326690343606902
:10161C003343E66903433343206AA66984F8517067
:10162C000343276806F40070034313433A68606A67
:10163C0022F04002360C3A6006F004063B60E36A86
:10164C0006437E603B61FB69084623F40063FB6143
:10165C00616584F85150F8BD01F030F9A26ACDE70C
:10166C0001207047022210B401240346016880F85F
:10167C003D200A68002022430A6083F83D4010BCDC
:10168C00704700BF0346022041F211111A6883F81B
:10169C003D00106A084208D140F24441106A0842E9
:1016AC0003D1116821F0010111600122002083F89F
:1016BC003D20704790F83C30012B67D00222F0B4EB
:1016CC000125036880F83D209A680C6822F47F425B
:1016DC0022F07702402C80F83C509A6000F0938006
:1016EC0018D9702C7FD02BD9B4F5805F76D0B4F597
:1016FC00005F1CD1D1E90152CC6899682A4342EAB7
:10170C00042221F47F410A439A609A6842F4804291
:10171C009A600CE0102C42D02FD9202C38D0302CD1
:10172C0005D19A6822F0700242F037029A600023C9
:10173C00F0BC012280F83C3080F83D201846704700
:10174C00502C33D0602CF2D11C6A4D6824F010045C
:10175C00CE681C6299691A6A21F4704122F0A002C9
:10176C0042EA051241EA063199611A629A6822F03E
:10177C00700242F067029A60D9E7002CD7D19A68C0
:10178C0022F0700242F007029A60D0E70220704704
:10179C009A6822F0700242F027029A60C7E79A68B2
:1017AC0022F0700242F017029A60C0E71D6A1E6AAE
:1017BC004C6826F00106CF681E629A6925F00A0172
:1017CC0022F0F00242EA071221439A6119629A68E8
:1017DC0022F0700242F057029A60A8E79A6822F051
:1017EC0007029A60A3E7D1E90152CC6899682A43B1
:1017FC0042EA042221F47F410A439A609A6842F03B
:10180C0077029A6093E71D6A1E6A4C6826F00106FF
:10181C00CF681E629A6925F00A0122F0F00242EAB2
:10182C00071221439A6119629A6822F0700242F001
:10183C0047029A607BE700BF704700BF704700BF4C
:10184C00704700BF704700BF704700BF036810B5FA
:10185C001A690446910702D5DA6892075FD41A69AF
:10186C00500702D5DA68510746D41A69120702D517
:10187C00DA6810072ED41A69D20602D5DA68D006B7
:10188C0018D41A69D10702D5DA68D2075DD41A695F
:10189C00100602D5DA6811065FD41A69520602D511
:1018AC00DA68500661D41A69910602D5DA68920694
:1018BC0043D410BD6FF0100108221961DB6920467A
:1018CC0013F4407F227764D0FFF7BAFF002223681D
:1018DC002277D6E76FF0080104221961DB692046F4
:1018EC009907227752D1FFF7A9FF2046FFF7AAFFED
:1018FC00002223682277BEE76FF0040102221961EF
:10190C009B69204613F4407F22773CD1FFF796FF6A
:10191C002046FFF797FF002223682277A5E76FF098
:10192C000201012219619B6902779B0725D0FFF701
:10193C0087FF00222368227791E76FF02002204670
:10194C00BDE810401A6100F0A9B86FF00102204602
:10195C001A61FFF771FF236899E76FF08002204648
:10196C001A6100F09DF8236897E76FF0400220465B
:10197C001A61FFF769FF236895E7FFF75FFF2046C1
:10198C00FFF760FFD5E7FFF75BFFC4E7FFF758FFF2
:10199C00AEE7FFF753FF2046FFF754FF96E700BF73
:1019AC0070B41C4E0368B0424D698C680A681DD037
:1019BC00B0F1804F11D0A6F59436B0420DD006F59B
:1019CC008066B04209D023F080032B4303600123CF
:1019DC00C462826270BC436170474E6823F070032E
:1019EC003343C96823F440730B43ECE74E6823F090
:1019FC0070033343CE6823F44073334323F08003E6
:101A0C002B430360C46282620B6970BC03630123C5
:101A1C0043617047002C0140B8B190F83D3010B5CF
:101A2C0003F0FF0204465BB10223206884F83D30CA
:101A3C00211DFFF7B5FF0123002084F83D3010BDB8
:101A4C0080F83C2000F076FFEEE70120704700BFE5
:101A5C0090F83C30012B1ED002460220F0B4002539
:101A6C000126136882F83D005C680F6824F070044E
:101A7C005C6058684C6838435860986820F0800067
:101A8C009860996828462143996082F83D6082F8F5
:101A9C003C50F0BC70470220704700BF704700BF3D
:101AAC00704700BF30B54FF47A7100254FF6FF73C5
:101ABC000D4C0E4A87B02046C4E90021C4E90253FC
:101ACC002561A561FFF7A8FF4FF4805306A941F8E3
:101ADC00103D2046FFF7EEFD20466946CDE9005546
:101AEC00FFF7B6FF07B030BD28000020000400400F
:101AFC002DE9F8430F1E16DD4FF000080125C146F5
:101B0C000A4C0B4E2F44C4F824903046FFF7AAFD24
:101B1C00636A002BFCD001353046FFF7B3FDBD42A4
:101B2C00C4F82480EFD1BDE8F88300BF0004004066
:101B3C002800002002382C2800F2FB80DFE810F08F
:101B4C00F300ED00E700E200DD00F900F900F90018
:101B5C00D800D300CE00C900C400BF00BA00B50045
:101B6C00B000AB00A600A0009A00F900F9009400A8
:101B7C008E00880082007C00760070006A00640091
:101B8C005E00F900F900580052004D004800430077
:101B9C003E003900F90033002D000A4665484FF429
:101BAC000071FFF771B80A4662484FF48071FFF775
:101BBC006BB80A465F488021FFF766B80A465D4855
:101BCC004021FFF761B80A465A482021FFF75CB85C
:101BDC000A4658481021FFF757B80A4655480821BD
:101BEC00FFF752B80A4654484FF40041FFF74CB87F
:101BFC000A4651484FF48041FFF746B80A464E4812
:101C0C004FF40051FFF740B80A464B484FF480514F
:101C1C00FFF73AB80A4648484FF40061FFF734B86A
:101C2C000A4645484FF48061FFF72EB80A464248F1
:101C3C004FF40071FFF728B80A463F484FF4807103
:101C4C00FFF722B80A463B484FF40041FFF71CB897
:101C5C000A4638484FF48041FFF716B80A46354813
:101C6C004FF40051FFF710B80A4632484FF4805138
:101C7C00FFF70AB80A462F484FF40061FFF704B883
:101C8C000A462C484FF48061FEF7FEBF0A462948ED
:101C9C000421FEF7F9BF0A4626480221FEF7F4BFDD
:101CAC000A4624480121FEF7EFBF0A46224880214C
:101CBC00FEF7EABF0A4620484021FEF7E5BF0A4678
:101CCC001D482021FEF7E0BF0A461B481021FEF7F5
:101CDC00DBBF0A4618480821FEF7D6BF0A4616484D
:101CEC000421FEF7D1BF0A4613480221FEF7CCBFF0
:101CFC000A4611480121FEF7C7BF0A460F480221C8
:101D0C00FEF7C2BF0A460D480121FEF7BDBF0A46C9
:101D1C000B484FF40041FEF7B7BF0A4608484FF492
:101D2C008041FEF7B1BF0A4605484FF40051FEF75B
:101D3C00ABBF7047000C014000080140001401408B
:101D4C0000100140F0B5044664260D46174685B0D8
:101D5C0000790021FFF7EEFE45F02005D4F8AC0029
:101D6C000DF10F020DF10E01009601238DF80E50AE
:101D7C00FFF72EFC04A901F8037DD4F8AC000DF19B
:101D8C000F0201230096FFF723FC20790121FFF7B6
:101D9C00D1FE05B0F0BD00BF2DE9F04106460D4661
:101DAC0064271C4684B000790021904645F020053C
:101DBC00FFF7C0FED6F8AC000DF10F02009701231F
:101DCC000DF10D018DF80D50FFF702FC002C11DD0B
:101DDC0008EB840454F8045DD6F8AC00012300979A
:101DEC000DF10F020DF10E018DF80E50FFF7F0FB07
:101DFC00A045EFD130790121FFF79CFE04B0BDE87E
:101E0C00F08100BF70B5044664250E4684B000799D
:101E1C000021FFF78FFED4F8AC000DF10F020DF18D
:101E2C000E01009501238DF80E60FFF7D1FBFF2307
:101E3C0004A901F8033DD4F8AC000DF10F02012305
:101E4C000095FFF7C5FB20799DF80F400121FFF7A6
:101E5C0071FE204604B070BD38B5044600210078F0
:101E6C00FFF768FE20460021FFF7CCFF002140F071
:101E7C0003022046FFF766FF04F108052046702296
:101E8C000721FFF75FFF2A46204605231021FFF7A5
:101E9C0083FF05232A4620460A21FFF77DFF94F88D
:101EAC00A42020461121FFF74DFF2046FF22E121FF
:101EBC00FFF748FF2046FF22E221FFF743FF20787F
:101ECC000121FFF737FE2046BDE838400121FFF71E
:101EDC000FBE00BF2DE9F04F85B0CDE902321223C1
:101EEC0083649DF8383000261025112701931323A5
:101EFC00044600F108090366009100F1200AC6614E
:101F0C00C0E90255C0E9045585614663C0E909552D
:101F1C00C56207620763C664C0E90E75C0E9105557
:101F2C004666C0E91475C0E91655C667C0E91A754E
:101F3C00C0E91C551420DFF814C24FF0010B4FF010
:101F4C00FF08A0679CE80300C4F89C0015200CF166
:101F5C00080CA4F8A010C4F89000C4F894609CE895
:101F6C000300C4E92075C4F8A400A4F8A810C4E9BF
:101F7C00225584F8A26084F8B16084F8B26084F8C9
:101F8C00B36084F8B46084F8B56084F8A38084F8F6
:101F9C00B0B0FFF787FD029B039A00996360226043
:101FAC00D0B2C4F8AC103146FFF7C4FD59462079C5
:101FBC00FFF7C0FD20464FF0FF320421FFF7C2FEB1
:101FCC0020460621FFF71EFF062140EA01022046AB
:101FDC00FFF7B8FE20460621FFF714FF20F0280279
:101FEC0042F0080220460621FFF7ACFE324620469E
:101FFC001C21FFF7A7FE204670220721FFF7A2FE47
:10200C0031462046FFF7FEFE314640F07002204676
:10201C00FFF798FE31462046FFF7F4FE314640F0BC
:10202C000C022046FFF78EFE019A20467D2A28BF1F
:10203C007D220521FFF786FE94F89E2094F89D10D2
:10204C00920042EA410294F89F1094F8A0C042EA30
:10205C000B0294F8A10042EAC10141EA0C1242EAD7
:10206C00401284F89CB020460221FFF76BFE2946F3
:10207C004A4620460523FFF78FFE4A462046052395
:10208C000A21FFF789FE394694F8A4202046FFF771
:10209C0059FE0523524620460B21FFF77DFE94F88E
:1020AC00A52020461221FFF74DFEA26C20460C21E4
:1020BC00FFF748FE94F8A62020461321FFF742FEB6
:1020CC00226E20460D21FFF73DFE94F8A7202046F6
:1020DC001421FFF737FEA26F20460E21FFF732FEC8
:1020EC0094F8A82020461521FFF72CFED4F8902058
:1020FC0020460F21FFF726FE94F8A9202046162132
:10210C00FFF720FE31462078FFF714FD42462046AB
:10211C00E121FFF717FE42462046E221FFF712FEAF
:10212C0020461D21FFF76EFE1D2140F006022046C1
:10213C00FFF708FE20463F221C21FFF703FE204636
:10214C00FFF78AFE204605B0BDE8F08F482B00084B
:10215C000123014410B481F89C3090F89E3090F823
:10216C009D2090F89C109B0043EA420390F89F201E
:10217C000B4390F8A01043EAC20390F8A12043EA65
:10218C00011343EA4212022110BCFFF7DBBD00BF72
:10219C004B1E70B50D460446042B04D8DFE803F043
:1021AC0051575D4B6B00002300F10806C0F89830C6
:1021BC0000212078FFF7BEFC631993F89C30ABB379
:1021CC000E2200212046FFF7BDFD7022072120467C
:1021DC00FFF7B8FD0523324610212046FFF7DCFD42
:1021EC00324605230A212046FFF7D6FDD4F8983055
:1021FC001121234493F8A4202046FFF7A3FD012DC1
:10220C0031D0AB1E032B05D805F10A01A26920467B
:10221C00FFF798FD2046FF22E121FFF793FD2046B2
:10222C00BDE87040FF22E221FFF78CBD2946204615
:10223C00FFF78EFFC4E7042300F16806C0F898305E
:10224C00B6E7012300F12006C0F89830B0E702236E
:10225C0000F13806C0F89830AAE7032300F15006C5
:10226C00C0F89830A4E7052304F108020B2120469E
:10227C00FFF792FDCEE7052300F18006C0F89830F9
:10228C0096E700BF10B517210446FFF7BBFDC30747
:10229C0001D5002010BD2046BDE810406021FFF79D
:1022AC00B1BD00BF2DE9F041164690F8A220202EBA
:1022BC00B04684B005460C4628BF4FF02008002AD3
:1022CC004ED090F8A3209A4244D106212846FFF71D
:1022DC000FFC702207212846FFF734FD00212879D6
:1022EC006427FFF727FC4FF0A00CD5F8AC000DF1DC
:1022FC000F02009701230DF10D018DF80DC0FFF7B2
:10230C0067F986B1A04414F8016BD5F8AC00012331
:10231C0000970DF10F020DF10E018DF80E60FFF715
:10232C0057F94445EFD128790121FFF703FC2878B0
:10233C000121FFF7FFFB28460A21FFF7D9FB0021FB
:10234C002878FFF7F7FB2846FFF79CFFC0B204B0D4
:10235C00BDE8F08180F8A3301946FFF719FFB4E708
:10236C00012280F8A330194680F8A220FFF710FF55
:10237C00B4E700BF30B50122002402254FF48033AE
:10238C004FF4E01195B00AA80A920E920B93129397
:10239C0013910C94059401940D94CDE90F44CDE95F
:1023AC000644CDE90844CDE9024404941195FEF7A6
:1023BC0073FC0F224FF48063294605A805920893FD
:1023CC00CDE906540994FEF785FE4FF4004301A8AD
:1023DC0001950393FEF730FF15B030BD2DE9F04F9A
:1023EC0000264FF4805801274FF0020AB9B0FDF7D0
:1023FC00C9FEFFF7BFFFCDE90A66CDE90C66D04CEC
:10240C003246A1694FF4807941F02001A161A069A5
:10241C00414600F0200004900498A569C94845F095
:10242C000405A561D4F818C04FF400750CF0040C29
:10243C00CDF814C0059BD4F818C04FF0800B4CF0AD
:10244C00080CC4F818C0D4F818C00CF0080CCDF85F
:10245C0018C0069BFEF718FC32464FF4E061BA48F0
:10246C00FEF712FC0AA9B748CDE90A870C96CDF8FD
:10247C0034A0FEF719FB4FF4E0620AA9B248CDE98B
:10248C000B760A92CDF834A0FEF70EFB616932464A
:10249C003943616160693146384003900B20039CDD
:1024AC00FEF79AF90B20FEF7CDF910214FF4827349
:1024BC000A22A64CDFF8A8E204F14000C4E910E3BC
:1024CC00E165E266C4E91266C4E91466C4E91866FB
:1024DC00A666A565FFF788F84FF460239C4A04F1C3
:1024EC009800C4F89820C4F8A470C4F8B430CDE9AE
:1024FC000A660C96C4F8AC60C4F89C60C4F8A8A03A
:10250C00C4F8A090FEF7AEF806230AA904F19800CF
:10251C000C93CDE90AA7FDF729FF0AA904F198004D
:10252C00CDF82CA0FDF722FF40F28A2242F6F821CA
:10253C00884B04F1C800C4E93231C4F8D420CDE989
:10254C000A66CDE90C660796C4F8D060C4E9366615
:10255C000896C4F8E0B0FFF75FFA0AA904F1C800C6
:10256C00CDF82880FFF7A6F807A904F1C800CDE93B
:10257C000766FFF76DFA4FF0804340F2CF22092136
:10258C0004F58470C4F80831C4F81421C4F80C1193
:10259C00CDE90A66CDE90C66CDE90766C4F8106191
:1025AC00C4F81861C4F820B1FFF736FA0AA904F58B
:1025BC008470CDF82880FFF77DF807A904F58470A6
:1025CC00CDE90766FFF744FA634A20462260CDE95D
:1025DC000A66CDE90C66CDE90766C4E90166C4E973
:1025EC000366A661FFF718FA0AA92046CDF82880E1
:1025FC00FFF760F807A92046CDE90766FFF728FA30
:10260C004FF46023554A04F5A470C4F85471C4F80F
:10261C006431C4F84821CDE90A660C96C4F850918F
:10262C00C4F85C61C4F84C61C4F858A1FEF71AF800
:10263C00032206230B9715270AA904F5A4700C9303
:10264C000A92FDF793FE0AA904F5A470CDF82CA00C
:10265C00FDF78CFE4FF47A70FDF7B8FD43464A4601
:10266C0004F140010AA80097FFF734FC29463648CC
:10267C00FEF70EFBC820FDF7A9FD29463248FEF7F0
:10268C0007FBC820FDF7A2FD29462F48FEF700FBEB
:10269C00C820FDF79BFD29462B48FEF7F9FAC82008
:1026AC00FDF794FD29462848FEF7F2FAC820FDF7FD
:1026BC008DFD29462448FEF7EBFAC820FDF786FD70
:1026CC0004F5BC7104F198000422B046FDF71CFF20
:1026DC00D4F8803103B9FEE7D4F87821D4F87C51D2
:1026EC0001364FEA162C370C330E110A100C4FEA38
:1026FC0012694FEA152E8DF825C08DF826704FEA19
:10270C00154C2F0E8DF827308DF81C208DF81D10D0
:10271C008DF81E0000230C2207A90AA88DF824604E
:10272C00C4F880818DF81F908DF820508DF821E031
:10273C008DF822C08DF82370FFF7B4FDC8E700BFF9
:10274C0000100240000C014000080140280000204D
:10275C0000240140002C01400004004000280140EE
:10276C00003800400122024BC3F88021704700BFA3
:10277C0028000020704700BF0E4B82B09A690E49AA
:10278C0042F001029A619A6902F001020092009AE9
:10279C00DA6942F08052DA61DB6903F0805301930D
:1027AC00019B4B6823F0E06343F000734B6002B075
:1027BC00704700BF0010024000000140F0B500243B
:1027CC000368384A89B09342CDE90444CDE9064404
:1027DC0004D0354A93423FD009B0F0BD05461420D1
:1027EC000326324B04A99A69802742F400729A613D
:1027FC009A6902F400720092009A9A6942F00402FB
:10280C009A619B69049003F0040301932848019B8F
:10281C000596FEF749F94FF480714FF4806220233E
:10282C00244E2548F76030603046C6E90144F46117
:10283C00C6E90412B361FEF729F808B1FFF79AFF55
:10284C0000222E62114612207562FDF7C5FF122080
:10285C00FDF7F8FF09B0F0BD28200325134B04A9A0
:10286C009A6942F480629A619A6902F480620292D7
:10287C00029A9A6942F004029A619B69049003F0EF
:10288C00040303930A48039B0595FEF70DF92246B2
:10289C0021461220FDF7A0FF1220FDF7D3FF09B04F
:1028AC00F0BD00BF00240140002801400010024090
:1028BC0000080140AC0100200800024070B5002463
:1028CC0002681A4B86B09A42CDE90244CDE9044421
:1028DC0001D006B070BD4FF420410226032503F54C
:1028EC00EC33DA69124842F48042DA61DA6902F4B4
:1028FC0080420092009A9A6942F008029A619B69A0
:10290C00029103F00803019302A9019B039605951C
:10291C00FEF7CAF84FF4804302A90548CDE90344F9
:10292C000293FEF7C1F806B070BD00BF003800403E
:10293C00000C014010B50368214A84B0934213D0B7
:10294C00B3F1804F25D01F4A934201D004B010BD83
:10295C001D4BDA6942F00202DA61DB6903F0020313
:10296C000393039B04B010BD0022174B11469C69C6
:10297C00192044F400649C619B6903F40063019387
:10298C00019BFDF729FF192004B0BDE81040FDF7AD
:10299C0059BF002203F50433DC69114644F00104ED
:1029AC00DC61DB691C2003F001030293029BFDF741
:1029BC0013FF1C2004B0BDE81040FDF743BF00BF5F
:1029CC00002C01400004004000100240704700BF82
:1029DC00FEE700BFFEE700BFFEE700BFFEE700BF5B
:1029EC00704700BF704700BF704700BFFDF7DCBBEE
:1029FC000148FDF7C3BF00BFAC01002008B5044877
:102A0C00FDF728FCBDE808400248FDF723BC00BFD9
:102A1C00C0000020700100200148FEF717BF00BF66
:102A2C00F00000200148FEF711BF00BF300100206C
:102A3C0030B44FF41F054FF000640E4B0E4A19686A
:102A4C000E4841F00101196059680A405A601A6831
:102A5C0022F0847222F480321A601A6822F48022E6
:102A6C001A605A6822F4FE025A609D60846030BC81
:102A7C00704700BF001002400000FFF800ED00E0BE
:102A8C00002103E00B4B5B58435004310A480B4BBD
:102A9C0042189A42F6D30A4A02E0002342F8043B59
:102AAC00084B9A42F9D3FFF7C3FF00F00FF8FFF77A
:102ABC0095FC7047782B0008000000200C000020CB
:102ACC000C000020F8010020FEE7000070B5002586
:102ADC000C4E0D4CA41BA410A54209D100F01AF801
:102AEC0000250A4E0A4CA41BA410A54205D170BDAA
:102AFC0056F8253098470135EEE756F825309847BB
:102B0C000135F2E7702B0008702B0008702B0008C1
:102B1C00742B0008F8B500BFF8BC08BC9E46704783
:0C2B2C00F8B500BFF8BC08BC9E4670471E
:102B380002030405060708090A0B0C0D0E0F1010F6
:102B480001010000000000002020202020200000BB
:102B58000000000000000000010203040607080945
:082B680000000000010203045B
:042B70003101000827
:042B74000D01000847
:0C2B7800010000001000000000A24A0450
:0400000508002A8D38
:00000001FF
