:020000040800F2
:100000000050002081470008AD460008B1460008B6
:10001000B5460008B9460008BD46000800000000CB
:10002000000000000000000000000000C1460008C1
:10003000C546000800000000C9460008CD4600087B
:10004000C9470008C9470008C9470008C947000850
:10005000C9470008C9470008C9470008C947000840
:10006000C9470008C9470008C9470008D146000829
:10007000C9470008C9470008C9470008C947000820
:10008000C9470008C9470008DD460008C9470008FD
:10009000C9470008C9470008C9470008C947000800
:1000A000C9470008E9460008C9470008C9470008D1
:1000B000C9470008C9470008C9470008C9470008E0
:1000C000C9470008C9470008C9470008C9470008D0
:1000D000C9470008C9470008C9470008C9470008C0
:1000E000C9470008C9470008C947000800000000C8
:1000F0000000000000000000000000000000000000
:0C01000000000000000000005FF808F1A3
:1001100010B5054C237833B9044B13B10448AFF341
:1001200000800123237010BDDC01002000000000CE
:100130008062000808B5034B1BB103490348AFF3C5
:10014000008008BD00000000E0010020806200087F
:1001500080F0004002E000BF81F0004142001FBF7C
:100160005FEA410392EA030F7FEA226C7FEA236C85
:100170006AD04FEA1262D2EB1363C1BFD21841407A
:1001800048404140B8BF5B42192B88BF704710F010
:10019000004F40F4000020F07F4018BF404211F0B3
:1001A000004F41F4000121F07F4118BF494292EA1B
:1001B000030F3FD0A2F1010241FA03FC10EB0C0047
:1001C000C3F1200301FA03F100F0004302D54942D4
:1001D00060EB4000B0F5000F13D3B0F1807F06D381
:1001E00040084FEA310102F10102FE2A51D2B1F179
:1001F000004F40EBC25008BF20F0010040EA03006E
:100200007047490040EB000010F4000FA2F101021A
:10021000EDD1B0FA80FCACF1080CB2EB0C0200FAA4
:100220000CF0AABF00EBC25052421843BCBFD040F2
:100230001843704792F0000F81F4000106BF80F46C
:1002400000000132013BB5E74FEA41037FEA226C2F
:1002500018BF7FEA236C21D092EA030F04D092F0FA
:10026000000F08BF0846704790EA010F1CBF00202E
:10027000704712F07F4F04D1400028BF40F000408B
:10028000704712F100723CBF00F50000704700F0AB
:10029000004343F0FE4040F4000070477FEA2262D2
:1002A00016BF08467FEA23630146420206BF5FEAA3
:1002B000412390EA010F40F4800070474FF00003A3
:1002C00004E000BF10F0004348BF40425FEA000C6A
:1002D00008BF704743F0964301464FF000001CE012
:1002E00050EA010208BF70474FF000030AE000BF68
:1002F00050EA010208BF704711F0004302D54042A6
:1003000061EB41015FEA010C02BF84460146002017
:1003100043F0B64308BFA3F18053A3F50003BCFA32
:100320008CF2083AA3EBC25310DB01FA02FC6344DF
:1003300000FA02FCC2F12002BCF1004F20FA02F2E6
:1003400043EB020008BF20F00100704702F12002D9
:1003500001FA02FCC2F1200250EA4C0021FA02F23A
:1003600043EB020008BF20EADC7070474FF0FF0C3F
:100370001CEAD0521EBF1CEAD15392EA0C0F93EA3A
:100380000C0F6FD01A4480EA010C400218BF5FEADC
:1003900041211ED04FF0006343EA501043EA51114F
:1003A000A0FB01310CF00040B1F5000F3EBF490049
:1003B00041EAD3715B0040EA010062F17F02FD2A4D
:1003C0001DD8B3F1004F40EBC25008BF20F0010030
:1003D000704790F0000F0CF0004C08BF49024CEA47
:1003E000502040EA51207F3AC2BFD2F1FF0340EAD9
:1003F000C250704740F400004FF00003013A5DDC4A
:1004000012F1190FDCBF00F000407047C2F100028A
:10041000410021FA02F1C2F1200200FA02FC5FEA77
:10042000310040F1000053EA4C0308BF20EADC70C1
:10043000704792F0000F00F0004C02BF400010F433
:10044000000F013AF9D040EA0C0093F0000F01F0E0
:10045000004C02BF490011F4000F013BF9D041EA02
:100460000C018FE70CEAD15392EA0C0F18BF93EA04
:100470000C0F0AD030F0004C18BF31F0004CD8D12E
:1004800080EA010000F00040704790F0000F17BFB5
:1004900090F0004F084691F0000F91F0004F14D0FB
:1004A00092EA0C0F01D142020FD193EA0C0F03D153
:1004B0004B0218BF084608D180EA010000F0004056
:1004C00040F0FE4040F40000704740F0FE4040F431
:1004D000400070474FF0FF0C1CEAD0521EBF1CEAD0
:1004E000D15392EA0C0F93EA0C0F69D0A2EB0302EE
:1004F00080EA010C49024FEA402037D04FF0805388
:1005000043EA111143EA10130CF000408B4238BF4C
:100510005B0042F17D024FF4000C8B4224BF5B1A5A
:1005200040EA0C00B3EB510F24BFA3EB510340EAA8
:100530005C00B3EB910F24BFA3EB910340EA9C0056
:10054000B3EBD10F24BFA3EBD10340EADC001B01C6
:1005500018BF5FEA1C1CE0D1FD2A3FF650AF8B426A
:1005600040EBC25008BF20F0010070470CF0004C77
:100570004CEA50207F32C2BFD2F1FF0340EAC250A2
:10058000704740F400004FF00003013A37E792F063
:10059000000F00F0004C02BF400010F4000F013AC1
:1005A000F9D040EA0C0093F0000F01F0004C02BFBC
:1005B000490011F4000F013BF9D041EA0C0195E725
:1005C0000CEAD15392EA0C0F08D142027FF47DAFBE
:1005D00093EA0C0F7FF470AF084676E793EA0C0FAE
:1005E00004D14B023FF44CAF08466EE730F0004CAC
:1005F00018BF31F0004CCAD130F000427FF45CAF3C
:1006000031F000437FF43CAF5FE700BF42000ED201
:10061000B2F1FE4F0BD34FF09E03B3EB126209D43D
:100620004FEA002343F0004323FA02F070474FF0F3
:100630000000704712F1610F01D1420202D14FF068
:10064000FF3070474FF00000704700BF034613F8BB
:10065000012B002AFBD1181A0138704781F00041A4
:1006600002E000BF83F0004330B54FEA41044FEA97
:10067000430594EA050F08BF90EA020F1FBF54EA32
:10068000000C55EA020C7FEA645C7FEA655C00F0CE
:10069000E2804FEA5454D4EB5555B8BF6D420CDD9F
:1006A0002C4480EA020281EA030382EA000083EA22
:1006B000010180EA020281EA0303362D88BF30BDC2
:1006C00011F0004F4FEA01314FF4801C4CEA113118
:1006D00002D0404261EB410113F0004F4FEA033377
:1006E0004CEA133302D0524263EB430394EA050F02
:1006F00000F0A780A4F10104D5F1200E0DDB02FA71
:100700000EFC22FA05F2801841F1000103FA0EF204
:10071000801843FA05F359410EE0A5F120050EF1CA
:10072000200E012A03FA0EFC28BF4CF0020C43FAFB
:1007300005F3C01851EBE37101F0004507D54FF008
:10074000000EDCF1000C7EEB00006EEB0101B1F558
:10075000801F1BD3B1F5001F0CD349085FEA30009E
:100760004FEA3C0C04F101044FEA445212F5800FA9
:1007700080F09A80BCF1004F08BF5FEA500C50F146
:10078000000041EB045141EA050130BD5FEA4C0C29
:10079000404141EB010111F4801FA4F10104E9D1B2
:1007A00091F0000F04BF01460020B1FA81F308BFA9
:1007B0002033A3F10B03B3F120020CDA0C3208DD75
:1007C00002F1140CC2F10C0201FA0CF021FA02F150
:1007D0000CE002F11402D8BFC2F1200C01FA02F1C0
:1007E00020FA0CFCDCBF41EA0C019040E41AA2BFE5
:1007F00001EB0451294330BD6FEA04041F3C1CDAAD
:100800000C340EDC04F11404C4F1200220FA04F0CC
:1008100001FA02F340EA030021FA04F345EA030176
:1008200030BDC4F10C04C4F1200220FA02F001FA38
:1008300004F340EA0300294630BD21FA04F02946BA
:1008400030BD94F0000F83F4801306BF81F4801153
:100850000134013D4EE77FEA645C18BF7FEA655CC6
:1008600029D094EA050F08BF90EA020F05D054EA98
:10087000000C04BF1946104630BD91EA030F1EBF9D
:100880000021002030BD5FEA545C05D140004941A1
:1008900028BF41F0004130BD14F580043CBF01F594
:1008A000801130BD01F0004545F0FE4141F470017A
:1008B0004FF0000030BD7FEA645C1ABF1946104655
:1008C0007FEA655C1CBF0B46024650EA013406BF56
:1008D00052EA033591EA030F41F4002130BD00BF15
:1008E00090F0000F04BF0021704730B54FF48064D2
:1008F00004F132044FF000054FF0000150E700BF53
:1009000090F0000F04BF0021704730B54FF48064B1
:1009100004F1320410F0004548BF40424FF000019E
:100920003EE700BF42004FEAE2014FEA31014FEAE1
:1009300002701FBF12F07F4393F07F4F81F0605130
:10094000704732F07F4208BF704793F07F4F04BF7B
:1009500041F40021704730B54FF4607401F0004558
:1009600021F000411CE700BF50EA010208BF7047B8
:1009700030B54FF000050AE050EA010208BF7047A9
:1009800030B511F0004502D5404261EB41014FF412
:10099000806404F132045FEA915C3FF4D8AE4FF01A
:1009A00003025FEADC0C18BF03325FEADC0C18BFFD
:1009B000033202EBDC02C2F1200300FA03FC20FA4E
:1009C00002F001FA03FE40EA0E0021FA02F114449B
:1009D000BDE600BF70B54FF0FF0C4CF4E06C1CEAB4
:1009E00011541DBF1CEA135594EA0C0F95EA0C0F25
:1009F00000F0DEF82C4481EA030621EA4C5123EA98
:100A00004C5350EA013518BF52EA033541F48011C6
:100A100043F4801338D0A0FB02CE4FF00005E1FB79
:100A200002E506F00042E0FB03E54FF00006E1FBC3
:100A300003569CF0000F18BF4EF0010EA4F1FF0406
:100A4000B6F5007F64F5407404D25FEA4E0E6D4146
:100A500046EB060642EAC62141EA55514FEAC52057
:100A600040EA5E504FEACE2EB4F1FD0C88BFBCF5D3
:100A7000E06F1ED8BEF1004F08BF5FEA500E50F184
:100A8000000041EB045170BD06F0004646EA01014A
:100A900040EA020081EA0301B4EB5C04C2BFD4EB7C
:100AA0000C0541EA045170BD41F480114FF0000E75
:100AB000013C00F3AB8014F1360FDEBF002001F0E3
:100AC000004170BDC4F10004203C35DA0C341BDC5D
:100AD00004F11404C4F1200500FA05F320FA04F02F
:100AE00001FA05F240EA020001F0004221F0004163
:100AF00010EBD37021FA04F642EB06015EEA430ED6
:100B000008BF20EAD37070BDC4F10C04C4F1200505
:100B100000FA04F320FA05F001FA04F240EA0200B8
:100B200001F0004110EBD37041F100015EEA430E89
:100B300008BF20EAD37070BDC4F1200500FA05F2A9
:100B40004EEA020E20FA04F301FA05F243EA020328
:100B500021FA04F001F0004121FA04F220EA020037
:100B600000EBD3705EEA430E08BF20EAD37070BD7D
:100B700094F0000F0FD101F00046400041EB01015D
:100B800011F4801F08BF013CF7D041EA060195F03F
:100B9000000F18BF704703F00046520043EB0303F9
:100BA00013F4801F08BF013DF7D043EA06037047E6
:100BB00094EA0C0F0CEA135518BF95EA0C0F0CD0F1
:100BC00050EA410618BF52EA4306D1D181EA030137
:100BD00001F000414FF0000070BD50EA410606BF31
:100BE0001046194652EA430619D094EA0C0F02D176
:100BF00050EA013613D195EA0C0F05D152EA0336BB
:100C00001CBF104619460AD181EA030101F00041D8
:100C100041F0FE4141F470014FF0000070BD41F021
:100C2000FE4141F4780170BD70B54FF0FF0C4CF4FB
:100C3000E06C1CEA11541DBF1CEA135594EA0C0F1A
:100C400095EA0C0F00F0A7F8A4EB050481EA030E67
:100C500052EA03354FEA013100F088804FEA03334E
:100C60004FF0805545EA131343EA12634FEA02221C
:100C700045EA111545EA10654FEA00260EF00041DD
:100C80009D4208BF964244F1FD0404F5407402D22F
:100C90005B084FEA3202B61A65EB03055B084FEAC0
:100CA00032024FF480104FF4002CB6EB020E75EBBD
:100CB000030E22BFB61A754640EA0C005B084FEAE5
:100CC0003202B6EB020E75EB030E22BFB61A754662
:100CD00040EA5C005B084FEA3202B6EB020E75EBAD
:100CE000030E22BFB61A754640EA9C005B084FEA25
:100CF0003202B6EB020E75EB030E22BFB61A754632
:100D000040EADC0055EA060E18D04FEA051545EA20
:100D100016754FEA06164FEAC30343EA52734FEAC9
:100D2000C2025FEA1C1CC0D111F4801F0BD141EA42
:100D300000014FF000004FF0004CB6E711F4801FA7
:100D400004BF01430020B4F1FD0C88BFBCF5E06F87
:100D50003FF6AFAEB5EB030C04BFB6EB020C5FEA97
:100D6000500C50F1000041EB045170BD0EF0004EEC
:100D70004EEA113114EB5C04C2BFD4EB0C0541EA1E
:100D8000045170BD41F480114FF0000E013C90E61B
:100D900045EA060E8DE60CEA135594EA0C0F08BFDF
:100DA00095EA0C0F3FF43BAF94EA0C0F0AD150EADE
:100DB00001347FF434AF95EA0C0F7FF425AF104671
:100DC00019462CE795EA0C0F06D152EA03353FF499
:100DD000FDAE1046194622E750EA410618BF52EA16
:100DE00043067FF4C5AE50EA41047FF40DAF52EAEA
:100DF00043057FF4EBAE12E74FF0FF3C06E000BF87
:100E00004FF0010C02E000BF4FF0010C4DF804CD93
:100E10004FEA410C7FEA6C5C4FEA430C18BF7FEA53
:100E20006C5C1BD001B050EA410C0CBF52EA430C81
:100E300091EA030F02BF90EA020F0020704710F101
:100E4000000F91EA030F58BF994208BF90422CBF90
:100E5000D8176FEAE37040F0010070474FEA410C89
:100E60007FEA6C5C02D150EA013C07D14FEA430CA7
:100E70007FEA6C5CD6D152EA033CD3D05DF8040B18
:100E8000704700BF8446104662468C46194663464A
:100E900000E000BF01B5FFF7B7FF002848BF10F121
:100EA000000F01BD4DF808EDFFF7F4FF0CBF012066
:100EB00000205DF808FB00BF4DF808EDFFF7EAFFE2
:100EC00034BF012000205DF808FB00BF4DF808ED9D
:100ED000FFF7E0FF94BF012000205DF808FB00BF92
:100EE0004DF808EDFFF7CEFF94BF012000205DF81C
:100EF00008FB00BF4DF808EDFFF7C4FF34BF012029
:100F000000205DF808FB00BF4FEA410C7FEA6C5CF3
:100F100002D150EA013C0AD14FEA430C7FEA6C5CF3
:100F200002D152EA033C02D14FF0000070474FF06B
:100F3000010070474FEA410212F5001215D211D597
:100F40006FF47873B3EB625212D94FEAC12343F0C6
:100F5000004343EA505311F0004F23FA02F018BF48
:100F6000404270474FF00000704750EA013005D111
:100F700011F0004008BF6FF0004070474FF00000D4
:100F8000704700BF4FF47A7370B50D4D0D4A297844
:100F90001268B3FBF1F30646B2FBF3F000F0AEFBD0
:100FA00008B90F2E01D9012070BD04460246314612
:100FB0004FF0FF3000F060FB6E60204670BD00BF58
:100FC0000000002008000020074A08B5136803202D
:100FD00043F01003136000F03DFB0020FFF7D2FF49
:100FE00003F080FA002008BD00200240034A044BB1
:100FF00011681B780B441360704700BF6C0400201D
:1010000000000020014B1868704700BF6C040020EE
:1010100038B50446FFF7F6FF631C054602D0044BC3
:101020001B781C44FFF7EEFF401BA042FAD338BDEB
:1010300000000020436A9A6A12F0500F02D01B6A27
:101040001B6B18479A6A196842F4007210B59A62CD
:101050008A6802F46022B2F5602F03D0184603F0CC
:10106000ADF810BDDA68002AF8D19A6A22F48072CD
:101070009A629A6AD204F1D49A6A42F001029A62A0
:10108000ECE700BF704700BF08B5406AFFF7FAFF02
:1010900008BD00BF704700BF036810B55A6804461A
:1010A000900602D51A6891072AD45A68100602D50C
:1010B0001A68510706D45A68520602D51B68DB0726
:1010C00033D410BDA26AD20603D4A26A42F40052FD
:1010D000A2629A6802F4E042B2F5E04F34D05A6856
:1010E000500505D49A6802F46022B2F5602F28D02A
:1010F000204600F0ADFA6FF00C0223681A60DAE7C0
:10110000A26AD20603D4A26A42F40072A2629A686A
:1011100002F46022B2F5602F26D0204603F04EF88C
:101120006FF0120223681A60BFE7A36A204643F4F7
:101130008033A362FFF7AEFF6FF0010223681A60ED
:1011400010BDE268002AD3D15A6822F080025A60AA
:10115000A36A23F48053A362A36AD905C8D4A36AFF
:1011600043F00103A362C3E7E268002AD5D15A68BD
:1011700022F020025A60A36A23F48073A362A36A58
:10118000DB04CAD4A36A43F00103A362C5E700BF2E
:10119000704700BF08B5436A9A6A184642F0400299
:1011A0009A62DA6A42F00402DA62FFF7F1FF08BDE0
:1011B000002270B490F8243083B0012B01925FD0EC
:1011C00001234D680468062D80F824300A6805EB79
:1011D00085034FF01F0625D90C2D47D8233B256BDF
:1011E0009E4025EA060502FA03F32B432363092AEE
:1011F0008B684FF0070602EB420123D91E39E568E0
:101200008E408B4025EA06010B43E360A2F11003F8
:10121000012B22D90023002280F82420184603B095
:1012200070BC7047053B656B9E4025EA060502FAD7
:1012300003F32B43092A63634FF007068B6802EB25
:101240004201DBD825698E408B4025EA06010B431D
:101250002361A2F11003012BDCD81A4B9C4214D05D
:10126000826A012342F020028262D4E7413BE56AB0
:101270009E4025EA060502FA03F32B43E362B6E734
:101280000223184603B070BC7047A3681B02C1D488
:10129000A368102A43F40003A360BBD10A4B0B4A96
:1012A0001B68A2FB03239B0C03EB83035B000193EE
:1012B000019B002BAED0019B013B0193019B002BB6
:1012C000F9D1A7E7002401400800002083DE1B437A
:1012D000002370B5026882B001939368DB0721D4C4
:1012E000184B194C1B689168A4FB034341F00101A2
:1012F0009B0C91600193019B2BB1019B013B0193DE
:10130000019B002BF9D10546FFF77CFE064604E061
:10131000FFF778FE801B022807D82B689C6814F022
:101320000104F5D0002002B070BD0120AB6A85F841
:10133000244043F01003AB62EB6A0343EB6202B05C
:1013400070BD00BF0800002083DE1B43F8B5404B92
:1013500004689C4216D003F580639C4212D090F83A
:101360002430012B63D0012380F8243017460E4629
:101370000446FFF7ADFF054660B10023284684F818
:101380002430F8BD324B5B6813F4702FE7D0012591
:101390002846F8BDA36A216823F470632D4A23F020
:1013A000010343F480739142A36243D0A36A23F400
:1013B0008013A3624B685A0505D5A36A23F44053F2
:1013C00043F48053A362A36A6FF0020213F48053C4
:1013D00018BFE36A206A18BF23F00603E362002304
:1013E000DFF878C084F824301B4B4C31C0E90AC3C5
:1013F000DFF86CC03B46C0F830C041F84C2C51F8C7
:10140000447C324647F4807741F8447C00F0C2F9CE
:1014100022682846936803F46023B3F5602F93682D
:101420000CBF43F4A00343F480139360F8BD02257E
:101430002846F8BD064B5A6812F4702FB6D0A26A3F
:1014400042F48012A2625B685B05BCD5B5E700BFC1
:1014500000240140002801408910000835100008D0
:101460009511000838B503689A68D20701D40020A6
:1014700038BD9A68044622F001029A60FFF7C2FD67
:10148000054623689B68DB07F1D5FFF7BBFD401BD2
:101490000228F6D90120A36A43F01003A362E36A8D
:1014A0000343E36238BD00BF002857D0F8B5836A14
:1014B0000446002B45D02046FFF7D4FFA36A13F063
:1014C000100338D1002836D1D4E90257A26AE66960
:1014D000616822F4885222F0020242F00202314393
:1014E000B5F5807FA26241EA47016669226837D07C
:1014F000012D4FD0012E52D055683C4B25F4694543
:1015000055600546966833400B439360D36A384E66
:1015100023F470032B43D36293681E40B14230D052
:101520000120A36A23F0120343F01003A362E36ACD
:101530000343E362F8BDA36A012043F01003A362F2
:10154000F8BDC36280F8243002F0EEFF2046FFF7BA
:1015500089FFA36A13F01003EDD1B3E701207047B0
:10156000012E3FD05568214B25F4694545F480751F
:10157000556095682B400B4393602369013B1D0523
:10158000C4E70023E362A36A23F0030343F00103EB
:10159000A362F8BD012E08BF4FF48073E2D1D7B12A
:1015A000A66A46F02006A662E66A46F00106E662F2
:1015B00057680E4E27F469473B4353609368B5F56F
:1015C000807F06EA030646EA01069660D5D0012D23
:1015D000D3D000259AE7A669013E43EA463343F497
:1015E0000063E5E72B46002FDAD1F4E7FDF7E1FFD2
:1015F000FE0E1FFF90F82430012B20D0012310B5E0
:1016000080F824300446FFF72DFF18B1002384F83A
:10161000243010BD2268206A936823F4807393609D
:1016200000F0FCF8A36A60B923F4885323F00103A7
:1016300043F00103A362002384F8243010BD02208C
:10164000704743F04003A362002384F8243010BDA8
:10165000704700BF4FF6FF01064A0002D36800F44E
:10166000E0600B4043F0BF6343F400330343D360B7
:10167000704700BF00ED00E0184B30B4DB68C3F3E7
:101680000223C3F10705042D03F1040428BF042538
:10169000062C19D94FF0FF34033B9C4022EA040486
:1016A0004FF0FF32AA4021EA020101FA03F222437D
:1016B00012010028D2B20ADB00F1604000F561405F
:1016C00080F8002330BC704700242346E8E7044B31
:1016D00000F00F0003441A7630BC704700ED00E0C4
:1016E000FCEC00E0012300F01F01034A40098B409D
:1016F00042F82030704700BF00E100E00138B0F14F
:10170000807F0DD230B4F02500220721054B064C16
:10171000586084F82350104630BC9A6019607047B6
:101720000120704710E000E000ED00E050B30246F9
:10173000F0B4D0E90136002401253343D6680068AF
:10174000334311491669114F014433435669A7FBCE
:10175000017133439669D7693343066809098900E3
:1017600026F47F563B4326F0300611640849334384
:10177000D16303602046946382F8204082F82150B0
:10178000F0BC704701207047F8FFFDBFCDCCCCCC3A
:1017900000000240F0B590F82040012C32D0012426
:1017A00090F8215080F82040A54225D100264FF026
:1017B000020E046886632668076CD0F83CC0BD4002
:1017C00026F00106476880F821E02660CCF8045036
:1017D0006360C36A102F0BBFA260A160E160E2608A
:1017E0009BB1236843F00E03236000232268184650
:1017F00042F001022260F0BD0022022380F8202086
:101800001846F0BD02231846F0BD236823F00403F8
:101810002360236843F00A032360E6E7034670B4BD
:10182000012500240268016C1068DE6B20F00E00B8
:101830001060106805FA01F120F00100106071607D
:10184000204683F8215083F8204070BC704700BFC9
:10185000042270B4D0E90F61346803688A402242E0
:101860001D681FD06A071DD51A68910603D41A682F
:1018700022F004021A603F4A93425CD01432934231
:1018800061D01432934268D0143293426BD0143238
:1018900093425DD0143293420CBF4FF480034FF05B
:1018A000806349E002228A40224222D0AA0720D542
:1018B0001A68910606D401211A6822F00A021A60F9
:1018C00080F821102B4A93422BD01432934242D0FD
:1018D0001432934244D01432934236D0143293429D
:1018E00044D0143293420CBF4FF400134FF00073F6
:1018F00018E008228A4022421BD02A0719D501226B
:1019000000251C6802FA01F124F00E041C60036B30
:101910007160826380F8212080F820504BB170BC48
:10192000184702230021144C826A636080F820105B
:101930003AB970BC704704230F49C26A4B60002A51
:10194000F7D070BC10474023F6E74FF40053E9E7A7
:101950004FF48023F0E72023E4E74FF48063EBE7C4
:101960004FF40073DEE74FF48043E5E74FF40033B4
:10197000D8E700BF08000240000002402DE9F04F08
:101980004FF0000883B04446DFF8C0C1694EDFF86D
:10199000C0E102E00134102C78D001230A68A34092
:1019A0001A409342F6D14D68122D00F09C807ED8EB
:1019B000022D00F0948074D9032D00F08D80112D3C
:1019C00002D1CB6803F10408FF2A62D8824603687B
:1019D000A5004FF00F0909FA05FB23EA0B0308FAEB
:1019E00005F52B43CAF80030D1F804A01AF0805F47
:1019F000D0D0514F24F00305BB6905F1804543F079
:101A00000103BB61BB6905F5803503F00103019358
:101A100004F0030B019B4FEA8B0BAB6809FA0BF93F
:101A2000604523EA09030FD0704560D0434FB842A8
:101A300078D0434FB8420CBF4FF003094FF0040970
:101A400009FA0BFB43EA0B03AB6033681AF4803FDF
:101A500014BF13439343336073681AF4003F14BFF9
:101A6000134393437360B3681AF4801F14BF134386
:101A70009343B360F3681AF4001F04F1010414BF28
:101A80001A4323EA0202102CF26086D103B0BDE8AB
:101A9000F08F04F18045083D4368AD0000F1040A71
:101AA00097E7A5B1012D8FD1D1F80C808CE7254F98
:101AB000BD420CD029D9244FBD4208D007F580374C
:101AC000BD4204D0DFF88C904D457FF47DAF8D682A
:101AD000A5B94FF0040877E74FF0000874E7CB682A
:101AE00003F1080870E7CB6803F10C086CE74FF0CE
:101AF000010909FA0BFB43EA0B03A5E7012D0CBF13
:101B0000036143614FF008085EE7DFF84C904D45F4
:101B1000DDD009F580394D457FF456AF8D68002D35
:101B2000D7D0EBE74FF0020909FA0BFB43EA0B03AE
:101B30008AE700BF0004014000100240001001408D
:101B40000014014000002110000031100008014085
:101B5000000C0140000022100000111002B909041D
:101B600001617047C3685940C16070472DE9F04179
:101B7000036882B0DD07044630D5AB494A6802F0FD
:101B80000C02042A00F0DA804A6802F00C02082AEB
:101B900000F0D0806368B3F5803F00F00F81002B28
:101BA00000F02781B3F5A02F00F0B5819E4B1A6895
:101BB00022F480321A601A6822F480221A60FFF739
:101BC00021FA994D064605E0FFF71CFA801B6428B0
:101BD00000F20B812B689A03F6D523689F0728D55E
:101BE000914A516811F00C0F00F0B680516801F075
:101BF0000C01082900F0AC802369002B00F0418122
:101C000001228A4B884D1A60FFF7FCF9064605E071
:101C1000FFF7F8F9801B022800F2E7802B6898078D
:101C2000F6D52B68626923F0F80343EAC2032B6000
:101C300023681A0722D5A369002B00F0988001229F
:101C40007B4B794D1A60FFF7DDF9064605E0FFF79B
:101C5000D9F9801B022800F2C8806B6A9B07F6D571
:101C6000744B754A1B68A2FB03235B0A019300BFF8
:101C7000019B5A1E0192002BF9D123685D0739D5CB
:101C8000694BDA69D00040F1828000256B4B1A68FD
:101C9000D10540F19980E368012B0FD0002B00F0B3
:101CA000D180052B604B1A6A00F0FC8022F0010203
:101CB0001A621A6A22F004021A6204E05A4A136A8B
:101CC00043F001031362FFF79DF9574E804641F23E
:101CD000883706E0FFF796F9A0EB0800B84200F25B
:101CE0008480336A9B07F5D525B14F4AD36923F029
:101CF0008053D361E269CAB14B4D696801F00C01B0
:101D0000082930D0022A4FF000014D4A00F0D2805D
:101D10001160FFF777F92C46054604E0FFF772F9EA
:101D2000401B022861D823689B01F7D4002002B031
:101D3000BDE8F0814A68D0037FF52CAF3A4A1268BB
:101D400091037FF54BAF6268002A7FF447AF0AE04A
:101D50005268D6033FF550AF334A1268950721D534
:101D60002269012A1ED0012002B0BDE8F081304A6C
:101D70002D4D1360FFF746F9064604E0FFF742F9E0
:101D8000801B022831D86B6A9F07F7D475E7DA69A0
:101D9000012542F08052DA61DB6903F08053009341
:101DA000009B73E7204960690A6822F0F80242EA62
:101DB000C0020A601A077FF561AF3CE71A4A136850
:101DC00043F480331360FAE61A681E4642F48072C8
:101DD0001A60FFF717F907463368DA053FF55BAF7E
:101DE000FFF710F9C01B6428F6D9032002B0BDE844
:101DF000F08103F1804303F504331A681D4622F491
:101E000080321A601A6822F480221A60FFF7FAF80A
:101E1000064604E0FFF7F6F8801B6428E5D82B6837
:101E20009B03F7D4D9E600BF0010024000004242F5
:101E30008004424208000020D34D62100070004030
:101E40006000424203F1804303F504331A6A1E46E0
:101E500022F001021A621A6A41F2883822F0040262
:101E60001A62FFF7CFF8074604E0FFF7CBF8C01B74
:101E70004045BAD8336A9807F7D4002D3FF43AAFFB
:101E800033E72B4A2B4D1360FFF7BCF8064604E0FE
:101E9000FFF7B8F8801B0228A7D82B689907F7D45A
:101EA0002368C6E642F004021A621A6A42F001028E
:101EB0001A6208E71160FFF7A5F8064604E0FFF78D
:101EC000A1F8801B022890D82B689901F7D4226AC8
:101ED000B2F5803F05D16B68A16823F400330B4352
:101EE0006B600125134B606A5968024321F4741139
:101EF00011480A435A6005601C46FFF783F80546FF
:101F000005E0FFF77FF8401B02283FF66EAF23681D
:101F10009A01F6D50AE703F18043A3F53C331A682A
:101F200042F480221A601A6842F480321A6046E64F
:101F300000004242001002406000424240F2012292
:101F400086B0154B0DF1180CADF804200FCB0CE941
:101F50000F0012494B6803F00C02082A02D0104807
:101F600006B07047C3F383426244DB0312F8102CBF
:101F700004D40C4800FB02F006B070474B680848D8
:101F8000C3F3404300FB02F0634413F8143CB0FB7E
:101F9000F3F006B0704700BF9862000800100240DE
:101FA00000127A0000093D00544A136803F0070349
:101FB0008B420BD2136823F007030B4313601368A3
:101FC00003F007038B4201D00120704703682DE91D
:101FD000F0419D0714D55C0704D5494C626842F472
:101FE000E06262601A0704D5454C626842F46052B0
:101FF0006260434C8568626822F0F0022A436260A6
:10200000DF0704460E4622D542683D4B012A1B6875
:102010006FD0022A6AD0990729D5394D41F2883804
:102020006B6823F0030313436B60FEF7EBFF6368F9
:102030000746012B49D0022B05D151E0FEF7E2FF04
:10204000C01B404558D86B6813F00C0FF6D12B4AD3
:10205000136803F00703B3420CD9136823F0070396
:1020600033431360136803F00703B34202D0012027
:10207000BDE8F08123685A0706D52149E0684A681F
:1020800022F4E06202434A601B0707D51C4A21691B
:10209000536823F4605343EAC1035360FFF74EFFD4
:1020A000174B18495B68184AC3F30313CB5C20FA3B
:1020B00003F300201360FEF765FF0020BDE8F08108
:1020C000FEF7A0FFC01B404516D86B6803F00C0359
:1020D000042BF5D1BBE7FEF795FFC01B40450BD89D
:1020E0006B6803F00C03082BF5D1B0E7980194D48A
:1020F000BDE79D0391D4BAE70320B9E70020024071
:1021000000100240C8620008080000202DE9F041DC
:102110000446006882B0C5072AD53A4BDA69D10077
:102120003DD5394B00251A68D20546D5354960683A
:102130000A6A12F440720FD000F4407393420BD03D
:10214000012700260B6A314A23F44070176016609D
:102150000862D80745D460682A4A136A23F440739A
:10216000034313621DB1D36923F08053D361206808
:10217000830706D5234AA168536823F440430B43E1
:10218000536010F0100007D000201E4AE168536829
:1021900023F480030B43536002B0BDE8F081DA6999
:1021A000012542F08052DA61DB6903F0805301932C
:1021B000019B154B1A68D205B8D41A681E4642F422
:1021C00080721A60FEF71EFF07463368DB05ADD448
:1021D000FEF718FFC01B6428F7D9032002B0BDE842
:1021E000F0810E46FEF70EFF41F288378046336AD3
:1021F0009A07B0D4FEF706FFA0EB0800B842F6D964
:10220000EBE700BF00100240007000404004424273
:102210002DE9F04180460F4616461D46D8F800408D
:1022200001E06B1C0AD1A06837EA00030CBF012053
:1022300000208642F5D10020BDE8F0813DB1FEF7D7
:10224000E1FE069BC01AA842E8D3D8F800406368B4
:10225000D8F8042023F0E003B2F5827F636015D044
:10226000D8F82830B3F5005F08D14DF6FF72236827
:1022700013402360236843F40053236001220023AA
:1022800088F8512088F850300320D5E7D8F8083076
:10229000B3F5004F02D0B3F5806FE1D1236823F08E
:1022A00040032360DCE700BF2DE9F0430446012032
:1022B00085B084F85000164699460F460C9DFEF7EF
:1022C000A1FE94F851308046DBB2012B626811D038
:1022D000B2F5827F09D002200122002384F8512028
:1022E00084F8503005B0BDE8F083A1680029F2D130
:1022F000042BF0D1002F60D0002E5ED0B9F1000F7A
:102300005BD094F851302168012B04BF052384F879
:10231000513000236365A4F83E90A4F83690086815
:10232000A6634006A4F83C902763A4F83490C4E95F
:10233000103344D5E368B3F5006F45D0002A71D15E
:1023400017F8013B0B73E38E013B9BB2E3864FF022
:102350000109E38E9BB21BB9E38F9BB2002B41D0E6
:10236000B9F1000F0FD0E38E9BB263B123689A6876
:10237000910708D54FF000093A7801371A73E38EB8
:10238000013B9BB2E386E38F9BB263B123689A68FB
:10239000D20708D54FF00109DB683370E38F4E4454
:1023A000013B9BB2E3876B1CD3D0FEF72BFEA0EB67
:1023B00008008542CDD803208EE701208CE70B680A
:1023C00043F040030B60B5E7002A5CD0E38E9BB27C
:1023D000012B58D04FF00109E38E9BB23BBBE38F3A
:1023E0009BB223BBCDF800802B4601220221204660
:1023F000FFF70EFF0028DED10246CDF800802B4605
:1024000080212046FFF704FF002844D1A368002B59
:102410007FF462AF23680390DA6803929B680393AA
:10242000039B59E7E38E9BB2012B90D188E7B9F16A
:10243000000F0FD0E38E9BB263B123689A689107B7
:1024400008D54FF0000937F8022BDA60E38E013B24
:102450009BB2E386E38F9BB263B123689A68D2078D
:1024600008D54FF00109DB6826F8023BE38F013BFA
:102470009BB2E387681CAFD0FEF7C4FDA0EB080059
:102480008542A9D897E737F8023BCB60E38E013B42
:102490009BB2E3869EE72022636D012013436365B0
:1024A000626519E710B490F85040012C02D010BCBE
:1024B000FFF7FABE022010BC704700BF002839D0D9
:1024C000F8B5002390F851200446836272B31A468F
:1024D000D4E90136022700210125E068334326694B
:1024E000034360693343E66903433343206AA669C3
:1024F00084F851700343276806F4007003431343C4
:102500003A68606A22F04002360C3A6006F004062F
:102510003B60E36A06437E603B61FB69084623F447
:102520000063FB61616584F85150F8BD02F052F818
:10253000A26ACDE701207047022210B401240346AD
:10254000016880F83D200A68002022430A6083F871
:102550003D4010BC704700BF0346022041F21111FC
:102560001A6883F83D00106A084208D140F24441DD
:10257000106A084203D1116821F0010111600122A3
:10258000002083F83D20704790F83C30012B67D045
:102590000222F0B40125036880F83D209A680C6897
:1025A00022F47F4222F07702402C80F83C509A605F
:1025B00000F0938018D9702C7FD02BD9B4F5805FB0
:1025C00076D0B4F5005F1CD1D1E90152CC6899688E
:1025D0002A4342EA042221F47F410A439A609A681E
:1025E00042F480429A600CE0102C42D02FD9202C6B
:1025F00038D0302C05D19A6822F0700242F03702B0
:102600009A600023F0BC012280F83C3080F83D2025
:1026100018467047502C33D0602CF2D11C6A4D689C
:1026200024F01004CE681C6299691A6A21F4704182
:1026300022F0A00242EA051241EA063199611A62CB
:102640009A6822F0700242F067029A60D9E7002C83
:10265000D7D19A6822F0700242F007029A60D0E760
:10266000022070479A6822F0700242F027029A60B6
:10267000C7E79A6822F0700242F017029A60C0E73A
:102680001D6A1E6A4C6826F00106CF681E629A69B0
:1026900025F00A0122F0F00242EA071221439A6172
:1026A00019629A6822F0700242F057029A60A8E715
:1026B0009A6822F007029A60A3E7D1E90152CC6838
:1026C00099682A4342EA042221F47F410A439A602E
:1026D0009A6842F077029A6093E71D6A1E6A4C6816
:1026E00026F00106CF681E629A6925F00A0122F0E1
:1026F000F00242EA071221439A6119629A6822F0B5
:10270000700242F047029A607BE700BF704700BF4B
:10271000704700BF704700BF704700BF036810B527
:102720001A690446910702D5DA6892075FD41A69DC
:10273000500702D5DA68510746D41A69120702D544
:10274000DA6810072ED41A69D20602D5DA68D006E4
:1027500018D41A69D10702D5DA68D2075DD41A698C
:10276000100602D5DA6811065FD41A69520602D53E
:10277000DA68500661D41A69910602D5DA689206C1
:1027800043D410BD6FF0100108221961DB692046A7
:1027900013F4407F227764D0FFF7BAFF002223684A
:1027A0002277D6E76FF0080104221961DB69204621
:1027B0009907227752D1FFF7A9FF2046FFF7AAFF1A
:1027C000002223682277BEE76FF00401022219611C
:1027D0009B69204613F4407F22773CD1FFF796FF98
:1027E0002046FFF797FF002223682277A5E76FF0C6
:1027F0000201012219619B6902779B0725D0FFF72F
:1028000087FF00222368227791E76FF0200220469D
:10281000BDE810401A6100F0A9B86FF0010220462F
:102820001A6101F073FD236899E76FF0800220467A
:102830001A6100F09DF8236897E76FF04002204688
:102840001A61FFF769FF236895E7FFF75FFF2046EE
:10285000FFF760FFD5E7FFF75BFFC4E7FFF758FF1F
:10286000AEE7FFF753FF2046FFF754FF96E700BFA0
:1028700070B41C4E0368B0424D698C680A681DD064
:10288000B0F1804F11D0A6F59436B0420DD006F5C8
:102890008066B04209D023F080032B4303600123FC
:1028A000C462826270BC436170474E6823F070035B
:1028B0003343C96823F440730B43ECE74E6823F0BD
:1028C00070033343CE6823F44073334323F0800313
:1028D0002B430360C46282620B6970BC03630123F3
:1028E00043617047002C0140B8B190F83D3010B5FD
:1028F00003F0FF0204465BB10223206884F83D30F8
:10290000211DFFF7B5FF0123002084F83D3010BDE5
:1029100080F83C2001F09AFEEEE70120704700BFEE
:1029200090F83C30012B1ED002460220F0B4002566
:102930000126136882F83D005C680F6824F070047B
:102940005C6058684C6838435860986820F0800094
:102950009860996828462143996082F83D6082F822
:102960003C50F0BC70470220704700BF704700BF6A
:10297000704700BF80B586B000AF164B164A1A608C
:10298000144B4FF47A725A60124B00229A60114B2A
:102990004FF6FF72DA600F4B00221A610D4B0022D6
:1029A0009A610C48FFF7A0FF4FF48053BB6007F11A
:1029B000080319460748FFF7E7FD00233B600023A3
:1029C0007B603B4619460348FFF7AAFF00BF183754
:1029D000BD4680BD1C0300200004004080B584B0CB
:1029E00000AF786039600023FB600123FB60FA6868
:1029F0003B689A4219DC0F4B00225A620E48FFF7DF
:102A00009BFD0C4B5B6A002B0CBF01230023DBB248
:102A1000002B00D0F5E70848FFF79EFD054B00228C
:102A20005A62FB680133FB60E1E700BF1037BD4627
:102A300080BD00BF000400401C03002080B582B0B0
:102A400000AF03460A46FB711346BB71FB79023B9C
:102A50002C2B00F2358201A252F823F0112B000832
:102A60002B2B0008452B00085F2B0008772B000854
:102A7000C12E0008C12E0008C12E00088F2B0008AF
:102A8000A72B0008BF2B0008D72B0008EF2B00084E
:102A9000072C00081F2C0008372C00084F2C0008BA
:102AA000672C00087F2C0008972C0008B12C000828
:102AB000C12E0008C12E0008CB2C0008E52C000810
:102AC000FF2C0008192D0008332D00084D2D00089B
:102AD000672D0008812D00089B2D0008B52D0008EA
:102AE000C12E0008C12E0008CF2D0008E92D0008D6
:102AF000152E00082D2E0008452E00085D2E00081A
:102B0000752E0008C12E00088D2E0008A72E000883
:102B1000BB79002B01D0012300E000231A464FF4BB
:102B20000051B448FFF71AF8CBE1BB79002B01D074
:102B3000012300E000231A464FF48041AD48FFF71F
:102B40000DF8BEE1BB79002B01D0012300E000238A
:102B50001A464FF40041A748FFF700F8B1E1BB79EE
:102B6000002B01D0012300E000231A460121A248D6
:102B7000FEF7F4FFA5E1BB79002B01D0012300E0B3
:102B800000231A4602219C48FEF7E8FF99E1BB7931
:102B9000002B01D0012300E000231A4601219748B1
:102BA000FEF7DCFF8DE1BB79002B01D0012300E0B3
:102BB00000231A4602219148FEF7D0FF81E1BB793C
:102BC000002B01D0012300E000231A4604218B488A
:102BD000FEF7C4FF75E1BB79002B01D0012300E0B3
:102BE00000231A4608218548FEF7B8FF69E1BB7942
:102BF000002B01D0012300E000231A4610217F485A
:102C0000FEF7ACFF5DE1BB79002B01D0012300E0B2
:102C100000231A4620217948FEF7A0FF51E1BB7935
:102C2000002B01D0012300E000231A464021734805
:102C3000FEF794FF45E1BB79002B01D0012300E0B2
:102C400000231A4680216D48FEF788FF39E1BB79E1
:102C5000002B01D0012300E000231A46012168481F
:102C6000FEF77CFF2DE1BB79002B01D0012300E0B2
:102C700000231A4602216248FEF770FF21E1BB796A
:102C8000002B01D0012300E000231A4604215C48F8
:102C9000FEF764FF15E1BB79002B01D0012300E0B2
:102CA00000231A464FF480615548FEF757FF08E1AC
:102CB000BB79002B01D0012300E000231A464FF41A
:102CC00000614F48FEF74AFFFBE0BB79002B01D0C3
:102CD000012300E000231A464FF480514848FEF7D4
:102CE0003DFFEEE0BB79002B01D0012300E0002383
:102CF0001A464FF400514248FEF730FFE1E0BB793D
:102D0000002B01D0012300E000231A464FF480413C
:102D10003B48FEF723FFD4E0BB79002B01D0012311
:102D200000E000231A464FF400413548FEF716FF35
:102D3000C7E0BB79002B01D0012300E000231A4635
:102D40004FF480712D48FEF709FFBAE0BB79002BE4
:102D500001D0012300E000231A464FF400712748F8
:102D6000FEF7FCFEADE0BB79002B01D0012300E0B3
:102D700000231A464FF480612048FEF7EFFEA0E0E2
:102D8000BB79002B01D0012300E000231A464FF449
:102D900000611A48FEF7E2FE93E0BB79002B01D0F8
:102DA000012300E000231A464FF480511348FEF738
:102DB000D5FE86E0BB79002B01D0012300E0002383
:102DC0001A464FF400510D48FEF7C8FE79E0BB7972
:102DD000002B01D0012300E000231A464FF480416C
:102DE0000648FEF7BBFE6CE0BB79002B0AD001233E
:102DF00009E000BF0010014000140140000801403C
:102E0000000C014000231A464FF400412F48FEF702
:102E1000A5FE56E0BB79002B01D0012300E0002382
:102E20001A4608212A48FEF799FE4AE0BB79002B92
:102E300001D0012300E000231A4610212448FEF7A8
:102E40008DFE3EE0BB79002B01D0012300E0002382
:102E50001A4620211E48FEF781FE32E0BB79002B86
:102E600001D0012300E000231A4640211848FEF754
:102E700075FE26E0BB79002B01D0012300E0002382
:102E80001A4680211248FEF769FE1AE0BB79002B32
:102E900001D0012300E000231A464FF480710C4852
:102EA000FEF75CFE0DE0BB79002B01D0012300E0B2
:102EB00000231A464FF400710548FEF74FFE00E06C
:102EC00000BF00BF0837BD4680BD00BF00080140FD
:102ED000000C014080B586B002AF78600B46FB70F5
:102EE0007B68D3F8AC0007F10F02F91C6423009350
:102EF0000123FFF7D7FAFB7B18461037BD4680BD8C
:102F000080B582B000AF78600B46FB7013463B8003
:102F10003B88094AA2FB03231B099BB2013B1A0110
:102F2000FB7813431A460421786800F021FC00BFA7
:102F30000837BD4680BD00BFD34D621080B58AB052
:102F400000AFF860B9607A603B60FB68083300222C
:102F50001A605A609A60DA601A615A61FB6810223E
:102F60009A60FB681022DA60FB6810221A61FB6825
:102F700010225A61FB6810229A61FB6820330022FC
:102F80001A605A609A60DA601A615A61FB6811220D
:102F90001A62FB6810225A62FB6810229A62FB6870
:102FA0001022DA62FB6811221A63FB6838330022B0
:102FB0001A605A609A60DA601A615A61FB681122DD
:102FC0009A63FB681022DA63FB6810221A64FB68BC
:102FD00010225A64FB6812229A64FB685033002264
:102FE0001A605A609A60DA601A615A61FB681122AD
:102FF0001A65FB6810225A65FB6810229A65FB6807
:103000001022DA65FB6813221A66FB686833002217
:103010001A605A609A60DA601A615A61FB6811227C
:103020009A66FB681022DA66FB6810221A67FB6852
:1030300010225A67FB6814229A67FB6880330022CB
:103040001A605A609A60DA601A615A61FB6811224C
:10305000C3F88020FB681022C3F88420FB6810228C
:10306000C3F88820FB681022C3F88C20FB68152267
:10307000C3F89020FB683C4A9C3392E80300186038
:1030800004331980FB68002283F8A220FB68FF222A
:1030900083F8A320FB68354AA43392E80300186044
:1030A00004331980FB68012283F8B020FB680022FA
:1030B00083F8B120FB68002283F8B220FB6800226D
:1030C00083F8B320FB68002283F8B420FB68002259
:1030D00083F8B52001233B620323FB610F23BB610F
:1030E00002237B61FFF746FCFB687A681A60FB6885
:1030F0003A685A60FB68BA68C3F8AC20F86800F018
:103100004FFCF86800F06AFCBB69DBB27A6992B2E6
:103110001946F868FFF7F4FE0621F86800F075FB21
:1031200078627B6A23F006037B62FB695B007A6A44
:1031300013437B627A6A0621F86800F019FB0621C6
:10314000F86800F062FB78627B6A23F008037B6218
:103150007B6A23F020037B623B6A022B08D17B6AE7
:1031600043F020037B620EE0A8620008B062000812
:103170003B6A012B07D17B6A43F008037B627B6AC1
:1031800023F020037B627A6A0621F86800F0F0FAE7
:1031900000221C21F86800F0EBFA70220721F86881
:1031A00000F0E6FA0021F86800F02FFB034643F038
:1031B00070037B627A6A0021F86800F0D9FA002176
:1031C000F86800F022FB034643F00C037B627A6A46
:1031D0000021F86800F0CCFA97F830307D2B28BF3A
:1031E0007D23DBB21A460521F86800F0C1FAFB68BE
:1031F000012283F89C20FB6893F89C301A46FB68F8
:1032000093F89D305B001A43FB6893F89E309B0057
:103210001A43FB6893F89F30DB001A43FB6893F86E
:10322000A0301B011A43FB6893F8A1305B011343E4
:103230001A460221F86800F09BFAFB6803F10802C5
:1032400005231021F86800F0B2FAFB6808333B61EF
:1032500005233A690A21F86800F0A9FAFB6893F897
:10326000A4301A461121F86800F082FAFB68203376
:103270003B6105233A690B21F86800F098FAFB6876
:1032800093F8A5301A461221F86800F071FAFB682D
:1032900038333B613B6910331B681A460C21F868D0
:1032A00000F066FAFB6893F8A6301A461321F86816
:1032B00000F05EFAFB6850333B613B6910331B68DA
:1032C0001A460D21F86800F053FAFB6893F8A7300E
:1032D0001A461421F86800F04BFAFB6868333B612A
:1032E0003B6910331B681A460E21F86800F040FA5B
:1032F000FB6893F8A8301A461521F86800F038FAF0
:10330000FB6880333B613B6910331B681A460F2111
:10331000F86800F02DFAFB6893F8A9301A461621D8
:10332000F86800F025FAF86800F03AFBFF22E12186
:10333000F86800F01DFAFF22E221F86800F018FAA0
:103340001D21F86800F061FA034643F006031A46AF
:103350001D21F86800F00CFA3F221C21F86800F0EB
:1033600007FAF86800F0A0F8FB6818462837BD4651
:1033700080BD00BF80B584B000AFF860B9607A60EE
:103380003B607B68202B01D920237B60FB6893F88E
:10339000A23083F00103DBB2002B0DD0FB680122C9
:1033A00083F8A2203B68DAB2FB6883F8A32039686F
:1033B000F86800F0BFF818E0FB6893F8A3301A46ED
:1033C0003B68934208D03B68DAB2FB6883F8A320DD
:1033D0003968F86800F0AEF80621F868FFF7FEFAE1
:1033E00070220721F86800F0C3F9F86800F0E7FAE6
:1033F000A021F868FFF76EFD7B685A1E7A60002BEB
:1034000014BF01230023DBB2002B08D0BB685A1C79
:10341000BA601B781946F868FFF75CFDECE7F868BE
:1034200000F0DCFAF86800F0ACFA0A21F868FFF75F
:10343000D5FAF86800F0B4FAF86800F078FA0346B4
:10344000DBB218461037BD4680BD90B585B000AFE1
:10345000786039606021786800F0D7F90346BB6076
:10346000786800F0ACFA61217868FFF733FD00233B
:10347000FB60FA68BB689A420CDAFB683A68D418B9
:10348000FF217868FFF726FD03462370FB680133B0
:10349000FB60EEE7786800F0A1FA786800F064FA63
:1034A00000BF1437BD4690BD80B582B000AF7860D4
:1034B000786800F075FA0021786800F0A6F90346F4
:1034C00043F003031A460021786800F051F9702296
:1034D0000721786800F04CF97B6803F108020523A6
:1034E0001021786800F063F97B6803F10802052376
:1034F0000A21786800F05BF97B6893F8A4301A46DB
:103500001121786800F034F9FF22E121786800F099
:103510002FF9FF22E221786800F02AF9786800F09C
:1035200030FA01217868FFF759FA00BF0837BD4625
:1035300080BD000080B584B000AF786039603B6822
:10354000052B3FD801A252F823F000BF65350008D3
:10355000753500088535000895350008A535000843
:10356000B53500087B680022C3F898207B680833D3
:10357000FB602FE07B680122C3F898207B68203332
:10358000FB6027E07B680222C3F898207B68383311
:10359000FB601FE07B680322C3F898207B685033F0
:1035A000FB6017E07B680422C3F898207B686833CF
:1035B000FB600FE07B680522C3F898207B688033AE
:1035C000FB6007E07B680022C3F898207B68083323
:1035D000FB6000BF786800F0E3F97A683B68134449
:1035E0009C331B7883F00103DBB2002B03D03968D6
:1035F000786800F05EF90E220021786800F0B8F8D3
:10360000786800F087F90523FA681021786800F0DF
:10361000CEF80523FA680A21786800F0C8F87B68BC
:10362000D3F898307A68134493F8A4301A461121DD
:10363000786800F09DF83B68012B0AD13B6803F1E4
:103640000A017B6803F108020523786800F0AFF8EF
:103650000EE03B68012B0BD93B68052B08D83B6873
:1036600003F10A017B689B691A46786800F080F8CC
:10367000FF22E121786800F07BF8FF22E2217868E0
:1036800000F076F800BF1037BD4680BD80B582B02F
:1036900000AF78607B6803F1080205231021786889
:1036A00000F085F87B6803F1080205230A21786899
:1036B00000F07DF87B6893F8A4301A4611217868F1
:1036C00000F056F87B68D3F89830002B4CD07B681C
:1036D000D3F89830012B08D17B6803F12002052331
:1036E0000B21786800F063F82EE07B68D3F89830FF
:1036F000022B07D17B689B6C1A460C21786800F07E
:1037000037F821E07B68D3F89830032B07D17B682A
:103710001B6E1A460D21786800F02AF814E07B68C9
:10372000D3F89830042B07D17B689B6F1A460E2183
:10373000786800F01DF807E07B68D3F890301A46EF
:103740000F21786800F014F87B68D3F8983003F103
:1037500011017B68D3F898307A68134493F8A43049
:103760001A46786800F004F800BF0837BD4680BDEF
:1037700080B584B000AFF860B9607A60F86800F096
:103780001EF9BB68DBB243F02003DBB21946F868D0
:10379000FFF7A0FB7B68DBB21946F868FFF79AFBDE
:1037A000F86800F01BF900BF1037BD4680BD80B53A
:1037B00086B000AFF860B9607A603B60F86800F0EE
:1037C000FEF8BB68DBB243F02003DBB21946F868B1
:1037D000FFF780FB3B68013B7B617B69002B0DDBC6
:1037E0007B699B007A6813441B68DBB21946F86852
:1037F000FFF770FB7B69013B7B61EEE7F86800F047
:10380000EDF800BF1837BD4680BD80B584B000AF6D
:1038100078603960786800F0D2F83B68DBB219460E
:103820007868FFF757FBFF217868FFF753FB0346E3
:10383000FB60786800F0D2F8FB6818461037BD4688
:1038400080BD80B584B000AF78607B6893F8A2300B
:10385000002B0AD07B68002283F8A2207868FFF74B
:1038600015FF7868FFF720FE04E0702207217868D2
:10387000FFF77EFF17217868FFF7C7FF034603F0C5
:103880000103002B01D1012300E00023002B0BD00A
:1038900007217868FFF7B9FF03465B0803F00703C9
:1038A000FB60FB68013300E0002318461037BD467B
:1038B00080BD80B582B000AF786039607A683B68BF
:1038C00013449C3301221A707B6893F89C301A468B
:1038D0007B6893F89D305B001A437B6893F89E30B9
:1038E0009B001A437B6893F89F30DB001A437B6888
:1038F00093F8A0301B011A437B6893F8A1305B0159
:1039000013431A4602217868FFF732FF00BF0837D9
:10391000BD4680BD80B582B000AF786070220721BF
:103920007868FFF725FF00BF0837BD4680BD80B52A
:1039300082B000AF786017217868FFF766FF034612
:1039400003F00103002B01D1012300E00023002B31
:1039500005D060217868FFF758FF034600E0002398
:1039600018460837BD4680BD80B582B000AF78608C
:10397000402207217868FFF7FBFE00BF0837BD46ED
:1039800080BD80B582B000AF78607B681B68DBB219
:1039900001211846FFF752F800BF0837BD4680BD29
:1039A00080B582B000AF78607B681B68DBB2002115
:1039B0001846FFF743F800BF0837BD4680BD80B505
:1039C00082B000AF78607B685B68DBB2002118468C
:1039D000FFF734F800BF0837BD4680BD80B582B020
:1039E00000AF78607B685B68DBB201211846FFF7A7
:1039F00025F800BF0837BD4680BD000080B5C6B0C1
:103A000002AFFDF7E1FA00F043F900F045FB00F0EA
:103A100025FB00F02BFA00F0A7F900F063FA00F0A4
:103A2000C1FA0023C7F80C310023C7F8B83064216D
:103A3000904800F0DDFC4FF49670FDF7E9FA384647
:103A40001423009319231D228B49FFF777FA0721CE
:103A5000642000F081FC894B1B78002B2AD13B4667
:103A60001846FFF7EEFE0346002B14BF0123002388
:103A7000DBB2002BEFD007F1EC023B4611461846B3
:103A8000FFF7E3FC07F1EC0305227D49184601F03E
:103A90007FFA0346002BDED10121002000F05CFC00
:103AA0000621642000F07EFC042276497648FDF76A
:103AB0004DFCD0E7714B1B78002BCCD06D4B1B69B4
:103AC000002B14BF01230023DBB2002BF2D0694B83
:103AD0001B69002B05D0D7F80C31042B01D801232A
:103AE00000E00023002B00F09180624800F0CCFC45
:103AF0000346C7F8BC305F4800F0C6FC0346C7F871
:103B0000C0305C4800F0C0FC0346C7F8C4305948D8
:103B100000F0BAFC0346C7F8C830D7F8BC10D7F895
:103B20000C2113465B0013445B00CAB207F5887191
:103B30000B4403F8442CD7F8BC301B0ADBB203F06B
:103B40000F03D8B2D7F8C030DBB21B01D9B2D7F817
:103B50000C2113465B0013445B00013340EA010271
:103B6000D2B207F588710B4403F8442CD7F8C03063
:103B70001909D7F80C2113465B0013445B0002338C
:103B8000CAB207F588710B4403F8442CD7F8C41067
:103B9000D7F80C2113465B0013445B000333CAB211
:103BA00007F588710B4403F8442CD7F8C4301B0A7E
:103BB000DBB203F00F03D8B2D7F8C830DBB21B0179
:103BC000D9B2D7F80C2113465B0013445B000433D1
:103BD00040EA0102D2B207F588710B4403F8442C85
:103BE000D7F8C8301909D7F80C2113465B001344E5
:103BF0005B000533CAB207F588710B4403F8442C07
:103C0000D7F80C310133C7F80C3160E7D7F80C3125
:103C1000052B7FF453AF07F1CC01384600231E2259
:103C2000FFF7A8FB0346002B14BF01230023DBB2E0
:103C3000002B1AD007F1EC023B4611461846FFF75D
:103C400004FC07F1EC0304221049184601F0A0F926
:103C50000346002B09D10C48FDF7CCFC072164205A
:103C600000F07AFB054B00221A700023C7F80C31D4
:103C700024E700BFFC01002084020020580400203B
:103C8000B86200086C03002010020020C062000827
:103C900080B594B000AF07F1280328220021184610
:103CA00000F0C6FD07F1140300221A605A609A6002
:103CB000DA601A613B1D00221A605A609A60DA606D
:103CC0000123BB624FF48033FB6200233B6301237B
:103CD000BB6302237B644FF48033BB644FF4E01377
:103CE000FB6407F128031846FDF740FF0346002B4D
:103CF00014BF01230023DBB2002B01D000F0ECFB4A
:103D00000F237B610223BB610023FB614FF48063BF
:103D10003B624FF4A0637B6207F114030221184653
:103D2000FEF742F90346002B14BF01230023DBB248
:103D3000002B01D000F0D0FB02237B604FF4404306
:103D4000FB603B1D1846FEF7E1F90346002B14BF4C
:103D500001230023DBB2002B01D000F0BDFB00BF2C
:103D60005037BD4680BD000080B584B000AF3B1D1C
:103D700000221A605A609A603A4B3B4A1A60394BEB
:103D80004FF480729A60374B0122DA60354B002283
:103D90005A61344B4FF46022DA61324B00225A6090
:103DA000304B04221A612F48FDF77EFB0346002B9F
:103DB00014BF01230023DBB2002B01D000F08CFBE9
:103DC00002237B600123BB600623FB603B1D194679
:103DD0002448FDF7EDF90346002B14BF012300230F
:103DE000DBB2002B01D000F077FB03237B600223C2
:103DF000BB603B1D19461B48FDF7DAF90346002B53
:103E000014BF01230023DBB2002B01D000F064FBC0
:103E100004237B600323BB603B1D19461148FDF75B
:103E2000C7F90346002B14BF01230023DBB2002B8C
:103E300001D000F051FB05237B600423BB603B1DD8
:103E400019460848FDF7B4F90346002B14BF0123B7
:103E50000023DBB2002B01D000F03EFB00BF103787
:103E6000BD4680BD100200200024014080B500AF97
:103E70001A4B1B4A1A60194B4FF482725A60174B47
:103E800000229A60154B0022DA60144B00221A615E
:103E9000124B00225A61114B4FF400729A610F4B82
:103EA0000822DA610D4B00221A620C4B00225A6282
:103EB0000A4B00229A62094B0A22DA620748FEF78F
:103EC000FDFA0346002B14BF01230023DBB2002BB5
:103ED00001D000F001FB00BF80BD00BF84020020C4
:103EE0000038004080B586B000AF07F1080300221B
:103EF0001A605A609A60DA603B4600221A605A6083
:103F0000264B274A1A60254B44F61F625A60234B02
:103F100000229A60214B4FF4E162DA601F4B0022CD
:103F20001A611E4B00225A611C4B80229A611B4869
:103F3000FEF7DAFC0346002B14BF01230023DBB29B
:103F4000002B01D000F0C8FA4FF48053BB6007F19A
:103F5000080319461148FEF717FB0346002B14BF50
:103F600001230023DBB2002B01D000F0B5FA0023BF
:103F70003B6000237B603B4619460848FEF7D0FCB7
:103F80000346002B14BF01230023DBB2002B01D01A
:103F900000F0A2FA00BF1837BD4680BDDC02002049
:103FA000002C014080B586B000AF07F10803002265
:103FB0001A605A609A60DA603B4600221A605A60C2
:103FC000244B254A1A60234B00225A60214B0022C1
:103FD0009A60204B0022DA601E4B00221A611D4BB2
:103FE00000229A611B48FEF77FFC0346002B14BF9A
:103FF00001230023DBB2002B01D000F06DFA4FF457
:104000008053BB6007F1080319461248FEF7BCFA5B
:104010000346002B14BF01230023DBB2002B01D089
:1040200000F05AFA00233B6000237B603B461946B0
:104030000848FEF775FC0346002B14BF012300233C
:10404000DBB2002B01D000F047FA00BF1837BD46A5
:1040500080BD00BF1C0300200004004080B582B07A
:1040600000AF0C4B5B690B4A43F001035361094BF2
:104070005B6903F001037B607B68002200210B2059
:10408000FDF7FAFA0B20FDF72DFB00BF0837BD4600
:1040900080BD00BF0010024080B588B000AF07F1BE
:1040A000100300221A605A609A60DA603F4B9B69E5
:1040B0003E4A43F0100393613C4B9B6903F01003AD
:1040C000FB60FB68394B9B69384A43F020039361DE
:1040D000364B9B6903F02003BB60BB68334B9B6985
:1040E000324A43F004039361304B9B6903F00403AD
:1040F0007B607B682D4B9B692C4A43F008039361DE
:104100002A4B9B6903F008033B603B6800224FF495
:1041100080512748FDF722FD00224FF4E061254839
:10412000FDF71CFD4FF460433B6103237B6107F106
:10413000100319462048FDF721FC49F6C3033B61F3
:1041400003237B6107F1100319461A48FDF716FC9B
:1041500040F6FF733B6103237B6107F110031946AF
:104160001348FDF70BFC4FF480533B6101237B6147
:104170000023BB610223FB6107F1100319460C48C1
:10418000FDF7FCFB4FF4E0633B6101237B610023FF
:10419000BB610223FB6107F1100319460548FDF7D7
:1041A000EDFB00BF2037BD4680BD00BF00100240C0
:1041B000000C0140000801400010014080B582B0B1
:1041C00000AF78604C4B1B7883F00103DBB2002B0F
:1041D0003AD0494B01221A70484B1B681846FCF72D
:1041E0006DF8034619464648FCF774F903461A462B
:1041F000444B1A60414B5B681846FCF75FF8034676
:1042000019463F48FCF766F903461A463D4B5A608B
:104210003A4B9B681846FCF751F803461946384854
:10422000FCF758F903461A46364B9A60334BDB6865
:104230001846FCF743F8034619463148FCF74AF99B
:1042400003461A462F4BDA602C4B1B681846FCF7C6
:1042500035F802462B4B1B6819461046FCF786F8CA
:1042600003461846FCF7D2F903461946264800F0E3
:10427000DFF8224B5B681846FCF720F80246214B1A
:104280005B6819461046FCF771F803461846FCF7C0
:10429000BDF9034619461C4800F0CAF8174B9B6845
:1042A0001846FCF70BF80246164B9B681946104659
:1042B000FCF75CF803461846FCF7A8F903461946D4
:1042C000114800F0B5F80D4BDB681846FBF7F6FF18
:1042D00002460C4BDB6819461046FCF747F80346CC
:1042E0001846FCF793F903461946074800F0A0F872
:1042F00000BF0837BD4680BD580400206C03002075
:1043000000E0FF445C030020FC01002080B483B087
:1043100000AF78600D4B1B6801330C4A13600B4BE8
:104320001B680A2B0DD10A4B1B680A4AA2FB032308
:10433000DB08074A1360054B00221A60044B002279
:104340001A6000BF0C37BD4680BC70475004002087
:1043500054040020CDCCCCCC80B582B000AF034655
:104360000A46FB711346BB71BB795A1EBA71002B0A
:1043700014BF01230023DBB2002B0CD04FF40071DB
:104380000748FDF7EFFBFB79002BEDD0FB791846D2
:10439000FCF73EFEE8E700BF0837BD4680BD00BF22
:1043A0000008014080B582B000AF03460A46FB71A9
:1043B0001346BB71BB795A1EBA71002B14BF01237F
:1043C0000023DBB2002B0CD04FF480610748FDF7CF
:1043D000C9FBFB79002BEDD0FB791846FCF718FEE2
:1043E000E8E700BF0837BD4680BD00BF00080140B8
:1043F00080B582B000AF786039607B683A681A6037
:104400007B681B689B00184600F00AFA03461A46B0
:104410007B685A607B6800229A607B684FF0FF32AD
:10442000DA607B6800221A6100BF0837BD4680BD94
:1044300080B483B000AF786039607B68DA687B68ED
:104440001B68013B9A420CBF01230023DBB2002B07
:1044500003D07B684FF0FF32DA607B68DB685A1C60
:104460007B68DA607B685A687B68DB689B00134472
:104470003A681A607B681B695A1C7B681A6100BF26
:104480000C37BD4680BC704780B485B000AF786003
:104490007B685A687B689B68581C796888609B00B9
:1044A00013441B68FB607B689A687B681B689A42B0
:1044B0000CBF01230023DBB2002B02D07B6800225B
:1044C0009A607B681B695A1E7B681A61FB681846F4
:1044D0001437BD4680BC704780B400AF00BFBD46F6
:1044E00080BC70470E4B82B09A690E4942F00102BF
:1044F0009A619A6902F001020092009ADA6942F028
:104500008052DA61DB6903F080530193019B4B68B1
:1045100023F0E06343F000734B6002B0704700BFCC
:104520000010024000000140F0B500240268254B55
:1045300087B09A42CDE90244CDE9044401D007B0E6
:10454000F0BD06463C20032503F56C439A6902A999
:1045500042F400729A619A69802702F40072009214
:10456000009A9A6942F004029A619B69029003F0F2
:10457000040301931448019B0395FDF7FFF94FF4E1
:1045800000714FF400622023104D1148EF60286045
:104590002846C5E90144EC61C5E90412AB61FDF7A9
:1045A000C5F858B900223562114612206E62FDF737
:1045B00063F81220FDF796F807B0F0BDFFF78CFF07
:1045C000F0E700BF00240140000801404002002045
:1045D0000800024070B5002402681A4B86B09A4267
:1045E000CDE90244CDE9044401D006B070BD4FF4DA
:1045F00020410226032503F5EC33DA69124842F420
:104600008042DA61DA6902F480420092009A9A6983
:1046100042F008029A619B69029103F0080301933A
:1046200002A9019B03960595FDF7A8F94FF4804375
:1046300002A90548CDE903440293FDF79FF906B0AE
:1046400070BD00BF00380040000C014010B5036889
:10465000134A82B093420ED0124A934209D1124BB0
:10466000DA6942F00202DA61DB6903F002030193C6
:10467000019B02B010BD00220B4B11469C69192012
:1046800044F400649C619B6903F400630093009B05
:10469000FCF7F2FF192002B0BDE81040FDF722B888
:1046A000002C01400004004000100240704700BF91
:1046B000FEE700BFFEE700BFFEE700BFFEE700BF6A
:1046C000704700BF704700BF704700BFFCF78EBC4B
:1046D0000148FDF7BDB800BF400200200148FCF7CB
:1046E000DBBC00BF100200200148FEF717B800BF76
:1046F000DC0200200C4A08B5136833B1694618443F
:10470000884209D81060184608BD08490B46116058
:10471000694618448842F5D900F058F80C224FF049
:10472000FF330260184608BD5C04002078040020B6
:1047300030B44FF41F054FF000640E4B0E4A196859
:104740000E4841F00101196059680A405A601A6820
:1047500022F0847222F480321A601A6822F48022D5
:104760001A605A6822F4FE025A609D60846030BC70
:10477000704700BF001002400000FFF800ED00E0AD
:10478000002103E00B4B5B58435004310A480B4BAC
:1047900042189A42F6D30A4A02E0002342F8043B48
:1047A000084B9A42F9D3FFF7C3FF00F015F8FFF763
:1047B00025F970471065000800000020DC0100208A
:1047C000DC01002074040020FEE70000014B1868A3
:1047D000704700BF0C00002070B500250C4E0D4C3A
:1047E000A41BA410A54209D101F04AFD00250A4EE0
:1047F0000A4CA41BA410A54205D170BD56F8253063
:1048000098470135EEE756F8253098470135F2E72D
:104810000865000808650008086500080C650008C0
:10482000024B0146186800F00BB800BF0C000020D6
:1048300003460244934200D1704703F8011BF9E795
:1048400070B5CD1C25F0030508350C2D38BF0C259F
:10485000002D064601DBA94203D90C23336000205A
:1048600070BD01F002FA214A1468214691B9204C2A
:1048700023681BB9304600F07BFB20602946304698
:1048800000F076FB431C24D10C233046336001F04A
:10489000EDF9E4E70B685B1B18D40B2B0FD90B6009
:1048A000CC18CD50304601F0E1F904F10B00231D86
:1048B00020F00700C31AD3D05A42E250D0E74B6829
:1048C0008C4216BF636013600C46EBE70C464968E8
:1048D000CCE7C41C24F00304A04205D0211A3046C2
:1048E00000F046FB0130CFD02560DBE764040020F8
:1048F00068040020002B2DE9F0471E46BBBF03F1E2
:1049000000431E4600232D2388B0149FDDE9121AB0
:1049100027F02007462F1446109D0B7004D0452F1A
:1049200000D10135022300E0032307AA049206AA5E
:10493000CDE902A2CDE900352246334600F0C8FB9E
:10494000472F804602D1119BDB0726D5462F08EB67
:10495000050911D198F80030302B0AD1002200232C
:1049600020463146FCF79EFA18B9C5F10105CAF890
:104970000050DAF8003099440022002320463146E6
:10498000FCF790FA38B93022079B4B4505D2591CE9
:1049900007911A70F8E7CDF81C904046079B159ACE
:1049A000A3EB0803136008B0BDE8F087F7B5002952
:1049B000B4BF2D232B230446B8BF4942092904F86C
:1049C000022B437021DD0DF107031F460A2691FBE0
:1049D000F6F506FB1511092D01F1300103F8011C54
:1049E00003F1FF32294609DC3031023B02F8011C99
:1049F000BB42224604D3101A03B0F0BD1346E6E7CB
:104A000013F8012B04F8012BF2E7302319448370CB
:104A1000021DC170EFE700002DE9F04F91B00C4688
:104A20001A9F93461E46054601F006F9036818468C
:104A30000993FBF70BFE00230E933B680A900733A4
:104A400023F0070303F1080294F81880D4F800A0BB
:104A50003A60D3E90023C4E91223D4E9127929F09A
:104A600000430B934FF0FF32A64B38460B99FCF7EF
:104A70004BFA68BB4FF0FF32A24B38460B99FCF75C
:104A800025FA28BB0022002338464946FCF714FAD1
:104A900010B12D2384F843309B4F9C4BB8F1470F46
:104AA00098BF1F4603234FF0000923612AF0040337
:104AB000236000965B460FAA2146284600F0E2F9E3
:104AC000013040F090804FF0FF3011B0BDE8F08F22
:104AD0003A464B4638464946FCF716FA10B18C4F19
:104AE0008C4BDBE763684AF48062591C0DA80EA961
:104AF00040D1062363604FF0000C0DF13303CDE984
:104B0000012363682260CDE9030800933A464B46CF
:104B1000CDE9051C2846FFF7EDFE08F0DF03472B23
:104B2000074609D10D9BD81C02DB6268934247DD22
:104B3000A8F102085FFA88F8B8F1650F0D9924D83A
:104B40000139424604F150000D91FFF72FFF0E9AF4
:104B500081461318012A236102DC2268D10701D59E
:104B6000013323619DF83330002BA2D02D2384F82C
:104B700043309EE7B8F1670F00F06E81B8F1470F40
:104B8000B9D1002BB7D10123B4E7B8F1660F19D121
:104B9000002963680CDD216113B92268D20702D5B0
:104BA00001330B4423610D9B4FF00009A365D9E746
:104BB00013B92268D00701D50233F3E70123F1E7E7
:104BC0004FF06708DDE90D32934205DB226823616F
:104BD000D107E8D50133E5E7002BCCBF0123C3F1B2
:104BE00002031344DEE723685A0507D423693A46D3
:104BF00059462846B047013029D164E7B8F1650F1E
:104C000040F2D780D4E9120100220023FCF74AF9D0
:104C100088B30123404A59462846B04701303FF443
:104C200052AFDDE90D239A4202DB2368D8070ED587
:104C3000DDE9092359462846B04701303FF443AF28
:104C4000002704F11A080E9B013BBB4209DC2368D4
:104C50009F0700F1FD80E0680F9B9842B8BF18469F
:104C600033E70123424659462846B04701303FF416
:104C70002AAF0137E7E70D9B002B2BDC0123264AE7
:104C800059462846B04701303FF41DAF0D9B23B96C
:104C90000E9B13B92368D907D9D5DDE909235946F5
:104CA0002846B04701303FF40EAF4FF0000804F142
:104CB0001A090D9B5B42434501DC0E9B97E70123DC
:104CC0004A4659462846B04701303FF4FCAE08F149
:104CD0000108EEE70E9AA36D9A42A8BF1A46002A71
:104CE000904607DD134659463A462846B0470130FC
:104CF0003FF4E9AE04F11A034FF0000A28EAE8781D
:104D00000B9315E0FFFFEF7FE4620008E06200080C
:104D1000EC620008E8620008F062000801230B9AC8
:104D200059462846B04701303FF4CDAE0AF1010A9A
:104D3000D4F85890A9EB08035345EFDCDDE90D23C7
:104D40009A424F4414DB2368DA0711D40E9B0D9965
:104D5000A3EB0902A3EB01099145A8BF9146B9F164
:104D6000000F0DDC002729EAE97904F11A0818E0A0
:104D7000DDE9092359462846B0470130E6D1A2E6CD
:104D80004B463A4659462846B0470130EAD19AE6A2
:104D90000123424659462846B04701303FF493AEBE
:104DA0000137DDE90D239B1AA3EB0903BB42EFDCBE
:104DB0004DE70E9A012A01DCDB0738D501233A467C
:104DC00059462846B04701303FF47DAEDDE909235E
:104DD00059462846B047013007F101073FF473AE4A
:104DE000D4E912010E9B002203F1FF380023FCF7E7
:104DF00059F8C0B943463A4659462846B0470130AB
:104E00000DD160E60123424659462846B04701309D
:104E10003FF459AE01370E9B013BBB42F2DC4B46DF
:104E200004F15002E4E6002704F11A08F3E7012335
:104E3000E1E70123424659462846B04701303FF496
:104E400042AE0137E3680F9A9B1ABB42F1DC02E7DE
:104E5000002704F11908F5E7002B3FF494AE4FF05A
:104E6000000CCDE9051C0DF133012260CDE90308EA
:104E7000CDE9012100933A464B462846FFF73AFD1B
:104E800007464FE62DE9F04791461F468A680B69B1
:104E900006469342B8BF1346C9F8003091F8432044
:104EA0000C46DDF8208012B10133C9F800302368C8
:104EB000990642BFD9F800300233C9F8003025689E
:104EC00015F0060507D104F1190AE368D9F80020A6
:104ED0009B1AAB4229DC94F843302268003318BF98
:104EE000012392062ED404F1430239463046C047CE
:104EF000013021D02368E56803F00603042B18BFB6
:104F00000025D9F800204FF0000908BFAD1AA368AA
:104F1000226908BF25EAE5759342C4BF9B1AED18C4
:104F20001A344D451AD1002008E001235246394673
:104F30003046C047013003D14FF0FF30BDE8F08765
:104F40000135C2E73020E11881F843005A1C94F87B
:104F500045102244023382F84310C4E7012322465D
:104F600039463046C0470130E6D009F10109D8E79B
:104F700038B50023054C054608462360FFF7BAFB09
:104F8000431C02D1236803B12B6038BD700400209C
:104F900010B56AB10139841810F8013B11F8012FDE
:104FA000934203D1A04201D0002BF5D1981A10BD35
:104FB0001046FCE72DE9F74F03690C698046A342D0
:104FC000C0F28480013C01F1140700F1140657F887
:104FD000245056F824000135B0FBF5F54FEA840C57
:104FE00006EB0C0307EB0C0901939DB34FF0000A8D
:104FF0003846B646D34650F8042B93B205FB03A3BC
:10500000120C4FEA134A05FB02A29BB2ABEB03035F
:10501000DEF800B04FEA124A1FFA8BFB5B441FFA1E
:1050200082FBDEF800208145CBEB124202EB2342EB
:105030009BB243EA02434FEA224B4EF8043BDAD2DA
:1050400056F80C3033B9019B043B9E421A4631D3CB
:10505000C8F81040404601F01FF8002826DB304613
:105060004FF0000C013557F8041BD0F800E08BB26C
:10507000ACEB03031FFA8EF213440A0CC2EB1E4280
:1050800002EB23429BB243EA0243B9454FEA224C6A
:1050900040F8043BE7D256F8242006EB84032AB9F3
:1050A000043B9E421A460BD3C8F81040284603B072
:1050B000BDE8F08F1268043B002AC9D1013CC4E767
:1050C0001268043B002AEFD1013CEAE70020EEE73A
:1050D0002DE9F04F16461F46456A95B00446DDF8A7
:1050E0008480CDE902673DB91020FFF799FB60622B
:1050F000C0E901550560C560636A196851B15A6815
:10510000012393404A608B60204600F0E4FD0022BA
:10511000636A1A603B1EAFBF0023012223F00043E5
:105120000393ACBFC8F80030C8F80020AE4BDDF8E0
:105130000C8033EA08031BD142F20F73209A1360EC
:10514000029B23B9C8F31300002800F04585229B79
:1051500053B9A64B21E0A64B06930833229A13605D
:10516000069815B0BDE8F08FA04B06930333F5E722
:10517000DDE902670022002330463946FBF792FE44
:10518000824660B10123209A1360229B002B00F01D
:105190002085984B229A1360013B0693E0E712ABFF
:1051A000019313AB009332463B46204600F0ECFFE0
:1051B000C8F30A558346002D7DD0B046C7F31303CC
:1051C00043F07F5949F44019A5F2FF35CDF840A0CE
:1051D0000022894B40464946FBF744FA7CA3D3E9B9
:1051E0000023FBF7F7FB7CA3D3E90023FBF73CFA92
:1051F000064628460F46FBF783FB79A3D3E9002335
:10520000FBF7E8FB02460B4630463946FBF72CFA23
:1052100006460F46FBF78EFE0022824600233046EC
:105220003946FBF749FE48B15046FBF769FB324669
:105230003B46FBF737FE08B90AF1FF3ABAF1160F01
:105240005AD8DDE902236D4901EBCA01D1E9000119
:10525000FBF750FE002851D000230AF1FF3A0D93CE
:10526000129B5D1B6B1E079343BF0023C5F1010911
:1052700007934FF00009BAF1000F41DB079BCDF80F
:1052800030A053440793002308931E9B092B00F280
:105290008F80052BC4BF043B1E931E9BC8BF0025F7
:1052A000A3F10203D8BF0125032B00F28D80DFE8B4
:1052B00003F07B7D2F6FDDE912531D4405F2324070
:1052C000202813DDC0F14000029B08FA00F805F227
:1052D000124023FA00F048EA0000FBF701FB01232B
:1052E0008046A1F1F879013D109371E7029BC0F16E
:1052F000200003FA00F0F0E70123B0E70D90AFE7DC
:10530000CAF1000308930023A9EB0A090C93BCE738
:10531000012309931F9B002B74DD98460493002200
:10532000666A7260042202F11400984271686ED9B4
:10533000204600F09CFC636A30601B68B8F10E0FD9
:10534000069300F2ED80002D00F0EA80DDE90223F3
:10535000BAF1000FCDE90E2377DD284A0AF00F03DA
:105360004FEA2A1602EBC303F006D3E90023CDE986
:105370000A2368D5DDE90E01214B0325D3E9082373
:10538000FBF752FCCDE9020106F00F061C4F4FE07F
:10539000012309931F9B534403F1010804934346DF
:1053A000012BB8BF0123BAE70023B2E70023F0E7DF
:1053B0000125002309951E934FF0FF33002204932B
:1053C000984612231F92AAE701230993F4E700BF2E
:1053D00061436F63A787D23FB3C8608B288AC63FFB
:1053E000FB799F501344D33F0000F07FFB6200081D
:1053F000F2620008F16200080000F83F286300082C
:10540000006300080123049398461A46DAE7013145
:105410007160520087E7F10708D5DDE90A01D7E995
:105420000023FBF7D7FACDE90A01013576100837DA
:10543000002EF0D1DDE90A23DDE90201FBF7F4FBE0
:10544000CDE902011BE00225A0E700F0A480DDE920
:105450000E01CAF10006A04B06F00F0203EBC203D7
:10546000D3E90023FBF7B6FA02250023CDE90201B8
:105470009A4F3611002E40F08380002BE0D10D9B17
:10548000002B00F08A80DDE90223CDE90A23DDE963
:105490000A010022924BFBF70FFD00287DD0B8F1E6
:1054A000000F7AD0049B002B36DDDDE90A010022D3
:1054B0008C4BFBF78FFACDE90201049E0AF1FF370E
:1054C00001352846FBF71CFADDE90223FBF782FAD7
:1054D0000022854BFBF7C8F8A1F15075CDE90A0110
:1054E0000B95002E5CD1DDE9020100227F4BFBF71A
:1054F000B9F80A9A2B46CDE90201FBF7FBFC00281C
:1055000040F08182DDE902010A9A05F10043FBF7D0
:10551000D3FC002840F07582DDE90E23CDE902239B
:10552000139B002BC0F24B81BAF10E0F00F34781A1
:10553000694B03EBCA03D3E90023CDE904231F9B86
:10554000002B80F2D780B8F1000F00F3D38040F039
:105550005782DDE904010022644BFBF73BFADDE9E9
:105560000223FBF7BDFC46464746002840F02D824B
:10557000069B069A5D1C31230AF1010A137028E28A
:10558000F20705D5D7E90023FBF724FA01230135FB
:10559000761008376EE7022571E75746464690E7D2
:1055A0004D4B03EBC60353E90201099B002B48D086
:1055B00002460B4600204E49FBF736FBDDE90A2385
:1055C000FBF750F8CDE90A01069DDDE90201FBF782
:1055D000B1FC1190FBF794F902460B46DDE902019C
:1055E000FBF740F8119BCDE90201303305F8013B90
:1055F000DDE90A23FBF760FC002863D1DDE9022323
:1056000000203749FBF72EF8DDE90A23FBF754FCAD
:10561000002840F0B580069BEB1A9E427FF77CAFD6
:10562000DDE90A0100222F4BFBF7D4F90022CDE976
:105630000A01DDE902012B4BFBF7CCF9CDE90201B0
:10564000C3E7DDE90A23FBF7C5F9069BCDE90A01AB
:105650009D191E46DDE90201FBF76CFC1190FBF77A
:105660004FF902460B46DDE90201FAF7FBFF119BF9
:10567000CDE90201303306F8013BAE424FF00002A3
:1056800024D1DDE90A011A4BFAF7EEFF02460B4678
:10569000DDE90201FBF72EFC002871D1DDE90A23C8
:1056A00000201349FAF7DEFF02460B46DDE902014E
:1056B000FBF702FC00283FF42FAF15F8013C6A1EEF
:1056C000302B01D0BA464AE01546F6E7054BFBF70A
:1056D00081F9CDE90201BDE72863000800630008F5
:1056E0000000F03F0000244000001C400000144077
:1056F0000000E03F069DDDE90267DDE90423304656
:105700003946FBF791FAFBF715FC8146FBF7F8F8F1
:10571000DDE90423FBF75EF902460B4630463946C5
:10572000FAF7A0FF09F1300605F8016B069E024664
:10573000AE1BB0450B4635D1FAF796FFDDE90423E1
:1057400006460F46FBF7D6FBC8B9DDE90423304611
:105750003946FBF7A7FB10B119F0010F0FD15946DD
:10576000204600F0B8FA0023209A2B700AF10103BA
:105770001360229B002B3FF4F3AC1D60F0E457460E
:1057800015F8012C6B1E392A06D1069A9A4207D1C8
:1057900030231370134601371A7801321A7091E7DB
:1057A0001D46EDE70022994BFBF714F90022002378
:1057B00006460F46FBF776FB00289ED0CFE7099AF6
:1057C000002A00F088801E9A012A6DDC109A002AB7
:1057D00066D003F233434D46089E079A01211A44CE
:1057E00020469944079200F016FB0746002D0BDD7A
:1057F000079B002B08DDAB42A8BF2B46079AA9EBFD
:105800000309ED1AD31A0793089BEBB1099B002BF0
:1058100065D08EB139463246204600F09BFB5A4691
:1058200001460746204600F0FFFA59460A902046F6
:1058300000F051FA0A9B9B46089B9A1B04D05946DC
:10584000204600F087FB83460121204600F0E3FA62
:105850000C9B0646002B00F0C6811A4601462046E6
:1058600000F078FB1E9B0646012B3EDC029B002BC2
:1058700037D1039BC3F31303002B34D1039B23F0D5
:1058800000431B0D1B052BB1079B09F101090133D7
:105890000793012308930C9B002B28D101202EE0B5
:1058A000129BC3F1360396E7089B08F1FF36B3421B
:1058B000B7BF089B9E1BF21A0C9BBFBF08969B1894
:1058C0000C930026B8F1000FB9BFA9EB080500231F
:1058D0004D46434681E7089E4D46099F86E7089A54
:1058E000ADE70023D6E7029BD4E700230893336992
:1058F00006EB8303186900F040FAC0F12000079B13
:10590000184410F01F0047D0C0F12003042B3BDDEA
:10591000079BC0F11C008144054403440793B9F17F
:10592000000F05DD59464A46204600F061FB8346DC
:10593000079B002B05DD31461A46204600F058FB38
:1059400006460D9B53B33146584600F0A5FB002890
:1059500024DA002359460A22204600F0D3F9099B95
:105960000AF1FF3A8346002B00F0448100233946B8
:105970000A22204600F0C6F9049B0746002B4DDCA6
:105980001E9B022B4ADD11E0C9D0079A1C331A4432
:1059900099441D441346C1E70346F6E7B8F1000FEA
:1059A00036DC1E9B022B33DDCDF81080049B63B9DF
:1059B00031460522204600F0A5F901460646584624
:1059C00000F06AFB00283FF7D3AD1F9B069D6FEAEE
:1059D000030A4FF000093146204600F07CF9002F01
:1059E0003FF4BDAEB9F1000F05D0B94503D049462B
:1059F000204600F070F93946204600F06CF9AEE61A
:105A000000263746E1E7BA463746B1E500002440B4
:105A1000099BCDF81080002B00F0F380002D05DDF0
:105A200039462A46204600F0E3FA0746089B002B39
:105A30004CD07968204600F01AF905463A6907F11A
:105A40000C01023292000C3000F004F901222946C8
:105A5000204600F0CDFAB9460746069B0793029B05
:105A600003F00103089331465846FFF7A3FA49466D
:105A7000054600F13008584600F00EFB3A46029009
:105A80003146204600F022FBC368024603BB0146B4
:105A90000990584600F000FB0346099A114620463B
:105AA000099300F018F9099BA3B91E9A92B9089AB4
:105AB00082B9B8F1390F29D0029B002B01DD05F125
:105AC0003108079B5D1C83F8008084E73846C2E7F5
:105AD0000123E3E7029A002A04DB23D11E9A0ABBC2
