:020000040800F2
:100000000050002005460008914000089540000877
:10001000994000089D400008A14000080000000031
:10002000000000000000000000000000A5400008E3
:10003000A940000800000000AD400008B1400008E1
:100040004D4600084D4600084D4600084D46000844
:100050004D4600084D4600084D4600084D46000834
:100060004D4600084D4600084D4600084D46000824
:100070004D4600084D4600084D4600084D46000814
:100080004D4600084D4600084D4600084D46000804
:10009000B54000084D4600084D4600084D46000892
:1000A0004D4600084D4600084D4600084D460008E4
:1000B0004D4600084D4600084D4600084D460008D4
:1000C0004D4600084D4600084D4600084D460008C4
:1000D0004D4600084D4600084D4600084D460008B4
:1000E0004D4600084D4600084D460008000000003F
:1000F0000000000000000000000000000000000000
:0C01000000000000000000005FF808F1A3
:10010C0010B5054C237833B9044B13B10448AFF345
:10011C0000800123237010BD50030020000000005C
:10012C00104A000808B5034B1BB103490348AFF351
:10013C00008008BD0000000054030020104A000895
:10014C004FF47A7370B50D4D0D4A29781268B3FBD4
:10015C00F1F30646B2FBF3F000F09EF808B90F2E4F
:10016C0001D9012070BD0446024631464FF0FF30E4
:10017C0000F050F86E60204670BD00BF00000020FB
:10018C001C010020074A08B51368032043F0100334
:10019C00136000F02DF80020FFF7D2FF03F000FFF2
:1001AC00002008BD00200240034A044B11681B7854
:1001BC000B441360704700BFA8060020000000200D
:1001CC00014B1868704700BFA806002038B50446DC
:1001DC00FFF7F6FF631C054602D0044B1B781C444A
:1001EC00FFF7EEFF401BA042FAD338BD0000002001
:1001FC004FF6FF01064A0002D36800F4E0600B40A2
:10020C0043F0BF6343F400330343D360704700BF34
:10021C0000ED00E0184B30B4DB68C3F30223C3F1EC
:10022C000705042D03F1040428BF0425062C19D955
:10023C004FF0FF34033B9C4022EA04044FF0FF32A2
:10024C00AA4021EA020101FA03F22243120100281A
:10025C00D2B20ADB00F1604000F5614080F8002367
:10026C0030BC704700242346E8E7044B00F00F0035
:10027C0003441A7630BC704700ED00E0FCEC00E063
:10028C00012300F01F01034A40098B4042F8203043
:10029C00704700BF00E100E00138B0F1807F0DD263
:1002AC0030B4F02500220721054B064C586084F829
:1002BC002350104630BC9A6019607047012070477B
:1002CC0010E000E000ED00E02DE9F04F4FF00008E9
:1002DC0083B04446DFF8C0C1694EDFF8C0E102E0EC
:1002EC000134102C78D001230A68A3401A409342A1
:1002FC00F6D14D68122D00F09C807ED8022D00F0B6
:10030C00948074D9032D00F08D80112D02D1CB680F
:10031C0003F10408FF2A62D882460368A5004FF057
:10032C000F0909FA05FB23EA0B0308FA05F52B4321
:10033C00CAF80030D1F804A01AF0805FD0D0514F29
:10034C0024F00305BB6905F1804543F00103BB6153
:10035C00BB6905F5803503F00103019304F0030B31
:10036C00019B4FEA8B0BAB6809FA0BF9604523EA4A
:10037C0009030FD0704560D0434FB84278D0434F3B
:10038C00B8420CBF4FF003094FF0040909FA0BFBFC
:10039C0043EA0B03AB6033681AF4803F14BF13437A
:1003AC009343336073681AF4003F14BF13439343B1
:1003BC007360B3681AF4801F14BF13439343B36084
:1003CC00F3681AF4001F04F1010414BF1A4323EA62
:1003DC000202102CF26086D103B0BDE8F08F04F15C
:1003EC008045083D4368AD0000F1040A97E7A5B1CC
:1003FC00012D8FD1D1F80C808CE7254FBD420CD04C
:10040C0029D9244FBD4208D007F58037BD4204D00E
:10041C00DFF88C904D457FF47DAF8D68A5B94FF01A
:10042C00040877E74FF0000874E7CB6803F108087D
:10043C0070E7CB6803F10C086CE74FF0010909FA7F
:10044C000BFB43EA0B03A5E7012D0CBF03614361D2
:10045C004FF008085EE7DFF84C904D45DDD009F50C
:10046C0080394D457FF456AF8D68002DD7D0EBE722
:10047C004FF0020909FA0BFB43EA0B038AE700BFB2
:10048C000004014000100240001001400014014023
:10049C00000021100000311000080140000C014048
:1004AC00000022100000111002B90904016170470C
:1004BC00C3685940C1607047002867D0F0B590F808
:1004CC00293487B0054603F0FF02002B59D00323D3
:1004DC002E4685F82934286801F070FA56F810CBAE
:1004EC006C4637460FCF0FC43B682F1D236097E82F
:1004FC000E00604601F050FA0021286801F068FAFD
:10050C0000212B4608462A46012482F828109186A1
:10051C0001310F2982F8294082F82B00C2E90E0024
:10052C00106402F12002F0D10022144683F8282234
:10053C009A8601320F2A83F8294283F82B42C3F89A
:10054C003842C3F83C42C3F8404203F12003EDD1DA
:10055C00EC460FCED5F800E0ACE80F0033687046DF
:10056C00CCF8003097E80E0001F034FA012385F83E
:10057C002440286885F8293401F002FE002007B0D9
:10058C00F0BD80F8282403F085FEA0E70120704719
:10059C0090F82834012B10D0012110B5044680F8B6
:1005AC00281403F0A7FF206801F0E8FD206801F093
:1005BC00FBF9002084F8280410BD0220704700BF0E
:1005CC0090F82824012A0DD010B50446012284F895
:1005DC00241080F82824006801F0CAFD002084F85B
:1005EC00280410BD0220704738B54CB2002C01F025
:1005FC007F05B5BF00EB451100EB4111283101F52A
:10060C000A71E40F4C700D70CB7090F828340A61AD
:10061C00012B0AD00123044680F82834006801F02D
:10062C00F3F9002084F8280438BD022038BD00BF3F
:10063C004BB2002B01F07F02B5BF00EB421100EB77
:10064C004111283101F50A71DB0F4B700A7090F8DB
:10065C002834012B0BD0012310B5044680F8283424
:10066C00006801F03DFB002084F8280410BD022036
:10067C00704700BF70B5002601F07F014D01441991
:10068C0005F50A7584F82812C4F83C224119C4F8FF
:10069C0040320068C4F8446284F8296201F0EEFB31
:1006AC00304670BD01F00F0100EB4111B1F844026E
:1006BC00704700BFF8B50026012701F07F014D01FE
:1006CC004419283584F82810C4E90F23411900680F
:1006DC0084F82970666401F0D1FB3046F8BD00BF88
:1006EC002DE9F04F044683B0006801F04BFD020485
:1006FC0045D42268104601F045FD460500F1838182
:10070C00206801F03FFD10F4804F206807D0B0F84E
:10071C00443023F480431B041B0CA0F8443001F03C
:10072C0031FD10F4005F206807D0B0F8443023F49A
:10073C0000531B041B0CA0F8443001F023FDC5042E
:10074C0000F14381206801F01DFD000500F11E81C0
:10075C00206801F017FD820500F10B81206801F083
:10076C0011FDC30508D52268B2F8443023F4807318
:10077C001B041B0CA2F8443003B0BDE8F08F00231F
:10078C002268DFF89494DFF894A4DFF894B4ADF801
:10079C000430ADF80630B2F844309BB21F04ADF80B
:1007AC000430A7D5BDF8045015F00F054FD1BDF896
:1007BC000410138811F0100100F043819BB2ADF8C6
:1007CC000630BDF806301B0500F18E81BDF80630F1
:1007DC001F04E0D540F68F7311880B401380B2F8DC
:1007EC00503094F8281203EBC10302EB4303D3F807
:1007FC000C34C3F30903C4F84432002B40F0EE81EF
:10080C002046002103F06CFD2268D4F83802B2F8BF
:10081C0050303E2802F5806503F1060340F2CE818C
:10082C00C0F34F11C60604BF01F1FF3189B24BEA88
:10083C00812189B245F8131013880AEA030383F463
:10084C00405343F4004343F080031380A3E732F892
:10085C0025309BB2ADF80630BDF8063019043BD4F8
:10086C00BDF806301B0696D532F825306E0109EA24
:10087C00030322F82530A71997F8323002F580616E
:10088C00002B40F00C81B2F8503097F8280003EBA5
:10089C00C003023351F81330C3F309037B64002BFC
:1008AC0040F06A812644B2F8503096F82800F26B7A
:1008BC0003EBC003023351F81310336CC1F309017D
:1008CC000A447164F263002B40F0E280014620463A
:1008DC0003F00EFD22685EE740F68F7332F82510A8
:1008EC006E010B4022F8253004EB060898F83232E2
:1008FC0002F58060002B00F0178198F8283232F84E
:10090C00237002EB830117F4804FB2F850704FEA5A
:10091C00C3033B4400F03C81023350F81370C7F31F
:10092C000907002F40F0728140F60F730A881340BC
:10093C0043F4004343F0C0030B802644D6F8441222
:10094C00D6F83C22D6F8403239443A44C6F8441220
:10095C00C6F83C22002B00F01881D6F8380296F825
:10096C002812874280F03581204603F0B9FC2268BA
:10097C0076E722682046B2F8443023F400731B0457
:10098C001B0CA2F8443003F0BBFCE7E62368B3F879
:10099C004020184642F00802A3F84020B3F8442047
:1009AC0022F400621204120CA3F84420B3F8402085
:1009BC0042F00402A3F8402001F0E4FBC1043FF52F
:1009CC00C7AE204603F0B2FCC2E622682046B2F85D
:1009DC00403023F004031B041B0CA2F84030B2F887
:1009EC00403023F008031B041B0CA2F8403003F02A
:1009FC00ADFC2068B0F8443023F480531B041B0C6E
:100A0C00A0F844309FE622682046B2F8443023F424
:100A1C0080631B041B0CA2F8443003F075FC94F8A3
:100A2C002834012B3FF46CAE0025012384F82450AC
:100A3C0084F828342946206801F09AFB84F828545D
:100A4C005EE609EA03031380B2F8500094F82850CC
:100A5C00E36B00EBC50002EB4002D2F80424204605
:100A6C00C2F309021344E363626403F041FC94F89B
:100A7C00243093B1236C2268002B7FF48CAE94F855
:100A8C00241041F08001A2F84C1084F8243082E646
:100A9C0096F828102046FFF70DFE22687BE697F8A3
:100AAC00283004EB451532F82300DB0010F0400F22
:100ABC00B2F8500003444ED1063351F81330C3F34F
:100ACC0009036B64002B40F0988040F60F73A0195B
:100ADC0090F8280032F820502B4043F4404343F068
:100AEC00800322F82030DDE6B2F8503094F828125A
:100AFC00104603EBC10302EB4302D2F80C3404F2B0
:100B0C002C41C3F30903B4F82C22C4F8443201F08D
:100B1C004DFB40F68F732268204611880B401380E2
:100B2C0003F0D8FB226836E6B2F8503098F8281259
:100B3C0003EBC103063350F81370C7F30907002FFA
:100B4C003FF4FBAE10463B46B8F82C22D8F83C12CA
:100B5C0001F02CFBF1E6023351F81330C3F3090317
:100B6C006B64002BB1D01046F96BFA8D01F010FBC1
:100B7C00226802F58061A8E71046F96BBA8D01F086
:100B8C0007FB226802F580618CE696F82812EBE6EA
:100B9C00063350F81370C7F30907002F3FF4C4AEA7
:100BAC003B461046B8F83022D8F83C1201F0FEFA59
:100BBC0098F82832216801EB8301B5E6C0F34F01A8
:100BCC00C00744BF013189B2890289B245F81310BC
:100BDC0032E62046FFF74EFD226841E61046D4F877
:100BEC003C12B4F82C2201F0E1FAD4F83C32D4F8DF
:100BFC0044221344C4F83C3202E61046F96B3A8E98
:100C0C0001F0C6FA226802F580615EE710463B46A9
:100C1C00B8F82E22C8E700BF0F8FFFFF8FBFFFFF72
:100C2C000080FFFF012238B54BB2002B01F07F058D
:100C3C00B5BF00EB451100EB4111283101F50A71EC
:100C4C00DB0F4B700D708A7090F82834934213D0E0
:100C5C00044680F82824006801F010FA1DB1002029
:100C6C0084F8280438BD04F22C41206801F08EFA77
:100C7C00002084F82804F5E7022038BD38B500259B
:100C8C004BB2002B01F07F02B5BF00EB421100EB21
:100C9C004111283101F50A71DB0F4B700A708D7010
:100CAC0090F82834012B0AD00123044680F828340C
:100CBC00006801F015FA84F82854284638BD022043
:100CCC0038BD00BF11F0800F0DD001F07F0100EB9B
:100CDC004110283099B26AB101221B0C0381C180EA
:100CEC0082720020704700EB411000F50A7099B237
:100CFC00002AF1D182728180002070472DE9F041E9
:100D0C00036882B0DD07044630D5AB494A6802F06F
:100D1C000C02042A00F0DA804A6802F00C02082A5D
:100D2C0000F0D0806368B3F5803F00F00F81002B9A
:100D3C0000F02781B3F5A02F00F0B5819E4B1A6807
:100D4C0022F480321A601A6822F480221A60FFF7AB
:100D5C0037FA994D064605E0FFF732FA801B6428F6
:100D6C0000F20B812B689A03F6D523689F0728D5D0
:100D7C00914A516811F00C0F00F0B680516801F0E7
:100D8C000C01082900F0AC802369002B00F0418194
:100D9C0001228A4B884D1A60FFF712FA064605E0CD
:100DAC00FFF70EFA801B022800F2E7802B689807E9
:100DBC00F6D52B68626923F0F80343EAC2032B6073
:100DCC0023681A0722D5A369002B00F09880012212
:100DDC007B4B794D1A60FFF7F3F9064605E0FFF7F8
:100DEC00EFF9801B022800F2C8806B6A9B07F6D5CE
:100DFC00744B754A1B68A2FB03235B0A019300BF6B
:100E0C00019B5A1E0192002BF9D123685D0739D53D
:100E1C00694BDA69D00040F1828000256B4B1A686F
:100E2C00D10540F19980E368012B0FD0002B00F025
:100E3C00D180052B604B1A6A00F0FC8022F0010275
:100E4C001A621A6A22F004021A6204E05A4A136AFD
:100E5C0043F001031362FFF7B3F9574E804641F29A
:100E6C00883706E0FFF7ACF9A0EB0800B84200F2B7
:100E7C008480336A9B07F5D525B14F4AD36923F09B
:100E8C008053D361E269CAB14B4D696801F00C0122
:100E9C00082930D0022A4FF000014D4A00F0D280D0
:100EAC001160FFF78DF92C46054604E0FFF788F931
:100EBC00401B022861D823689B01F7D4002002B0A4
:100ECC00BDE8F0814A68D0037FF52CAF3A4A12682E
:100EDC0091037FF54BAF6268002A7FF447AF0AE0BD
:100EEC005268D6033FF550AF334A1268950721D5A7
:100EFC002269012A1ED0012002B0BDE8F081304ADF
:100F0C002D4D1360FFF75CF9064604E0FFF758F926
:100F1C00801B022831D86B6A9F07F7D475E7DA6912
:100F2C00012542F08052DA61DB6903F080530093B3
:100F3C00009B73E7204960690A6822F0F80242EAD4
:100F4C00C0020A601A077FF561AF3CE71A4A1368C2
:100F5C0043F480331360FAE61A681E4642F480723A
:100F6C001A60FFF72DF907463368DA053FF55BAFDA
:100F7C00FFF726F9C01B6428F6D9032002B0BDE8A0
:100F8C00F08103F1804303F504331A681D4622F403
:100F9C0080321A601A6822F480221A60FFF710F966
:100FAC00064604E0FFF70CF9801B6428E5D82B6893
:100FBC009B03F7D4D9E600BF001002400000424268
:100FCC00800442421C010020D34D6210007000408E
:100FDC006000424203F1804303F504331A6A1E4653
:100FEC0022F001021A621A6A41F2883822F00402D5
:100FFC001A62FFF7E5F8074604E0FFF7E1F8C01BBB
:10100C004045BAD8336A9807F7D4002D3FF43AAF6D
:10101C0033E72B4A2B4D1360FFF7D2F8064604E05A
:10102C00FFF7CEF8801B0228A7D82B689907F7D4B6
:10103C002368C6E642F004021A621A6A42F0010200
:10104C001A6208E71160FFF7BBF8064604E0FFF7E9
:10105C00B7F8801B022890D82B689901F7D4226A24
:10106C00B2F5803F05D16B68A16823F400330B43C4
:10107C006B600125134B606A5968024321F47411AB
:10108C0011480A435A6005601C46FFF799F805465B
:10109C0005E0FFF795F8401B02283FF66EAF23687A
:1010AC009A01F6D50AE703F18043A3F53C331A689D
:1010BC0042F480221A601A6842F480321A6046E6C2
:1010CC0000004242001002406000424240F2012205
:1010DC0086B0154B0DF1180CADF804200FCB0CE9B4
:1010EC000F0012494B6803F00C02082A02D010487A
:1010FC0006B07047C3F383426244DB0312F8102C32
:10110C0004D40C4800FB02F006B070474B6808484A
:10111C00C3F3404300FB02F0634413F8143CB0FBF0
:10112C00F3F006B0704700BF284A000800100240D8
:10113C0000127A0000093D00544A136803F00703BB
:10114C008B420BD2136823F007030B431360136815
:10115C0003F007038B4201D00120704703682DE98F
:10116C00F0419D0714D55C0704D5494C626842F4E4
:10117C00E06262601A0704D5454C626842F4605222
:10118C006260434C8568626822F0F0022A43626018
:10119C00DF0704460E4622D542683D4B012A1B68E8
:1011AC006FD0022A6AD0990729D5394D41F2883877
:1011BC006B6823F0030313436B60FFF701F863685C
:1011CC000746012B49D0022B05D151E0FEF7F8FF61
:1011DC00C01B404558D86B6813F00C0FF6D12B4A46
:1011EC00136803F00703B3420CD9136823F0070309
:1011FC0033431360136803F00703B34202D001209A
:10120C00BDE8F08123685A0706D52149E0684A6891
:10121C0022F4E06202434A601B0707D51C4A21698D
:10122C00536823F4605343EAC1035360FFF74EFF46
:10123C00174B18495B68184AC3F30313CB5C20FAAD
:10124C0003F300201360FEF77BFF0020BDE8F08164
:10125C00FEF7B6FFC01B404516D86B6803F00C03B5
:10126C00042BF5D1BBE7FEF7ABFFC01B40450BD8F9
:10127C006B6803F00C03082BF5D1B0E7980194D4FC
:10128C00BDE79D0391D4BAE70320B9E700200240E3
:10129C0000100240484A00081C0100202DE9F041D2
:1012AC000446006882B0C5072AD53A4BDA69D100EA
:1012BC003DD5394B00251A68D20546D535496068AD
:1012CC000A6A12F440720FD000F4407393420BD0B0
:1012DC00012700260B6A314A23F440701760166010
:1012EC000862D80745D460682A4A136A23F440730D
:1012FC00034313621DB1D36923F08053D36120687B
:10130C00830706D5234AA168536823F440430B4353
:10131C00536010F0100007D000201E4AE16853689B
:10132C0023F480030B43536002B0BDE8F081DA690B
:10133C00012542F08052DA61DB6903F0805301939E
:10134C00019B154B1A68D205B8D41A681E4642F494
:10135C0080721A60FEF734FF07463368DB05ADD4A4
:10136C00FEF72EFFC01B6428F7D9032002B0BDE89E
:10137C00F0810E46FEF724FF41F288378046336A2F
:10138C009A07B0D4FEF71CFFA0EB0800B842F6D9C0
:10139C00EBE700BF001002400070004040044242E6
:1013AC002DE9F04180460F4616461D46D8F8004000
:1013BC0001E06B1C0AD1A06837EA00030CBF0120C6
:1013CC0000208642F5D10020BDE8F0813DB1FEF74A
:1013DC00F7FE069BC01AA842E8D3D8F80040636811
:1013EC00D8F8042023F0E003B2F5827F636015D0B7
:1013FC00D8F82830B3F5005F08D14DF6FF7223689A
:10140C0013402360236843F400532360012200231C
:10141C0088F8512088F850300320D5E7D8F80830E8
:10142C00B3F5004F02D0B3F5806FE1D1236823F000
:10143C0040032360DCE700BF2DE9F04304460120A4
:10144C0085B084F85000164699460F460C9DFEF761
:10145C00B7FE94F851308046DBB2012B626811D094
:10146C00B2F5827F09D002200122002384F851209A
:10147C0084F8503005B0BDE8F083A1680029F2D1A2
:10148C00042BF0D1002F60D0002E5ED0B9F1000FEC
:10149C005BD094F851302168012B04BF052384F8EC
:1014AC00513000236365A4F83E90A4F83690086888
:1014BC00A6634006A4F83C902763A4F83490C4E9D2
:1014CC00103344D5E368B3F5006F45D0002A71D1D1
:1014DC0017F8013B0B73E38E013B9BB2E3864FF095
:1014EC000109E38E9BB21BB9E38F9BB2002B41D059
:1014FC00B9F1000F0FD0E38E9BB263B123689A68E9
:10150C00910708D54FF000093A7801371A73E38E2A
:10151C00013B9BB2E386E38F9BB263B123689A686D
:10152C00D20708D54FF00109DB683370E38F4E44C6
:10153C00013B9BB2E3876B1CD3D0FEF741FEA0EBC3
:10154C0008008542CDD803208EE701208CE70B687C
:10155C0043F040030B60B5E7002A5CD0E38E9BB2EE
:10156C00012B58D04FF00109E38E9BB23BBBE38FAC
:10157C009BB223BBCDF800802B46012202212046D2
:10158C00FFF70EFF0028DED10246CDF800802B4677
:10159C0080212046FFF704FF002844D1A368002BCC
:1015AC007FF462AF23680390DA6803929B6803931D
:1015BC00039B59E7E38E9BB2012B90D188E7B9F1DD
:1015CC00000F0FD0E38E9BB263B123689A6891072A
:1015DC0008D54FF0000937F8022BDA60E38E013B97
:1015EC009BB2E386E38F9BB263B123689A68D20700
:1015FC0008D54FF00109DB6826F8023BE38F013B6D
:10160C009BB2E387681CAFD0FEF7DAFDA0EB0800B5
:10161C008542A9D897E737F8023BCB60E38E013BB4
:10162C009BB2E3869EE72022636D01201343636522
:10163C00626519E710B490F85040012C02D010BC30
:10164C00FFF7FABE022010BC704700BF002839D04B
:10165C00F8B5002390F851200446836272B31A4601
:10166C00D4E90136022700210125E06833432669BD
:10167C00034360693343E66903433343206AA66935
:10168C0084F851700343276806F400700343134336
:10169C003A68606A22F04002360C3A6006F00406A2
:1016AC003B60E36A06437E603B61FB69084623F4BA
:1016BC000063FB61616584F85150F8BD02F092FC47
:1016CC00A26ACDE701207047022210B40124034620
:1016DC00016880F83D200A68002022430A6083F8E4
:1016EC003D4010BC704700BF0346022041F211116F
:1016FC001A6883F83D00106A084208D140F2444150
:10170C00106A084203D1116821F001011160012215
:10171C00002083F83D20704790F83C30012B67D0B7
:10172C000222F0B40125036880F83D209A680C6809
:10173C0022F47F4222F07702402C80F83C509A60D1
:10174C0000F0938018D9702C7FD02BD9B4F5805F22
:10175C0076D0B4F5005F1CD1D1E90152CC68996800
:10176C002A4342EA042221F47F410A439A609A6890
:10177C0042F480429A600CE0102C42D02FD9202CDD
:10178C0038D0302C05D19A6822F0700242F0370222
:10179C009A600023F0BC012280F83C3080F83D2098
:1017AC0018467047502C33D0602CF2D11C6A4D680F
:1017BC0024F01004CE681C6299691A6A21F47041F5
:1017CC0022F0A00242EA051241EA063199611A623E
:1017DC009A6822F0700242F067029A60D9E7002CF6
:1017EC00D7D19A6822F0700242F007029A60D0E7D3
:1017FC00022070479A6822F0700242F027029A6029
:10180C00C7E79A6822F0700242F017029A60C0E7AC
:10181C001D6A1E6A4C6826F00106CF681E629A6922
:10182C0025F00A0122F0F00242EA071221439A61E4
:10183C0019629A6822F0700242F057029A60A8E787
:10184C009A6822F007029A60A3E7D1E90152CC68AA
:10185C0099682A4342EA042221F47F410A439A60A0
:10186C009A6842F077029A6093E71D6A1E6A4C6888
:10187C0026F00106CF681E629A6925F00A0122F053
:10188C00F00242EA071221439A6119629A6822F027
:10189C00700242F047029A607BE700BF70B41C4EA6
:1018AC000368B0424D698C680A681DD0B0F1804F56
:1018BC0011D0A6F59436B0420DD006F58066B04234
:1018CC0009D023F080032B4303600123C46282629E
:1018DC0070BC436170474E6823F070033343C96892
:1018EC0023F440730B43ECE74E6823F0700333434F
:1018FC00CE6823F44073334323F080032B430360FF
:10190C00C46282620B6970BC03630123436170473C
:10191C00002C0140B8B190F83D3010B503F0FF0237
:10192C0004465BB10223206884F83D30211DFFF78B
:10193C00B5FF0123002084F83D3010BD80F83C2019
:10194C0002F08AFBEEE70120704700BF90F83C30B4
:10195C00012B1ED002460220F0B40025012613688C
:10196C0082F83D005C680F6824F070045C60586875
:10197C004C6838435860986820F0800098609968EB
:10198C0028462143996082F83D6082F83C50F0BCB7
:10199C0070470220704700BF84B001A880E80E0099
:1019AC0004B00020704700BF0246B0F84030002061
:1019BC0043F43F43A2F84030704700BF44F2FF238A
:1019CC000246B0F8401000200B40A2F8403070479F
:1019DC000020704784B070B4044601250020A4F8A0
:1019EC004050A4F84000A4F84400A4F85000B4F807
:1019FC00406004AD46F43F46A4F8406085E80E0014
:101A0C0070BC04B0704700BF70B40B78CA7800EBA0
:101A1C008304032A10D8DFE812F0040029013501F1
:101A2C001D0130F82340AA4A224042F4007220F8EB
:101A3C0023200B7800EB830440F60F75228800F509
:101A4C0080662A40134343F4004343F08003238011
:101A5C008B7A6BBB8A880B784C7852085200DB006F
:101A6C00002C00F0BC80B0F85040234446F8132002
:101A7C000C7830F8243000EB84025E060BD530F87D
:101A8C0024301D4045F4004545F0C00520F8245095
:101A9C000A7800EB820211888E4B002070BC0B4040
:101AAC0083F0200343F4004343F08003138070471A
:101ABC0040F60F630A7830F82240234043F4014388
:101ACC0043F0800320F82230CB88B0F850200C78FB
:101ADC005B0802EBC4025B0046F81230B0F85030E1
:101AEC000A890C780433520803EBC403520046F8FD
:101AFC0013200A784B7830F82240002B3ED1660434
:101B0C0000EB82030BD530F822301D4045F44045E4
:101B1C0045F0800520F822500B7800EB83031A88DF
:101B2C0055060BD540F60F721C88224042F4004239
:101B3C0042F0C0021A800B7800EB830340F60F7260
:101B4C0048F280041D882A4042F4004242F0C00250
:101B5C001A800A78604B30F822502B4083F44053A3
:101B6C00234320F822300A785A4B30F822100B40CD
:101B7C001C4320F82240002070BC7047640400EB2A
:101B8C0082030BD530F822301D4045F4404545F01A
:101B9C00800520F822500B7800EB83031A8852063C
:101BAC007AD440F60F7248F280041D882A4042F421
:101BBC00404242F080021A800A78464B30F822509C
:101BCC002B40234320F822300A78434B30F8221064
:101BDC000B401C4320F82240002070BC7047B0F82A
:101BEC005050B0F850402B44043346F813200A6987
:101BFC000D78A31D3E2A03EBC5035AD8C2F34F043C
:101C0C00D20744BF0134A4B2A402A4B246F81340D4
:101C1C000C7830F8243000EB84025B040DD540F6D0
:101C2C000F7330F82420134043F4404343F08003F7
:101C3C0020F824300A7800EB82021188264B002011
:101C4C0070BC0B4083F4405343F4004343F08003D7
:101C5C001380704730F823401D4A224042F4C06282
:101C6C0020F823200B7800EB8304E5E630F82340C2
:101C7C00174A224042F4806220F823200B7800EBB4
:101C8C008304D9E630F82340114A224020F823205F
:101C9C000B7800EB8304CFE640F60F721C882240D1
:101CAC0042F4004242F0C0021A800B7800EB83032E
:101CBC0077E7C2F34F14D50604BF04F1FF3294B298
:101CCC00064A42EA842292B246F81320A0E700BFEB
:101CDC008F89FFFFBF8FFFFF8FBFFFFF0080FFFFCC
:101CEC0030B40A788D7A00EB82034C780DBB002C53
:101CFC0000F0938030F8224064060DD540F60F7347
:101D0C0030F82240234043F4004343F0C00320F852
:101D1C0022300B7800EB83031A88002030BC22F0B1
:101D2C00C0021205120D42F4004242F080021A80E9
:101D3C007047002C3ED130F8224064040DD540F69B
:101D4C000F7330F82240234043F4404343F08003A8
:101D5C0020F822300B7800EB83031A8855060BD53C
:101D6C0040F60F721C88224042F4004242F0C0023E
:101D7C001A800B7800EB830340F60F7248F2800454
:101D8C001D882A4042F4004242F0C0021A800A78B0
:101D9C00384B30F822502B40234320F822300A785D
:101DAC00354B30F822100B401C4320F82240002009
:101DBC0030BC704730F8224064040DD540F60F73E8
:101DCC0030F82240234043F4404343F0800320F892
:101DDC0022300B7800EB83031A8852063CD440F671
:101DEC000F7248F280041D882A4042F4404242F0AF
:101DFC0080021A800A78204B30F822502B40234363
:101E0C0020F822300A781B4B30F822100B401C4370
:101E1C0020F82240002030BC704730F82240650486
:101E2C000DD540F60F7330F82240234043F4404365
:101E3C0043F0800320F822300B7800EB83031A88E0
:101E4C00002030BC22F0F0029204920C42F40042CA
:101E5C0042F080021A80704740F60F721C882240B4
:101E6C0042F4004242F0C0021A800B7800EB83036C
:101E7C00B5E700BF8FBFFFFFBF8FFFFFF0B44C78FB
:101E8C008B69012C0D695CD0AB422CD800221D460D
:101E9C008B7A8A610A7863BBB0F850303E2D03F11F
:101EAC00060300F5806403EBC2027CD9C5F34F1620
:101EBC00EF0604BF06F1FF339EB26D4B43EA862357
:101ECC009BB244F812300A7830F82210694BF0BCFF
:101EDC000B4083F4405343F4004343F0800320F859
:101EEC002230002070475B1B8B618B7A0A78002BA9
:101EFC00D2D0002CE8D1B0F850303E2D03F10203C3
:101F0C0000F5806403EBC20240F29680C5F34F16D5
:101F1C00EF0604BF06F1FF339EB2554B43EA86230E
:101F2C009BB244F812304E78002E40F09380B0F8FB
:101F3C0050200D78063202EBC50244F812300A78B4
:101F4C00C2E7AB422CD800221D468A61ABB28C7A18
:101F5C0001335B104E6900F5806284BB8C8802EB08
:101F6C0044042BB136F8027B013B24F8047BF9D1F5
:101F7C00B0F850300C78023303EBC40342F8135022
:101F8C000A7800EB820211883B4B0020F0BC0B401E
:101F9C0083F0300343F4004343F080031380704715
:101FAC005B1B8B61D2E7C5F34F03ED0744BF0133D5
:101FBC009BB29B029BB244F812300A7884E70C78EF
:101FCC0030F82470B0F850C07F064FEAC4044CBF00
:101FDC000F89CF886444023442F8145002EB470254
:101FEC002BB136F8024B013B22F8044BF9D10C789B
:101FFC004B7800EB840273B940F60F7330F8242051
:10200C00134043F4004343F0C00320F824300A7813
:10201C0000EB8202B7E7012BB5D140F60F7330F815
:10202C002420134043F4404343F0800320F8243031
:10203C000A7800EB8202A6E7C5F34F03EE0744BF14
:10204C0001339BB29B029BB244F812304E78002EA7
:10205C003FF46DAF012E0A787FF436AFB0F85030F4
:10206C00023303EBC20244F812500A782CE700BF8B
:10207C000080FFFF8FBFFFFFBF8FFFFF0B78DBB12F
:10208C004A7830F823105AB9124A0A4082F4805226
:10209C0042F4004242F0800220F8232000207047D6
:1020AC000D4A0A4082F0100242F4004242F08002D3
:1020BC0020F82320002070470288084B134083F43B
:1020CC00805383F0100343F4004343F080030380F8
:1020DC00002070478FBFFFFFBF8FFFFFBFBFFFFF09
:1020EC0010B40B784C7800EB8302F4B130F8234039
:1020FC0064060DD540F60F7230F82340224042F4AE
:10210C00004242F0C00220F823200A7800EB820241
:10211C001188154B00200B4083F0300343F400432F
:10212C0043F08003138010BC704730F823406404E4
:10213C000DD540F60F7230F82340224042F4404255
:10214C0042F0800220F823200A7800EB82021188EA
:10215C00064B00200B4083F4405343F4004343F000
:10216C008003138010BC7047BF8FFFFF8FBFFFFF32
:10217C0011B98023A0F84C30002070470020704724
:10218C0000207047B0F84400704700BF0020704733
:10219C00013300F580605B1000EB420205D031F892
:1021AC00020B013B22F8040BF9D17047013300F507
:1021BC0080605B1000EB420206D01068013B02F11C
:1021CC00040221F8020BF8D1704700BFD0F8183286
:1021DC001BB10020C3F8140270470220704700BFE7
:1021EC00D0F81C3283B110B5D0F8184294F8000224
:1021FC00FF2807D09B6894F8012221469847FF23BB
:10220C0084F80032002010BD002070474323038067
:10221C0000487047080000204323038000487047A3
:10222C004C0000204323038000487047900000209E
:10223C000A23038000487047D400002038B50446B8
:10224C00D0F8185202F04AF9D4F81832C5F80C023A
:10225C004BB1D4F81C3205F50371DB68D5F80402D8
:10226C009847002038BD022038BD00BFF8B50B7868
:10227C000C4613F060020CD0202A08D1CA880546FF
:10228C004E787AB9D0F81C3230469B6898470020BB
:10229C00F8BD4B780A2BFAD101220E4900F00AFC4A
:1022AC000020F8BD1B06D0F818720BD5D0F81C32E4
:1022BC00394630469B689847E2883946284600F0F4
:1022CC00F9FBE4E787F8006287F80122394600F051
:1022DC0007FCDCE76C03002010B50446812102F0FA
:1022EC0099F80121204602F095F82046822102F04F
:1022FC0091F8D4F8183253B1D4F81C325B68984773
:10230C00D4F8180202F0F4F80023C4F818320020B4
:10231C0010BD00BFF8B5037C044673BB4FF40073CB
:10232C000222812102F066F84FF40073022201218F
:10233C00204602F05FF8082303228221204602F097
:10234C0059F84FF4077002F0CFF80546C4F818029C
:10235C0030B30026D4F81C321B689847277CD5F87C
:10236C000422C5F814622046C5F818628FB14023C8
:10237C00012102F0A5F83046F8BD4023022281214C
:10238C0002F038F8402302220121204602F032F8F4
:10239C00D1E74FF40073012102F092F83846F8BDF2
:1023AC000120F8BD19B1C0F81C12002070470220A2
:1023BC00704700BFD0F818320020C3F80812C3F8D9
:1023CC0010227047D0F818320020C3F8041270475E
:1023DC00D0F818228AB110B5D2F814420CB10120F1
:1023EC0010BD0121B2F81032C2F81412D2F8082232
:1023FC00812102F057F8204610BD0220704700BF23
:10240C00D0F818228AB110B5047CD2F804222CB171
:10241C004023012102F054F8002010BD4FF400734A
:10242C00012102F04DF8204610BD0220704700BF7C
:10243C0088B108B5D0F8143213B10023C0F81432A7
:10244C0009B1C0F810120123027080F8FC3101F0C0
:10245C0081FF002008BD0220704700BF19B1C0F8F1
:10246C001412002070470220704700BF08B501F01D
:10247C00B3FF002008BD00BF08B5D0F814321BB163
:10248C001B68984700B908BD022008BD08B5D0F8F4
:10249C0014325B689847002008BD00BF38B504466D
:1024AC0000F50275284600F0C9FA012094F80812CC
:1024BC00B4F80E2201F01F038342C4F8F401C4F8EF
:1024CC00F82115D00ED3022B06D001F08001204646
:1024DC0001F0AEFF002038BD2946204600F048FA36
:1024EC00002038BD2946204600F0D8F8002038BD21
:1024FC002946204600F01CFA002038BD10B50446D1
:10250C0031B91346D0F8F421032A0DD0002010BDA8
:10251C00D0F814329B69002BF8D090F8FC21032AD8
:10252C00F4D19847002010BDD0F80C11D0F8102130
:10253C0091420DD8D0F814321B6923B190F8FC21CC
:10254C00032A00D19847204600F0E2FA002010BD83
:10255C00891A8A4228BF0A46C0F80C1192B2194651
:10256C0000F0CEFAD2E700BF70B5044651B913465D
:10257C00D0F8F421022A16D094F80032012B0DD099
:10258C00002070BDD0F814325B69002BF8D090F8A5
:10259C00FC21032AF4D19847002070BD002384F855
:1025AC000032002070BDD0E90762964219D88369C9
:1025BC00B3FBF2F502FB15350DB99A421FD9D4F8CD
:1025CC001432DB682BB194F8FC21032A01D120468C
:1025DC009847204600F0A8FA94F80032012BCFD18E
:1025EC00DCE7B21A0D46C261194692B200F070FADD
:1025FC002B462A462946204601F062FFBCE7D0F85C
:10260C00F8219342DBD22A4600F062FAC4F8F85162
:10261C00EEE700BF38B500224025044611462B4694
:10262C0001F0E8FE2B460022C4F810512046802110
:10263C0001F0E0FE0122D4F81832256284F8FC2166
:10264C002BB1D4F8143221795B68204698470020CE
:10265C0038BD00BF01740020704700BF0346042240
:10266C0090F8FC11002083F8FD1183F8FC217047D1
:10267C00034690F8FD21002083F8FC21704700BF31
:10268C0090F8FC21032A01D00020704708B5D0F83F
:10269C001432DB6903B19847002008BD30B54B7884
:1026AC0083B00D460446092B0BD8DFE803F0324506
:1026BC000A580A05650A7B158B8813B9CB88002B41
:1026CC007DD08021204601F0B3FE2046002101F090
:1026DC00AFFE002003B030BD8978944D01292970DC
:1026EC00EFD890F8FC31022B00F08080032BE8D15E
:1026FC00002900F01181416801292CD0C9B2FFF7E3
:10270C00C5FE297820466160FFF7B6FE022822D16B
:10271C00D7E7012290F8FC310321023B9342D0D839
:10272C00D0F80432C26003B1C160022204F10C0182
:10273C00204600F0BFF9CCE790F8FC31023B012BAE
:10274C00BFD84B88012BC4D10022D0F81432C0F86A
:10275C0004229B689847204600F0DAF9B9E74B88C9
:10276C00012BB6D1D0F81422C0F8043293689847E4
:10277C00204600F0CDF9ACE74A88130A013B062B42
:10278C009FD801A151F823F09F2800088728000842
:10279C0075280008CF260008CF2600085F280008FF
:1027AC001F280008CA88012A8BD190F8FC31022B13
:1027BC0028D0032B85D1011D00F07CF989E790F816
:1027CC00FC31032B3FF47DAF8D7805F07F0580F84D
:1027DC00FE51294601F058FE204600F099F9002DD3
:1027EC0000F08F80022384F8FC3172E70029B2D00C
:1027FC0001210323416080F8FC31FFF73DFE0228E4
:10280C00A9D15EE70023014641F8083F00F052F9D8
:10281C005FE7037C002B7FF454AFD0F814320DF13A
:10282C0006001B6B984707234370BDF80630002B3E
:10283C003FF44FAFEA88002A3FF44BAF934228BFD6
:10284C00134601461A462046ADF8063000F032F920
:10285C003FE7037C002B7FF434AFD0F814320DF13A
:10286C0006005B6B9847E0E7D2B2052A3FF629AF2A
:10287C00DFE802F03F372F271F17027CD0F8143205
:10288C00002A42D19B6A0DF106009847022343703F
:10289C00CBE7D0F810320DF106011B68007C98478D
:1028AC00C3E7D0F810320DF106019B69007C984704
:1028BC00BBE7D0F810320DF106015B69007C98473C
:1028CC00B3E7D0F810320DF106011B69007C984774
:1028DC00ABE7D0F810320DF10601DB68007C9847AD
:1028EC00A3E7D0F810320DF106019B68007C9847E5
:1028FC009BE7D0F810320DF106015B68007C98471D
:10290C0093E7012384F8FC31E3E6DB6A0DF1060062
:10291C0098470223437088E70223416080F8FC311A
:10292C00FFF7B4FD204600F0F3F8D2E66D0300206B
:10293C0038B590F8FC310446032B0BD10B790D46BE
:10294C00012B07D8D0F814329B689847EB8853B109
:10295C00002038BD802101F06BFD2046002101F0E4
:10296C0067FD002038BD204600F0D2F8002038BDAD
:10297C0038B50B78054603F06003202B05D1D0F851
:10298C0014329B689847002038BD4B788A88012BFD
:10299C000C46D1B230D014D3032BF4D190F8FC31C7
:1029AC00022B2DD0032B3BD163881BB94A0601D0D7
:1029BC0001F03EFDD5F8143221469B682846984715
:1029CC002AE090F8FC31022B1AD0032B28D101F00D
:1029DC007F03120600EB03134CBF03F1140403F541
:1029EC00827401F041FD20B3012323602146284667
:1029FC00022200F05FF8C6E790F8FC31022B04D1FC
:102A0C004C06C0D001F014FDBDE7032B08D1638840
:102A1C00002BB8D14B060ED1284600F079F8B2E75E
:102A2C008021284601F004FD2846002101F000FD1C
:102A3C00A9E72060DAE701F009FDBBE70B7803702A
:102A4C004B784370CA788B7803EB022343804A7926
:102A5C000B7903EB02238380CA798B7903EB022376
:102A6C00C380704708B3037830B4FBB1044600232D
:102A7C0014F8015F0133DBB2002DF9D15B00023396
:102A8C00DCB2032513800C704D7004785CB102230A
:102A9C0000255A1CD2B2CC548D5410F8014F02337D
:102AAC00DBB2002CF5D130BC7047704702242346B2
:102ABC00E7E700BF38B5134602250A46C0E90633DE
:102ACC00C0F8F451002101F0EDFC002038BD00BF2E
:102ADC0008B513460A46002101F0E4FC002008BDAD
:102AEC0038B5134603250A46C0F80831C0F80C3136
:102AFC00C0F8F451002101F0E3FC002038BD00BF08
:102B0C0008B513460A46002101F0DAFC002008BD86
:102B1C0008B504220023C0F8F42119461A4601F026
:102B2C00C1FC002008BD00BF08B505220023C0F879
:102B3C00F42119461A4601F0C3FC002008BD00BF61
:102B4C0030B54FF47A7100254FF6FF730D4C0E4AD9
:102B5C0087B02046C4E90021C4E902532561A56170
:102B6C00FEF7D8FE4FF4805306A941F8103D2046DD
:102B7C00FEF7D2FD20466946CDE90055FEF7E6FE8C
:102B8C0007B030BD70030020000400402DE9F8436D
:102B9C000F1E16DD4FF000080125C1460A4C0B4EE6
:102BAC002F44C4F824903046FEF78EFD636A002B48
:102BBC00FCD001353046FEF797FDBD42C4F82480A9
:102BCC00EFD1BDE8F88300BF000400407003002083
:102BDC0002382C2800F2FB80DFE810F0F300ED0047
:102BEC00E700E200DD00F900F900F900D800D3009D
:102BFC00CE00C900C400BF00BA00B500B000AB00E5
:102C0C00A600A0009A00F900F90094008E0088003C
:102C1C0082007C00760070006A0064005E00F9009F
:102C2C00F900580052004D00480043003E003900A6
:102C3C00F90033002D000A4665484FF40071FDF78A
:102C4C0033BC0A4662484FF48071FDF72DBC0A462E
:102C5C005F488021FDF728BC0A465D484021FDF7FE
:102C6C0023BC0A465A482021FDF71EBC0A46584888
:102C7C001021FDF719BC0A4655480821FDF714BC74
:102C8C000A4654484FF40041FDF70EBC0A46514821
:102C9C004FF48041FDF708BC0A464E484FF40051F2
:102CAC00FDF702BC0A464B484FF48051FDF7FCBBC4
:102CBC000A4648484FF40061FDF7F6BB0A46454802
:102CCC004FF48061FDF7F0BB0A4642484FF40071A7
:102CDC00FDF7EABB0A463F484FF48071FDF7E4BBB1
:102CEC000A463B484FF40041FDF7DEBB0A46384824
:102CFC004FF48041FDF7D8BB0A4635484FF40051DC
:102D0C00FDF7D2BB0A4632484FF48051FDF7CCBBDD
:102D1C000A462F484FF40061FDF7C6BB0A462C4803
:102D2C004FF48061FDF7C0BB0A4629480421FDF72A
:102D3C00BBBB0A4626480221FDF7B6BB0A4624480F
:102D4C000121FDF7B1BB0A4622488021FDF7ACBB3F
:102D5C000A4620484021FDF7A7BB0A461D48202102
:102D6C00FDF7A2BB0A461B481021FDF79DBB0A4686
:102D7C0018480821FDF798BB0A4616480421FDF7B0
:102D8C0093BB0A4613480221FDF78EBB0A46114835
:102D9C000121FDF789BB0A460F480221FDF784BBD0
:102DAC000A460D480121FDF77FBB0A460B484FF43C
:102DBC000041FDF779BB0A4608484FF48041FDF706
:102DCC0073BB0A4605484FF40051FDF76DBB7047C5
:102DDC00000C0140000801400014014000100140AB
:102DEC002DE9F04391461D460646642785B00079CF
:102DFC000C460021FFF7ECFE65F05705B9F1200FEA
:102E0C00D6F8AC000DF10F0200974FF001030DF155
:102E1C000D01C8468DF80D5028BF4FF02008FEF765
:102E2C0009FCB9F1000F10D0A04414F8015BD6F8DE
:102E3C00AC00012300970DF10F020DF10E018DF87E
:102E4C000E50FEF7F7FB4445EFD130790121FFF727
:102E5C00BFFE05B0BDE8F083F0B5044664260D4610
:102E6C00174685B000790021FFF7B2FE45F020052A
:102E7C00D4F8AC000DF10F020DF10E0100960123F8
:102E8C008DF80E50FEF7D6FB04A901F8037DD4F89B
:102E9C00AC000DF10F0201230096FEF7CBFB20795D
:102EAC000121FFF795FE05B0F0BD00BF10B504463B
:102EBC00FF22E121FFF7D0FF2046BDE81040FF22A2
:102ECC00E221FFF7C9BF00BF2DE9F04106460D46D0
:102EDC0064271C4684B000790021904645F02005FB
:102EEC00FFF776FED6F8AC000DF10F020097012328
:102EFC000DF10D018DF80D50FEF79CFB002C11DD32
:102F0C0008EB840454F8045DD6F8AC000123009758
:102F1C000DF10F020DF10E018DF80E50FEF78AFB2C
:102F2C00A045EFD130790121FFF752FE04B0BDE886
:102F3C00F08100BF38B5044600F108052A46052388
:102F4C001021FFF7C1FF05232A4620460A21FFF76F
:102F5C00BBFF94F8A42020461121FFF77DFFD4F885
:102F6C009830D3B1012B19D0022B1FD0032B23D0B7
:102F7C00042B07BFA26F0E21D4F890200F212046FE
:102F8C00FFF76AFFD4F8981020460C4494F8A4205C
:102F9C001131BDE83840FFF75FBF38BD052304F1A0
:102FAC0020020B212046FFF78FFFEBE7A26C0C21D0
:102FBC002046FFF751FFE5E7226E0D212046FFF773
:102FCC004BFFDFE770B5044664250E4684B00079EC
:102FDC000021FFF7FDFDD4F8AC000DF10F020DF14F
:102FEC000E01009501238DF80E60FEF723FBFF23E5
:102FFC0004A901F8033DD4F8AC000DF10F02012334
:10300C000095FEF717FB20799DF80F400121FFF783
:10301C00DFFD204604B070BD38B5044600210078B1
:10302C00FFF7D6FD20460021FFF7CCFF002140F032
:10303C0003022046FFF710FF04F10805204670221A
:10304C000721FFF709FF2A46204605231021FFF729
:10305C003BFF05232A4620460A21FFF735FF94F84B
:10306C00A42020461121FFF7F7FE2046FF22E12184
:10307C00FFF7F2FE2046FF22E221FFF7EDFE20785B
:10308C000121FFF7A5FD2046BDE838400121FFF7DF
:10309C007DBD00BF2DE9F0410C4684B06021054692
:1030AC00FFF790FF6427064600212879FFF790FD73
:1030BC004FF0610CD5F8AC000DF10F020097012315
:1030CC000DF10D018DF80DC0FEF7B4FA002E15DDD3
:1030DC004FF0FF08013C2644D5F8AC0001230097C3
:1030EC000DF10F020DF10E018DF80E80FEF7A2FA14
:1030FC009DF80F3004F8013FB442EDD1287901213D
:10310C00FFF766FD284640220721FFF7A5FE04B015
:10311C00BDE8F0812DE9F04F85B0CDE902321223E4
:10312C0083649DF838300026102511270193132352
:10313C00044600F108090366009100F1200AC661FB
:10314C00C0E90255C0E9045585614663C0E90955DB
:10315C00C56207620763C664C0E90E75C0E9105505
:10316C004666C0E91475C0E91655C667C0E91A75FC
:10317C00C0E91C551420DFF814C24FF0010B4FF0BE
:10318C00FF08A0679CE80300C4F89C0015200CF114
:10319C00080CA4F8A010C4F89000C4F894609CE843
:1031AC000300C4E92075C4F8A400A4F8A810C4E96D
:1031BC00225584F8A26084F8B16084F8B26084F877
:1031CC00B36084F8B46084F8B56084F8A38084F8A4
:1031DC00B0B0FFF7B5FC029B039A009963602260C4
:1031EC00D0B2C4F8AC103146FFF7F2FC5946207946
:1031FC00FFF7EEFC20464FF0FF320421FFF72CFEC8
:10320C0020460621FFF7DEFE062140EA0102204699
:10321C00FFF722FE20460621FFF7D4FE20F02802FD
:10322C0042F0080220460621FFF716FE32462046E1
:10323C001C21FFF711FE204670220721FFF70CFE20
:10324C0031462046FFF7BEFE314640F07002204664
:10325C00FFF702FE31462046FFF7B4FE314640F040
:10326C000C022046FFF7F8FD019A20467D2A28BF64
:10327C007D220521FFF7F0FD94F89E2094F89D1017
:10328C00920042EA410294F89F1094F8A0C042EADE
:10329C000B0294F8A10042EAC10141EA0C1242EA85
:1032AC00401284F89CB020460221FFF7D5FD294638
:1032BC004A4620460523FFF707FE4A4620460523CB
:1032CC000A21FFF701FE394694F8A4202046FFF7A7
:1032DC00C3FD0523524620460B21FFF7F5FD94F85C
:1032EC00A52020461221FFF7B7FDA26C20460C2129
:1032FC00FFF7B2FD94F8A62020461321FFF7ACFD92
:10330C00226E20460D21FFF7A7FD94F8A72020463A
:10331C001421FFF7A1FDA26F20460E21FFF79CFDA3
:10332C0094F8A82020461521FFF796FDD4F890209C
:10333C0020460F21FFF790FD94F8A9202046162176
:10334C00FFF78AFD31462078FFF742FC42462046C3
:10335C00E121FFF781FD42462046E221FFF77CFD8B
:10336C0020461D21FFF72EFE1D2140F006022046AF
:10337C00FFF772FD20463F221C21FFF76DFD204612
:10338C00FFF74AFE204605B0BDE8F08F384A00082A
:10339C0010B590F8A23004467BB1002380F8A2301F
:1033AC00FFF7C8FD2046FFF737FE17212046FFF731
:1033BC0009FEC3070BD5002010BD70220721FFF7B3
:1033CC004BFD17212046FFF7FDFDC307F3D4204624
:1033DC000721FFF7F7FDC0F34200013010BD00BF1D
:1033EC000123014410B481F89C3090F89E3090F881
:1033FC009D2090F89C109B0043EA420390F89F207C
:10340C000B4390F8A01043EAC20390F8A12043EAC2
:10341C00011343EA4212022110BCFFF71DBD00BF8D
:10342C004B1E70B50D460446042B04D8DFE803F0A0
:10343C0051575D4B6B00002300F10806C0F8983023
:10344C0000212078FFF7C4FB631993F89C30ABB3D1
:10345C000E2200212046FFF7FFFC70220721204698
:10346C00FFF7FAFC0523324610212046FFF72CFD0E
:10347C00324605230A212046FFF726FDD4F8983062
:10348C001121234493F8A4202046FFF7E5FC012DDD
:10349C0031D0AB1E032B05D805F10A01A2692046D9
:1034AC00FFF7DAFC2046FF22E121FFF7D5FC20468E
:1034BC00BDE87040FF22E221FFF7CEBC2946204632
:1034CC00FFF78EFFC4E7042300F16806C0F89830BC
:1034DC00B6E7012300F12006C0F89830B0E70223CC
:1034EC0000F13806C0F89830AAE7032300F1500623
:1034FC00C0F89830A4E7052304F108020B212046FC
:10350C00FFF7E2FCCEE7052300F18006C0F8983007
:10351C0096E700BF0023014410B481F89C3090F86A
:10352C009E3090F89D2090F89C109B0043EA42033B
:10353C0090F89F200B4390F8A01043EAC20390F838
:10354C00A12043EA011343EA4212022110BCFFF707
:10355C0083BC00BF10B517210446FFF733FDC3072A
:10356C0001D5002010BD2046BDE810406021FFF7BA
:10357C0029BD00BF2DE9F041164690F8A220202E5F
:10358C00B04684B005460C4628BF4FF02008002AF0
:10359C004ED090F8A3209A4244D106212846FFF73A
:1035AC00F5FA702207212846FFF756FC00212879EE
:1035BC006427FFF70DFB4FF0A00CD5F8AC000DF114
:1035CC000F02009701230DF10D018DF80DC0FEF7D0
:1035DC0031F886B1A04414F8016BD5F8AC00012386
:1035EC0000970DF10F020DF10E018DF80E60FEF734
:1035FC0021F84445EFD128790121FFF7E9FA287821
:10360C000121FFF7E5FA28460A21FFF7BFFA00214E
:10361C002878FFF7DDFA2846FFF79CFFC0B204B00C
:10362C00BDE8F08180F8A3301946FFF7F9FEB4E746
:10363C00012280F8A330194680F8A220FFF7F0FE93
:10364C00B4E700BF70B5204B02F00F021B7842EAC2
:10365C0001129AB08DF8042002787BB101AB0DF108
:10366C00220101E010F8012F03F8012F8B42F9D150
:10367C0001A81F2100F0F8FD1AB070BD46788578BE
:10368C00C478037941798DF805208DF80660427A6B
:10369C0086798DF807508DF80840C579047A8DF835
:1036AC000930837A8DF80A1001A80C218DF80B6073
:1036BC008DF80C508DF80D408DF80E208DF80F30D4
:1036CC0000F0D2FD1AB070BD1801002038B5684D5D
:1036DC00002228464FF40041664CFCF7E5FE3220F0
:1036EC00FCF774FD284601224FF40041FCF7DCFE88
:1036FC00204600220821FCF7D7FE3220FCF766FD9D
:10370C00204601220821FCF7CFFE20460022102182
:10371C00FCF7CAFE3220FCF759FD2046012210218D
:10372C00FCF7C2FE204600222021FCF7BDFE322011
:10373C00FCF74CFD204601222021FCF7B5FE20466B
:10374C0000224021FCF7B0FE3220FCF73FFD204662
:10375C0001224021FCF7A8FE204600228021FCF724
:10376C00A3FE3220FCF732FD204601228021FCF71B
:10377C009BFE204600224FF48071FCF795FE322010
:10378C00FCF724FD204601224FF48071FCF78CFEDF
:10379C00204600224FF40071FCF786FE3220FCF725
:1037AC0015FD204601224FF40071FCF77DFE2046EA
:1037BC0000224FF48071FCF777FE3220FCF706FDF7
:1037CC00204601224FF48071FCF76EFE2046002249
:1037DC008021FCF769FE3220FCF7F8FC2046012220
:1037EC008021FCF761FE204600224021FCF75CFEA4
:1037FC003220FCF7EBFC204601224021FCF754FE62
:10380C00204600222021FCF74FFE3220FCF7DEFC84
:10381C00204601222021FCF747FE204600221021E1
:10382C00FCF742FE3220FCF7D1FC2046012210218D
:10383C00FCF73AFE204600220821FCF735FE322028
:10384C00FCF7C4FC204601220821FCF72DFE28467B
:10385C0000224FF40041FCF727FE3220FCF7B6FCA7
:10386C002846BDE8384001224FF40041FCF71CBE4D
:10387C0000080140000C01400138072828D8DFE877
:10388C0000F0090E12161A1E22044FF40071114892
:10389C00FCF70EBE4FF400410F48FCF709BE08219F
:1038AC000C48FCF705BE10210A48FCF701BE20218C
:1038BC000848FCF7FDBD40210648FCF7F9BD802106
:1038CC000448FCF7F5BD4FF480710248FCF7F0BDDD
:1038DC00704700BF000C01400008014030B50122C8
:1038EC0000244FF4803302254FF4E01195B00AA860
:1038FC000A920E920B93129313910C9405940194CB
:10390C000D94CDE90F44CDE90644CDE90844CDE949
:10391C00024404941195FDF7F1F90F224FF48063E2
:10392C00294605A805920893069507940994FDF776
:10393C0003FC102301A804940193FDF7AFFC15B010
:10394C0030BD00BF2DE9F04F0024ADF2FC5DFCF75B
:10395C0019FCFFF7C3FFCDE90E44CDE91044BB4B76
:10396C0001269A69022542F020029A619A69DFF8D1
:10397C0010A302F020020992099A9A69B44F42F0FE
:10398C0004029A619969012201F004010A910A99D1
:10399C00986948F2155140F0080098619B69AD4850
:1039AC0003F008030B930B9BFCF77EFD224640F2C1
:1039BC000A21A848FCF778FD22464AF60141A648A0
:1039CC00FCF772FD012245F2FA31A348FCF76CFDBD
:1039DC0048F21F730EA99F48CDE90E36119510942D
:1039EC00FCF772FC4FF6FB730EA99B4811950E93D6
:1039FC000A25CDE90F64FCF767FC4FF400724FF415
:103A0C00827110230AF14000CAE91623CAE9107129
:103A1C00CAF86C50CAE91244CAE91444CAE91844F9
:103A2C00CAF86840FDF712FE00F0BAFB8B4B50460B
:103A3C00CAF80030CDE90E44CDE91044CAE901447E
:103A4C00CAE90344CAF81840CDE90C44FDF762FFFB
:103A5C004FF480530EA950460E93FDF75DFE0CA952
:103A6C005046CDE90C44FDF771FFC820FCF7AEFBC6
:103A7C00FFF72CFE05230AF1400100931F221E23A1
:103A8C000EA8CDE90C448DF823408DF83360FFF778
:103A9C0041FB00950AF140011C231D223CA8FFF7B5
:103AAC0039FB0F230AF1400100931B221A236AA849
:103ABC00FFF730FB14230AF140010093192216235F
:103ACC0098A8FFF727FB19232A460AF14001009317
:103ADC00C6A80B23FFF71EFB1E230AF1400100931F
:103AEC000C220D23F4A8FFF715FB23230AF1400148
:103AFC0000930E2212230DF59160FFF70BFB282388
:103B0C000AF140010093132215230DF5A860FFF76D
:103B1C0001FB4FF4B86000F094FD054600F5B86366
:103B2C00039007930EAB1919039B1819B83415B1F0
:103B3C00B82200F0DDFD079BB8359D42F2D1002381
:103B4C00DFF840B104939DF8233003F0FF044BBB26
:103B5C00DAF89830002BF6D00A224149414800F09F
:103B6C0089FE002800F076810B223F493D4800F089
:103B7C0081FE0546002800F08F8107223B49394819
:103B8C0000F078FE002840F07D81394B187000233E
:103B9C00CAF898308AF89C309DF8233003F0FF0463
:103BAC00002BD5D09DF82330002BCCD00DF12F0954
:103BBC0000262CE0DAF89830013633B3042259464B
:103BCC00284800F057FE0346002800F0F3802948EF
:103BDC0000F057FD07460490274800F052FDB82529
:103BEC00002403463846DAF89820039F0AEB0201BA
:103BFC0081F89C40053A05FB00702049FFF7BAFCA0
:103C0C000023CAF898308AF89C30082ECAD019F8CC
:103C1C00013F002BCED0B824039B04FB0634204676
:103C2C00FFF7B6FB0028C5D02046FFF7B1FB731E8B
:103C3C00451E062B00F2A880DFE813F092007E00F0
:103C4C006A00560042002600F00000BF001002403F
:103C5C000030014000080140000C0140000400400D
:103C6C00644A00080C040020704A00087C4A0008D2
:103C7C00180100200D0400200F0400201104002066
:103C8C0070030020944A000800224FF48071B6485B
:103C9C00FCF70AFC0EA92046FFF7FCF92A46062180
:103CAC000EA8FFF7CFFC01224FF48071AE48FCF751
:103CBC00FBFBDAF898300136002B7FF47FAFA6E7D8
:103CCC0000228021A848FCF7EFFB0EA92046FFF745
:103CDC00E1F92A460EA80521FFF7B4FC0122802148
:103CEC00A148FCF7E1FBE4E7002240219E48FCF7E9
:103CFC00DBFB0EA92046FFF7CDF92A460EA80421BE
:103D0C00FFF7A0FC012240219748FCF7CDFBD0E740
:103D1C00002220219448FCF7C7FB0EA92046FFF790
:103D2C00B9F92A460EA80321FFF78CFC01222021A9
:103D3C008D48FCF7B9FBBCE7002210218A48FCF740
:103D4C00B3FB0EA92046FFF7A5F92A460EA80221BF
:103D5C00FFF778FC012210218348FCF7A5FBA8E7AC
:103D6C00002208218048FCF79FFB0EA92046FFF794
:103D7C0091F92A460EA80121FFF764FC01220821C3
:103D8C007948FCF791FB94E700224FF40041774807
:103D9C00FCF78AFB0EA92046FFF77CF92A460EA8F1
:103DAC000021FFF74FFC01224FF400416F48FCF754
:103DBC007BFBFFE6049AB8201146039D8DF8233057
:103DCC0000FB0150FFF772F80DF12F08CDF814909D
:103DDC000696DDF81C9002E0B8354D451BD018F85E
:103DEC00013F002BF8D06FF0B00705F1B00405F1DE
:103DFC00B6067F1B01E0A642EED014F8013B002B67
:103E0C00F9D028463B1904225946FEF7E9FF052054
:103E1C00FCF7DCF9EFE7DDE90596F1E600224FF45B
:103E2C0000715148FCF740FB0EA92046FFF732F910
:103E3C002A4607210EA8FFF705FC01224FF400715A
:103E4C004948FCF731FBDAF89830002B3FF4AAAE66
:103E5C000136B3E6464800F014FCB8240346039A36
:103E6C000490444804FB032400F00BFC01222318AB
:103E7C0083F8B0203F4800F004FC01462046FFF7D1
:103E8C00AFFA84E606223C493C4800F0F3FCD0B97A
:103E9C0001233B4A13707AE63A4800F0F2FBB8244F
:103EAC000346039A0490384804FB032400F0E9FB12
:103EBC00231883F8B050344800F0E3FB0146204649
:103ECC00FFF728FB63E6052230492C4800F0D2FCB2
:103EDC0010B32F4800F0D5FB451CEDB207460490FB
:103EEC002846FFF7C9FC2B4800F0CBFBB826DAF8C4
:103EFC009820034603980AEB020181F89C40053A8E
:103F0C00254906FB0700FFF735FB6420FCF75EF93B
:103F1C002846FFF7B1FC3AE6FFF7D8FB01236FF018
:103F2C00B009039FDFF864808DF8233007F1B004EB
:103F3C0007F1B605A9EB070601E0A5420ED014F86F
:103F4C00013B002BF9D03319052241463846FFF7C7
:103F5C0011FB0120FCF73AF9A542F0D1079BB837C9
:103F6C009F42E3D113E600BF000C01400008014062
:103F7C001704002019040020844A00080C040020B7
:103F8C0018010020180400201A0400208C4A000894
:103F9C000D0400200F04002011040020704700BF06
:103FAC000E4B82B09A690E4942F001029A619A69ED
:103FBC0002F001020092009ADA6942F08052DA6152
:103FCC00DB6903F080530193019B4B6823F0E063A2
:103FDC0043F000734B6002B0704700BF001002400A
:103FEC000000014070B500240268194B86B09A425B
:103FFC00CDE90244CDE9044401D006B070BDA02146
:10400C000226032503F560439A69124842F4805254
:10401C009A619A6902F480520092009A9A6942F06D
:10402C0004029A619B69029103F00403019302A9B3
:10403C00019B03960595FCF747F9402302A9054817
:10404C00CDE903440293FCF73FF906B070BD00BF05
:10405C0000300140000801400268094B9A4200D030
:10406C00704703F50333DA6982B042F00202DA6179
:10407C00DB6903F002030193019B02B0704700BFA0
:10408C0000040040704700BFFEE700BFFEE700BF22
:10409C00FEE700BFFEE700BF704700BF704700BFE0
:1040AC00704700BFFCF780B80148FCF719BB00BF94
:1040BC00600A002080B400AF01231846BD4680BCC6
:1040CC00704780B582B000AF7860396000F0DEFADE
:1040DC000246162313604FF0FF3318460837BD46CF
:1040EC0080BD80B582B000AF78604FF0FF3178684A
:1040FC00FFF7E7FFFEE7000080B584B000AF786003
:10410C00114B1B68002B02D10F4B104A1A600E4B3F
:10411C001B68FB600C4B1A687B6813446A4693421D
:10412C0007D900F0B3FA02460C2313604FF0FF33AB
:10413C0006E0054B1A687B681344034A1360FB685E
:10414C0018461037BD4680BD78040020C8100020EA
:10415C0030B44FF41F054FF000640E4B0E4A196833
:10416C000E4841F00101196059680A405A601A68FA
:10417C0022F0847222F480321A601A6822F48022AF
:10418C001A605A6822F4FE025A609D60846030BC4A
:10419C00704700BF001002400000FFF800ED00E087
:1041AC0008B5002210491148FEF742F9C0B9104970
:1041BC000E48FEF753F980B90E490C48FEF7F2F899
:1041CC0040B90A48FEF752F900B908BDBDE80840ED
:1041DC00FFF7E4BEFFF7E2FEF3E7FFF7DFFEEBE7E6
:1041EC00FFF7DCFEE3E700BF64010020AC06002013
:1041FC00E0000020200100200020704700207047C4
:10420C002DE9F041074688460A4E0B4C01463046D4
:10421C00FEF7D8F8256809483946284400F022FBF7
:10422C00D8F8003030462B442360FEF7E9F8002024
:10423C00BDE8F081AC060020080400200C0400202E
:10424C0010B5064C002220460549FEF7B3F820466F
:10425C000449FEF7B7F8002010BD00BFAC060020E3
:10426C0098090020D008002010B5094CD4F8183259
:10427C00D3F814320BB1012010BD0A46014620467A
:10428C00FEF798F82046BDE81040FEF7A1B800BF35
:10429C00AC06002002680E4B9A4200D070470022F8
:1042AC0003F5DA3310B5DC6982B044F40004DC6148
:1042BC00DB69114603F4000301931420019BFBF707
:1042CC00A9FF142002B0BDE81040FBF7D9BF00BF16
:1042DC00005C004000F22C41D0F85C04FEF7DEB824
:1042EC0000EB4113D3F83C22D0F85C04FEF706B97E
:1042FC0000EB4113DA6BD0F85C04FEF735B900BF64
:10430C00D0F85C04FEF7BCB9836810B5022B0446E8
:10431C0001D0FFF743FED4F85C040121FEF79AF9B3
:10432C00D4F85C04BDE81040FEF774B910B504462F
:10433C00D0F85C04FEF792F9A36923B1024A136921
:10434C0043F00603136110BD00ED00E0D0F85C04EF
:10435C00FEF78EB938B504460022082502211C4B05
:10436C001C48C3F85C441860C4F820321846C3E9F2
:10437C000151C3E906221A62FCF79EF808B1FFF757
:10438C000DFE002218231146D4F82002FCF79AFCEB
:10439C00582300228021D4F82002FCF793FCC02380
:1043AC0000228121D4F82002FCF78CFC4FF4887396
:1043BC0000220121D4F82002FCF784FCD4F820025E
:1043CC004FF4807300228221FCF77CFC002038BD66
:1043DC00600A0020005C004008B5D0F82002FCF711
:1043EC00D7F8032896BF024B0220185C08BD00BF0B
:1043FC00604A000810B51C46D0F82002134622462D
:10440C00FCF7F2F8032896BF014B0220185C10BD94
:10441C00604A000808B5D0F82002FCF709F9032817
:10442C0096BF024B0220185C08BD00BF604A000812
:10443C0008B5D0F82002FCF7F5FB032896BF024B19
:10444C000220185C08BD00BF604A000808B5D0F80F
:10445C002002FCF713FC032896BF024B0220185CC9
:10446C0008BD00BF604A00080A06D0F8203204D408
:10447C0003EB411393F82A02704701F07F0103EB21
:10448C00411393F82A00704708B5D0F82002FCF7C6
:10449C0097F8032896BF024B0220185C08BD00BF9A
:1044AC00604A000808B5D0F82002FCF703F903288D
:1044BC0096BF024B0220185C08BD00BF604A000882
:1044CC0008B5D0F82002FCF7D5F8032896BF024BAC
:1044DC000220185C08BD00BF604A000808B5D0F87F
:1044EC002002FCF7DFF808BD004870477C04002070
:1044FC00704700BF704700BF122301480B80704704
:10450C0030010020042301480B8070474401002037
:10451C0030B40025013AD2B28C1C04EB4204020FD9
:10452C00092AD3B203F130028ABF37330A700B70F9
:10453C004D7002318C424FEA0010F0D130BC704704
:10454C001A220B480B4B00681B680A80C01801D15B
:10455C000948704710B5094B08221C680849FFF739
:10456C00D7FF204604220749FFF7D2FF024810BDAF
:10457C00E8F7FF1FF0F7FF1F48010020ECF7FF1FC3
:10458C004A0100205A01002010B5044C0A46044888
:10459C002146FEF767FA204610BD00BFC00E002072
:1045AC009C4A000810B5044C0A4604482146FEF704
:1045BC0059FA204610BD00BFC00E0020AC4A0008BE
:1045CC0010B5044C0A4604482146FEF74BFA204627
:1045DC0010BD00BFC00E0020B84A000810B5044C36
:1045EC000A4604482146FEF73DFA204610BD00BF9E
:1045FC00C00E0020C44A0008002103E00B4B5B589E
:10460C00435004310A480B4B42189A42F6D30A4ADB
:10461C0002E0002342F8043B084B9A42F9D3FFF71F
:10462C0097FD00F039F8FFF78DF97047E84B00085B
:10463C00000000205003002050030020C410002074
:10464C00FEE710B5002814BF04460124204600F0F4
:10465C0047F830B900F006F808B900F00BF88047BD
:10466C00F4E710BD024B1868BFF35B8F704700BFB7
:10467C009C06002008B5062000F0D8F80120FFF7B2
:10468C0030FD0A22002100F083B90000014B1868AC
:10469C00704700BF8001002070B500250C4E0D4CFA
:1046AC00A41BA410A54209D100F0ACF900250A4EB8
:1046BC000A4CA41BA410A54205D170BD56F8253098
:1046CC0098470135EEE756F8253098470135F2E763
:1046DC00E04B0008E04B0008E04B0008E44B0008FE
:1046EC00024B0146186800F00FB800BF8001002093
:1046FC0010B5431E0A44914200D110BD11F8014B74
:10470C0003F8014FF7E7000070B5CD1C25F0030549
:10471C0008350C2D38BF0C25002D064601DBA942AF
:10472C0003D90C233360002070BD00F05CF9214AE2
:10473C001468214691B9204C23681BB9304600F00F
:10474C003DF820602946304600F038F8431C24D14F
:10475C000C233046336000F047F9E4E70B685B1B31
:10476C0018D40B2B0FD90B60CC18CD50304600F061
:10477C003BF904F10B00231D20F00700C31AD3D022
:10478C005A42E250D0E74B688C4216BF636013600C
:10479C000C46EBE70C464968CCE7C41C24F0030438
:1047AC00A04205D0211A304600F008F80130CFD0D5
:1047BC002560DBE7A0060020A406002038B5002306
:1047CC00054C054608462360FFF796FC431C02D1B6
:1047DC00236803B12B6038BDC01000201F2938B5E9
:1047EC0004460D4604D9162303604FF0FF3038BD44
:1047FC00426C12B152F821304BB9204600F030F81F
:10480C002A4601462046BDE8384000F017B8012B77
:10481C000AD0591C03D1162303600120E7E70024BA
:10482C00284642F8254098470020E0E7024B014615
:10483C001868FFF7D3BF00BF8001002038B50023F4
:10484C00064C0546084611462360FFF73AFC431C0C
:10485C0002D1236803B12B6038BD00BFC01000200B
:10486C00FFF728BC034611F8012B03F8012B002A93
:10487C00F9D1704710B56AB10139841810F8013BB1
:10488C0011F8012F934203D1A04201D0002BF5D196
:10489C00981A10BD1046FCE72DE9F0478046894672
:1048AC0092461E460F463D46089815F8014B00F0FF
:1048BC0085F82044437813F0080332D12D2C32D1E3
:1048CC0001227C78BD1C002E5DD0102E09D1302C1D
:1048DC0007D12B7803F0DF03582B4FD110266C78BF
:1048EC000235002A14BF4FF000416FF00041002741
:1048FC00B1FBF6FC384606FB1C1EA4F13003092B59
:10490C0017D81C46A64223DD7B1C07D084451CD33C
:10491C0001D1A64519DB012700FB064015F8014B18
:10492C00EBE72F46BFE72B2C04BFBD1C7C781A4647
:10493C00C9E7A4F14103192B01D8373CE2E7A4F1F4
:10494C006103192B04D8573CDCE74FF0FF37E5E740
:10495C007B1C08D122230846C8F80030BAF1000F9E
:10496C0007D1BDE8F08702B14042BAF1000FF8D090
:10497C000FB105F1FF39CAF80090F2E73024002E90
:10498C00AFD10826ADE7302CA3D00A26A9E700004A
:10499C00084B37B51C68084D236A002B08BF2B4603
:1049AC00009313460A4601462046FFF775FF03B0F5
:1049BC0030BD00BF80010020E4010020D0F8EC00E5
:1049CC00704782B001B901A942B14BB113780B60A9
:1049DC001278101C18BF012002B070471046FBE77C
:1049EC006FF00100F8E77047704749B1FF2A8BBFA1
:1049FC008A230A700360012088BF4FF0FF30704794
:104A0C0008467047F8B500BFF8BC08BC9E46704716
:0C4A1C00F8B500BFF8BC08BC9E4670470F
:104A280002030405060708090A0B0C0D0E0F1010E7
:104A380001010000000000002020202020200000AC
:104A48000000000000000000010203040607080936
:104A5800000000000102030400020102656E6162A9
:104A68006C6550697065000064697361626C6550BB
:104A7800697065006469676974616C00616E616C76
:104A88006F670000737461727400000073746F7054
:104A9800000000004B6F74456E67656E686172694F
:104AA800610000004441714D61737465720000003B
:104AB80043444320436F6E666967000043444320C4
:104AC800496E746572666163650000004300504F6B
:104AD800534958002E00002020202020202020208C
:104AE8002828282828202020202020202020202096
:104AF80020202020202020881010101010101010C6
:104B08001010101010101004040404040404040409
:104B18000410101010101010414141414141010191
:104B2800010101010101010101010101010101016D
:104B3800010110101010101042424242424202027B
:104B4800020202020202020202020202020202023D
:104B580002021010101020000000000000000000E9
:104B6800000000000000000000000000000000003D
:104B7800000000000000000000000000000000002D
:104B8800000000000000000000000000000000001D
:104B9800000000000000000000000000000000000D
:104BA80000000000000000000000000000000000FD
:104BB80000000000000000000000000000000000ED
:104BC80000000000000000000000000000000000DD
:084BD8000000000000000000D5
:044BE0003101000897
:044BE4000D010008B7
:104BE800010000001000000009024300020100C09B
:104BF8003209040000010202010005240010010529
:104C0800240100010424020205240600010705828C
:104C18000308001009040100020A0000000705014A
:104C2800024000000705810240000000090243001D
:104C3800020100C03209040000010202010005243B
:104C480000100105240100010424020205240600C5
:104C5800010705820308001009040100020A000088
:104C6800000705010200020007058102000200009A
:104C780009074300020104C03209040000010202CE
:104C8800010005240010010524010001042402028A
:104C98000524060001070582030800FF0904010036
:104CA800020A000000070501024000000705810212
:104CB800400000000A060002000000400100000059
:104CC80021230008E52200087922000800000000DE
:104CD800ED210008D9210008492200080000000041
:104CE800000000000000000025220008192200082A
:104CF800312200083D2200080100000000A24A04F9
:104D08004D42000805420008094200080D4200080B
:104D1800120100020202004001000100000201022B
:104D280003010000040309041A0300000000000046
:104D3800000000000000000000000000000000006B
:104D480000000000054500081145000895450008C9
:104D5800B14500084D450008CD450008E945000863
:104D68008401002000000000000000000000000096
:104D7800000000000000000000000000000000002B
:104D8800000000000000000000000000000000001B
:104D9800000000000000000000000000000000000B
:104DA80000000000000000000000000000000000FB
:104DB80000000000000000000000000000000000EB
:104DC8000000000043000000000000000000000098
:104DD80000000000000000000000000000000000CB
:104DE8000000000043000000000000000000000078
:104DF80000000000000000000000000000000000AB
:104E08000000000043000000000000000000000057
:104E1800000000000000000000000000000000008A
:104E28000000000043000000000000000000000037
:104E3800000000000000000000000000000000006A
:104E48000000000043000000000000000000000017
:104E5800000000000000000000000000000000004A
:104E680000000000430000000000000000000000F7
:104E7800000000000000000000000000000000002A
:104E880000000000430000000000000000000000D7
:104E9800000000000000000000000000000000000A
:104EA80000000000F7490008CF4900080000000092
:104EB800DE4A0008DC4A0008DD4A0008DD4A00082E
:104EC800DD4A0008DD4A0008DD4A0008DD4A00081E
:104ED800DD4A0008DD4A0008DD4A0008FFFFFFFF41
:104EE800FFFFFFFFFFFFFFFFFFFF0000010041532F
:104EF80043494900000000000000000000000000D5
:104F08000000000000000000000000000000415305
:104F180043494900000000000000000000000000B4
:104F28000000000000000000000000000000000079
:0400000508004605A4
:00000001FF
