:020000040800F2
:1000000000500020E1450008AD400008B140000864
:10001000B5400008B9400008BD40000800000000DD
:10002000000000000000000000000000C1400008C7
:10003000C540000800000000C9400008CD4000088D
:1000400029460008294600082946000829460008D4
:1000500029460008294600082946000829460008C4
:1000600029460008294600082946000829460008B4
:1000700029460008294600082946000829460008A4
:100080002946000829460008294600082946000894
:10009000D1400008294600082946000829460008E2
:1000A0002946000829460008294600082946000874
:1000B0002946000829460008294600082946000864
:1000C0002946000829460008294600082946000854
:1000D0002946000829460008294600082946000844
:1000E00029460008294600082946000800000000AB
:1000F0000000000000000000000000000000000000
:0C01000000000000000000005FF808F1A3
:10010C0010B5054C237833B9044B13B10448AFF345
:10011C0000800123237010BD4C0300200000000060
:10012C002451000808B5034B1BB103490348AFF336
:10013C00008008BD0000000050030020245100087E
:10014C004FF47A7370B50D4D0D4A29781268B3FBD4
:10015C00F1F30646B2FBF3F000F09EF808B90F2E4F
:10016C0001D9012070BD0446024631464FF0FF30E4
:10017C0000F050F86E60204670BD00BF00000020FB
:10018C0018010020074A08B51368032043F0100338
:10019C00136000F02DF80020FFF7D2FF03F00EFFE4
:1001AC00002008BD00200240034A044B11681B7854
:1001BC000B441360704700BFA8060020000000200D
:1001CC00014B1868704700BFA806002038B50446DC
:1001DC00FFF7F6FF631C054602D0044B1B781C444A
:1001EC00FFF7EEFF401BA042FAD338BD0000002001
:1001FC004FF6FF01064A0002D36800F4E0600B40A2
:10020C0043F0BF6343F400330343D360704700BF34
:10021C0000ED00E0184B30B4DB68C3F30223C3F1EC
:10022C000705042D03F1040428BF0425062C19D955
:10023C004FF0FF34033B9C4022EA04044FF0FF32A2
:10024C00AA4021EA020101FA03F22243120100281A
:10025C00D2B20ADB00F1604000F5614080F8002367
:10026C0030BC704700242346E8E7044B00F00F0035
:10027C0003441A7630BC704700ED00E0FCEC00E063
:10028C00012300F01F01034A40098B4042F8203043
:10029C00704700BF00E100E00138B0F1807F0DD263
:1002AC0030B4F02500220721054B064C586084F829
:1002BC002350104630BC9A6019607047012070477B
:1002CC0010E000E000ED00E0044A042813680CBFC5
:1002DC0043F0040323F004031360704710E000E0C4
:1002EC002DE9F04F4FF0000883B04446DFF8C0C151
:1002FC00694EDFF8C0E102E00134102C78D0012304
:10030C000A68A3401A409342F6D14D68122D00F0B2
:10031C009C807ED8022D00F0948074D9032D00F0BF
:10032C008D80112D02D1CB6803F10408FF2A62D80D
:10033C0082460368A5004FF00F0909FA05FB23EA72
:10034C000B0308FA05F52B43CAF80030D1F804A0CA
:10035C001AF0805FD0D0514F24F00305BB6905F132
:10036C00804543F00103BB61BB6905F5803503F0A3
:10037C000103019304F0030B019B4FEA8B0BAB6859
:10038C0009FA0BF9604523EA09030FD0704560D0D8
:10039C00434FB84278D0434FB8420CBF4FF00309DB
:1003AC004FF0040909FA0BFB43EA0B03AB6033680B
:1003BC001AF4803F14BF13439343336073681AF4E9
:1003CC00003F14BF134393437360B3681AF4801F48
:1003DC0014BF13439343B360F3681AF4001F04F182
:1003EC00010414BF1A4323EA0202102CF26086D1D6
:1003FC0003B0BDE8F08F04F18045083D4368AD00C3
:10040C0000F1040A97E7A5B1012D8FD1D1F80C802A
:10041C008CE7254FBD420CD029D9244FBD4208D0C2
:10042C0007F58037BD4204D0DFF88C904D457FF442
:10043C007DAF8D68A5B94FF0040877E74FF0000841
:10044C0074E7CB6803F1080870E7CB6803F10C087C
:10045C006CE74FF0010909FA0BFB43EA0B03A5E724
:10046C00012D0CBF036143614FF008085EE7DFF814
:10047C004C904D45DDD009F580394D457FF456AF94
:10048C008D68002DD7D0EBE74FF0020909FA0BFB72
:10049C0043EA0B038AE700BF00040140001002404E
:1004AC000010014000140140000021100000311028
:1004BC0000080140000C0140000022100000111047
:1004CC0002B9090401617047C3685940C1607047A3
:1004DC00002867D0F0B590F8293487B0054603F0B2
:1004EC00FF02002B59D003232E4685F829342868A7
:1004FC0001F076FA56F810CB6C4637460FCF0FC486
:10050C003B682F1D236097E80E00604601F056FAF9
:10051C000021286801F06EFA00212B4608462A4675
:10052C00012482F82810918601310F2982F8294084
:10053C0082F82B00C2E90E00106402F12002F0D107
:10054C000022144683F828229A8601320F2A83F857
:10055C00294283F82B42C3F83842C3F83C42C3F813
:10056C00404203F12003EDD1EC460FCED5F800E06C
:10057C00ACE80F0033687046CCF8003097E80E00FA
:10058C0001F03AFA012385F82440286885F82934CB
:10059C0001F008FE002007B0F0BD80F8282403F01D
:1005AC0067FEA0E70120704790F82834012B10D08B
:1005BC00012110B5044680F8281403F089FF206847
:1005CC0001F0EEFD206801F001FA002084F8280407
:1005DC0010BD0220704700BF90F82824012A0DD0CE
:1005EC0010B50446012284F8241080F828240068F1
:1005FC0001F0D0FD002084F8280410BD02207047C3
:10060C0038B54CB2002C01F07F05B5BF00EB45119D
:10061C0000EB4111283101F50A71E40F4C700D709B
:10062C00CB7090F828340A61012B0AD001230446C0
:10063C0080F82834006801F0F9F9002084F82804C7
:10064C0038BD022038BD00BF4BB2002B01F07F0239
:10065C00B5BF00EB421100EB4111283101F50A71D5
:10066C00DB0F4B700A7090F82834012B0BD0012350
:10067C0010B5044680F82834006801F043FB0020D4
:10068C0084F8280410BD0220704700BF70B5002606
:10069C0001F07F014D01441905F50A7584F8281203
:1006AC00C4F83C224119C4F840320068C4F84462D2
:1006BC0084F8296201F0F4FB304670BD01F00F01A3
:1006CC0000EB4111B1F84402704700BFF8B50026A9
:1006DC00012701F07F014D014419283584F82810B9
:1006EC00C4E90F234119006884F82970666401F08D
:1006FC00D7FB3046F8BD00BF2DE9F04F044683B060
:10070C00006801F051FD020445D42268104601F046
:10071C004BFD460500F18381206801F045FD10F486
:10072C00804F206807D0B0F8443023F480431B047A
:10073C001B0CA0F8443001F037FD10F4005F20686A
:10074C0007D0B0F8443023F400531B041B0CA0F862
:10075C00443001F029FDC50400F14381206801F00B
:10076C0023FD000500F11E81206801F01DFD8205AE
:10077C0000F10B81206801F017FDC30508D5226834
:10078C00B2F8443023F480731B041B0CA2F84430E1
:10079C0003B0BDE8F08F00232268DFF89494DFF8F3
:1007AC0094A4DFF894B4ADF80430ADF80630B2F888
:1007BC0044309BB21F04ADF80430A7D5BDF80450EB
:1007CC0015F00F054FD1BDF80410138811F010016E
:1007DC0000F043819BB2ADF80630BDF806301B0526
:1007EC0000F18E81BDF806301F04E0D540F68F7302
:1007FC0011880B401380B2F8503094F8281203EB98
:10080C00C10302EB4303D3F80C34C3F30903C4F85C
:10081C004432002B40F0EE812046002103F04EFDC7
:10082C002268D4F83802B2F850303E2802F58065C0
:10083C0003F1060340F2CE81C0F34F11C60604BF8C
:10084C0001F1FF3189B24BEA812189B245F81310CD
:10085C0013880AEA030383F4405343F4004343F040
:10086C0080031380A3E732F825309BB2ADF8063035
:10087C00BDF8063019043BD4BDF806301B0696D5DE
:10088C0032F825306E0109EA030322F82530A71946
:10089C0097F8323002F58061002B40F00C81B2F8F1
:1008AC00503097F8280003EBC003023351F8133093
:1008BC00C3F309037B64002B40F06A812644B2F831
:1008CC00503096F82800F26B03EBC003023351F85A
:1008DC001310336CC1F309010A447164F263002BE9
:1008EC0040F0E2800146204603F0F0FC22685EE70F
:1008FC0040F68F7332F825106E010B4022F825302C
:10090C0004EB060898F8323202F58060002B00F0F8
:10091C00178198F8283232F8237002EB830117F410
:10092C00804FB2F850704FEAC3033B4400F03C8157
:10093C00023350F81370C7F30907002F40F072818F
:10094C0040F60F730A88134043F4004343F0C0038E
:10095C000B802644D6F84412D6F83C22D6F8403206
:10096C0039443A44C6F84412C6F83C22002B00F035
:10097C001881D6F8380296F82812874280F0358113
:10098C00204603F09BFC226876E722682046B2F8EA
:10099C00443023F400731B041B0CA2F8443003F006
:1009AC009DFCE7E62368B3F84020184642F00802A5
:1009BC00A3F84020B3F8442022F400621204120C75
:1009CC00A3F84420B3F8402042F00402A3F84020DE
:1009DC0001F0EAFBC1043FF5C7AE204603F094FCDE
:1009EC00C2E622682046B2F8403023F004031B0410
:1009FC001B0CA2F84030B2F8403023F008031B0463
:100A0C001B0CA2F8403003F08FFC2068B0F8443087
:100A1C0023F480531B041B0CA0F844309FE622687F
:100A2C002046B2F8443023F480631B041B0CA2F85C
:100A3C00443003F057FC94F82834012B3FF46CAE8F
:100A4C000025012384F8245084F828342946206892
:100A5C0001F0A0FB84F828545EE609EA0303138036
:100A6C00B2F8500094F82850E36B00EBC50002EB91
:100A7C004002D2F804242046C2F309021344E36373
:100A8C00626403F023FC94F8243093B1236C226845
:100A9C00002B7FF48CAE94F8241041F08001A2F866
:100AAC004C1084F8243082E696F828102046FFF784
:100ABC000DFE22687BE697F8283004EB451532F8DA
:100ACC002300DB0010F0400FB2F8500003444ED16D
:100ADC00063351F81330C3F309036B64002B40F059
:100AEC00988040F60F73A01990F8280032F8205027
:100AFC002B4043F4404343F0800322F82030DDE6E2
:100B0C00B2F8503094F82812104603EBC10302EBF4
:100B1C004302D2F80C3404F22C41C3F30903B4F8A9
:100B2C002C22C4F8443201F053FB40F68F73226838
:100B3C00204611880B40138003F0BAFB226836E67E
:100B4C00B2F8503098F8281203EBC103063350F872
:100B5C001370C7F30907002F3FF4FBAE10463B465A
:100B6C00B8F82C22D8F83C1201F032FBF1E6023333
:100B7C0051F81330C3F309036B64002BB1D010464A
:100B8C00F96BFA8D01F016FB226802F58061A8E77B
:100B9C001046F96BBA8D01F00DFB226802F58061ED
:100BAC008CE696F82812EBE6063350F81370C7F370
:100BBC000907002F3FF4C4AE3B461046B8F830226C
:100BCC00D8F83C1201F004FB98F82832216801EBAC
:100BDC008301B5E6C0F34F01C00744BF013189B2B0
:100BEC00890289B245F8131032E62046FFF74EFD14
:100BFC00226841E61046D4F83C12B4F82C2201F0DD
:100C0C00E7FAD4F83C32D4F844221344C4F83C320A
:100C1C0002E61046F96B3A8E01F0CCFA226802F526
:100C2C0080615EE710463B46B8F82E22C8E700BF4D
:100C3C000F8FFFFF8FBFFFFF0080FFFF012238B532
:100C4C004BB2002B01F07F05B5BF00EB451100EB5B
:100C5C004111283101F50A71DB0F4B700D708A7050
:100C6C0090F82834934213D0044680F82824006866
:100C7C0001F016FA1DB1002084F8280438BD04F2E6
:100C8C002C41206801F094FA002084F82804F5E740
:100C9C00022038BD38B500254BB2002B01F07F0285
:100CAC00B5BF00EB421100EB4111283101F50A717F
:100CBC00DB0F4B700A708D7090F82834012B0AD022
:100CCC000123044680F82834006801F01BFA84F8EC
:100CDC002854284638BD022038BD00BF11F0800FC3
:100CEC000DD001F07F0100EB4110283099B26AB1B0
:100CFC0001221B0C0381C18082720020704700EB23
:100D0C00411000F50A7099B2002AF1D182728180EB
:100D1C00002070472DE9F041036882B0DD070446DE
:100D2C0030D5AB494A6802F00C02042A00F0DA8094
:100D3C004A6802F00C02082A00F0D0806368B3F510
:100D4C00803F00F00F81002B00F02781B3F5A02F1E
:100D5C0000F0B5819E4B1A6822F480321A601A6832
:100D6C0022F480221A60FFF72BFA994D064605E013
:100D7C00FFF726FA801B642800F20B812B689A037C
:100D8C00F6D523689F0728D5914A516811F00C0FAE
:100D9C0000F0B680516801F00C01082900F0AC801D
:100DAC002369002B00F0418101228A4B884D1A6087
:100DBC00FFF706FA064605E0FFF702FA801B022849
:100DCC0000F2E7802B689807F6D52B68626923F050
:100DDC00F80343EAC2032B6023681A0722D5A369E0
:100DEC00002B00F0988001227B4B794D1A60FFF7A5
:100DFC00E7F9064605E0FFF7E3F9801B022800F24D
:100E0C00C8806B6A9B07F6D5744B754A1B68A2FBAE
:100E1C0003235B0A019300BF019B5A1E0192002B16
:100E2C00F9D123685D0739D5694BDA69D00040F1F7
:100E3C00828000256B4B1A68D10540F19980E368DC
:100E4C00012B0FD0002B00F0D180052B604B1A6AC0
:100E5C0000F0FC8022F001021A621A6A22F00402ED
:100E6C001A6204E05A4A136A43F001031362FFF753
:100E7C00A7F9574E804641F2883706E0FFF7A0F9F4
:100E8C00A0EB0800B84200F28480336A9B07F5D5CA
:100E9C0025B14F4AD36923F08053D361E269CAB1BB
:100EAC004B4D696801F00C01082930D0022A4FF033
:100EBC0000014D4A00F0D2801160FFF781F92C46F9
:100ECC00054604E0FFF77CF9401B022861D8236833
:100EDC009B01F7D4002002B0BDE8F0814A68D00332
:100EEC007FF52CAF3A4A126891037FF54BAF6268DD
:100EFC00002A7FF447AF0AE05268D6033FF550AFA3
:100F0C00334A1268950721D52269012A1ED0012087
:100F1C0002B0BDE8F081304A2D4D1360FFF750F957
:100F2C00064604E0FFF74CF9801B022831D86B6AA7
:100F3C009F07F7D475E7DA69012542F08052DA6130
:100F4C00DB6903F080530093009B73E720496069D1
:100F5C000A6822F0F80242EAC0020A601A077FF51A
:100F6C0061AF3CE71A4A136843F480331360FAE626
:100F7C001A681E4642F480721A60FFF721F9074680
:100F8C003368DA053FF55BAFFFF71AF9C01B64282D
:100F9C00F6D9032002B0BDE8F08103F1804303F5DC
:100FAC0004331A681D4622F480321A601A6822F43F
:100FBC0080221A60FFF704F9064604E0FFF700F9F7
:100FCC00801B6428E5D82B689B03F7D4D9E600BFB7
:100FDC0000100240000042428004424218010020EE
:100FEC00D34D6210007000406000424203F1804318
:100FFC0003F504331A6A1E4622F001021A621A6AB9
:10100C0041F2883822F004021A62FFF7D9F8074639
:10101C0004E0FFF7D5F8C01B4045BAD8336A9807EF
:10102C00F7D4002D3FF43AAF33E72B4A2B4D136026
:10103C00FFF7C6F8064604E0FFF7C2F8801B02284B
:10104C00A7D82B689907F7D42368C6E642F00402A8
:10105C001A621A6A42F001021A6208E71160FFF77D
:10106C00AFF8064604E0FFF7ABF8801B022890D8D7
:10107C002B689901F7D4226AB2F5803F05D16B68D1
:10108C00A16823F400330B436B600125134B606A9A
:10109C005968024321F4741111480A435A600560DF
:1010AC001C46FFF78DF8054605E0FFF789F8401B55
:1010BC0002283FF66EAF23689A01F6D50AE703F1D2
:1010CC008043A3F53C331A6842F480221A601A68F4
:1010DC0042F480321A6046E60000424200100240A0
:1010EC006000424240F2012286B0154B0DF1180C03
:1010FC00ADF804200FCB0CE90F0012494B6803F03C
:10110C000C02082A02D0104806B07047C3F3834281
:10111C006244DB0312F8102C04D40C4800FB02F0E0
:10112C0006B070474B680848C3F3404300FB02F01D
:10113C00634413F8143CB0FBF3F006B0704700BFE7
:10114C003C5100080010024000127A0000093D00DA
:10115C00544A136803F007038B420BD2136823F035
:10116C0007030B431360136803F007038B4201D092
:10117C000120704703682DE9F0419D0714D55C07E9
:10118C0004D5494C626842F4E06262601A0704D5E7
:10119C00454C626842F460526260434C85686268F8
:1011AC0022F0F0022A436260DF0704460E4622D585
:1011BC0042683D4B012A1B686FD0022A6AD09907FE
:1011CC0029D5394D41F288386B6823F0030313435A
:1011DC006B60FEF7F5FF63680746012B49D0022BC5
:1011EC0005D151E0FEF7ECFFC01B404558D86B68A9
:1011FC0013F00C0FF6D12B4A136803F00703B3421C
:10120C000CD9136823F0070333431360136803F0FE
:10121C000703B34202D00120BDE8F08123685A07CE
:10122C0006D52149E0684A6822F4E06202434A602C
:10123C001B0707D51C4A2169536823F4605343EA02
:10124C00C1035360FFF74EFF174B18495B68184AF0
:10125C00C3F30313CB5C20FA03F300201360FEF7F7
:10126C006FFF0020BDE8F081FEF7AAFFC01B4045D0
:10127C0016D86B6803F00C03042BF5D1BBE7FEF713
:10128C009FFFC01B40450BD86B6803F00C03082B69
:10129C00F5D1B0E7980194D4BDE79D0391D4BAE79A
:1012AC000320B9E700200240001002405C51000806
:1012BC0018010020014B1868704700BF180100206E
:1012CC002DE9F0410446006882B0C5072AD53A4B97
:1012DC00DA69D1003DD5394B00251A68D20546D5BF
:1012EC00354960680A6A12F440720FD000F44073FA
:1012FC0093420BD0012700260B6A314A23F440702D
:10130C00176016600862D80745D460682A4A136AC9
:10131C0023F44073034313621DB1D36923F080534C
:10132C00D3612068830706D5234AA168536823F448
:10133C0040430B43536010F0100007D000201E4AAE
:10134C00E168536823F480030B43536002B0BDE89B
:10135C00F081DA69012542F08052DA61DB6903F031
:10136C0080530193019B154B1A68D205B8D41A68A7
:10137C001E4642F480721A60FEF722FF074633685D
:10138C00DB05ADD4FEF71CFFC01B6428F7D9032086
:10139C0002B0BDE8F0810E46FEF712FF41F288372D
:1013AC008046336A9A07B0D4FEF70AFFA0EB080018
:1013BC00B842F6D9EBE700BF0010024000700040C5
:1013CC00400442422DE9F04180460F4616461D4628
:1013DC00D8F8004001E06B1C0AD1A06837EA000382
:1013EC000CBF012000208642F5D10020BDE8F08121
:1013FC003DB1FEF7E5FE069BC01AA842E8D3D8F82B
:10140C0000406368D8F8042023F0E003B2F5827F33
:10141C00636015D0D8F82830B3F5005F08D14DF6CD
:10142C00FF72236813402360236843F40053236046
:10143C000122002388F8512088F850300320D5E78A
:10144C00D8F80830B3F5004F02D0B3F5806FE1D176
:10145C00236823F040032360DCE700BF2DE9F04351
:10146C000446012085B084F85000164699460F4674
:10147C000C9DFEF7A5FE94F851308046DBB2012B93
:10148C00626811D0B2F5827F09D0022001220023BC
:10149C0084F8512084F8503005B0BDE8F083A16881
:1014AC000029F2D1042BF0D1002F60D0002E5ED099
:1014BC00B9F1000F5BD094F851302168012B04BFB7
:1014CC00052384F8513000236365A4F83E90A4F8FA
:1014DC0036900868A6634006A4F83C902763A4F8ED
:1014EC003490C4E9103344D5E368B3F5006F45D0AC
:1014FC00002A71D117F8013B0B73E38E013B9BB2B1
:10150C00E3864FF00109E38E9BB21BB9E38F9BB2CC
:10151C00002B41D0B9F1000F0FD0E38E9BB263B119
:10152C0023689A68910708D54FF000093A7801377B
:10153C001A73E38E013B9BB2E386E38F9BB263B1DC
:10154C0023689A68D20708D54FF00109DB6833701D
:10155C00E38F4E44013B9BB2E3876B1CD3D0FEF769
:10156C002FFEA0EB08008542CDD803208EE701208A
:10157C008CE70B6843F040030B60B5E7002A5CD0A6
:10158C00E38E9BB2012B58D04FF00109E38E9BB236
:10159C003BBBE38F9BB223BBCDF800802B460122D3
:1015AC0002212046FFF70EFF0028DED10246CDF8BF
:1015BC0000802B4680212046FFF704FF002844D1F1
:1015CC00A368002B7FF462AF23680390DA68039260
:1015DC009B680393039B59E7E38E9BB2012B90D13D
:1015EC0088E7B9F1000F0FD0E38E9BB263B123688B
:1015FC009A68910708D54FF0000937F8022BDA608A
:10160C00E38E013B9BB2E386E38F9BB263B123680D
:10161C009A68D20708D54FF00109DB6826F8023B1F
:10162C00E38F013B9BB2E387681CAFD0FEF7C8FD8C
:10163C00A0EB08008542A9D897E737F8023BCB60AE
:10164C00E38E013B9BB2E3869EE72022636D012073
:10165C0013436365626519E710B490F85040012C90
:10166C0002D010BCFFF7FABE022010BC704700BFBE
:10167C00002839D0F8B5002390F851200446836235
:10168C0072B31A46D4E90136022700210125E0681D
:10169C0033432669034360693343E66903433343A9
:1016AC00206AA66984F851700343276806F4007019
:1016BC00034313433A68606A22F04002360C3A60E6
:1016CC0006F004063B60E36A06437E603B61FB69FF
:1016DC00084623F40063FB61616584F85150F8BD42
:1016EC0002F08EFCA26ACDE701207047022210B4F2
:1016FC0001240346016880F83D200A68002022433B
:10170C000A6083F83D4010BC704700BF03460220BE
:10171C0041F211111A6883F83D00106A084208D191
:10172C0040F24441106A084203D1116821F00101D2
:10173C0011600122002083F83D20704790F83C3066
:10174C00012B67D00222F0B40125036880F83D20FC
:10175C009A680C6822F47F4222F07702402C80F8C1
:10176C003C509A6000F0938018D9702C7FD02BD904
:10177C00B4F5805F76D0B4F5005F1CD1D1E901528D
:10178C00CC6899682A4342EA042221F47F410A4337
:10179C009A609A6842F480429A600CE0102C42D015
:1017AC002FD9202C38D0302C05D19A6822F0700219
:1017BC0042F037029A600023F0BC012280F83C30E2
:1017CC0080F83D2018467047502C33D0602CF2D155
:1017DC001C6A4D6824F01004CE681C6299691A6A60
:1017EC0021F4704122F0A00242EA051241EA0631CE
:1017FC0099611A629A6822F0700242F067029A604C
:10180C00D9E7002CD7D19A6822F0700242F0070277
:10181C009A60D0E7022070479A6822F0700242F07A
:10182C0027029A60C7E79A6822F0700242F017020A
:10183C009A60C0E71D6A1E6A4C6826F00106CF68E4
:10184C001E629A6925F00A0122F0F00242EA0712A0
:10185C0021439A6119629A6822F0700242F0570291
:10186C009A60A8E79A6822F007029A60A3E7D1E988
:10187C000152CC6899682A4342EA042221F47F4140
:10188C000A439A609A6842F077029A6093E71D6A5D
:10189C001E6A4C6826F00106CF681E629A6925F014
:1018AC000A0122F0F00242EA071221439A611962FE
:1018BC009A6822F0700242F047029A607BE700BF00
:1018CC0070B41C4E0368B0424D698C680A681DD018
:1018DC00B0F1804F11D0A6F59436B0420DD006F57C
:1018EC008066B04209D023F080032B4303600123B0
:1018FC00C462826270BC436170474E6823F070030F
:10190C003343C96823F440730B43ECE74E6823F070
:10191C0070033343CE6823F44073334323F08003C6
:10192C002B430360C46282620B6970BC03630123A6
:10193C0043617047002C0140B8B190F83D3010B5B0
:10194C0003F0FF0204465BB10223206884F83D30AB
:10195C00211DFFF7B5FF0123002084F83D3010BD99
:10196C0080F83C2002F086FBEEE70120704700BFB8
:10197C0090F83C30012B1ED002460220F0B400251A
:10198C000126136882F83D005C680F6824F070042F
:10199C005C6058684C6838435860986820F0800048
:1019AC009860996828462143996082F83D6082F8D6
:1019BC003C50F0BC70470220704700BF84B001A8B7
:1019CC0080E80E0004B00020704700BF0246B0F85B
:1019DC004030002043F43F43A2F84030704700BF32
:1019EC0044F2FF230246B0F8401000200B40A2F84E
:1019FC00403070470020704784B070B40446012515
:101A0C000020A4F84050A4F84000A4F84400A4F826
:101A1C005000B4F8406004AD46F43F46A4F8406072
:101A2C0085E80E0070BC04B0704700BF70B40B7832
:101A3C00CA7800EB8304032A10D8DFE812F0040004
:101A4C00290135011D0130F82340AA4A224042F4F5
:101A5C00007220F823200B7800EB830440F60F75FE
:101A6C00228800F580662A40134343F4004343F078
:101A7C00800323808B7A6BBB8A880B784C78520856
:101A8C005200DB00002C00F0BC80B0F85040234426
:101A9C0046F813200C7830F8243000EB84025E06F4
:101AAC000BD530F824301D4045F4004545F0C005F9
:101ABC0020F824500A7800EB820211888E4B00200B
:101ACC0070BC0B4083F0200343F4004343F08003CD
:101ADC001380704740F60F630A7830F82240234099
:101AEC0043F4014343F0800320F82230CB88B0F854
:101AFC0050200C785B0802EBC4025B0046F81230F5
:101B0C00B0F850300A890C780433520803EBC40344
:101B1C00520046F813200A784B7830F82240002BFC
:101B2C003ED1660400EB82030BD530F822301D4009
:101B3C0045F4404545F0800520F822500B7800EB29
:101B4C0083031A8855060BD540F60F721C88224069
:101B5C0042F4004242F0C0021A800B7800EB83037F
:101B6C0040F60F7248F280041D882A4042F400426D
:101B7C0042F0C0021A800A78604B30F822502B4099
:101B8C0083F44053234320F822300A785A4B30F820
:101B9C0022100B401C4320F82240002070BC7047E0
:101BAC00640400EB82030BD530F822301D4045F461
:101BBC00404545F0800520F822500B7800EB83035C
:101BCC001A8852067AD440F60F7248F280041D88A7
:101BDC002A4042F4404242F080021A800A78464B76
:101BEC0030F822502B40234320F822300A78434B04
:101BFC0030F822100B401C4320F82240002070BC0F
:101C0C007047B0F85050B0F850402B44043346F8AD
:101C1C0013200A690D78A31D3E2A03EBC5035AD87D
:101C2C00C2F34F04D20744BF0134A4B2A402A4B23D
:101C3C0046F813400C7830F8243000EB84025B0437
:101C4C000DD540F60F7330F82420134043F4404375
:101C5C0043F0800320F824300A7800EB82021188CC
:101C6C00264B002070BC0B4083F4405343F40043DC
:101C7C0043F080031380704730F823401D4A224004
:101C8C0042F4C06220F823200B7800EB8304E5E6D5
:101C9C0030F82340174A224042F4806220F8232077
:101CAC000B7800EB8304D9E630F82340114A22402C
:101CBC0020F823200B7800EB8304CFE640F60F725C
:101CCC001C88224042F4004242F0C0021A800B7879
:101CDC0000EB830377E7C2F34F14D50604BF04F17E
:101CEC00FF3294B2064A42EA842292B246F813209A
:101CFC00A0E700BF8F89FFFFBF8FFFFF8FBFFFFFE4
:101D0C000080FFFF30B40A788D7A00EB82034C78A8
:101D1C000DBB002C00F0938030F8224064060DD5EA
:101D2C0040F60F7330F82240234043F4004343F055
:101D3C00C00320F822300B7800EB83031A880020B4
:101D4C0030BC22F0C0021205120D42F4004242F0E7
:101D5C0080021A807047002C3ED130F82240640477
:101D6C000DD540F60F7330F82240234043F4404326
:101D7C0043F0800320F822300B7800EB83031A88A1
:101D8C0055060BD540F60F721C88224042F40042D7
:101D9C0042F0C0021A800B7800EB830340F60F72FE
:101DAC0048F280041D882A4042F4004242F0C002EE
:101DBC001A800A78384B30F822502B40234320F8F5
:101DCC0022300A78354B30F822100B401C4320F897
:101DDC002240002030BC704730F8224064040DD5FE
:101DEC0040F60F7330F82240234043F4404343F055
:101DFC00800320F822300B7800EB83031A885206FC
:101E0C003CD440F60F7248F280041D882A4042F4FC
:101E1C00404242F080021A800A78204B30F822505F
:101E2C002B40234320F822300A781B4B30F8221029
:101E3C000B401C4320F82240002030BC704730F887
:101E4C00224065040DD540F60F7330F82240234034
:101E5C0043F4404343F0800320F822300B7800EB2E
:101E6C0083031A88002030BC22F0F0029204920CFA
:101E7C0042F4004242F080021A80704740F60F7222
:101E8C001C88224042F4004242F0C0021A800B78B7
:101E9C0000EB8303B5E700BF8FBFFFFFBF8FFFFFD2
:101EAC00F0B44C788B69012C0D695CD0AB422CD80A
:101EBC0000221D468B7A8A610A7863BBB0F85030D9
:101ECC003E2D03F1060300F5806403EBC2027CD9BE
:101EDC00C5F34F16EF0604BF06F1FF339EB26D4BF0
:101EEC0043EA86239BB244F812300A7830F8221069
:101EFC00694BF0BC0B4083F4405343F4004343F074
:101F0C00800320F82230002070475B1B8B618B7A9A
:101F1C000A78002BD2D0002CE8D1B0F850303E2DEE
:101F2C0003F1020300F5806403EBC20240F29680D9
:101F3C00C5F34F16EF0604BF06F1FF339EB2554BA7
:101F4C0043EA86239BB244F812304E78002E40F0C0
:101F5C009380B0F850200D78063202EBC50244F89D
:101F6C0012300A78C2E7AB422CD800221D468A6197
:101F7C00ABB28C7A01335B104E6900F5806284BB86
:101F8C008C8802EB44042BB136F8027B013B24F81D
:101F9C00047BF9D1B0F850300C78023303EBC40356
:101FAC0042F813500A7800EB820211883B4B002058
:101FBC00F0BC0B4083F0300343F4004343F0800348
:101FCC00138070475B1B8B61D2E7C5F34F03ED07A2
:101FDC0044BF01339BB29B029BB244F812300A7887
:101FEC0084E70C7830F82470B0F850C07F064FEAC4
:101FFC00C4044CBF0F89CF886444023442F8145097
:10200C0002EB47022BB136F8024B013B22F8044B92
:10201C00F9D10C784B7800EB840273B940F60F734E
:10202C0030F82420134043F4004343F0C00320F85D
:10203C0024300A7800EB8202B7E7012BB5D140F6C9
:10204C000F7330F82420134043F4404343F08003D3
:10205C0020F824300A7800EB8202A6E7C5F34F0380
:10206C00EE0744BF01339BB29B029BB244F8123083
:10207C004E78002E3FF46DAF012E0A787FF436AF08
:10208C00B0F85030023303EBC20244F812500A7815
:10209C002CE700BF0080FFFF8FBFFFFFBF8FFFFF4C
:1020AC000B78DBB14A7830F823105AB9124A0A403F
:1020BC0082F4805242F4004242F0800220F8232045
:1020CC00002070470D4A0A4082F0100242F4004290
:1020DC0042F0800220F82320002070470288084B31
:1020EC00134083F4805383F0100343F4004343F014
:1020FC0080030380002070478FBFFFFFBF8FFFFF5F
:10210C00BFBFFFFF10B40B784C7800EB8302F4B127
:10211C0030F8234064060DD540F60F7230F823409A
:10212C00224042F4004242F0C00220F823200A78F8
:10213C0000EB82021188154B00200B4083F030031A
:10214C0043F4004343F08003138010BC704730F815
:10215C00234064040DD540F60F7230F82340224022
:10216C0042F4404242F0800220F823200A7800EB2F
:10217C0082021188064B00200B4083F4405343F439
:10218C00004343F08003138010BC7047BF8FFFFFE8
:10219C008FBFFFFF11B98023A0F84C30002070478F
:1021AC000020704700207047B0F84400704700BF13
:1021BC0000207047013300F580605B1000EB420299
:1021CC0005D031F8020B013B22F8040BF9D1704712
:1021DC00013300F580605B1000EB420206D0106802
:1021EC00013B02F1040221F8020BF8D1704700BF49
:1021FC00D0F818321BB10020C3F81402704702202B
:10220C00704700BFD0F81C3283B110B5D0F818421B
:10221C0094F80002FF2807D09B6894F8012221460D
:10222C009847FF2384F80032002010BD002070472F
:10223C004323038000487047080000204323038099
:10224C00004870474C00002043230380004870472F
:10225C00900000200A23038000487047D40000201F
:10226C0038B50446D0F8185202F026F9D4F81832D2
:10227C00C5F80C024BB1D4F81C3205F50371DB68C0
:10228C00D5F804029847002038BD022038BD00BFA5
:10229C00F8B50B780C4613F060020CD0202A08D14C
:1022AC00CA8805464E787AB9D0F81C3230469B68FD
:1022BC0098470020F8BD4B780A2BFAD101220E4921
:1022CC0000F00AFC0020F8BD1B06D0F818720BD5E4
:1022DC00D0F81C32394630469B689847E28839461C
:1022EC00284600F0F9FBE4E787F8006287F8012242
:1022FC00394600F007FCDCE76803002010B5044603
:10230C00812102F075F80121204602F071F8204677
:10231C00822102F06DF8D4F8183253B1D4F81C3283
:10232C005B689847D4F8180202F0D0F80023C4F880
:10233C001832002010BD00BFF8B5037C044673BBF7
:10234C004FF400730222812102F042F84FF4007323
:10235C0002220121204602F03BF8082303228221AD
:10236C00204602F035F84FF4077002F0ABF8054642
:10237C00C4F8180230B30026D4F81C321B689847F6
:10238C00277CD5F80422C5F814622046C5F81862DB
:10239C008FB14023012102F081F83046F8BD402373
:1023AC000222812102F014F840230222012120464E
:1023BC0002F00EF8D1E74FF40073012102F06EF831
:1023CC003846F8BD0120F8BD19B1C0F81C12002028
:1023DC0070470220704700BFD0F818320020C3F8B5
:1023EC000812C3F810227047D0F818320020C3F836
:1023FC0004127047D0F818228AB110B5D2F81442E2
:10240C000CB1012010BD0121B2F81032C2F8141227
:10241C00D2F80822812102F033F8204610BD0220A8
:10242C00704700BFD0F818228AB110B5047CD2F8DE
:10243C0004222CB14023012102F030F8002010BD01
:10244C004FF40073012102F029F8204610BD022040
:10245C00704700BF88B108B5D0F8143213B100230F
:10246C00C0F8143209B1C0F810120123027080F8C0
:10247C00FC3101F05DFF002008BD0220704700BF59
:10248C0019B1C0F81412002070470220704700BF29
:10249C0008B501F08FFF002008BD00BF08B5D0F8CB
:1024AC0014321BB11B68984700B908BD022008BD47
:1024BC0008B5D0F814325B689847002008BD00BFFF
:1024CC0038B5044600F50275284600F0C9FA01201B
:1024DC0094F80812B4F80E2201F01F038342C4F8DA
:1024EC00F401C4F8F82115D00ED3022B06D001F05C
:1024FC008001204601F08AFF002038BD2946204685
:10250C0000F048FA002038BD2946204600F0D8F8E3
:10251C00002038BD2946204600F01CFA002038BDAA
:10252C0010B5044631B91346D0F8F421032A0DD066
:10253C00002010BDD0F814329B69002BF8D090F815
:10254C00FC21032AF4D19847002010BDD0F80C11BF
:10255C00D0F8102191420DD8D0F814321B6923B158
:10256C0090F8FC21032A00D19847204600F0E2FAAB
:10257C00002010BD891A8A4228BF0A46C0F80C11E7
:10258C0092B2194600F0CEFAD2E700BF70B50446FD
:10259C0051B91346D0F8F421022A16D094F800321F
:1025AC00012B0DD0002070BDD0F814325B69002BCC
:1025BC00F8D090F8FC21032AF4D19847002070BD84
:1025CC00002384F80032002070BDD0E907629642E7
:1025DC0019D88369B3FBF2F502FB15350DB99A4294
:1025EC001FD9D4F81432DB682BB194F8FC21032AE0
:1025FC0001D120469847204600F0A8FA94F8003202
:10260C00012BCFD1DCE7B21A0D46C261194692B24A
:10261C0000F070FA2B462A462946204601F03EFF70
:10262C00BCE7D0F8F8219342DBD22A4600F062FADC
:10263C00C4F8F851EEE700BF38B500224025044637
:10264C0011462B4601F0C4FE2B460022C4F8105153
:10265C002046802101F0BCFE0122D4F818322562FC
:10266C0084F8FC212BB1D4F8143221795B68204614
:10267C009847002038BD00BF01740020704700BF90
:10268C000346042290F8FC11002083F8FD1183F816
:10269C00FC217047034690F8FD21002083F8FC21B3
:1026AC00704700BF90F8FC21032A01D0002070472E
:1026BC0008B5D0F81432DB6903B19847002008BD87
:1026CC0030B54B7883B00D460446092B0BD8DFE8A8
:1026DC0003F032450A580A05650A7B158B8813B935
:1026EC00CB88002B7DD08021204601F08FFE204628
:1026FC00002101F08BFE002003B030BD8978944D91
:10270C0001292970EFD890F8FC31022B00F0808061
:10271C00032BE8D1002900F01181416801292CD04C
:10272C00C9B2FFF7C5FE297820466160FFF7B6FEF7
:10273C00022822D1D7E7012290F8FC310321023B79
:10274C009342D0D8D0F80432C26003B1C1600222E7
:10275C0004F10C01204600F0BFF9CCE790F8FC31F5
:10276C00023B012BBFD84B88012BC4D10022D0F8DF
:10277C001432C0F804229B689847204600F0DAF91E
:10278C00B9E74B88012BB6D1D0F81422C0F804322B
:10279C0093689847204600F0CDF9ACE74A88130AB5
:1027AC00013B062B9FD801A151F823F0C328000848
:1027BC00AB28000899280008F3260008F326000827
:1027CC008328000843280008CA88012A8BD190F876
:1027DC00FC31022B28D0032B85D1011D00F07CF994
:1027EC0089E790F8FC31032B3FF47DAF8D7805F031
:1027FC007F0580F8FE51294601F034FE204600F09A
:10280C0099F9002D00F08F80022384F8FC3172E7D7
:10281C000029B2D001210323416080F8FC31FFF77D
:10282C003DFE0228A9D15EE70023014641F8083F8E
:10283C0000F052F95FE7037C002B7FF454AFD0F823
:10284C0014320DF106001B6B984707234370BDF83B
:10285C000630002B3FF44FAFEA88002A3FF44BAF11
:10286C00934228BF134601461A462046ADF806305F
:10287C0000F032F93FE7037C002B7FF434AFD0F843
:10288C0014320DF106005B6B9847E0E7D2B2052AD3
:10289C003FF629AFDFE802F03F372F271F17027CE6
:1028AC00D0F81432002A42D19B6A0DF106009847E9
:1028BC0002234370CBE7D0F810320DF106011B68F0
:1028CC00007C9847C3E7D0F810320DF106019B69E4
:1028DC00007C9847BBE7D0F810320DF106015B691C
:1028EC00007C9847B3E7D0F810320DF106011B6954
:1028FC00007C9847ABE7D0F810320DF10601DB688D
:10290C00007C9847A3E7D0F810320DF106019B68C4
:10291C00007C98479BE7D0F810320DF106015B68FC
:10292C00007C984793E7012384F8FC31E3E6DB6AEB
:10293C000DF1060098470223437088E7022341609B
:10294C0080F8FC31FFF7B4FD204600F0F3F8D2E636
:10295C006903002038B590F8FC310446032B0BD1E9
:10296C000B790D46012B07D8D0F814329B68984789
:10297C00EB8853B1002038BD802101F047FD204683
:10298C00002101F043FD002038BD204600F0D2F8B4
:10299C00002038BD38B50B78054603F06003202BBA
:1029AC0005D1D0F814329B689847002038BD4B787D
:1029BC008A88012B0C46D1B230D014D3032BF4D11E
:1029CC0090F8FC31022B2DD0032B3BD163881BB923
:1029DC004A0601D001F01AFDD5F8143221469B6845
:1029EC00284698472AE090F8FC31022B1AD0032B8A
:1029FC0028D101F07F03120600EB03134CBF03F147
:102A0C00140403F5827401F01DFD20B3012323602F
:102A1C0021462846022200F05FF8C6E790F8FC3108
:102A2C00022B04D14C06C0D001F0F0FCBDE7032B07
:102A3C0008D16388002BB8D14B060ED1284600F084
:102A4C0079F8B2E78021284601F0E0FC2846002105
:102A5C0001F0DCFCA9E72060DAE701F0E5FCBBE75C
:102A6C000B7803704B784370CA788B7803EB022396
:102A7C0043804A790B7903EB02238380CA798B79E3
:102A8C0003EB0223C380704708B3037830B4FBB167
:102A9C000446002314F8015F0133DBB2002DF9D199
:102AAC005B000233DCB2032513800C704D7004788C
:102ABC005CB1022300255A1CD2B2CC548D5410F8B0
:102ACC00014F0233DBB2002CF5D130BC704770479C
:102ADC0002242346E7E700BF38B5134602250A4611
:102AEC00C0E90633C0F8F451002101F0C9FC002004
:102AFC0038BD00BF08B513460A46002101F0C0FCE2
:102B0C00002008BD38B5134603250A46C0F8083125
:102B1C00C0F80C31C0F8F451002101F0BFFC0020CA
:102B2C0038BD00BF08B513460A46002101F0B6FCBB
:102B3C00002008BD08B504220023C0F8F421194672
:102B4C001A4601F09DFC002008BD00BF08B5052207
:102B5C000023C0F8F42119461A4601F09FFC00200E
:102B6C0008BD00BF30B54FF47A7100254FF6FF73E6
:102B7C000D4C0E4A87B02046C4E90021C4E902532B
:102B8C002561A561FEF7D8FE4FF4805306A941F8E4
:102B9C00103D2046FEF7D2FD20466946CDE9005592
:102BAC00FEF7E6FE07B030BD6C03002000040040C9
:102BBC002DE9F8430F1E16DD4FF000080125C14624
:102BCC000A4C0B4E2F44C4F824903046FEF78EFD71
:102BDC00636A002BFCD001353046FEF797FDBD42F1
:102BEC00C4F82480EFD1BDE8F88300BF0004004096
:102BFC006C03002002382C2800F2FB80DFE810F078
:102C0C00F300ED00E700E200DD00F900F900F90047
:102C1C00D800D300CE00C900C400BF00BA00B50074
:102C2C00B000AB00A600A0009A00F900F9009400D7
:102C3C008E00880082007C00760070006A006400C0
:102C4C005E00F900F900580052004D0048004300A6
:102C5C003E003900F90033002D000A4665484FF458
:102C6C000071FDF72DBC0A4662484FF48071FDF7E8
:102C7C0027BC0A465F488021FDF722BC0A465D4806
:102C8C004021FDF71DBC0A465A482021FDF718BC0F
:102C9C000A4658481021FDF713BC0A46554808212E
:102CAC00FDF70EBC0A4654484FF40041FDF708BC32
:102CBC000A4651484FF48041FDF702BC0A464E4883
:102CCC004FF40051FDF7FCBB0A464B484FF48051C2
:102CDC00FDF7F6BB0A4648484FF40061FDF7F0BB20
:102CEC000A4645484FF48061FDF7EABB0A46424864
:102CFC004FF40071FDF7E4BB0A463F484FF4807176
:102D0C00FDF7DEBB0A463B484FF40041FDF7D8BB4C
:102D1C000A4638484FF48041FDF7D2BB0A46354885
:102D2C004FF40051FDF7CCBB0A4632484FF48051AA
:102D3C00FDF7C6BB0A462F484FF40061FDF7C0BB38
:102D4C000A462C484FF48061FDF7BABB0A46294865
:102D5C000421FDF7B5BB0A4626480221FDF7B0BB9E
:102D6C000A4624480121FDF7ABBB0A4622488021C4
:102D7C00FDF7A6BB0A4620484021FDF7A1BB0A4639
:102D8C001D482021FDF79CBB0A461B481021FDF76E
:102D9C0097BB0A4618480821FDF792BB0A4616480D
:102DAC000421FDF78DBB0A4613480221FDF788BBB1
:102DBC000A4611480121FDF783BB0A460F48022140
:102DCC00FDF77EBB0A460D480121FDF779BB0A468B
:102DDC000B484FF40041FDF773BB0A4608484FF40B
:102DEC008041FDF76DBB0A4605484FF40051FDF7D5
:102DFC0067BB7047000C0140000801400014014003
:102E0C00001001402DE9F04391461D46064664270B
:102E1C0085B000790C460021FFF7ECFE65F05705F4
:102E2C00B9F1200FD6F8AC000DF10F0200974FF05E
:102E3C0001030DF10D01C8468DF80D5028BF4FF060
:102E4C002008FEF709FCB9F1000F10D0A04414F8CB
:102E5C00015BD6F8AC00012300970DF10F020DF1C8
:102E6C000E018DF80E50FEF7F7FB4445EFD130798B
:102E7C000121FFF7BFFE05B0BDE8F083F0B50446B5
:102E8C0064260D46174685B000790021FFF7B2FE87
:102E9C0045F02005D4F8AC000DF10F020DF10E0138
:102EAC00009601238DF80E50FEF7D6FB04A901F80D
:102EBC00037DD4F8AC000DF10F0201230096FEF750
:102ECC00CBFB20790121FFF795FE05B0F0BD00BFCB
:102EDC0010B50446FF22E121FFF7D0FF2046BDE8E4
:102EEC001040FF22E221FFF7C9BF00BF2DE9F041DE
:102EFC0006460D4664271C4684B000790021904696
:102F0C0045F02005FFF776FED6F8AC000DF10F0268
:102F1C00009701230DF10D018DF80D50FEF79CFB70
:102F2C00002C11DD08EB840454F8045DD6F8AC00D9
:102F3C00012300970DF10F020DF10E018DF80E50CB
:102F4C00FEF78AFBA045EFD130790121FFF752FE45
:102F5C0004B0BDE8F08100BF38B5044600F10805A7
:102F6C002A4605231021FFF7C1FF05232A462046D8
:102F7C000A21FFF7BBFF94F8A42020461121FFF78C
:102F8C007DFFD4F89830D3B1012B19D0022B1FD070
:102F9C00032B23D0042B07BFA26F0E21D4F8902053
:102FAC000F212046FFF76AFFD4F8981020460C44F6
:102FBC0094F8A4201131BDE83840FFF75FBF38BD4D
:102FCC00052304F120020B212046FFF78FFFEBE7CE
:102FDC00A26C0C212046FFF751FFE5E7226E0D2174
:102FEC002046FFF74BFFDFE770B5044664250E461D
:102FFC0084B000790021FFF7FDFDD4F8AC000DF191
:10300C000F020DF10E01009501238DF80E60FEF7F5
:10301C0023FBFF2304A901F8033DD4F8AC000DF108
:10302C000F0201230095FEF717FB20799DF80F4046
:10303C000121FFF7DFFD204604B070BD38B5044612
:10304C0000210078FFF7D6FD20460021FFF7CCFFCA
:10305C00002140F003022046FFF710FF04F10805A1
:10306C00204670220721FFF709FF2A462046052338
:10307C001021FFF73BFF05232A4620460A21FFF7C4
:10308C0035FF94F8A42020461121FFF7F7FE2046C7
:10309C00FF22E121FFF7F2FE2046FF22E221FFF79B
:1030AC00EDFE20780121FFF7A5FD2046BDE8384054
:1030BC000121FFF77DBD00BF2DE9F0410C4684B026
:1030CC0060210546FFF790FF64270646002128790A
:1030DC00FFF790FD4FF0610CD5F8AC000DF10F022D
:1030EC00009701230DF10D018DF80DC0FEF7B4FA18
:1030FC00002E15DD4FF0FF08013C2644D5F8AC003E
:10310C00012300970DF10F020DF10E018DF80E80C9
:10311C00FEF7A2FA9DF80F3004F8013FB442EDD14E
:10312C0028790121FFF766FD284640220721FFF789
:10313C00A5FE04B0BDE8F0812DE9F04F85B0CDE9D6
:10314C000232122383649DF8383000261025112793
:10315C0001931323044600F108090366009100F162
:10316C00200AC661C0E90255C0E904558561466371
:10317C00C0E90955C56207620763C664C0E90E75EC
:10318C00C0E910554666C0E91475C0E91655C66706
:10319C00C0E91A75C0E91C551420DFF814C24FF0B1
:1031AC00010B4FF0FF08A0679CE80300C4F89C00DB
:1031BC0015200CF1080CA4F8A010C4F89000C4F869
:1031CC0094609CE80300C4E92075C4F8A400A4F83A
:1031DC00A810C4E9225584F8A26084F8B16084F880
:1031EC00B26084F8B36084F8B46084F8B56084F895
:1031FC00A38084F8B0B0FFF7B5FC029B039A00994A
:10320C0063602260D0B2C4F8AC103146FFF7F2FC18
:10321C0059462079FFF7EEFC20464FF0FF3204218F
:10322C00FFF72CFE20460621FFF7DEFE062140EAC2
:10323C0001022046FFF722FE20460621FFF7D4FEAE
:10324C0020F0280242F0080220460621FFF716FE65
:10325C00324620461C21FFF711FE20467022072122
:10326C00FFF70CFE31462046FFF7BEFE314640F01C
:10327C0070022046FFF702FE31462046FFF7B4FEEF
:10328C00314640F00C022046FFF7F8FD019A20462B
:10329C007D2A28BF7D220521FFF7F0FD94F89E20A2
:1032AC0094F89D10920042EA410294F89F1094F811
:1032BC00A0C042EA0B0294F8A10042EAC10141EA23
:1032CC000C1242EA401284F89CB020460221FFF70F
:1032DC00D5FD29464A4620460523FFF707FE4A46F8
:1032EC00204605230A21FFF701FE394694F8A42055
:1032FC002046FFF7C3FD0523524620460B21FFF75E
:10330C00F5FD94F8A52020461221FFF7B7FDA26C1D
:10331C0020460C21FFF7B2FD94F8A620204613217D
:10332C00FFF7ACFD226E20460D21FFF7A7FD94F8A8
:10333C00A72020461421FFF7A1FDA26F20460E21E5
:10334C00FFF79CFD94F8A82020461521FFF796FD69
:10335C00D4F8902020460F21FFF790FD94F8A92077
:10336C0020461621FFF78AFD31462078FFF742FCF4
:10337C0042462046E121FFF781FD42462046E221EC
:10338C00FFF77CFD20461D21FFF72EFE1D2140F08E
:10339C0006022046FFF772FD20463F221C21FFF754
:1033AC006DFD2046FFF74AFE204605B0BDE8F08FC4
:1033BC004C51000810B590F8A23004467BB10023A4
:1033CC0080F8A230FFF7C8FD2046FFF737FE172123
:1033DC002046FFF709FEC3070BD5002010BD702255
:1033EC000721FFF74BFD17212046FFF7FDFDC30713
:1033FC00F3D420460721FFF7F7FDC0F3420001305C
:10340C0010BD00BF0123014410B481F89C3090F82A
:10341C009E3090F89D2090F89C109B0043EA42034C
:10342C0090F89F200B4390F8A01043EAC20390F849
:10343C00A12043EA011343EA4212022110BCFFF718
:10344C001DBD00BF4B1E70B50D460446042B04D8A1
:10345C00DFE803F051575D4B6B00002300F10806C9
:10346C00C0F8983000212078FFF7C4FB631993F85B
:10347C009C30ABB30E2200212046FFF7FFFC7022DC
:10348C0007212046FFF7FAFC05233246102120467F
:10349C00FFF72CFD324605230A212046FFF726FDB7
:1034AC00D4F898301121234493F8A4202046FFF738
:1034BC00E5FC012D31D0AB1E032B05D805F10A011B
:1034CC00A2692046FFF7DAFC2046FF22E121FFF734
:1034DC00D5FC2046BDE87040FF22E221FFF7CEBCB0
:1034EC0029462046FFF78EFFC4E7042300F1680647
:1034FC00C0F89830B6E7012300F12006C0F89830E8
:10350C00B0E7022300F13806C0F89830AAE703238D
:10351C0000F15006C0F89830A4E7052304F1080226
:10352C000B212046FFF7E2FCCEE7052300F18006D5
:10353C00C0F8983096E700BF0023014410B481F81E
:10354C009C3090F89E3090F89D2090F89C109B0039
:10355C0043EA420390F89F200B4390F8A01043EAF3
:10356C00C20390F8A12043EA011343EA421202215C
:10357C0010BCFFF783BC00BF10B517210446FFF742
:10358C0033FDC30701D5002010BD2046BDE8104017
:10359C006021FFF729BD00BF2DE9F041164690F8D8
:1035AC00A220202EB04684B005460C4628BF4FF012
:1035BC002008002A4ED090F8A3209A4244D106212C
:1035CC002846FFF7F5FA702207212846FFF756FC2C
:1035DC00002128796427FFF70DFB4FF0A00CD5F8DC
:1035EC00AC000DF10F02009701230DF10D018DF8C8
:1035FC000DC0FEF731F886B1A04414F8016BD5F874
:10360C00AC00012300970DF10F020DF10E018DF8A6
:10361C000E60FEF721F84445EFD128790121FFF720
:10362C00E9FA28780121FFF7E5FA28460A21FFF785
:10363C00BFFA00212878FFF7DDFA2846FFF79CFF38
:10364C00C0B204B0BDE8F08180F8A3301946FFF792
:10365C00F9FEB4E7012280F8A330194680F8A220C5
:10366C00FFF7F0FEB4E700BF70B59AB013460446FE
:10367C000A4601A82B4901F02FF92B4B93F8403047
:10368C004BB325786278A378E1788DF80B508DF8E0
:10369C000C20257962798DF80D30A3798DF80E10F8
:1036AC00E1798DF80F50267A8DF81020657A8DF817
:1036BC001130A27AE37A8DF8121001A813218DF83B
:1036CC0013608DF814508DF815208DF8163000F01D
:1036DC00B9FD1AB070BD22786378A178E5788DF8C1
:1036EC000B208DF80C30227963798DF80D10A179AF
:1036FC008DF80E50E6798DF80F20257A8DF8103064
:10370C00627AA37A8DF8111001A812218DF812603B
:10371C008DF813508DF814208DF8153000F092FDB3
:10372C001AB070BD785100086C03002038B5684D94
:10373C00002228464FF40041664CFCF7C1FE3220B3
:10374C00FCF744FD284601224FF40041FCF7B8FE7B
:10375C00204600220821FCF7B3FE3220FCF736FD90
:10376C00204601220821FCF7ABFE20460022102146
:10377C00FCF7A6FE3220FCF729FD20460122102181
:10378C00FCF79EFE204600222021FCF799FE3220F9
:10379C00FCF71CFD204601222021FCF791FE20465F
:1037AC0000224021FCF78CFE3220FCF70FFD204656
:1037BC0001224021FCF784FE204600228021FCF7E8
:1037CC007FFE3220FCF702FD204601228021FCF70F
:1037DC0077FE204600224FF48071FCF771FE3220F8
:1037EC00FCF7F4FC204601224FF48071FCF768FED4
:1037FC00204600224FF40071FCF762FE3220FCF7E9
:10380C00E5FC204601224FF40071FCF759FE2046DE
:10381C0000224FF48071FCF753FE3220FCF7D6FCEB
:10382C00204601224FF48071FCF74AFE204600220C
:10383C008021FCF745FE3220FCF7C8FC2046012213
:10384C008021FCF73DFE204600224021FCF738FE8B
:10385C003220FCF7BBFC204601224021FCF730FE55
:10386C00204600222021FCF72BFE3220FCF7AEFC78
:10387C00204601222021FCF723FE204600221021A5
:10388C00FCF71EFE3220FCF7A1FC20460122102181
:10389C00FCF716FE204600220821FCF711FE322010
:1038AC00FCF794FC204601220821FCF709FE28466F
:1038BC0000224FF40041FCF703FE3220FCF786FC9B
:1038CC002846BDE8384001224FF40041FCF7F8BD12
:1038DC0000080140000C01400138072828D8DFE817
:1038EC0000F0090E12161A1E22044FF40071114832
:1038FC00FCF7EABD4FF400410F48FCF7E5BD082189
:10390C000C48FCF7E1BD10210A48FCF7DDBD202175
:10391C000848FCF7D9BD40210648FCF7D5BD8021ED
:10392C000448FCF7D1BD4FF480710248FCF7CCBDC4
:10393C00704700BF000C01400008014030B5012267
:10394C0000244FF4803302254FF4E01195B00AA8FF
:10395C000A920E920B93129313910C941195FDF7FE
:10396C00D9F90F224FF48063294605A805920893D4
:10397C00CDE906540994FDF7EBFB102301A8019344
:10398C000494FDF79DFCFDF795FC084BA3FB003060
:10399C008009FCF781FC0420FCF796FC22462146AA
:1039AC004FF0FF30FCF736FC15B030BDD34D621034
:1039BC002DE9F04F0125ADF2F45DFCF7E3FBFFF7C9
:1039CC00BDFFBE4B4FF482769A69DFF820A342F01C
:1039DC0020029A619A6902F020020792079A99696B
:1039EC00002241F004019961986940F2155100F0F0
:1039FC000400089008989C69B14844F008049C6144
:103A0C009B69022403F008030993099BFCF758FDFA
:103A1C002A4648F20A21AA48FCF752FD2A464AF6E1
:103A2C00F971A848FCF74CFD002245F20201A548AB
:103A3C00FCF746FD48F21F730CA9A148CDE90C35E3
:103A4C000F94FCF74DFC4FF6FB730CA99D480D959C
:103A5C000F940A2500240C93FCF742FC4FF40072DF
:103A6C00102399490AF14400CAE91723CAE911162F
:103A7C00CAE91B45CAE91344CAE91544CAE9194401
:103A8C00FDF7F6FD00F07AFB904B5046CAF800307B
:103A9C00CAE90144CAE90344CAF81840FDF74CFFCF
:103AAC004FF480530CA950460C93FDF747FE0AA91E
:103ABC005046CDE90A44FDF75BFFC820FCF786FBB6
:103ACC00FFF734FE05230AF1440100931F221E2345
:103ADC000CA88DF82840FFF72FFB00950AF1440144
:103AEC001C231D223AA8FFF727FB0F230AF14401E0
:103AFC0000931B221A2368A8FFF71EFB14230AF15C
:103B0C00440100931922162396A8FFF715FB1923DD
:103B1C002A460AF144010093C4A80B23FFF70CFBBF
:103B2C001E230AF1440100930C220D23F2A8FFF787
:103B3C0003FB23230AF1440100930E2212230DF5FB
:103B4C009060FFF7F9FA28230AF14401009313223D
:103B5C0015230DF5A760FFF7EFFA4FF4B86000F0EE
:103B6C005EFD054600F5B863029005930CAB191980
:103B7C00029B1819B83415B1B82200F0A7FD059BAB
:103B8C00B8359D42F2D10023DFF864B103939DF860
:103B9C00283003F0FF044BBBDAF89C30002BF6D036
:103BAC000A224B494B4800F0BFFE002800F0678109
:103BBC000B224949474800F0B7FE0546002800F0A3
:103BCC00808107224549434800F0AEFE002840F0B2
:103BDC006E818AF840000023CAF89C308AF8A03025
:103BEC009DF8283003F0FF04002BD5D09DF8283029
:103BFC00002BCCD0DDF8089000272EE0DAF89C30B2
:103C0C00013733B304225946324800F08DFE034687
:103C1C00002800F0E980324800F021FD06460390B0
:103C2C00304800F01CFDB825002403463046DAF875
:103C3C009C20029E0AEB020181F8A040053A05FB8C
:103C4C0000602949FFF7A8FC0023CAF89C308AF8C9
:103C5C00A030082FCAD009F1B8094846FFF7AAFBD3
:103C6C000028CBD04846FFF7A5FB7B1E441E062B35
:103C7C0000F2A480DFE813F08E007A006600520098
:103C8C003E000700E70000224FF480710D48FCF75E
:103C9C0017FC0CA94846FFF70FFA224606210CA880
:103CAC00FFF7E2FC01224FF480710648FCF708FC98
:103CBC00DAF89C300137002BCDD0A3E7001002407E
:103CCC0000080140000C014000300140000400409D
:103CDC00845100080C040020905100089C510008ED
:103CEC000D0400200F040020110400206C030020A0
:103CFC00B451000800228021A348FCF7E1FB0CA979
:103D0C004846FFF7D9F922460CA80521FFF7ACFC71
:103D1C00012280219C48FCF7D3FBC9E700224021FB
:103D2C009948FCF7CDFB0CA94846FFF7C5F922468C
:103D3C000CA80421FFF798FC012240219248FCF7C3
:103D4C00BFFBB5E7002220218F48FCF7B9FB0CA97B
:103D5C004846FFF7B1F922460CA80321FFF784FC73
:103D6C00012220218848FCF7ABFBA1E7002210219F
:103D7C008548FCF7A5FB0CA94846FFF79DF92246A0
:103D8C000CA80221FFF770FC012210217E48FCF7E1
:103D9C0097FB8DE7002208217B48FCF791FB0CA9CF
:103DAC004846FFF789F922460CA80121FFF75CFC75
:103DBC00012208217448FCF783FB79E700224FF4B9
:103DCC0000417248FCF77CFB0CA94846FFF774F9DC
:103DDC0022460CA80021FFF747FC01224FF40041BA
:103DEC006A48FCF76DFB09E7039AB8201146029D5F
:103DFC008DF8283000FB0150FFF76AF8CDF81090D1
:103E0C00DDF814906FF0B00805F1B00405F1B606BA
:103E1C00A8EB050801E0A6420FD014F8013B002BDB
:103E2C00F9D008EB0403042259462846FEF7EAFFB2
:103E3C000120FCF7CBF9A642EFD1B8354D45E1D1C5
:103E4C00DDF8109000E700224FF400714E48FCF7AB
:103E5C0037FB0CA94846FFF72FF9224607210CA87F
:103E6C00FFF702FC01224FF400714748FCF728FBD6
:103E7C00DAF89C30002B3FF4B9AE0137C2E6444867
:103E8C0000F0EDFBB8240346029A0390414804FB72
:103E9C00032400F0E4FB0122231883F8B0203D48F2
:103EAC0000F0DDFB01462046FFF7ACFA93E6062254
:103EBC0039493A4800F038FDD0B901238AF840302E
:103ECC0089E6374800F0CBFBB8240346029A0390EE
:103EDC00344804FB032400F0C2FB231883F8B050D1
:103EEC00304800F0BCFB01462046FFF725FB72E68C
:103EFC0005222D49294800F017FD10B32B4800F07E
:103F0C00AEFB451CEDB2074603902846FFF7E4FCD8
:103F1C00274800F0A4FBB826DAF89C200346029848
:103F2C000AEB020181F8A040053A224906FB070082
:103F3C00FFF732FB6420FCF749F92846FFF7CCFC6D
:103F4C0049E6FFF7F3FB01236FF0B008029FDFF89F
:103F5C0058908DF8283007F1B00407F1B605A8EB9E
:103F6C00070614F8013B43B133190522494638467C
:103F7C00FFF712FB0120FCF729F9A542F1D1059BB3
:103F8C00B8379F42E7D126E6000C014000080140FB
:103F9C001704002019040020A45100080C04002070
:103FAC00180400201A040020AC5100080D04002055
:103FBC000F04002011040020704700BF0E4B82B08C
:103FCC009A690E4942F001029A619A6902F0010263
:103FDC000092009ADA6942F08052DA61DB6903F0F0
:103FEC0080530193019B4B6823F0E06343F0007313
:103FFC004B6002B0704700BF00100240000001404F
:10400C0070B500240268194B86B09A42CDE902447F
:10401C00CDE9044401D006B070BDA02102260325D1
:10402C0003F560439A69124842F480529A619A6986
:10403C0002F480520092009A9A6942F004029A614A
:10404C009B69029103F00403019302A9019B03965F
:10405C000595FCF745F9402302A90548CDE9034431
:10406C000293FCF73DF906B070BD00BF0030014073
:10407C00000801400268094B9A4200D0704703F5D2
:10408C000333DA6982B042F00202DA61DB6903F0D1
:10409C0002030193019B02B0704700BF0004004073
:1040AC00704700BFFEE700BFFEE700BFFEE700BFA2
:1040BC00FEE700BF704700BF704700BF704700BFEE
:1040CC00FCF772B80148FCF717BB00BFA01000202A
:1040DC000120704708B500F0C7FA162303604FF0B3
:1040EC00FF3008BD08B500F0BFFA16230360FEE7E9
:1040FC000C4A08B5136833B169461844884209D88C
:10410C001060184608BD08490B46116069461844F2
:10411C008842F5D900F0A8FA0C224FF0FF33026068
:10412C00184608BD740400200817002030B44FF462
:10413C001F054FF000640E4B0E4A19680E4841F0F3
:10414C000101196059680A405A601A6822F0847299
:10415C0022F480321A601A6822F480221A605A689B
:10416C0022F4FE025A609D60846030BC704700BF30
:10417C00001002400000FFF800ED00E008B500223E
:10418C0010491148FEF766F9C0B910490E48FEF700
:10419C0077F980B90E490C48FEF716F940B90A4870
:1041AC00FEF776F900B908BDBDE80840FFF704BF7B
:1041BC00FFF702FFF3E7FFF7FFFEEBE7FFF7FCFE6D
:1041CC00E3E700BF60010020AC060020E000002007
:1041DC001C01002000207047002070472DE9F041A1
:1041EC00074688460A4E0B4C01463046FEF7FCF853
:1041FC00256809483946284400F08EFBD8F8003071
:10420C0030462B442360FEF70DF90020BDE8F08109
:10421C00AC060020080400200C04002010B5064C4D
:10422C00002220460549FEF7D7F820460449FEF740
:10423C00DBF8002010BD00BFAC060020B80C00203D
:10424C00D008002010B5094CD4F81832D3F8143229
:10425C000BB1012010BD0A4601462046FEF7BCF802
:10426C002046BDE81040FEF7C5B800BFAC060020E4
:10427C0002680E4B9A4200D07047002203F5DA33E5
:10428C0010B5DC6982B044F40004DC61DB691146D2
:10429C0003F4000301931420019BFBF7BBFF1420D4
:1042AC0002B0BDE81040FBF7EBBF00BF005C004064
:1042BC0000F22C41D0F85C04FEF702B900EB41137C
:1042CC00D3F83C22D0F85C04FEF72AB900EB41137A
:1042DC00DA6BD0F85C04FEF759B900BFD0F85C0477
:1042EC00FEF7E0B9836810B5022B044601D0FFF746
:1042FC0063FED4F85C040121FEF7BEF9D4F85C042B
:10430C00BDE81040FEF798B910B50446D0F85C042F
:10431C00FEF7B6F9A36923B1024A136943F0060309
:10432C00136110BD00ED00E0D0F85C04FEF7B2B9EB
:10433C0038B504460022082502211C4B1C48C3F842
:10434C005C441860C4F820321846C3E90151C3E933
:10435C0006221A62FCF7BCF808B1FFF72DFE00220A
:10436C0018231146D4F82002FCF7B8FC582300227D
:10437C008021D4F82002FCF7B1FCC023002281215B
:10438C00D4F82002FCF7AAFC4FF488730022012118
:10439C00D4F82002FCF7A2FCD4F820024FF480736E
:1043AC0000228221FCF79AFC002038BDA0100020CE
:1043BC00005C004008B5D0F82002FCF7F5F80328A3
:1043CC0096BF024B0220185C08BD00BF7451000858
:1043DC0010B51C46D0F8200213462246FCF710F903
:1043EC00032896BF014B0220185C10BD74510008C5
:1043FC0008B5D0F82002FCF727F9032896BF024B2A
:10440C000220185C08BD00BF7451000808B5D0F834
:10441C002002FCF713FC032896BF024B0220185C09
:10442C0008BD00BF7451000808B5D0F82002FCF795
:10443C0031FC032896BF024B0220185C08BD00BF5C
:10444C00745100080A06D0F8203204D403EB41134F
:10445C0093F82A02704701F07F0103EB411393F8A4
:10446C002A00704708B5D0F82002FCF7B5F80328ED
:10447C0096BF024B0220185C08BD00BF74510008A7
:10448C0008B5D0F82002FCF721F9032896BF024B9F
:10449C000220185C08BD00BF7451000808B5D0F8A4
:1044AC002002FCF7F3F8032896BF024B0220185C9D
:1044BC0008BD00BF7451000808B5D0F82002FCF705
:1044CC00FDF808BD004870477C040020704700BF11
:1044DC00704700BF122301480B8070472C0100204D
:1044EC00042301480B8070474001002030B40025A4
:1044FC00013AD2B28C1C04EB4204020F092AD3B24B
:10450C0003F130028ABF37330A700B704D700231E1
:10451C008C424FEA0010F0D130BC70471A220B4885
:10452C000B4B00681B680A80C01801D10948704702
:10453C0010B5094B08221C680849FFF7D7FF204625
:10454C0004220749FFF7D2FF024810BDE8F7FF1F0E
:10455C00F0F7FF1F44010020ECF7FF1F460100207D
:10456C005601002010B5044C0A4604482146FEF7BB
:10457C008BFA204610BD00BF00150020BC5100086E
:10458C0010B5044C0A4604482146FEF77DFA204635
:10459C0010BD00BF00150020D051000810B5044C10
:1045AC000A4604482146FEF76FFA204610BD00BFAC
:1045BC0000150020E851000810B5044C0A460448C8
:1045CC002146FEF761FA204610BD00BF0015002001
:1045DC00F4510008002103E00B4B5B5843500431AD
:1045EC000A480B4B42189A42F6D30A4A02E00023BF
:1045FC0042F8043B084B9A42F9D3FFF797FD00F0C1
:10460C0039F8FFF7D5F970474C530008000000202B
:10461C004C0300204C03002004170020FEE710B5CB
:10462C00002814BF04460124204600F047F830B996
:10463C0000F006F808B900F00BF88047F4E710BD5D
:10464C00024B1868BFF35B8F704700BF9C060020BD
:10465C0008B5062000F024F90120FFF743FD0A22DB
:10466C00002100F0EFB90000014B1868704700BF43
:10467C007C01002070B500250C4E0D4CA41BA41021
:10468C00A54209D100F048FD00250A4E0A4CA41B96
:10469C00A410A54205D170BD56F8253098470135B8
:1046AC00EEE756F8253098470135F2E744530008F9
:1046BC00445300084453000848530008024B014679
:1046CC00186800F05BB800BF7C01002010B5431ED9
:1046DC000A44914200D110BD11F8014B03F8014F6F
:1046EC00F7E7000038B50546002943D051F8043CE3
:1046FC000C1F002BB8BFE41800F0CFF91E4A13684A
:10470C00104633B9636014602846BDE8384000F0A9
:10471C00C5B9A3420BD921686218934201BF1A682C
:10472C005B685218226063600460EDE713465A68B8
:10473C000AB1A242FAD919685818A0420BD12068C4
:10474C000144581882421960DED110685268014445
:10475C0019605A60D8E702D90C232B60D4E7206883
:10476C0021188A4201BF11685268091821606260E1
:10477C005C60C9E738BD00BFA006002070B5CD1C39
:10478C0025F0030508350C2D38BF0C25002D0646E9
:10479C0001DBA94203D90C233360002070BD00F06B
:1047AC007CF9214A1468214691B9204C23681BB925
:1047BC00304600F03DF820602946304600F038F8CD
:1047CC00431C24D10C233046336000F067F9E4E736
:1047DC000B685B1B18D40B2B0FD90B60CC18CD506E
:1047EC00304600F05BF904F10B00231D20F00700AC
:1047FC00C31AD3D05A42E250D0E74B688C4216BF52
:10480C00636013600C46EBE70C464968CCE7C41CAC
:10481C0024F00304A04205D0211A304600F008F819
:10482C000130CFD02560DBE7A0060020A4060020D5
:10483C0038B50023054C054608462360FFF758FCA5
:10484C00431C02D1236803B12B6038BD0017002034
:10485C001F2938B504460D4604D9162303604FF0C2
:10486C00FF3038BD426C12B152F821304BB92046A2
:10487C0000F030F82A4601462046BDE8384000F0EA
:10488C0017B8012B0AD0591C03D116230360012041
:10489C00E7E70024284642F8254098470020E0E747
:1048AC00024B01461868FFF7D3BF00BF7C01002004
:1048BC0038B50023064C0546084611462360FFF721
:1048CC0009FC431C02D1236803B12B6038BD00BF27
:1048DC0000170020FFF7FCBB0EB46FF0004100B5D1
:1048EC009CB01DAB029006900791049108480949B1
:1048FC0053F8042B0591006802A9019300F02AF9E2
:10490C000022029B1A701CB05DF804EB03B07047D8
:10491C007C0100200802FFFF034611F8012B03F86D
:10492C00012B002AF9D1704710B56AB101398418EE
:10493C0010F8013B11F8012F934203D1A04201D092
:10494C00002BF5D1981A10BD1046FCE72DE9F04765
:10495C008046894692461E460F463D46089815F8F5
:10496C00014B00F085F82044437813F0080332D152
:10497C002D2C32D101227C78BD1C002E5DD0102E46
:10498C0009D1302C07D12B7803F0DF03582B4FD1F2
:10499C0010266C780235002A14BF4FF000416FF0DE
:1049AC0000410027B1FBF6FC384606FB1C1EA4F1A7
:1049BC003003092B17D81C46A64223DD7B1C07D0DD
:1049CC0084451CD301D1A64519DB012700FB064009
:1049DC0015F8014BEBE72F46BFE72B2C04BFBD1C92
:1049EC007C781A46C9E7A4F14103192B01D8373C4E
:1049FC00E2E7A4F16103192B04D8573CDCE74FF034
:104A0C00FF37E5E77B1C08D122230846C8F80030A5
:104A1C00BAF1000F07D1BDE8F08702B14042BAF1FC
:104A2C00000FF8D00FB105F1FF39CAF80090F2E78A
:104A3C003024002EAFD10826ADE7302CA3D00A26A7
:104A4C00A9E70000084B37B51C68084D236A002BFA
:104A5C0008BF2B46009313460A4601462046FFF733
:104A6C0075FF03B030BD00BF7C010020E0010020C9
:104A7C00D0F8EC00704782B001B901A942B14BB13A
:104A8C0013780B601278101C18BF012002B070470D
:104A9C001046FBE76FF00100F8E7704770472DE90F
:104AAC00F0478E6882469E420C469046994637D80F
:104ABC008A8912F4906F31D00223256809696F1A24
:104ACC00656905EB450595FBF3F509F101033B44DD
:104ADC009D4238BF1D46530530D52946FFF74EFE83
:104AEC00064650B90C234FF0FF30CAF80030A389AA
:104AFC0043F04003A381BDE8F0873A462169FFF7F4
:104B0C00E5FDA38923F4906343F08003A381266120
:104B1C003E4426604E466561ED1BA5604E4500D9AE
:104B2C004E4632464146206800F0AFFAA36800209A
:104B3C009B1BA36023681E442660DCE72A4600F01A
:104B4C00BDFA06460028E2D121695046FFF7CAFD9E
:104B5C00C8E700002DE9F04F1D468B899DB01F065C
:104B6C0080460C4616460FD50B696BB94021FFF7F2
:104B7C0005FE2060206128B90C23C8F800304FF0E6
:104B8C00FF30C8E0402363610023099320238DF894
:104B9C00293030234FF0010B8DF82A30039537461E
:104BAC003D4615F8013B0BB1252B3ED1B7EB060A60
:104BBC000BD05346324621464046FFF770FF01307A
:104BCC0000F0A480099B534409933B78002B00F020
:104BDC009D8000234FF0FF32CDE90523049307930A
:104BEC008DF853301A932F46052217F8011B5048A5
:104BFC0000F03DFA049BD0B9D90644BF20228DF8B1
:104C0C0053201A0744BF2B228DF853202A782A2AC6
:104C1C0015D02F4600200A25079A394611F8013B7A
:104C2C00303B092B4DD9B8B10FE02F46B8E7404ABD
:104C3C003D46801A0BFA00F018430490D3E7039A10
:104C4C00111D12680391002A01DB079204E0524205
:104C5C0043F00203079204933B782E2B0CD17B7804
:104C6C002A2B33D1039B02371A1D1B680392002B8E
:104C7C00B8BF4FF0FF3305932E4D032239782846E9
:104C8C0000F0F5F938B14023401B03FA00F0049B07
:104C9C000137034304933978062227487E1C8DF88C
:104CAC00281000F0E4F9002838D0244B13BB039BE8
:104CBC00073323F0070308330393099B4B440993F1
:104CCC006DE705FB023201200F46A6E700230A25FB
:104CDC00194601370593384610F8012B303A092A4A
:104CEC0003D9002BC8D00591C6E705FB0121012390
:104CFC000746F0E703AB00932246114B04A940464C
:104D0C00AFF30080B0F1FF3F8146D6D1A3895B069B
:104D1C003FF535AF09981DB0BDE8F08F03AB00939C
:104D2C002246074B04A9404600F082F8EAE700BF90
:104D3C000E5200081452000818520008000000001F
:104D4C00AB4A00082DE9F04791461F468A680B696B
:104D5C0006469342B8BF1346C9F8003091F8432079
:104D6C000C46DDF8208012B10133C9F800302368FD
:104D7C00990642BFD9F800300233C9F800302568D3
:104D8C0015F0060507D104F1190AE368D9F80020DB
:104D9C009B1AAB4229DC94F843302268003318BFCD
:104DAC00012392062ED404F1430239463046C04703
:104DBC00013021D02368E56803F00603042B18BFEB
:104DCC000025D9F800204FF0000908BFAD1AA368E0
:104DDC00226908BF25EAE5759342C4BF9B1AED18FA
:104DEC001A344D451AD1002008E0012352463946A9
:104DFC003046C047013003D14FF0FF30BDE8F0879B
:104E0C000135C2E73020E11881F843005A1C94F8B0
:104E1C0045102244023382F84310C4E70123224692
:104E2C0039463046C0470130E6D009F10109D8E7D0
:104E3C002DE9F04301F1430C0C46097E85B06E2937
:104E4C001746064698460C9A00F0B38022D8632980
:104E5C0036D00AD8002900F0B980582900F0838098
:104E6C0004F1420584F8421032E0642901D069292A
:104E7C00F6D120681368050603F104012AD51B68D6
:104E8C001160002B03DA2D225B4284F843206F481B
:104E9C000A2239E0732900F09D8008D86F2920D0B0
:104EAC007029DDD1236843F02003236003E07529CA
:104EBC0017D07829D4D17823654884F8453055E04B
:104ECC00136804F14205191D1B68116084F8423007
:104EDC0001238CE01B6810F0400F116018BF1BB24F
:104EEC00CFE713682568181D1060280601D51B68CC
:104EFC0002E06806FBD51B886F2914BF0A22082222
:104F0C005248002184F843106568002DA560C0F25A
:104F1C009580216821F004012160002B3DD1002DEA
:104F2C0040F08E806546082A0BD12368DB0708D534
:104F3C00236962689A42DEBF302305F8013C05F113
:104F4C00FF35ACEB05032361CDF800803B4603AA8B
:104F5C0021463046FFF7F6FE01304DD14FF0FF30C1
:104F6C0005B0BDE8F083394884F845101368216812
:104F7C001D1D1B6815600A060BD5CA0744BF41F0FE
:104F8C00200121601BB9226822F02002226010222D
:104F9C00B7E74D0648BF9BB2EFE76546B3FBF2F1AE
:104FAC0002FB1133C35C05F8013D0B460029F5D11A
:104FBC00B9E713682568181D6169106028061B681D
:104FCC0001D5196002E06A06FBD5198000236546FD
:104FDC002361B9E71368191D11601D68626800210F
:104FEC00284600F044F808B1401B606063682361F8
:104FFC00002384F84330A7E723692A463946304614
:10500C00C0470130AAD023689B0713D4E068039BE8
:10501C009842B8BF1846A3E701234A4639463046A2
:10502C00C04701309AD00135E368039A9B1AAB4212
:10503C00F2DCEBE7002504F11909F5E7002BACD104
:10504C00037804F1420584F842306CE71F520008E3
:10505C003052000849B1FF2A8BBF8A230A700360C3
:10506C00012088BF4FF0FF3070470846704710B5DD
:10507C00C9B202449042034601D1002303E01C78DC
:10508C0001308C42F6D1184610BD884210B501EBA8
:10509C00020307D8421E99420AD011F8014B02F8BC
:1050AC00014FF8E78342F5D98118D21AD34200D1C7
:1050BC0010BD13F8014D01F8014DF7E7F8B507469F
:1050CC0014460E4621B9BDE8F8401146FFF756BB11
:1050DC0022B9FFF707FB25462846F8BD00F014F867
:1050EC00A0420FD221463846FFF748FB0546002860
:1050FC00F2D031462246FFF7E9FA31463846FFF73F
:10510C00F1FAE9E73546E7E751F8043C181F002BA4
:10511C00BCBF0B58C0187047F8B500BFF8BC08BC32
:10512C009E467047F8B500BFF8BC08BC9E46704759
:10513C0002030405060708090A0B0C0D0E0F1010CC
:10514C000101000000000000202020202020000091
:10515C00000000000000000001020304060708091B
:10516C000000000001020304000201027225642CFD
:10517C007025643A00000000656E61626C655069D0
:10518C007065000064697361626C655069706500DC
:10519C006469676974616C00616E616C6F670000B3
:1051AC00737461727400000073746F7000000000FF
:1051BC0053544D6963726F656C656374726F6E697D
:1051CC006373000053544D33322056697274756109
:1051DC006C20436F6D506F72740000004344432089
:1051EC00436F6E666967000043444320496E7465E3
:1051FC0072666163650000004300504F53495800CC
:10520C002E00232D302B2000686C4C006566674502
:10521C004647003031323334353637383941424322
:10522C0044454600303132333435363738396162D3
:10523C006364656600002020202020202020202888
:10524C002828282820202020202020202020202032
:10525C00202020202020881010101010101010106A
:10526C0010101010101004040404040404040404AA
:10527C001010101010101041414141414101010129
:10528C000101010101010101010101010101010102
:10529C00011010101010104242424242420202020F
:1052AC0002020202020202020202020202020202D2
:1052BC000210101010200000000000000000000080
:1052CC0000000000000000000000000000000000D2
:1052DC0000000000000000000000000000000000C2
:1052EC0000000000000000000000000000000000B2
:1052FC0000000000000000000000000000000000A2
:10530C000000000000000000000000000000000091
:10531C000000000000000000000000000000000081
:10532C000000000000000000000000000000000071
:08533C00000000000000000069
:04534400310100082B
:045348000D0100084B
:10534C00010000001000000009024300020100C02F
:10535C0032090400000102020100052400100105BD
:10536C002401000104240202052406000107058221
:10537C000308001009040100020A000000070501DF
:10538C0002400000070581024000000009024300B2
:10539C00020100C0320904000001020201000524D0
:1053AC00001001052401000104240202052406005A
:1053BC00010705820308001009040100020A00001D
:1053CC00000705010200020007058102000200002F
:1053DC0009074300020104C0320904000001020263
:1053EC00010005240010010524010001042402021F
:1053FC000524060001070582030800FF09040100CB
:10540C00020A0000000705010240000007058102A6
:10541C00400000000A0600020000004001000000ED
:10542C0045230008092300089D2200080000000005
:10543C0011220008FD2100086D2200080000000068
:10544C000000000000000000492200083D22000876
:10545C00552200086122000800A24A0429420008D3
:10546C00E1410008E5410008E94100081201000291
:10547C0002020040830440570002010203010000B5
:10548C00040309041A0300000000000000000000DF
:10549C000000000000000000000000000000000000
:1054AC00E1440008ED440008714500088D450008F2
:1054BC0029450008A9450008C545000880010020C1
:1054CC0000000000000000000000000000000000D0
:1054DC0000000000000000000000000000000000C0
:1054EC0000000000000000000000000000000000B0
:1054FC0000000000000000000000000000000000A0
:10550C00000000000000000000000000000000008F
:10551C00000000000000000000000000000000007F
:10552C00430000000000000000000000000000002C
:10553C00000000000000000000000000000000005F
:10554C00430000000000000000000000000000000C
:10555C00000000000000000000000000000000003F
:10556C0043000000000000000000000000000000EC
:10557C00000000000000000000000000000000001F
:10558C0043000000000000000000000000000000CC
:10559C0000000000000000000000000000000000FF
:1055AC0043000000000000000000000000000000AC
:1055BC0000000000000000000000000000000000DF
:1055CC00430000000000000000000000000000008C
:1055DC0000000000000000000000000000000000BF
:1055EC00430000000000000000000000000000006C
:1055FC00000000000000000000000000000000009F
:10560C0061500008834A0008000000004152000865
:10561C000C520008135200081352000813520008D1
:10562C0013520008135200081352000813520008BA
:10563C001352000813520008FFFFFFFFFFFFFFFF8C
:10564C00FFFFFFFFFFFF00000100415343494900EA
:10565C00000000000000000000000000000000003E
:10566C0000000000000000000000415343494900C5
:10567C00000000000000000000000000000000001E
:0C568C0000000000000000000000000012
:04000005080045E1C9
:00000001FF
