:020000040800F2
:1000000000500020BD4900087544000879440008EC
:100010007D44000881440008854400080000000079
:1000200000000000000000000000000089440008FB
:100030008D44000800000000914400089544000829
:10004000054A0008054A0008054A0008054A000854
:10005000054A0008054A0008054A0008054A000844
:10006000054A0008054A0008054A0008054A000834
:10007000054A0008054A0008054A0008054A000824
:10008000054A0008054A0008054A0008054A000814
:1000900099440008054A0008054A0008054A000876
:1000A000054A0008054A0008054A0008054A0008F4
:1000B000A5440008054A0008054A0008054A00084A
:1000C000054A0008054A0008054A0008054A0008D4
:1000D000054A0008054A0008054A0008054A0008C4
:1000E000054A0008054A0008054A0008000000000B
:1000F0000000000000000000000000000000000000
:0C01000000000000000000005FF808F1A3
:10010C0010B5054C237833B9044B13B10448AFF345
:10011C0000800123237010BD50030020000000005C
:10012C00C84D000808B5034B1BB103490348AFF396
:10013C00008008BD0000000054030020C84D0008DA
:10014C00034613F8012B002AFBD1181A013870470B
:10015C004FF47A7370B50D4D0D4A29781268B3FBC4
:10016C00F1F30646B2FBF3F000F09EF808B90F2E3F
:10017C0001D9012070BD0446024631464FF0FF30D4
:10018C0000F050F86E60204670BD00BF00000020EB
:10019C001C010020074A08B51368032043F0100324
:1001AC00136000F02DF80020FFF7D2FF04F0D0F818
:1001BC00002008BD00200240034A044B11681B7844
:1001CC000B441360704700BF700900200000002032
:1001DC00014B1868704700BF7009002038B5044601
:1001EC00FFF7F6FF631C054602D0044B1B781C443A
:1001FC00FFF7EEFF401BA042FAD338BD00000020F1
:10020C004FF6FF01064A0002D36800F4E0600B4091
:10021C0043F0BF6343F400330343D360704700BF24
:10022C0000ED00E0184B30B4DB68C3F30223C3F1DC
:10023C000705042D03F1040428BF0425062C19D945
:10024C004FF0FF34033B9C4022EA04044FF0FF3292
:10025C00AA4021EA020101FA03F22243120100280A
:10026C00D2B20ADB00F1604000F5614080F8002357
:10027C0030BC704700242346E8E7044B00F00F0025
:10028C0003441A7630BC704700ED00E0FCEC00E053
:10029C00012300F01F01034A40098B4042F8203033
:1002AC00704700BF00E100E00138B0F1807F0DD253
:1002BC0030B4F02500220721054B064C586084F819
:1002CC002350104630BC9A6019607047012070476B
:1002DC0010E000E000ED00E02DE9F04F4FF00008D9
:1002EC0083B04446DFF8C0C1694EDFF8C0E102E0DC
:1002FC000134102C78D001230A68A3401A40934291
:10030C00F6D14D68122D00F09C807ED8022D00F0A5
:10031C00948074D9032D00F08D80112D02D1CB68FF
:10032C0003F10408FF2A62D882460368A5004FF047
:10033C000F0909FA05FB23EA0B0308FA05F52B4311
:10034C00CAF80030D1F804A01AF0805FD0D0514F19
:10035C0024F00305BB6905F1804543F00103BB6143
:10036C00BB6905F5803503F00103019304F0030B21
:10037C00019B4FEA8B0BAB6809FA0BF9604523EA3A
:10038C0009030FD0704560D0434FB84278D0434F2B
:10039C00B8420CBF4FF003094FF0040909FA0BFBEC
:1003AC0043EA0B03AB6033681AF4803F14BF13436A
:1003BC009343336073681AF4003F14BF13439343A1
:1003CC007360B3681AF4801F14BF13439343B36074
:1003DC00F3681AF4001F04F1010414BF1A4323EA52
:1003EC000202102CF26086D103B0BDE8F08F04F14C
:1003FC008045083D4368AD0000F1040A97E7A5B1BC
:10040C00012D8FD1D1F80C808CE7254FBD420CD03B
:10041C0029D9244FBD4208D007F58037BD4204D0FE
:10042C00DFF88C904D457FF47DAF8D68A5B94FF00A
:10043C00040877E74FF0000874E7CB6803F108086D
:10044C0070E7CB6803F10C086CE74FF0010909FA6F
:10045C000BFB43EA0B03A5E7012D0CBF03614361C2
:10046C004FF008085EE7DFF84C904D45DDD009F5FC
:10047C0080394D457FF456AF8D68002DD7D0EBE712
:10048C004FF0020909FA0BFB43EA0B038AE700BFA2
:10049C000004014000100240001001400014014013
:1004AC00000021100000311000080140000C014038
:1004BC00000022100000111002B9090401617047FC
:1004CC00C3685940C1607047002867D0F0B590F8F8
:1004DC00293487B0054603F0FF02002B59D00323C3
:1004EC002E4685F82934286801F04AFB56F810CBC3
:1004FC006C4637460FCF0FC43B682F1D236097E81F
:10050C000E00604601F02AFB0021286801F042FB36
:10051C0000212B4608462A46012482F82810918691
:10052C0001310F2982F8294082F82B00C2E90E0014
:10053C00106402F12002F0D10022144683F8282224
:10054C009A8601320F2A83F8294283F82B42C3F88A
:10055C003842C3F83C42C3F8404203F12003EDD1CA
:10056C00EC460FCED5F800E0ACE80F0033687046CF
:10057C00CCF8003097E80E0001F00EFB012385F853
:10058C002440286885F8293401F0DCFE002007B0EF
:10059C00F0BD80F8282404F059F8A0E7012070473A
:1005AC0090F82834012B10D0012110B5044680F8A6
:1005BC00281404F07BF9206801F0C2FE206801F0D9
:1005CC00D5FA002084F8280410BD0220704700BF23
:1005DC0090F82824012A0DD010B50446012284F885
:1005EC00241080F82824006801F0A4FE002084F870
:1005FC00280410BD0220704738B54CB2002C01F015
:10060C007F05B5BF00EB451100EB4111283101F519
:10061C000A71E40F4C700D70CB7090F828340A619D
:10062C00012B0AD00123044680F82834006801F01D
:10063C00CDFA002084F8280438BD022038BD00BF54
:10064C004BB2002B01F07F02B5BF00EB421100EB67
:10065C004111283101F50A71DB0F4B700A7090F8CB
:10066C002834012B0BD0012310B5044680F8283414
:10067C00006801F017FC002084F8280410BD02204B
:10068C00704700BF70B5002601F07F014D01441981
:10069C0005F50A7584F82812C4F83C224119C4F8EF
:1006AC0040320068C4F8446284F8296201F0C8FC46
:1006BC00304670BD01F00F0100EB4111B1F844025E
:1006CC00704700BFF8B50026012701F07F014D01EE
:1006DC004419283584F82810C4E90F2341190068FF
:1006EC0084F82970666401F0ABFC3046F8BD00BF9D
:1006FC002DE9F04F044683B0006801F025FE02049A
:10070C0045D42268104601F01FFE460500F1838196
:10071C00206801F019FE10F4804F206807D0B0F863
:10072C00443023F480431B041B0CA0F8443001F02C
:10073C000BFE10F4005F206807D0B0F8443023F4AF
:10074C0000531B041B0CA0F8443001F0FDFDC50444
:10075C0000F14381206801F0F7FD000500F11E81D6
:10076C00206801F0F1FD820500F10B81206801F099
:10077C00EBFDC30508D52268B2F8443023F480732E
:10078C001B041B0CA2F8443003B0BDE8F08F00230F
:10079C002268DFF89494DFF894A4DFF894B4ADF8F1
:1007AC000430ADF80630B2F844309BB21F04ADF8FB
:1007BC000430A7D5BDF8045015F00F054FD1BDF886
:1007CC000410138811F0100100F043819BB2ADF8B6
:1007DC000630BDF806301B0500F18E81BDF80630E1
:1007EC001F04E0D540F68F7311880B401380B2F8CC
:1007FC00503094F8281203EBC10302EB4303D3F8F7
:10080C000C34C3F30903C4F84432002B40F0EE81DE
:10081C002046002103F040FF2268D4F83802B2F8D9
:10082C0050303E2802F5806503F1060340F2CE817C
:10083C00C0F34F11C60604BF01F1FF3189B24BEA78
:10084C00812189B245F8131013880AEA030383F453
:10085C00405343F4004343F080031380A3E732F882
:10086C0025309BB2ADF80630BDF8063019043BD4E8
:10087C00BDF806301B0696D532F825306E0109EA14
:10088C00030322F82530A71997F8323002F580615E
:10089C00002B40F00C81B2F8503097F8280003EB95
:1008AC00C003023351F81330C3F309037B64002BEC
:1008BC0040F06A812644B2F8503096F82800F26B6A
:1008CC0003EBC003023351F81310336CC1F309016D
:1008DC000A447164F263002B40F0E280014620462A
:1008EC0003F0E2FE22685EE740F68F7332F82510C3
:1008FC006E010B4022F8253004EB060898F83232D2
:10090C0002F58060002B00F0178198F8283232F83D
:10091C00237002EB830117F4804FB2F850704FEA4A
:10092C00C3033B4400F03C81023350F81370C7F30F
:10093C000907002F40F0728140F60F730A881340AC
:10094C0043F4004343F0C0030B802644D6F8441212
:10095C00D6F83C22D6F8403239443A44C6F8441210
:10096C00C6F83C22002B00F01881D6F8380296F815
:10097C002812874280F03581204603F08DFE2268D4
:10098C0076E722682046B2F8443023F400731B0447
:10099C001B0CA2F8443003F08FFEE7E62368B3F893
:1009AC004020184642F00802A3F84020B3F8442037
:1009BC0022F400621204120CA3F84420B3F8402075
:1009CC0042F00402A3F8402001F0BEFCC1043FF544
:1009DC00C7AE204603F086FEC2E622682046B2F877
:1009EC00403023F004031B041B0CA2F84030B2F877
:1009FC00403023F008031B041B0CA2F8403003F01A
:100A0C0081FE2068B0F8443023F480531B041B0C87
:100A1C00A0F844309FE622682046B2F8443023F414
:100A2C0080631B041B0CA2F8443003F049FE94F8BD
:100A3C002834012B3FF46CAE0025012384F824509C
:100A4C0084F828342946206801F074FC84F8285472
:100A5C005EE609EA03031380B2F8500094F82850BC
:100A6C00E36B00EBC50002EB4002D2F804242046F5
:100A7C00C2F309021344E363626403F015FE94F8B5
:100A8C00243093B1236C2268002B7FF48CAE94F845
:100A9C00241041F08001A2F84C1084F8243082E636
:100AAC0096F828102046FFF70DFE22687BE697F893
:100ABC00283004EB451532F82300DB0010F0400F12
:100ACC00B2F8500003444ED1063351F81330C3F33F
:100ADC0009036B64002B40F0988040F60F73A0194B
:100AEC0090F8280032F820502B4043F4404343F058
:100AFC00800322F82030DDE6B2F8503094F828124A
:100B0C00104603EBC10302EB4302D2F80C3404F29F
:100B1C002C41C3F30903B4F82C22C4F8443201F07D
:100B2C0027FC40F68F732268204611880B401380F7
:100B3C0003F0ACFD226836E6B2F8503098F8281273
:100B4C0003EBC103063350F81370C7F30907002FEA
:100B5C003FF4FBAE10463B46B8F82C22D8F83C12BA
:100B6C0001F006FCF1E6023351F81330C3F309032C
:100B7C006B64002BB1D01046F96BFA8D01F0EAFBD7
:100B8C00226802F58061A8E71046F96BBA8D01F076
:100B9C00E1FB226802F580618CE696F82812EBE600
:100BAC00063350F81370C7F30907002F3FF4C4AE97
:100BBC003B461046B8F83022D8F83C1201F0D8FB6E
:100BCC0098F82832216801EB8301B5E6C0F34F0198
:100BDC00C00744BF013189B2890289B245F81310AC
:100BEC0032E62046FFF74EFD226841E61046D4F867
:100BFC003C12B4F82C2201F0BBFBD4F83C32D4F8F4
:100C0C0044221344C4F83C3202E61046F96B3A8E87
:100C1C0001F0A0FB226802F580615EE710463B46BE
:100C2C00B8F82E22C8E700BF0F8FFFFF8FBFFFFF62
:100C3C000080FFFF012238B54BB2002B01F07F057D
:100C4C00B5BF00EB451100EB4111283101F50A71DC
:100C5C00DB0F4B700D708A7090F82834934213D0D0
:100C6C00044680F82824006801F0EAFA1DB100203F
:100C7C0084F8280438BD04F22C41206801F068FB8C
:100C8C00002084F82804F5E7022038BD38B500258B
:100C9C004BB2002B01F07F02B5BF00EB421100EB11
:100CAC004111283101F50A71DB0F4B700A708D7000
:100CBC0090F82834012B0AD00123044680F82834FC
:100CCC00006801F0EFFA84F82854284638BD022059
:100CDC0038BD00BF11F0800F0DD001F07F0100EB8B
:100CEC004110283099B26AB101221B0C0381C180DA
:100CFC0082720020704700EB411000F50A7099B227
:100D0C00002AF1D182728180002070472DE9F041D8
:100D1C00036882B0DD07044630D5AB494A6802F05F
:100D2C000C02042A00F0DA804A6802F00C02082A4D
:100D3C0000F0D0806368B3F5803F00F00F81002B8A
:100D4C0000F02781B3F5A02F00F0B5819E4B1A68F7
:100D5C0022F480321A601A6822F480221A60FFF79B
:100D6C0037FA994D064605E0FFF732FA801B6428E6
:100D7C0000F20B812B689A03F6D523689F0728D5C0
:100D8C00914A516811F00C0F00F0B680516801F0D7
:100D9C000C01082900F0AC802369002B00F0418184
:100DAC0001228A4B884D1A60FFF712FA064605E0BD
:100DBC00FFF70EFA801B022800F2E7802B689807D9
:100DCC00F6D52B68626923F0F80343EAC2032B6063
:100DDC0023681A0722D5A369002B00F09880012202
:100DEC007B4B794D1A60FFF7F3F9064605E0FFF7E8
:100DFC00EFF9801B022800F2C8806B6A9B07F6D5BE
:100E0C00744B754A1B68A2FB03235B0A019300BF5A
:100E1C00019B5A1E0192002BF9D123685D0739D52D
:100E2C00694BDA69D00040F1828000256B4B1A685F
:100E3C00D10540F19980E368012B0FD0002B00F015
:100E4C00D180052B604B1A6A00F0FC8022F0010265
:100E5C001A621A6A22F004021A6204E05A4A136AED
:100E6C0043F001031362FFF7B3F9574E804641F28A
:100E7C00883706E0FFF7ACF9A0EB0800B84200F2A7
:100E8C008480336A9B07F5D525B14F4AD36923F08B
:100E9C008053D361E269CAB14B4D696801F00C0112
:100EAC00082930D0022A4FF000014D4A00F0D280C0
:100EBC001160FFF78DF92C46054604E0FFF788F921
:100ECC00401B022861D823689B01F7D4002002B094
:100EDC00BDE8F0814A68D0037FF52CAF3A4A12681E
:100EEC0091037FF54BAF6268002A7FF447AF0AE0AD
:100EFC005268D6033FF550AF334A1268950721D597
:100F0C002269012A1ED0012002B0BDE8F081304ACE
:100F1C002D4D1360FFF75CF9064604E0FFF758F916
:100F2C00801B022831D86B6A9F07F7D475E7DA6902
:100F3C00012542F08052DA61DB6903F080530093A3
:100F4C00009B73E7204960690A6822F0F80242EAC4
:100F5C00C0020A601A077FF561AF3CE71A4A1368B2
:100F6C0043F480331360FAE61A681E4642F480722A
:100F7C001A60FFF72DF907463368DA053FF55BAFCA
:100F8C00FFF726F9C01B6428F6D9032002B0BDE890
:100F9C00F08103F1804303F504331A681D4622F4F3
:100FAC0080321A601A6822F480221A60FFF710F956
:100FBC00064604E0FFF70CF9801B6428E5D82B6883
:100FCC009B03F7D4D9E600BF001002400000424258
:100FDC00800442421C010020D34D6210007000407E
:100FEC006000424203F1804303F504331A6A1E4643
:100FFC0022F001021A621A6A41F2883822F00402C5
:10100C001A62FFF7E5F8074604E0FFF7E1F8C01BAA
:10101C004045BAD8336A9807F7D4002D3FF43AAF5D
:10102C0033E72B4A2B4D1360FFF7D2F8064604E04A
:10103C00FFF7CEF8801B0228A7D82B689907F7D4A6
:10104C002368C6E642F004021A621A6A42F00102F0
:10105C001A6208E71160FFF7BBF8064604E0FFF7D9
:10106C00B7F8801B022890D82B689901F7D4226A14
:10107C00B2F5803F05D16B68A16823F400330B43B4
:10108C006B600125134B606A5968024321F474119B
:10109C0011480A435A6005601C46FFF799F805464B
:1010AC0005E0FFF795F8401B02283FF66EAF23686A
:1010BC009A01F6D50AE703F18043A3F53C331A688D
:1010CC0042F480221A601A6842F480321A6046E6B2
:1010DC0000004242001002406000424240F20122F5
:1010EC0086B0154B0DF1180CADF804200FCB0CE9A4
:1010FC000F0012494B6803F00C02082A02D010486A
:10110C0006B07047C3F383426244DB0312F8102C21
:10111C0004D40C4800FB02F006B070474B6808483A
:10112C00C3F3404300FB02F0634413F8143CB0FBE0
:10113C00F3F006B0704700BFE04D0008001002400D
:10114C0000127A0000093D00544A136803F00703AB
:10115C008B420BD2136823F007030B431360136805
:10116C0003F007038B4201D00120704703682DE97F
:10117C00F0419D0714D55C0704D5494C626842F4D4
:10118C00E06262601A0704D5454C626842F4605212
:10119C006260434C8568626822F0F0022A43626008
:1011AC00DF0704460E4622D542683D4B012A1B68D8
:1011BC006FD0022A6AD0990729D5394D41F2883867
:1011CC006B6823F0030313436B60FFF701F863684C
:1011DC000746012B49D0022B05D151E0FEF7F8FF51
:1011EC00C01B404558D86B6813F00C0FF6D12B4A36
:1011FC00136803F00703B3420CD9136823F00703F9
:10120C0033431360136803F00703B34202D0012089
:10121C00BDE8F08123685A0706D52149E0684A6881
:10122C0022F4E06202434A601B0707D51C4A21697D
:10123C00536823F4605343EAC1035360FFF74EFF36
:10124C00174B18495B68184AC3F30313CB5C20FA9D
:10125C0003F300201360FEF77BFF0020BDE8F08154
:10126C00FEF7B6FFC01B404516D86B6803F00C03A5
:10127C00042BF5D1BBE7FEF7ABFFC01B40450BD8E9
:10128C006B6803F00C03082BF5D1B0E7980194D4EC
:10129C00BDE79D0391D4BAE70320B9E700200240D3
:1012AC0000100240004E00081C0100202DE9F04106
:1012BC000446006882B0C5072AD53A4BDA69D100DA
:1012CC003DD5394B00251A68D20546D5354960689D
:1012DC000A6A12F440720FD000F4407393420BD0A0
:1012EC00012700260B6A314A23F440701760166000
:1012FC000862D80745D460682A4A136A23F44073FD
:10130C00034313621DB1D36923F08053D36120686A
:10131C00830706D5234AA168536823F440430B4343
:10132C00536010F0100007D000201E4AE16853688B
:10133C0023F480030B43536002B0BDE8F081DA69FB
:10134C00012542F08052DA61DB6903F0805301938E
:10135C00019B154B1A68D205B8D41A681E4642F484
:10136C0080721A60FEF734FF07463368DB05ADD494
:10137C00FEF72EFFC01B6428F7D9032002B0BDE88E
:10138C00F0810E46FEF724FF41F288378046336A1F
:10139C009A07B0D4FEF71CFFA0EB0800B842F6D9B0
:1013AC00EBE700BF001002400070004040044242D6
:1013BC002DE9F04180460F4616461D46D8F80040F0
:1013CC0001E06B1C0AD1A06837EA00030CBF0120B6
:1013DC0000208642F5D10020BDE8F0813DB1FEF73A
:1013EC00F7FE069BC01AA842E8D3D8F80040636801
:1013FC00D8F8042023F0E003B2F5827F636015D0A7
:10140C00D8F82830B3F5005F08D14DF6FF72236889
:10141C0013402360236843F400532360012200230C
:10142C0088F8512088F850300320D5E7D8F80830D8
:10143C00B3F5004F02D0B3F5806FE1D1236823F0F0
:10144C0040032360DCE700BF2DE9F0430446012094
:10145C0085B084F85000164699460F460C9DFEF751
:10146C00B7FE94F851308046DBB2012B626811D084
:10147C00B2F5827F09D002200122002384F851208A
:10148C0084F8503005B0BDE8F083A1680029F2D192
:10149C00042BF0D1002F60D0002E5ED0B9F1000FDC
:1014AC005BD094F851302168012B04BF052384F8DC
:1014BC00513000236365A4F83E90A4F83690086878
:1014CC00A6634006A4F83C902763A4F83490C4E9C2
:1014DC00103344D5E368B3F5006F45D0002A71D1C1
:1014EC0017F8013B0B73E38E013B9BB2E3864FF085
:1014FC000109E38E9BB21BB9E38F9BB2002B41D049
:10150C00B9F1000F0FD0E38E9BB263B123689A68D8
:10151C00910708D54FF000093A7801371A73E38E1A
:10152C00013B9BB2E386E38F9BB263B123689A685D
:10153C00D20708D54FF00109DB683370E38F4E44B6
:10154C00013B9BB2E3876B1CD3D0FEF741FEA0EBB3
:10155C0008008542CDD803208EE701208CE70B686C
:10156C0043F040030B60B5E7002A5CD0E38E9BB2DE
:10157C00012B58D04FF00109E38E9BB23BBBE38F9C
:10158C009BB223BBCDF800802B46012202212046C2
:10159C00FFF70EFF0028DED10246CDF800802B4667
:1015AC0080212046FFF704FF002844D1A368002BBC
:1015BC007FF462AF23680390DA6803929B6803930D
:1015CC00039B59E7E38E9BB2012B90D188E7B9F1CD
:1015DC00000F0FD0E38E9BB263B123689A6891071A
:1015EC0008D54FF0000937F8022BDA60E38E013B87
:1015FC009BB2E386E38F9BB263B123689A68D207F0
:10160C0008D54FF00109DB6826F8023BE38F013B5C
:10161C009BB2E387681CAFD0FEF7DAFDA0EB0800A5
:10162C008542A9D897E737F8023BCB60E38E013BA4
:10163C009BB2E3869EE72022636D01201343636512
:10164C00626519E700283BD0F8B5002390F85110DB
:10165C000446836201F0FF0261B31A46D4E90136F5
:10166C00022700210125E0683343266903436069A2
:10167C003343E66903433343206AA66984F8517007
:10168C000343276806F4007003431343606A3A6807
:10169C00360C06F00406064322F040023A603B602A
:1016AC007E60FB69084623F40063FB61616584F886
:1016BC005150F8BD80F8502002F06CFEA26ACDE7C4
:1016CC000120704710B490F85040012C02D010BC8F
:1016DC00FFF7BABE022010BC704700BF022210B444
:1016EC0001240346016880F83D200A68002022434B
:1016FC000A6083F83D4010BC704700BF03460220CF
:10170C0041F211111A6883F83D00106A084208D1A1
:10171C0040F24441106A084203D1116821F00101E2
:10172C0011600122002083F83D20704703680020DF
:10173C00DA6842F00102DA601A6842F001021A60BB
:10174C00704700BF41F211110368DA6822F0010200
:10175C00DA601A6A0A4208D140F24442196A11420C
:10176C0003D11A6822F001021A600020704700BFF2
:10177C0090F83C30012B67D00222F0B401250368AD
:10178C0080F83D209A680C6822F47F4222F07702A0
:10179C00402C80F83C509A6000F0938018D9702C43
:1017AC007FD02BD9B4F5805F76D0B4F5005F1CD117
:1017BC00D1E90152CC6899682A4342EA042221F407
:1017CC007F410A439A609A6842F480429A600CE026
:1017DC00102C42D02FD9202C38D0302C05D19A681F
:1017EC0022F0700242F037029A600023F0BC012212
:1017FC0080F83C3080F83D2018467047502C33D090
:10180C00602CF2D11C6A4D6824F01004CE681C6266
:10181C0099691A6A21F4704122F0A00242EA051279
:10182C0041EA063199611A629A6822F0700242F01C
:10183C0067029A60D9E7002CD7D19A6822F070021F
:10184C0042F007029A60D0E7022070479A6822F0B3
:10185C00700242F027029A60C7E79A6822F0700281
:10186C0042F017029A60C0E71D6A1E6A4C6826F0A7
:10187C000106CF681E629A6925F00A0122F0F00277
:10188C0042EA071221439A6119629A6822F07002A7
:10189C0042F057029A60A8E79A6822F007029A6011
:1018AC00A3E7D1E90152CC6899682A4342EA0422A1
:1018BC0021F47F410A439A609A6842F077029A6059
:1018CC0093E71D6A1E6A4C6826F00106CF681E62FB
:1018DC009A6925F00A0122F0F00242EA071221432C
:1018EC009A6119629A6822F0700242F047029A607B
:1018FC007BE700BF704700BF704700BF704700BF59
:10190C00704700BF036810B51A690446910702D5E9
:10191C00DA6892075FD41A69500702D5DA68510762
:10192C0046D41A69120702D5DA6810072ED41A6940
:10193C00D20602D5DA68D00618D41A69D10702D5B6
:10194C00DA68D2075DD41A69100602D5DA68110676
:10195C005FD41A69520602D5DA68500661D41A6946
:10196C00910602D5DA68920643D410BD6FF01001CF
:10197C0008221961DB69204613F4407F227764D07A
:10198C00FFF7BAFF002223682277D6E76FF0080131
:10199C0004221961DB6920469907227752D1FFF79F
:1019AC00A9FF2046FFF7AAFF002223682277BEE793
:1019BC006FF00401022219619B69204613F4407FE9
:1019CC0022773CD1FFF796FF2046FFF797FF0022C6
:1019DC0023682277A5E76FF00201012219619B6948
:1019EC0002779B0725D0FFF787FF00222368227719
:1019FC0091E76FF020022046BDE810401A6100F01C
:101A0C00A9B86FF0010220461A6102F091FC23681C
:101A1C0099E76FF0800220461A6100F09DF8236868
:101A2C0097E76FF0400220461A61FFF769FF2368C1
:101A3C0095E7FFF75FFF2046FFF760FFD5E7FFF75D
:101A4C005BFFC4E7FFF758FFAEE7FFF753FF2046F5
:101A5C00FFF754FF96E700BF70B41C4E0368B0420A
:101A6C004D698C680A681DD0B0F1804F11D0A6F575
:101A7C009436B0420DD006F58066B04209D023F002
:101A8C0080032B4303600123C462826270BC4361F8
:101A9C0070474E6823F070033343C96823F44073D6
:101AAC000B43ECE74E6823F070033343CE6823F40A
:101ABC004073334323F080032B430360C462826280
:101ACC000B6970BC0363012343617047002C014018
:101ADC00B8B190F83D3010B503F0FF0204465BB18D
:101AEC000223206884F83D30211DFFF7B5FF012348
:101AFC00002084F83D3010BD80F83C2002F084FCBE
:101B0C00EEE70120704700BF90F83C30012B1ED04F
:101B1C0002460220F0B400250126136882F83D002D
:101B2C005C680F6824F070045C6058684C6838433B
:101B3C005860986820F08000986099682846214386
:101B4C00996082F83D6082F83C50F0BC70470220EE
:101B5C00704700BF704700BF704700BF84B001A83A
:101B6C0080E80E0004B00020704700BF0246B0F8B9
:101B7C004030002043F43F43A2F84030704700BF90
:101B8C0044F2FF230246B0F8401000200B40A2F8AC
:101B9C00403070470020704784B070B40446012573
:101BAC000020A4F84050A4F84000A4F84400A4F885
:101BBC005000B4F8406004AD46F43F46A4F84060D1
:101BCC0085E80E0070BC04B0704700BF70B40B7891
:101BDC00CA7800EB8304032A10D8DFE812F0040063
:101BEC00290135011D0130F82340AA4A224042F454
:101BFC00007220F823200B7800EB830440F60F755D
:101C0C00228800F580662A40134343F4004343F0D6
:101C1C00800323808B7A6BBB8A880B784C785208B4
:101C2C005200DB00002C00F0BC80B0F85040234484
:101C3C0046F813200C7830F8243000EB84025E0652
:101C4C000BD530F824301D4045F4004545F0C00557
:101C5C0020F824500A7800EB820211888E4B002069
:101C6C0070BC0B4083F0200343F4004343F080032B
:101C7C001380704740F60F630A7830F822402340F7
:101C8C0043F4014343F0800320F82230CB88B0F8B2
:101C9C0050200C785B0802EBC4025B0046F8123053
:101CAC00B0F850300A890C780433520803EBC403A3
:101CBC00520046F813200A784B7830F82240002B5B
:101CCC003ED1660400EB82030BD530F822301D4068
:101CDC0045F4404545F0800520F822500B7800EB88
:101CEC0083031A8855060BD540F60F721C882240C8
:101CFC0042F4004242F0C0021A800B7800EB8303DE
:101D0C0040F60F7248F280041D882A4042F40042CB
:101D1C0042F0C0021A800A78604B30F822502B40F7
:101D2C0083F44053234320F822300A785A4B30F87E
:101D3C0022100B401C4320F82240002070BC70473E
:101D4C00640400EB82030BD530F822301D4045F4BF
:101D5C00404545F0800520F822500B7800EB8303BA
:101D6C001A8852067AD440F60F7248F280041D8805
:101D7C002A4042F4404242F080021A800A78464BD4
:101D8C0030F822502B40234320F822300A78434B62
:101D9C0030F822100B401C4320F82240002070BC6D
:101DAC007047B0F85050B0F850402B44043346F80C
:101DBC0013200A690D78A31D3E2A03EBC5035AD8DC
:101DCC00C2F34F04D20744BF0134A4B2A402A4B29C
:101DDC0046F813400C7830F8243000EB84025B0496
:101DEC000DD540F60F7330F82420134043F44043D4
:101DFC0043F0800320F824300A7800EB820211882B
:101E0C00264B002070BC0B4083F4405343F400433A
:101E1C0043F080031380704730F823401D4A224062
:101E2C0042F4C06220F823200B7800EB8304E5E633
:101E3C0030F82340174A224042F4806220F82320D5
:101E4C000B7800EB8304D9E630F82340114A22408A
:101E5C0020F823200B7800EB8304CFE640F60F72BA
:101E6C001C88224042F4004242F0C0021A800B78D7
:101E7C0000EB830377E7C2F34F14D50604BF04F1DC
:101E8C00FF3294B2064A42EA842292B246F81320F8
:101E9C00A0E700BF8F89FFFFBF8FFFFF8FBFFFFF42
:101EAC000080FFFF30B40A788D7A00EB82034C7807
:101EBC000DBB002C00F0938030F8224064060DD549
:101ECC0040F60F7330F82240234043F4004343F0B4
:101EDC00C00320F822300B7800EB83031A88002013
:101EEC0030BC22F0C0021205120D42F4004242F046
:101EFC0080021A807047002C3ED130F822406404D6
:101F0C000DD540F60F7330F82240234043F4404384
:101F1C0043F0800320F822300B7800EB83031A88FF
:101F2C0055060BD540F60F721C88224042F4004235
:101F3C0042F0C0021A800B7800EB830340F60F725C
:101F4C0048F280041D882A4042F4004242F0C0024C
:101F5C001A800A78384B30F822502B40234320F853
:101F6C0022300A78354B30F822100B401C4320F8F5
:101F7C002240002030BC704730F8224064040DD55C
:101F8C0040F60F7330F82240234043F4404343F0B3
:101F9C00800320F822300B7800EB83031A8852065A
:101FAC003CD440F60F7248F280041D882A4042F45B
:101FBC00404242F080021A800A78204B30F82250BE
:101FCC002B40234320F822300A781B4B30F8221088
:101FDC000B401C4320F82240002030BC704730F8E6
:101FEC00224065040DD540F60F7330F82240234093
:101FFC0043F4404343F0800320F822300B7800EB8D
:10200C0083031A88002030BC22F0F0029204920C58
:10201C0042F4004242F080021A80704740F60F7280
:10202C001C88224042F4004242F0C0021A800B7815
:10203C0000EB8303B5E700BF8FBFFFFFBF8FFFFF30
:10204C00F0B44C788B69012C0D695CD0AB422CD868
:10205C0000221D468B7A8A610A7863BBB0F8503037
:10206C003E2D03F1060300F5806403EBC2027CD91C
:10207C00C5F34F16EF0604BF06F1FF339EB26D4B4E
:10208C0043EA86239BB244F812300A7830F82210C7
:10209C00694BF0BC0B4083F4405343F4004343F0D2
:1020AC00800320F82230002070475B1B8B618B7AF9
:1020BC000A78002BD2D0002CE8D1B0F850303E2D4D
:1020CC0003F1020300F5806403EBC20240F2968038
:1020DC00C5F34F16EF0604BF06F1FF339EB2554B06
:1020EC0043EA86239BB244F812304E78002E40F01F
:1020FC009380B0F850200D78063202EBC50244F8FC
:10210C0012300A78C2E7AB422CD800221D468A61F5
:10211C00ABB28C7A01335B104E6900F5806284BBE4
:10212C008C8802EB44042BB136F8027B013B24F87B
:10213C00047BF9D1B0F850300C78023303EBC403B4
:10214C0042F813500A7800EB820211883B4B0020B6
:10215C00F0BC0B4083F0300343F4004343F08003A6
:10216C00138070475B1B8B61D2E7C5F34F03ED0700
:10217C0044BF01339BB29B029BB244F812300A78E5
:10218C0084E70C7830F82470B0F850C07F064FEA22
:10219C00C4044CBF0F89CF886444023442F81450F5
:1021AC0002EB47022BB136F8024B013B22F8044BF1
:1021BC00F9D10C784B7800EB840273B940F60F73AD
:1021CC0030F82420134043F4004343F0C00320F8BC
:1021DC0024300A7800EB8202B7E7012BB5D140F628
:1021EC000F7330F82420134043F4404343F0800332
:1021FC0020F824300A7800EB8202A6E7C5F34F03DF
:10220C00EE0744BF01339BB29B029BB244F81230E1
:10221C004E78002E3FF46DAF012E0A787FF436AF66
:10222C00B0F85030023303EBC20244F812500A7873
:10223C002CE700BF0080FFFF8FBFFFFFBF8FFFFFAA
:10224C000B78DBB14A7830F823105AB9124A0A409D
:10225C0082F4805242F4004242F0800220F82320A3
:10226C00002070470D4A0A4082F0100242F40042EE
:10227C0042F0800220F82320002070470288084B8F
:10228C00134083F4805383F0100343F4004343F072
:10229C0080030380002070478FBFFFFFBF8FFFFFBD
:1022AC00BFBFFFFF10B40B784C7800EB8302F4B186
:1022BC0030F8234064060DD540F60F7230F82340F9
:1022CC00224042F4004242F0C00220F823200A7857
:1022DC0000EB82021188154B00200B4083F0300379
:1022EC0043F4004343F08003138010BC704730F874
:1022FC00234064040DD540F60F7230F82340224081
:10230C0042F4404242F0800220F823200A7800EB8D
:10231C0082021188064B00200B4083F4405343F497
:10232C00004343F08003138010BC7047BF8FFFFF46
:10233C008FBFFFFF11B98023A0F84C3000207047ED
:10234C000020704700207047B0F84400704700BF71
:10235C0000207047013300F580605B1000EB4202F7
:10236C0005D031F8020B013B22F8040BF9D1704770
:10237C00013300F580605B1000EB420206D0106860
:10238C00013B02F1040221F8020BF8D1704700BFA7
:10239C00D0F818321BB10020C3F814027047022089
:1023AC00704700BFD0F81C3283B110B5D0F818427A
:1023BC0094F80002FF2807D09B6894F8012221466C
:1023CC009847FF2384F80032002010BD002070478E
:1023DC0043230380004870470800002043230380F8
:1023EC00004870474C00002043230380004870478E
:1023FC00900000200A23038000487047D40000207E
:10240C0038B50446D0F8185202F044FAD4F8183211
:10241C00C5F80C024BB1D4F81C3205F50371DB681E
:10242C00D5F804029847002038BD022038BD00BF03
:10243C00F8B50B780C4613F060020CD0202A08D1AA
:10244C00CA8805464E787AB9D0F81C3230469B685B
:10245C0098470020F8BD4B780A2BFAD101220E497F
:10246C0000F00AFC0020F8BD1B06D0F818720BD542
:10247C00D0F81C32394630469B689847E28839467A
:10248C00284600F0F9FBE4E787F8006287F80122A0
:10249C00394600F007FCDCE76C03002010B504465D
:1024AC00812102F093F90121204602F08FF9204698
:1024BC00822102F08BF9D4F8183253B1D4F81C32C3
:1024CC005B689847D4F8180202F0EEF90023C4F8C0
:1024DC001832002010BD00BFF8B5037C044673BB56
:1024EC004FF400730222812102F060F94FF4007363
:1024FC0002220121204602F059F9082303228221ED
:10250C00204602F053F94FF4077002F0C9F9054662
:10251C00C4F8180230B30026D4F81C321B68984754
:10252C00277CD5F80422C5F814622046C5F8186239
:10253C008FB14023012102F09FF93046F8BD4023B2
:10254C000222812102F032F940230222012120468D
:10255C0002F02CF9D1E74FF40073012102F08CF951
:10256C003846F8BD0120F8BD19B1C0F81C12002086
:10257C0070470220704700BFD0F818320020C3F813
:10258C000812C3F810227047D0F818320020C3F894
:10259C0004127047D0F818228AB110B5D2F8144240
:1025AC000CB1012010BD0121B2F81032C2F8141286
:1025BC00D2F80822812102F051F9204610BD0220E8
:1025CC00704700BFD0F818228AB110B5047CD2F83D
:1025DC0004222CB14023012102F04EF9002010BD41
:1025EC004FF40073012102F047F9204610BD022080
:1025FC00704700BF88B108B5D0F8143213B100236E
:10260C00C0F8143209B1C0F810120123027080F81E
:10261C00FC3102F07BF8002008BD0220704700BF9F
:10262C0019B1C0F81412002070470220704700BF87
:10263C0008B502F0ADF8002008BD00BF08B5D0F811
:10264C0014321BB11B68984700B908BD022008BDA5
:10265C0008B5D0F814325B689847002008BD00BF5D
:10266C0038B5044600F50275284600F0C9FA012079
:10267C0094F80812B4F80E2201F01F038342C4F838
:10268C00F401C4F8F82115D00ED3022B06D001F0BA
:10269C008001204602F0A8F8002038BD29462046CB
:1026AC0000F048FA002038BD2946204600F0D8F842
:1026BC00002038BD2946204600F01CFA002038BD09
:1026CC0010B5044631B91346D0F8F421032A0DD0C5
:1026DC00002010BDD0F814329B69002BF8D090F874
:1026EC00FC21032AF4D19847002010BDD0F80C111E
:1026FC00D0F8102191420DD8D0F814321B6923B1B7
:10270C0090F8FC21032A00D19847204600F0E2FA09
:10271C00002010BD891A8A4228BF0A46C0F80C1145
:10272C0092B2194600F0CEFAD2E700BF70B504465B
:10273C0051B91346D0F8F421022A16D094F800327D
:10274C00012B0DD0002070BDD0F814325B69002B2A
:10275C00F8D090F8FC21032AF4D19847002070BDE2
:10276C00002384F80032002070BDD0E90762964245
:10277C0019D88369B3FBF2F502FB15350DB99A42F2
:10278C001FD9D4F81432DB682BB194F8FC21032A3E
:10279C0001D120469847204600F0A8FA94F8003260
:1027AC00012BCFD1DCE7B21A0D46C261194692B2A9
:1027BC0000F070FA2B462A462946204602F05CF8B7
:1027CC00BCE7D0F8F8219342DBD22A4600F062FA3B
:1027DC00C4F8F851EEE700BF38B500224025044696
:1027EC0011462B4601F0E2FF2B460022C4F8105193
:1027FC002046802101F0DAFF0122D4F8183225623C
:10280C0084F8FC212BB1D4F8143221795B68204672
:10281C009847002038BD00BF01740020704700BFEE
:10282C000346042290F8FC11002083F8FD1183F874
:10283C00FC217047034690F8FD21002083F8FC2111
:10284C00704700BF90F8FC21032A01D0002070478C
:10285C0008B5D0F81432DB6903B19847002008BDE5
:10286C0030B54B7883B00D460446092B0BD8DFE806
:10287C0003F032450A580A05650A7B158B8813B993
:10288C00CB88002B7DD08021204601F0ADFF204667
:10289C00002101F0A9FF002003B030BD8978944DD0
:1028AC0001292970EFD890F8FC31022B00F08080C0
:1028BC00032BE8D1002900F01181416801292CD0AB
:1028CC00C9B2FFF7C5FE297820466160FFF7B6FE56
:1028DC00022822D1D7E7012290F8FC310321023BD8
:1028EC009342D0D8D0F80432C26003B1C160022246
:1028FC0004F10C01204600F0BFF9CCE790F8FC3154
:10290C00023B012BBFD84B88012BC4D10022D0F83D
:10291C001432C0F804229B689847204600F0DAF97C
:10292C00B9E74B88012BB6D1D0F81422C0F8043289
:10293C0093689847204600F0CDF9ACE74A88130A13
:10294C00013B062B9FD801A151F823F0632A000804
:10295C004B2A0008392A00089328000893280008FD
:10296C00232A0008E3290008CA88012A8BD190F891
:10297C00FC31022B28D0032B85D1011D00F07CF9F2
:10298C0089E790F8FC31032B3FF47DAF8D7805F08F
:10299C007F0580F8FE51294601F052FF204600F0D9
:1029AC0099F9002D00F08F80022384F8FC3172E736
:1029BC000029B2D001210323416080F8FC31FFF7DC
:1029CC003DFE0228A9D15EE70023014641F8083FED
:1029DC0000F052F95FE7037C002B7FF454AFD0F882
:1029EC0014320DF106001B6B984707234370BDF89A
:1029FC000630002B3FF44FAFEA88002A3FF44BAF70
:102A0C00934228BF134601461A462046ADF80630BD
:102A1C0000F032F93FE7037C002B7FF434AFD0F8A1
:102A2C0014320DF106005B6B9847E0E7D2B2052A31
:102A3C003FF629AFDFE802F03F372F271F17027C44
:102A4C00D0F81432002A42D19B6A0DF10600984747
:102A5C0002234370CBE7D0F810320DF106011B684E
:102A6C00007C9847C3E7D0F810320DF106019B6942
:102A7C00007C9847BBE7D0F810320DF106015B697A
:102A8C00007C9847B3E7D0F810320DF106011B69B2
:102A9C00007C9847ABE7D0F810320DF10601DB68EB
:102AAC00007C9847A3E7D0F810320DF106019B6823
:102ABC00007C98479BE7D0F810320DF106015B685B
:102ACC00007C984793E7012384F8FC31E3E6DB6A4A
:102ADC000DF1060098470223437088E702234160FA
:102AEC0080F8FC31FFF7B4FD204600F0F3F8D2E695
:102AFC006D03002038B590F8FC310446032B0BD144
:102B0C000B790D46012B07D8D0F814329B689847E7
:102B1C00EB8853B1002038BD802101F065FE2046C2
:102B2C00002101F061FE002038BD204600F0D2F8F3
:102B3C00002038BD38B50B78054603F06003202B18
:102B4C0005D1D0F814329B689847002038BD4B78DB
:102B5C008A88012B0C46D1B230D014D3032BF4D17C
:102B6C0090F8FC31022B2DD0032B3BD163881BB981
:102B7C004A0601D001F038FED5F8143221469B6884
:102B8C00284698472AE090F8FC31022B1AD0032BE8
:102B9C0028D101F07F03120600EB03134CBF03F1A5
:102BAC00140403F5827401F03BFE20B3012323606F
:102BBC0021462846022200F05FF8C6E790F8FC3167
:102BCC00022B04D14C06C0D001F00EFEBDE7032B46
:102BDC0008D16388002BB8D14B060ED1284600F0E3
:102BEC0079F8B2E78021284601F0FEFD2846002145
:102BFC0001F0FAFDA9E72060DAE701F003FEBBE77C
:102C0C000B7803704B784370CA788B7803EB0223F4
:102C1C0043804A790B7903EB02238380CA798B7941
:102C2C0003EB0223C380704708B3037830B4FBB1C5
:102C3C000446002314F8015F0133DBB2002DF9D1F7
:102C4C005B000233DCB2032513800C704D700478EA
:102C5C005CB1022300255A1CD2B2CC548D5410F80E
:102C6C00014F0233DBB2002CF5D130BC70477047FA
:102C7C0002242346E7E700BF38B5134602250A466F
:102C8C00C0E90633C0F8F451002101F0E7FD002043
:102C9C0038BD00BF08B513460A46002101F0DEFD21
:102CAC00002008BD38B5134603250A46C0F8083184
:102CBC00C0F80C31C0F8F451002101F0DDFD00200A
:102CCC0038BD00BF08B513460A46002101F0D4FDFB
:102CDC00002008BD08B504220023C0F8F4211946D1
:102CEC001A4601F0BBFD002008BD00BF08B5052247
:102CFC000023C0F8F42119461A4601F0BDFD00204E
:102D0C0008BD00BF30B54FF47A7100254FF6FF7344
:102D1C000D4C0E4A87B02046C4E90021C4E9025389
:102D2C002561A561FEF7D4FE4FF4805306A941F846
:102D3C00103D2046FEF71CFD20466946CDE90055A6
:102D4C00FEF7E2FE07B030BD700300200004004027
:102D5C002DE9F8430F1E16DD4FF000080125C14682
:102D6C000A4C0B4E2F44C4F824903046FEF7B6FCA8
:102D7C00636A002BFCD001353046FEF7BFFCBD4228
:102D8C00C4F82480EFD1BDE8F88300BF00040040F4
:102D9C007003002002382C2800F2FB80DFE810F0D2
:102DAC00F300ED00E700E200DD00F900F900F900A6
:102DBC00D800D300CE00C900C400BF00BA00B500D3
:102DCC00B000AB00A600A0009A00F900F900940036
:102DDC008E00880082007C00760070006A0064001F
:102DEC005E00F900F900580052004D004800430005
:102DFC003E003900F90033002D000A4665484FF4B7
:102E0C000071FDF759BB0A4662484FF48071FDF71B
:102E1C0053BB0A465F488021FDF74EBB0A465D480E
:102E2C004021FDF749BB0A465A482021FDF744BB17
:102E3C000A4658481021FDF73FBB0A465548082161
:102E4C00FDF73ABB0A4654484FF40041FDF734BB3A
:102E5C000A4651484FF48041FDF72EBB0A464E48B6
:102E6C004FF40051FDF728BB0A464B484FF48051F4
:102E7C00FDF722BB0A4648484FF40061FDF71CBB26
:102E8C000A4645484FF48061FDF716BB0A46424896
:102E9C004FF40071FDF710BB0A463F484FF48071A8
:102EAC00FDF70ABB0A463B484FF40041FDF704BB53
:102EBC000A4638484FF48041FDF7FEBA0A463548B9
:102ECC004FF40051FDF7F8BA0A4632484FF48051DE
:102EDC00FDF7F2BA0A462F484FF40061FDF7ECBA41
:102EEC000A462C484FF48061FDF7E6BA0A46294899
:102EFC000421FDF7E1BA0A4626480221FDF7DCBAA7
:102F0C000A4624480121FDF7D7BA0A4622488021F7
:102F1C00FDF7D2BA0A4620484021FDF7CDBA0A4641
:102F2C001D482021FDF7C8BA0A461B481021FDF7A1
:102F3C00C3BA0A4618480821FDF7BEBA0A46164815
:102F4C000421FDF7B9BA0A4613480221FDF7B4BAB9
:102F5C000A4611480121FDF7AFBA0A460F48022173
:102F6C00FDF7AABA0A460D480121FDF7A5BA0A4693
:102F7C000B484FF40041FDF79FBA0A4608484FF43E
:102F8C008041FDF799BA0A4605484FF40051FDF708
:102F9C0093BA7047000C0140000801400014014036
:102FAC00001001402DE9F04391461D46064664276A
:102FBC0085B000790C460021FFF7ECFE65F0570553
:102FCC00B9F1200FD6F8AC000DF10F0200974FF0BD
:102FDC0001030DF10D01C8468DF80D5028BF4FF0BF
:102FEC002008FEF76FFBB9F1000F10D0A04414F8C5
:102FFC00015BD6F8AC00012300970DF10F020DF127
:10300C000E018DF80E50FEF75DFB4445EFD1307983
:10301C000121FFF7BFFE05B0BDE8F083F0B5044613
:10302C0064260D46174685B000790021FFF7B2FEE5
:10303C0045F02005D4F8AC000DF10F020DF10E0196
:10304C00009601238DF80E50FEF73CFB04A901F805
:10305C00037DD4F8AC000DF10F0201230096FEF7AE
:10306C0031FB20790121FFF795FE05B0F0BD00BFC3
:10307C0010B50446FF22E121FFF7D0FF2046BDE842
:10308C001040FF22E221FFF7C9BF00BF2DE9F0413C
:10309C0006460D4664271C4684B0007900219046F4
:1030AC0045F02005FFF776FED6F8AC000DF10F02C7
:1030BC00009701230DF10D018DF80D50FEF702FB69
:1030CC00002C11DD08EB840454F8045DD6F8AC0038
:1030DC00012300970DF10F020DF10E018DF80E502A
:1030EC00FEF7F0FAA045EFD130790121FFF752FE3F
:1030FC0004B0BDE8F08100BF38B5044600F1080506
:10310C002A4605231021FFF7C1FF05232A46204636
:10311C000A21FFF7BBFF94F8A42020461121FFF7EA
:10312C007DFFD4F89830D3B1012B19D0022B1FD0CE
:10313C00032B23D0042B07BFA26F0E21D4F89020B1
:10314C000F212046FFF76AFFD4F8981020460C4454
:10315C0094F8A4201131BDE83840FFF75FBF38BDAB
:10316C00052304F120020B212046FFF78FFFEBE72C
:10317C00A26C0C212046FFF751FFE5E7226E0D21D2
:10318C002046FFF74BFFDFE770B5044664250E467B
:10319C0084B000790021FFF7FDFDD4F8AC000DF1EF
:1031AC000F020DF10E01009501238DF80E60FEF754
:1031BC0089FAFF2304A901F8033DD4F8AC000DF102
:1031CC000F0201230095FEF77DFA20799DF80F4040
:1031DC000121FFF7DFFD204604B070BD38B5044671
:1031EC0000210078FFF7D6FD20460021FFF7CCFF29
:1031FC00002140F003022046FFF710FF04F1080500
:10320C00204670220721FFF709FF2A462046052396
:10321C001021FFF73BFF05232A4620460A21FFF722
:10322C0035FF94F8A42020461121FFF7F7FE204625
:10323C00FF22E121FFF7F2FE2046FF22E221FFF7F9
:10324C00EDFE20780121FFF7A5FD2046BDE83840B2
:10325C000121FFF77DBD00BF2DE9F0410C4684B084
:10326C0060210546FFF790FF642706460021287968
:10327C00FFF790FD4FF0610CD5F8AC000DF10F028B
:10328C00009701230DF10D018DF80DC0FEF71AFA10
:10329C00002E15DD4FF0FF08013C2644D5F8AC009C
:1032AC00012300970DF10F020DF10E018DF80E8028
:1032BC00FEF708FA9DF80F3004F8013FB442EDD147
:1032CC0028790121FFF766FD284640220721FFF7E8
:1032DC00A5FE04B0BDE8F0812DE9F04F85B0CDE935
:1032EC000232122383649DF83830002610251127F2
:1032FC0001931323044600F108090366009100F1C1
:10330C00200AC661C0E90255C0E9045585614663CF
:10331C00C0E90955C56207620763C664C0E90E754A
:10332C00C0E910554666C0E91475C0E91655C66764
:10333C00C0E91A75C0E91C551420DFF814C24FF00F
:10334C00010B4FF0FF08A0679CE80300C4F89C0039
:10335C0015200CF1080CA4F8A010C4F89000C4F8C7
:10336C0094609CE80300C4E92075C4F8A400A4F898
:10337C00A810C4E9225584F8A26084F8B16084F8DE
:10338C00B26084F8B36084F8B46084F8B56084F8F3
:10339C00A38084F8B0B0FFF7B5FC029B039A0099A8
:1033AC0063602260D0B2C4F8AC103146FFF7F2FC77
:1033BC0059462079FFF7EEFC20464FF0FF320421EE
:1033CC00FFF72CFE20460621FFF7DEFE062140EA21
:1033DC0001022046FFF722FE20460621FFF7D4FE0D
:1033EC0020F0280242F0080220460621FFF716FEC4
:1033FC00324620461C21FFF711FE20467022072181
:10340C00FFF70CFE31462046FFF7BEFE314640F07A
:10341C0070022046FFF702FE31462046FFF7B4FE4D
:10342C00314640F00C022046FFF7F8FD019A204689
:10343C007D2A28BF7D220521FFF7F0FD94F89E2000
:10344C0094F89D10920042EA410294F89F1094F86F
:10345C00A0C042EA0B0294F8A10042EAC10141EA81
:10346C000C1242EA401284F89CB020460221FFF76D
:10347C00D5FD29464A4620460523FFF707FE4A4656
:10348C00204605230A21FFF701FE394694F8A420B3
:10349C002046FFF7C3FD0523524620460B21FFF7BC
:1034AC00F5FD94F8A52020461221FFF7B7FDA26C7C
:1034BC0020460C21FFF7B2FD94F8A62020461321DC
:1034CC00FFF7ACFD226E20460D21FFF7A7FD94F807
:1034DC00A72020461421FFF7A1FDA26F20460E2144
:1034EC00FFF79CFD94F8A82020461521FFF796FDC8
:1034FC00D4F8902020460F21FFF790FD94F8A920D6
:10350C0020461621FFF78AFD31462078FFF742FC52
:10351C0042462046E121FFF781FD42462046E2214A
:10352C00FFF77CFD20461D21FFF72EFE1D2140F0EC
:10353C0006022046FFF772FD20463F221C21FFF7B2
:10354C006DFD2046FFF74AFE204605B0BDE8F08F22
:10355C00F04D000810B590F8A23004467BB1002362
:10356C0080F8A230FFF7C8FD2046FFF737FE172181
:10357C002046FFF709FEC3070BD5002010BD7022B3
:10358C000721FFF74BFD17212046FFF7FDFDC30771
:10359C00F3D420460721FFF7F7FDC0F342000130BA
:1035AC0010BD00BF0123014410B481F89C3090F889
:1035BC009E3090F89D2090F89C109B0043EA4203AB
:1035CC0090F89F200B4390F8A01043EAC20390F8A8
:1035DC00A12043EA011343EA4212022110BCFFF777
:1035EC001DBD00BF4B1E70B50D460446042B04D800
:1035FC00DFE803F051575D4B6B00002300F1080628
:10360C00C0F8983000212078FFF7C4FB631993F8B9
:10361C009C30ABB30E2200212046FFF7FFFC70223A
:10362C0007212046FFF7FAFC0523324610212046DD
:10363C00FFF72CFD324605230A212046FFF726FD15
:10364C00D4F898301121234493F8A4202046FFF796
:10365C00E5FC012D31D0AB1E032B05D805F10A0179
:10366C00A2692046FFF7DAFC2046FF22E121FFF792
:10367C00D5FC2046BDE87040FF22E221FFF7CEBC0E
:10368C0029462046FFF78EFFC4E7042300F16806A5
:10369C00C0F89830B6E7012300F12006C0F8983046
:1036AC00B0E7022300F13806C0F89830AAE70323EC
:1036BC0000F15006C0F89830A4E7052304F1080285
:1036CC000B212046FFF7E2FCCEE7052300F1800634
:1036DC00C0F8983096E700BF0023014410B481F87D
:1036EC009C3090F89E3090F89D2090F89C109B0098
:1036FC0043EA420390F89F200B4390F8A01043EA52
:10370C00C20390F8A12043EA011343EA42120221BA
:10371C0010BCFFF783BC00BF10B517210446FFF7A0
:10372C0033FDC30701D5002010BD2046BDE8104075
:10373C006021FFF729BD00BF2DE9F041164690F836
:10374C00A220202EB04684B005460C4628BF4FF070
:10375C002008002A4ED090F8A3209A4244D106218A
:10376C002846FFF7F5FA702207212846FFF756FC8A
:10377C00002128796427FFF70DFB4FF0A00CD5F83A
:10378C00AC000DF10F02009701230DF10D018DF826
:10379C000DC0FDF797FF86B1A04414F8016BD5F866
:1037AC00AC00012300970DF10F020DF10E018DF805
:1037BC000E60FDF787FF4445EFD128790121FFF713
:1037CC00E9FA28780121FFF7E5FA28460A21FFF7E4
:1037DC00BFFA00212878FFF7DDFA2846FFF79CFF97
:1037EC00C0B204B0BDE8F08180F8A3301946FFF7F1
:1037FC00F9FEB4E7012280F8A330194680F8A22024
:10380C00FFF7F0FEB4E700BF70B52A4C2A4BB4F8B2
:10381C00406002F00F0242EA01111D78A31983F8EF
:10382C004410731C9BB20246A4F84030D5B120362C
:10383C00B6B2421E5D1C12F8010FE118ABB2B342D6
:10384C0081F84400A4F84030F4D100F0F3FE0546B2
:10385C0000B170BDB4F84010184800F0DDFEA4F8BB
:10386C00405070BD03780C2184F84530537804F136
:10387C00440084F84630937884F84730D37884F841
:10388C004830137984F84930537984F84A30937965
:10389C0084F84B30D37984F84C30137A84F84D305B
:1038AC00537A84F84E30937A84F84F30BDE87040E8
:1038BC0000F0B2BE7003002018010020B4030020F9
:1038CC0038B5684D002228464FF40041664CFCF791
:1038DC00F3FD3220FCF782FC284601224FF4004114
:1038EC00FCF7EAFD204600220821FCF7E5FD32201A
:1038FC00FCF774FC204601220821FCF7DDFD204674
:10390C0000221021FCF7D8FD3220FCF767FC204682
:10391C0001221021FCF7D0FD204600222021FCF7CB
:10392C00CBFD3220FCF75AFC204601222021FCF76B
:10393C00C3FD204600224021FCF7BEFD3220FCF7DF
:10394C004DFC204601224021FCF7B6FD204600220A
:10395C008021FCF7B1FD3220FCF740FC204601220F
:10396C008021FCF7A9FD204600224FF48071FCF762
:10397C00A3FD3220FCF732FC204601224FF480716B
:10398C00FCF79AFD204600224FF40071FCF794FDE1
:10399C003220FCF723FC204601224FF40071FCF787
:1039AC008BFD204600224FF48071FCF785FD322000
:1039BC00FCF714FC204601224FF48071FCF77CFDCF
:1039CC00204600228021FCF777FD3220FCF706FC14
:1039DC00204601228021FCF76FFD20460022402169
:1039EC00FCF76AFD3220FCF7F9FB2046012240214E
:1039FC00FCF762FD204600222021FCF75DFD322001
:103A0C00FCF7ECFB204601222021FCF755FD20465B
:103A1C0000221021FCF750FD3220FCF7DFFB204682
:103A2C0001221021FCF748FD204600220821FCF75A
:103A3C0043FD3220FCF7D2FB204601220821FCF783
:103A4C003BFD284600224FF40041FCF735FD3220A7
:103A5C00FCF7C4FB2846BDE8384001224FF4004176
:103A6C00FCF72ABD00080140000C01400138072872
:103A7C0028D8DFE800F0090E12161A1E22044FF4A3
:103A8C0000711148FCF71CBD4FF400410F48FCF7C6
:103A9C0017BD08210C48FCF713BD10210A48FCF790
:103AAC000FBD20210848FCF70BBD40210648FCF750
:103ABC0007BD80210448FCF703BD4FF48071024818
:103ACC00FCF7FEBC704700BF000C01400008014031
:103ADC0030B5012200244FF4803302254FF4E0115D
:103AEC0095B00AA80A920E920B93129313910C9410
:103AFC00059401940D94CDE90F44CDE90644CDE92C
:103B0C000844CDE9024404941195FDF7FFF80F2207
:103B1C004FF48063294605A80592089306950794EF
:103B2C000994FDF711FB102301A804940193FDF7F0
:103B3C00BDFB15B030BD00BF2DE9F04F0024ADF238
:103B4C00FC5DFCF727FBFFF7C3FFCDE90E44CDE985
:103B5C001044AF4B01269A69022542F020029A616B
:103B6C009A69DFF8D4A202F020020992099A9A69A4
:103B7C00A84F42F004029A619969012201F00401F4
:103B8C000A910A99986948F2155140F00800986119
:103B9C009B69A14803F008030B930B9BFCF78CFC6F
:103BAC00224640F20A219C48FCF786FC22464AF643
:103BBC0001419A48FCF780FC012245F2FA31974802
:103BCC00FCF77AFC48F21F730EA99348CDE90E3628
:103BDC0011951094FCF780FB4FF6FB730EA98F48E0
:103BEC0011950E930A25CDE90F64FCF775FB4FF484
:103BFC0082714FF4007210230AF53170CAF8C812A2
:103C0C00CAF8DC22CAF8E032CAF8C472CAF8F05218
:103C1C00CAF8CC42CAF8D042CAF8D442CAF8D84240
:103C2C00CAF8E442CAF8E842CAF8EC42FDF70AFDC9
:103C3C0000F08EFC4FF080404FF4E152802342F2B2
:103C4C000F714FF48057CAF81C030AF54770CAF875
:103C5C002823CAF83433CAF82013CDE90E44CDE931
:103C6C001044CAF82443CAF82C43CDE90C44FDF7A0
:103C7C002FFF0EA90AF547700E97FDF779FD0CA9D9
:103C8C000AF54770CDE90C44FDF73EFF644B5046F6
:103C9C00CAF80030CDE90E44CDE91044CDE90C440E
:103CAC00CAE90144CAE90344CAF81840FDF710FFF9
:103CBC000EA950460E97FDF75BFD0CA95046CDE9B9
:103CCC000C44FDF721FFC820FCF788FAFFF7F8FD3C
:103CDC0005230AF5317100931F221E230EA8CDE98E
:103CEC000C448DF823408DF83360FFF7F5FA0095FE
:103CFC000AF531711C231D223CA8FFF7EDFA0F23A6
:103D0C000AF5317100931B221A236AA8FFF7E4FA13
:103D1C0014230AF5317100931922162398A8FFF782
:103D2C00DBFA19232A460AF531710093C6A80B2336
:103D3C00FFF7D2FA1E230AF5317100930C220D23E2
:103D4C00F4A8FFF7C9FA23230AF5317100930E2268
:103D5C0012230DF59160FFF7BFFA28230AF5317194
:103D6C000093132215230DF5A860FFF7B5FA4FF455
:103D7C00B86000F042FE054600F5B8630390079367
:103D8C000EAB1919039B1819B83415B1B82200F0F1
:103D9C008BFE079BB8359D42F2D10023DFF89CB017
:103DAC0004939DF8233003F0FF044BBBDAF85C332B
:103DBC00002BF6D00A221B491B4800F037FF0028C5
:103DCC0000F06B810B221949174800F02FFF0546B4
:103DDC00002800F0848107221549134800F026FFC3
:103DEC00002840F07281134B18700023CAF85C3322
:103DFC008AF860339DF8233003F0FF04002BD5D0F4
:103E0C009DF82330002BCCD00DF12F09002644E077
:103E1C00001002400030014000080140000C01403D
:103E2C00000400401C4E0008D0060020284E00085C
:103E3C00344E00081801002070030020844E000846
:103E4C00DAF85C33013633B304225946AF4800F03C
:103E5C00EDFE0346002800F0D080AD4800F0EDFDEB
:103E6C0007460490AB4800F0E8FDB8250024034653
:103E7C003846DAF85C23039F0AEB020181F86043B1
:103E8C00053A05FB0070A449FFF756FC0023CAF85D
:103E9C005C338AF86033082EB2D019F8013F002B3E
:103EAC00CED0B824039B04FB06342046FFF752FB0C
:103EBC000028C5D02046FFF74DFB731E451E062B70
:103ECC0000F28580DFE803F06F5B47331F04CD0001
:103EDC0000224FF480719148FCF7EEFA0EA92046AF
:103EEC00FFF7BAF92A4606210EA8FFF78DFC01222E
:103EFC004FF480718948FCF7DFFADAF85C3301364D
:103F0C00002BA1D1C9E7002280218448FCF7D4FA08
:103F1C000EA92046FFF7A0F92A460EA80521FFF7A7
:103F2C0073FC012280217D48FCF7C6FAE5E70022EC
:103F3C0040217A48FCF7C0FA0EA92046FFF78CF90D
:103F4C002A460EA80421FFF75FFC0122402173488A
:103F5C00FCF7B2FAD1E7002220217048FCF7ACFA4A
:103F6C000EA92046FFF778F92A460EA80321FFF781
:103F7C004BFC012220216948FCF79EFABDE7002288
:103F8C0010216648FCF798FA0EA92046FFF764F951
:103F9C002A460EA80221FFF737FC012210215F48A8
:103FAC00FCF78AFAA9E7002208215C48FCF784FA9E
:103FBC000EA92046FFF750F92A460EA80121FFF75B
:103FCC0023FC012208215548FCF776FA95E70022DC
:103FDC004FF400415248FCF76FFA0EA92046FFF748
:103FEC003BF92A460EA80021FFF70EFC01224FF4E4
:103FFC0000414B48FCF760FA22E7049AB8201146BE
:10400C00039D8DF8233000FB0150FFF731F80DF1C3
:10401C002F08CDF814900696DDF81C9002E0B83508
:10402C004D451BD018F8013F002BF8D06FF0B007AE
:10403C0005F1B00405F1B6067F1B01E0A642EED0F7
:10404C0014F8013B002BF9D028463B1904225946A1
:10405C00FEF7A8FF0520FCF7C1F8EFE7DDE90596B0
:10406C0014E700224FF400712C48FCF725FA0EA936
:10407C002046FFF7F1F82A4607210EA8FFF7C4FBEC
:10408C0001224FF400712548FCF716FADAF85C337C
:10409C00002B3FF4B5AE0136D6E6224800F0CDFC3D
:1040AC00B8240346039A04901F4804FB032400F031
:1040BC00C4FC0122231883F8B0201B4800F0BDFC7F
:1040CC0001462046FFF76EFA8FE6062217490F4885
:1040DC0000F0ACFD90BB0123154A137085E6154822
:1040EC0000F0ABFCB8240346039A0490124804FB7E
:1040FC00032400F0A2FC231883F8B0500E4800F003
:10410C009CFC01462046FFF7E7FA6EE6D00600203D
:10411C00D1060020D3060020D5060020000C01405B
:10412C0000080140DB060020DD0600203C4E0008A4
:10413C0018010020DC060020DE06002009226F4951
:10414C006F4800F073FD054690B30E226D496C4824
:10415C0000F06CFD0546002800F09B8005226A49A2
:10416C00674800F063FD00285CD0684800F065FCEF
:10417C00451CEDB2074604902846FFF777FC6448CF
:10418C0000F05BFCB826DAF85C23034603980AEBD4
:10419C00020181F86043053A5E4906FB0700FFF710
:1041AC00CBFA6420FCF71AF82846FFF75FFC1CE6F4
:1041BC00594800F042FCB824039A2B4604FB002417
:1041CC000490062255492046FFF7B6FA5448CAF81F
:1041DC00C453524EFDF7AAFADAF8C45308E020464D
:1041EC00FFF7B8F9074638B9DAF8C433AB4245D112
:1041FC00DAF8C433022BF2D94948FDF7A3FA0023AD
:10420C002046CAF8C433FFF7A5F990B30EA920468F
:10421C00FFF722F80EA8FBF793FF81B20EA800F06F
:10422C00FBF9E2E5FFF74CFB01236FF0B009039FAC
:10423C00DFF8D4808DF8233007F1B00407F1B60510
:10424C00A9EB070601E0A5420ED014F8013B002BA8
:10425C00F9D03319052241463846FFF76DFA012093
:10426C00FBF7BCFFA542F0D1079BB8379F42E3D1C7
:10427C00BBE507212B4800F0CFF9B6E5FFF720FB93
:10428C003B46062231462046FFF756FADAF8C4536D
:10429C00AEE7254800F0D1FBB824039A2B4604FB6B
:1042AC00002422490B2204902046FFF745FA2046B1
:1042BC00FFF750F91A48CAF8C4531C4EFDF736FAEA
:1042CC00DAF8C45309E02046FFF744F90746002802
:1042DC0092D1DAF8C433AB4204D1DAF8C433022BEE
:1042EC00F1D989E7FFF7ECFA3B4606223146204626
:1042FC00FFF722FADAF8C453EFE700BF444E000888
:10430C00D0060020604E00087C4E0008D10600202C
:10431C00D3060020D5060020DA060020504E0008F7
:10432C008C060020584E0008DF060020704E000856
:10433C00054B03F54772824204D1D3F8C4230132F2
:10434C00C3F8C423704700BF70030020704700BF40
:10435C000E4B82B09A690E4942F001029A619A6939
:10436C0002F001020092009ADA6942F08052DA619E
:10437C00DB6903F080530193019B4B6823F0E063EE
:10438C0043F000734B6002B0704700BF0010024056
:10439C000000014070B500240268194B86B09A42A7
:1043AC00CDE90244CDE9044401D006B070BDA02192
:1043BC000226032503F560439A69124842F48052A1
:1043CC009A619A6902F480520092009A9A6942F0BA
:1043DC0004029A619B69029103F00403019302A900
:1043EC00019B03960595FBF777FF402302A905482F
:1043FC00CDE903440293FBF76FFF06B070BD00BF1D
:10440C00003001400008014010B5036882B0B3F1E0
:10441C00804F0ED0124A934209D1124BDA6942F006
:10442C000202DA61DB6903F002030193019B02B023
:10443C0010BD002203F50433DC69114644F001047D
:10444C00DC61DB691C2003F001030093009BFBF78C
:10445C00E9FE1C2002B0BDE81040FBF719BF00BFFD
:10446C000004004000100240704700BFFEE700BF90
:10447C00FEE700BFFEE700BFFEE700BF704700BFCE
:10448C00704700BF704700BFFBF796BE0148FCF7B2
:10449C002FB900BF280D00200148FDF733BA00BF2B
:1044AC008C0600200120704708B500F0CBFA1623CB
:1044BC0003604FF0FF3008BD08B500F0C3FA1623B7
:1044CC000360FEE70C4A08B5136833B1694618441B
:1044DC00884209D81060184608BD08490B4611607F
:1044EC00694618448842F5D900F0ACFA0C224FF01A
:1044FC00FF330260184608BD3C07002090130020D3
:10450C0030B44FF41F054FF000640E4B0E4A19687F
:10451C000E4841F00101196059680A405A601A6846
:10452C0022F0847222F480321A601A6822F48022FB
:10453C001A605A6822F4FE025A609D60846030BC96
:10454C00704700BF001002400000FFF800ED00E0D3
:10455C0008B5002210491148FEF74CF8C0B91049B3
:10456C000E48FEF75DF880B90E490C48FDF7FCFFCC
:10457C0040B90A48FEF75CF800B908BDBDE8084030
:10458C00FFF7E4BEFFF7E2FEF3E7FFF7DFFEEBE732
:10459C00FFF7DCFEE3E700BF640100207409002094
:1045AC00E000002020010020002070470020704710
:1045BC002DE9F041074688460A4E0B4C0146304621
:1045CC00FDF7E2FF256809483946284400F026FB30
:1045DC00D8F8003030462B442360FDF7F3FF002061
:1045EC00BDE8F08174090020CC060020D006002024
:1045FC0010B5064C002220460549FDF7BDFF2046AC
:10460C000449FDF7C1FF002010BD00BF7409002054
:10461C00600C0020980B002010B5054C0A46014692
:10462C002046FDF7A9FF2046BDE81040FDF7B2BFBC
:10463C0074090020044BD3F81832D3F8140200305C
:10464C0018BF0120704700BF7409002002680E4B90
:10465C009A4200D07047002203F5DA3310B5DC69BA
:10466C0082B044F40004DC61DB69114603F40003FE
:10467C0001931420019BFBF7D5FD142002B0BDE87B
:10468C001040FBF705BE00BF005C004000F22C415F
:10469C00D0F85C04FDF7E4BF00EB4113D3F83C22E7
:1046AC00D0F85C04FEF70CB800EB4113DA6BD0F8D1
:1046BC005C04FEF73BB800BFD0F85C04FEF7C2B850
:1046CC00836810B5022B044601D0FFF73FFED4F8E7
:1046DC005C040121FEF7A0F8D4F85C04BDE810409E
:1046EC00FEF77AB810B50446D0F85C04FEF798F8DB
:1046FC00A36923B1024A136943F00603136110BD89
:10470C0000ED00E0D0F85C04FEF794B838B5044630
:10471C000022082502211C4B1C48C3F85C4418607D
:10472C00C4F820321846C3E90151C3E906221A62C3
:10473C00FBF7CAFE08B1FFF709FE00221823114649
:10474C00D4F82002FCF7C6FA582300228021D4F8B2
:10475C002002FCF7BFFAC02300228121D4F82002EA
:10476C00FCF7B8FA4FF4887300220121D4F8200228
:10477C00FCF7B0FAD4F820024FF4807300228221A7
:10478C00FCF7A8FA002038BD280D0020005C004082
:10479C0008B5D0F82002FBF703FF032896BF024BA5
:1047AC000220185C08BD00BF184E000810B51C464E
:1047BC00D0F8200213462246FBF71EFF032896BFB3
:1047CC00014B0220185C10BD184E000808B5D0F83B
:1047DC002002FBF735FF032896BF024B0220185C22
:1047EC0008BD00BF184E000808B5D0F82002FCF731
:1047FC0021FA032896BF024B0220185C08BD00BFAB
:10480C00184E000808B5D0F82002FCF73FFA032830
:10481C0096BF024B0220185C08BD00BF184E000862
:10482C000A06D0F8203204D403EB411393F82A0281
:10483C00704701F07F0103EB411393F82A00704796
:10484C0008B5D0F82002FBF7C3FE032896BF024B35
:10485C000220185C08BD00BF184E000808B5D0F83F
:10486C002002FBF72FFF032896BF024B0220185C97
:10487C0008BD00BF184E000808B5D0F82002FBF7A1
:10488C0001FF032896BF024B0220185C08BD00BF35
:10489C00184E000808B5D0F82002FBF70BFF08BD36
:1048AC000048704744070020704700BF704700BFA6
:1048BC00122301480B80704730010020042301486B
:1048CC000B8070474401002030B40025013AD2B26D
:1048DC008C1C04EB4204020F092AD3B203F1300200
:1048EC008ABF37330A700B704D7002318C424FEA1D
:1048FC000010F0D130BC70471A220B480B4B0068EB
:10490C001B680A80C01801D10948704710B5094BC3
:10491C0008221C680849FFF7D7FF204604220749E4
:10492C00FFF7D2FF024810BDE8F7FF1FF0F7FF1F9B
:10493C0048010020ECF7FF1F4A0100205A0100201B
:10494C0010B5044C0A4604482146FEF76DF9204682
:10495C0010BD00BF881100208C4E000810B5044C0F
:10496C000A4604482146FEF75FF9204610BD00BFF9
:10497C00881100209C4E000810B5044C0A460448CF
:10498C002146FEF751F9204610BD00BF88110020CA
:10499C00A84E000810B5044C0A4604482146FEF700
:1049AC0043F9204610BD00BF88110020B44E00080A
:1049BC00002103E00B4B5B58435004310A480B4B6E
:1049CC0042189A42F6D30A4A02E0002342F8043B0A
:1049DC00084B9A42F9D3FFF793FD00F039F8FFF733
:1049EC00ABF87047D84F000800000020500300209F
:1049FC00500300208C130020FEE710B5002814BFD4
:104A0C0004460124204600F047F830B900F006F8BF
:104A1C0008B900F00BF88047F4E710BD024B18689A
:104A2C00BFF35B8F704700BF6409002008B50620F8
:104A3C0000F0D8F80120FFF73FFD0A22002100F01A
:104A4C0083B90000014B1868704700BF800100203B
:104A5C0070B500250C4E0D4CA41BA410A54209D119
:104A6C0000F0ACF900250A4E0A4CA41BA410A54278
:104A7C0005D170BD56F8253098470135EEE756F84C
:104A8C00253098470135F2E7D04F0008D04F000889
:104A9C00D04F0008D44F0008024B0146186800F0B4
:104AAC000FB800BF8001002010B5431E0A4491428C
:104ABC0000D110BD11F8014B03F8014FF7E70000CE
:104ACC0070B5CD1C25F0030508350C2D38BF0C2511
:104ADC00002D064601DBA94203D90C2333600020CC
:104AEC0070BD00F05CF9214A1468214691B9204C44
:104AFC0023681BB9304600F03DF82060294630464B
:104B0C0000F038F8431C24D10C233046336000F0FD
:104B1C0047F9E4E70B685B1B18D40B2B0FD90B6020
:104B2C00CC18CD50304600F03BF904F10B00231D9E
:104B3C0020F00700C31AD3D05A42E250D0E74B689A
:104B4C008C4216BF636013600C46EBE70C46496859
:104B5C00CCE7C41C24F00304A04205D0211A304633
:104B6C0000F008F80130CFD02560DBE768090020A1
:104B7C006C09002038B50023054C05460846236017
:104B8C00FFF7A0FC431C02D1236803B12B6038BD96
:104B9C00881300201F2938B504460D4604D9162366
:104BAC0003604FF0FF3038BD426C12B152F8213027
:104BBC004BB9204600F030F82A4601462046BDE8A5
:104BCC00384000F017B8012B0AD0591C03D116231A
:104BDC0003600120E7E70024284642F82540984767
:104BEC000020E0E7024B01461868FFF7D3BF00BF77
:104BFC008001002038B50023064C054608461146B6
:104C0C002360FFF751FC431C02D1236803B12B60D6
:104C1C0038BD00BF88130020FFF744BC034611F8D1
:104C2C00012B03F8012B002AF9D1704710B56AB19A
:104C3C000139841810F8013B11F8012F934203D16C
:104C4C00A04201D0002BF5D1981A10BD1046FCE7FC
:104C5C002DE9F0478046894692461E460F463D4652
:104C6C00089815F8014B00F085F82044437813F0B0
:104C7C00080332D12D2C32D101227C78BD1C002EA0
:104C8C005DD0102E09D1302C07D12B7803F0DF0327
:104C9C00582B4FD110266C780235002A14BF4FF0D8
:104CAC0000416FF000410027B1FBF6FC384606FBD3
:104CBC001C1EA4F13003092B17D81C46A64223DD79
:104CCC007B1C07D084451CD301D1A64519DB0127D9
:104CDC0000FB064015F8014BEBE72F46BFE72B2CEA
:104CEC0004BFBD1C7C781A46C9E7A4F14103192BFB
:104CFC0001D8373CE2E7A4F16103192B04D8573CE7
:104D0C00DCE74FF0FF37E5E77B1C08D12223084690
:104D1C00C8F80030BAF1000F07D1BDE8F08702B136
:104D2C004042BAF1000FF8D00FB105F1FF39CAF8C3
:104D3C000090F2E73024002EAFD10826ADE7302CDE
:104D4C00A3D00A26A9E70000084B37B51C68084D0C
:104D5C00236A002B08BF2B46009313460A460146D4
:104D6C002046FFF775FF03B030BD00BF8001002067
:104D7C00E4010020D0F8EC00704782B001B901A921
:104D8C0042B14BB113780B601278101C18BF012084
:104D9C0002B070471046FBE76FF00100F8E7704770
:104DAC00704749B1FF2A8BBF8A230A700360012028
:104DBC0088BF4FF0FF30704708467047F8B500BF0A
:104DCC00F8BC08BC9E467047F8B500BFF8BC08BCE0
:044DDC009E46704738
:104DE00002030405060708090A0B0C0D0E0F10102C
:104DF00001010000000000002020202020200000F1
:104E0000000000000000000001020304060708097A
:104E1000000000000102030400020102656E6162ED
:104E20006C6550697065000064697361626C6550FF
:104E3000697065006469676974616C00616E616CBA
:104E40006F6700006765744F6666736574000000E5
:104E50006F6666736574000054494D454F555400A4
:104E600067657443616C6962726174696F6E00009A
:104E700063616C6962726174696F6E0073746172F0
:104E80007400000073746F70000000004B6F744575
:104E90006E67656E68617269610000004441714D22
:104EA000617374657200000043444320436F6E6673
:104EB0006967000043444320496E7465726661630C
:104EC000650000004300504F534958002E00002059
:104ED00020202020202020202828282828202020AA
:104EE000202020202020202020202020202020885A
:104EF00010101010101010101010101010101004BE
:104F0000040404040404040404101010101010100D
:104F10004141414141410101010101010101010101
:104F20000101010101010101010110101010101017
:104F300042424242424202020202020202020202D1
:104F400002020202020202020202101010102000ED
:104F50000000000000000000000000000000000051
:104F60000000000000000000000000000000000041
:104F70000000000000000000000000000000000031
:104F80000000000000000000000000000000000021
:104F90000000000000000000000000000000000011
:104FA0000000000000000000000000000000000001
:104FB00000000000000000000000000000000000F1
:104FC00000000000000000000000000000000000E1
:044FD00031010008A3
:044FD4000D010008C3
:104FD800010000001000000009024300020100C0A7
:104FE8003209040000010202010005240010010535
:104FF8002401000104240202052406000107058299
:105008000308001009040100020A00000007050156
:105018000240000007058102400000000902430029
:10502800020100C032090400000102020100052447
:1050380000100105240100010424020205240600D1
:10504800010705820308001009040100020A000094
:1050580000070501020002000705810200020000A6
:1050680009074300020104C03209040000010202DA
:105078000100052400100105240100010424020296
:105088000524060001070582030800FF0904010042
:10509800020A00000007050102400000070581021E
:1050A800400000000A060002000000400100000065
:1050B800E5240008A92400083D2400080000000099
:1050C800B12300089D2300080D24000800000000FB
:1050D8000000000000000000E9230008DD230008AC
:1050E800F5230008012400080100000000A24A047A
:1050F800FD450008B5450008B9450008BD4500084C
:105108001201000202020040010001000002010237
:1051180003010000040309041A0300000000000052
:105128000000000000000000000000000000000077
:1051380000000000BD480008C94800084D490008A3
:10514800694900080549000885490008A14900087F
:1051580084010020000000000000000000000000A2
:105168000000000000000000000000000000000037
:105178000000000000000000000000000000000027
:105188000000000000000000000000000000000017
:105198000000000000000000000000000000000007
:1051A80000000000000000000000000000000000F7
:1051B80000000000430000000000000000000000A4
:1051C80000000000000000000000000000000000D7
:1051D8000000000043000000000000000000000084
:1051E80000000000000000000000000000000000B7
:1051F8000000000043000000000000000000000064
:105208000000000000000000000000000000000096
:105218000000000043000000000000000000000043
:105228000000000000000000000000000000000076
:105238000000000043000000000000000000000023
:105248000000000000000000000000000000000056
:105258000000000043000000000000000000000003
:105268000000000000000000000000000000000036
:1052780000000000430000000000000000000000E3
:105288000000000000000000000000000000000016
:1052980000000000AF4D0008874D00080000000026
:1052A800CE4E0008CC4E0008CD4E0008CD4E00086A
:1052B800CD4E0008CD4E0008CD4E0008CD4E00085A
:1052C800CD4E0008CD4E0008CD4E0008FFFFFFFF71
:1052D800FFFFFFFFFFFFFFFFFFFF0000010041533B
:1052E80043494900000000000000000000000000E1
:1052F8000000000000000000000000000000415312
:1053080043494900000000000000000000000000C0
:105318000000000000000000000000000000000085
:04000005080049BDE9
:00000001FF
