:020000040800F2
:100000000050002085660008D55B0008E15B000811
:10001000E75B0008ED5B0008F35B000800000000F0
:10002000000000000000000000000000F95B000874
:10003000055C000800000000115C00081D5C000861
:10004000CD660008CD660008CD660008CD660008C4
:10005000CD660008CD660008CD660008CD660008B4
:10006000CD660008CD660008CD660008CD660008A4
:10007000CD660008CD660008CD660008CD66000894
:10008000CD660008CD660008CD660008CD66000884
:10009000295C0008CD660008CD660008CD66000822
:1000A000CD660008CD660008CD660008CD66000864
:1000B000CD660008CD660008CD660008CD66000854
:1000C000CD660008CD660008CD660008CD66000844
:1000D000CD660008CD660008CD660008CD66000834
:1000E000CD660008CD660008CD660008000000005F
:1000F0000000000000000000000000000000000000
:0C01000000000000000000005FF808F1A3
:10010C0010B5054C237833B9044B13B10448AFF345
:10011C0000800123237010BDE001002000000000CE
:10012C00FC68000808B5034B1BB103490348AFF347
:10013C00008008BD00000000E4010020FC680008FD
:10014C00034613F8012B002AFBD1181A013870470B
:10015C0080B500AF084B1B68074A43F010031360CF
:10016C00032000F041F9002000F008F805F092FCA3
:10017C000023184680BD00BF0020024080B582B02D
:10018C0000AF7860124B1A68124B1B7819464FF46B
:10019C007A73B3FBF1F3B2FBF3F3184600F059F9A1
:1001AC000346002B01D001230EE07B680F2B0AD8ED
:1001BC00002279684FF0FF3000F021F9064A7B6885
:1001CC001360002300E0012318460837BD4680BDAC
:1001DC0018010020040000200000002080B400AFB3
:1001EC00054B1B781A46054B1B681344034A1360D6
:1001FC0000BFBD4680BC7047040000203C050020B9
:10020C0080B400AF024B1B681846BD4680BC7047DB
:10021C003C05002080B584B000AF7860FFF7F0FF9C
:10022C00B8607B68FB60FB68B3F1FF3F05D0094BFE
:10023C001B781A46FB681344FB6000BFFFF7E0FF16
:10024C000246BB68D31AFA689A42F7D800BF103737
:10025C00BD4680BD0400002080B485B000AF78603E
:10026C007B6803F00703FB600C4BDB68BB60BA6870
:10027C004FF6FF031340BB60FB681A02BB681343C5
:10028C0043F0BF6343F40033BB60044ABB68D360E4
:10029C0000BF1437BD4680BC704700BF00ED00E0C6
:1002AC0080B400AF044BDB681B0A03F0070318464D
:1002BC00BD4680BC704700BF00ED00E080B483B049
:1002CC0000AF0346FB71FB7903F01F02064997F957
:1002DC0007305B09012000FA02F241F8232000BF2D
:1002EC000C37BD4680BC704700E100E080B483B0A1
:1002FC0000AF03463960FB7197F90730002B0BDA1E
:10030C003B68DAB20C49FB7903F00F03043B120192
:10031C00D2B20B441A7609E03B68DAB2074997F976
:10032C0007301201D2B20B4483F8002300BF0C3704
:10033C00BD4680BC704700BF00ED00E000E100E06E
:10034C0080B489B000AFF860B9607A60FB6803F0E4
:10035C000703FB61FB69C3F10703042B28BF0423CC
:10036C00BB61FB690433062B02D9FB69033B00E03C
:10037C0000237B614FF0FF32BB6902FA03F3DA43CF
:10038C00BB681A407B699A404FF0FF317B6901FAD8
:10039C0003F3D9437B680B40134318462437BD46FF
:1003AC0080BC704780B582B000AF78607B68013B41
:1003BC00B3F1807F01D301230FE00A4A7B68013B34
:1003CC0053600F214FF0FF30FFF790FF054B0022D9
:1003DC009A60044B07221A60002318460837BD4662
:1003EC0080BD00BF10E000E080B582B000AF786047
:1003FC007868FFF731FF00BF0837BD4680BD80B578
:10040C0086B000AF0346B9607A60FB7300237B6152
:10041C00FFF746FF78617A68B9687869FFF790FF53
:10042C00024697F90F3011461846FFF75FFF00BFE1
:10043C001837BD4680BD80B582B000AF0346FB7156
:10044C0097F907301846FFF739FF00BF0837BD464C
:10045C0080BD80B582B000AF78607868FFF7A2FFEE
:10046C00034618460837BD4680BD000080B483B0F3
:10047C0000AF78607B68042B06D1094B1B68084AD7
:10048C0043F00403136005E0054B1B68044A23F09A
:10049C000403136000BF0C37BD4680BC704700BF1F
:1004AC0010E000E080B48BB000AF786039600023BE
:1004BC00FB610023BB6100237B6100233B620023B3
:1004CC003B6100237B6227E101227B6A02FA03F382
:1004DC00FB613B681B68FA691340BB61BA69FB6935
:1004EC009A4240F016813B685B68122B34D0122B79
:1004FC000DD8022B2BD0022B04D8002B31D0012B82
:10050C001CD048E0032B43D0112B1BD043E0874A6F
:10051C00934226D0854A934206D8854A934220D0EE
:10052C00844A93421DD036E0834A934219D0834AC1
:10053C00934216D0824A934213D02CE03B68DB687E
:10054C003B6228E03B68DB6804333B6223E03B689A
:10055C00DB6808333B621EE03B68DB680C333B62B4
:10056C0019E03B689B68002B02D104233B6212E02C
:10057C003B689B68012B05D108233B627B68FA69B9
:10058C001A6108E008233B627B68FA695A6102E051
:10059C0000233B6200BFBB69FF2B01D87B6801E0E5
:1005AC007B680433FB60BB69FF2B02D87B6A9B0022
:1005BC0002E07B6A083B9B003B61FB681A680F21D9
:1005CC003B6901FA03F3DB431A40396A3B6901FAD0
:1005DC0003F31A43FB681A603B685B6803F08053B3
:1005EC00002B00F09680574B9B69564A43F0010351
:1005FC009361544B9B6903F00103BB60BB68524A87
:10060C007B6A9B08023352F823307B617B6A03F0D0
:10061C0003039B000F2202FA03F3DB437A691340B6
:10062C007B617B68494A934213D07B68484A93426A
:10063C000DD07B68474A934207D07B68464A934269
:10064C0001D1032306E0042304E0022302E001238A
:10065C0000E000237A6A02F00302920093407A6968
:10066C0013437B6138497B6A9B0802337A6941F8F2
:10067C0023203B685B6803F48033002B06D0374B98
:10068C001A683649BB6913430B6006E0334B1A6892
:10069C00BB69DB43314913400B603B685B6803F477
:1006AC000033002B06D02D4B5A682C49BB691343E1
:1006BC004B6006E0294B5A68BB69DB432749134062
:1006CC004B603B685B6803F48013002B06D0234B14
:1006DC009A682249BB6913438B6006E01F4B9A68EA
:1006EC00BB69DB431D4913408B603B685B6803F4BB
:1006FC000013002B06D0194BDA681849BB69134359
:10070C00CB6006E0154BDA68BB69DB431349134039
:10071C00CB607B6A01337B627B6A0F2B7FF6D4AE96
:10072C0000BF2C37BD4680BC704700BF00002110B5
:10073C0000001110000012100000311000003210E7
:10074C00000022100010024000000140000801408F
:10075C00000C014000100140001401400004014055
:10076C0080B483B000AF78600B467B8013467B70FF
:10077C007B78002B03D07A887B681A6103E07B8836
:10078C001A047B681A6100BF0C37BD4680BC7047E9
:10079C00F0B58BB006AF78600023FB607B68002B54
:1007AC0001D10123CAE07B6893F82934DBB2002B1A
:1007BC0006D17B68002283F82824786805F0B0FB0A
:1007CC007B68032283F829247B681B68184602F097
:1007DC0030F97B681B683B607E686D4606F110043F
:1007EC000FCC0FC523682B60331D0ECB386802F07D
:1007FC00F6F87B681B680021184602F036F90023D6
:10080C00FB6037E07A68FB685B01134429330122F3
:10081C001A70FB68D9B27A68FB685B011344283301
:10082C000A461A70FB6899B27A68FB685B0113443C
:10083C0034330A461A807A68FB685B0113442B3305
:10084C0000221A707A68FB685B011344383300226B
:10085C001A607A68FB685B0113443C3300221A600F
:10086C007A68FB6802335B01134400221A60FB6850
:10087C000133FB60FB680E2BC4D90023FB603CE00A
:10088C007A68FB685B01134403F2292300221A7077
:10089C00FB68D9B27A68FB685B01134403F50A73F1
:1008AC000A461A70FB6899B27A68FB685B011344BC
:1008BC0034330A461A807A68FB685B01134403F2EE
:1008CC002B2300221A707A68FB685B01134403F532
:1008DC000E7300221A607A68FB685B01134403F5FF
:1008EC000F7300221A607A68FB6812335B011344A1
:1008FC0000221A60FB680133FB60FB680E2BBFD92A
:10090C007B681B683B607E686D4606F110040FCC5B
:10091C000FC523682B60331D0ECB386802F0B1F87D
:10092C007B68002283F824207B68012283F8292429
:10093C007B681B68184603F09CF800231846143794
:10094C00BD46F0BD80B582B000AF78607B6893F88F
:10095C002834012B01D1022316E07B68012283F895
:10096C0028240121786805F042FD7B681B68184635
:10097C0003F075F87B681B68184602F040F87B683A
:10098C00002283F82824002318460837BD4680BD72
:10099C0080B582B000AF78607B681B68184603F0A6
:1009AC0072F8034603F40043B3F5004F02D17868A4
:1009BC0000F0D8FA7B681B68184603F064F803460D
:1009CC0003F48063B3F5806F12D17B681B68B3F8B6
:1009DC0044309AB27B681B6822F4806292B2A3F80E
:1009EC004420786805F011FB0021786800F0D2F8FB
:1009FC007B681B68184603F046F8034603F48043F3
:100A0C00B3F5804F0BD17B681B68B3F844309AB2B6
:100A1C007B681B6822F4804292B2A3F844207B6866
:100A2C001B68184603F02FF8034603F40053B3F584
:100A3C00005F0BD17B681B68B3F844309AB27B68BB
:100A4C001B6822F4005292B2A3F844207B681B6806
:100A5C00184603F018F8034603F48053B3F5805F8F
:100A6C0026D17B681B68B3F840309AB27B681B6850
:100A7C0022F0040292B2A3F840207B681B68B3F802
:100A8C0040309AB27B681B6822F0080292B2A3F83D
:100A9C004020786805F0F2FA7B681B68B3F84430A4
:100AAC009AB27B681B6822F4805292B2A3F844205D
:100ABC007B681B68184602F0E6FF034603F40063EC
:100ACC00B3F5006F31D17B681B68B3F840309AB234
:100ADC007B681B6842F0080292B2A3F840207B6846
:100AEC001B68B3F844309AB27B681B6822F400622E
:100AFC0092B2A3F844207B681B68B3F840309AB2DA
:100B0C007B681B6842F0040292B2A3F840207B6819
:100B1C001B68184602F0B7FF034603F48053B3F585
:100B2C00805F02D0786805F08FFA7B681B681846E6
:100B3C0002F0A9FF034603F40073B3F5007F0ED156
:100B4C007B681B68B3F844309AB27B681B6822F44C
:100B5C00007292B2A3F84420786805F048FA7B68DA
:100B6C001B68184602F08FFF034603F48073B3F53D
:100B7C00807F0BD17B681B68B3F844309AB27B68DA
:100B8C001B6822F4807292B2A3F8442000BF08378D
:100B9C00BD4680BD80B582B000AF78600B46FB705F
:100BAC007B6893F82834012B01D1022313E07B6876
:100BBC00012283F828247B68FA7883F824207B6848
:100BCC001B68FA781146184602F036FF7B68002243
:100BDC0083F82824002318460837BD4680BD80B50D
:100BEC0084B000AF7860084611461A460346FB7085
:100BFC000B463B801346BB700023FB720023FB604B
:100C0C0097F90330002B08DAFB7803F07F035B01C4
:100C1C0028337A681344FB6008E0FB7803F07F0309
:100C2C005B0103F50A737A681344FB60FB7803F0ED
:100C3C007F03DAB2FB681A7097F90330DBB2DB0979
:100C4C00DBB21A46FB685A703A88FB681A61FB687B
:100C5C00BA78DA707B6893F82834012B01D102231F
:100C6C000EE07B68012283F828247B681B68F968F6
:100C7C00184601F02BFF7B68002283F82824FB7AAE
:100C8C0018461037BD4680BD80B584B000AF786083
:100C9C000B46FB700023FB6097F90330002B08DA3E
:100CAC00FB7803F07F035B0128337A681344FB6005
:100CBC0008E0FB7803F07F035B0103F50A737A68A5
:100CCC001344FB60FB7803F07F03DAB2FB681A7005
:100CDC0097F90330DBB2DB09DBB21A46FB685A70BA
:100CEC007B6893F82834012B01D102230EE07B683A
:100CFC00012283F828247B681B68F968184602F0E7
:100D0C00A7F97B68002283F82824002318461037A3
:100D1C00BD4680BD80B586B000AFF8607A603B60A0
:100D2C000B46FB7200237B61FB7A03F07F035B01B4
:100D3C0003F50A73FA6813447B617B697A685A611C
:100D4C007B693A689A617B690022DA617B690022CF
:100D5C005A70FB7A03F07F03DAB27B691A70FB7A64
:100D6C0003F07F03002B06D1FB681B6879691846DA
:100D7C0002F0F6FA05E0FB681B687969184602F088
:100D8C00EFFA002318461837BD4680BD80B483B0F7
:100D9C0000AF78600B46FB70FB7803F00F037A68AA
:100DAC0012335B01134404331B689BB218460C3797
:100DBC00BD4680BC704780B586B000AFF8607A60E5
:100DCC003B600B46FB7200237B61FB7A03F07F03D5
:100DDC005B012833FA6813447B617B697A685A613A
:100DEC007B693A689A617B690022DA617B6901222E
:100DFC005A70FB7A03F07F03DAB27B691A70FB7AC4
:100E0C0003F07F03002B06D1FB681B687969184639
:100E1C0002F0A6FA05E0FB681B687969184602F037
:100E2C009FFA002318461837BD4680BD80B584B0A4
:100E3C0000AF78600B46FB700023FB6097F9033022
:100E4C00002B08DAFB7803F07F035B0128337A6808
:100E5C001344FB6006E0FB785B0103F50A737A68C8
:100E6C001344FB60FB6801229A70FB7803F07F034C
:100E7C00DAB2FB681A7097F90330DBB2DB09DBB22C
:100E8C001A46FB685A707B6893F82834012B01D101
:100E9C0002231CE07B68012283F828247B681B68F2
:100EAC00F968184602F0DEFCFB7803F07F03002B98
:100EBC0008D17B681A687B6803F22C4319461046EC
:100ECC0002F0F2FD7B68002283F8282400231846E8
:100EDC001037BD4680BD80B584B000AF78600B463E
:100EEC00FB700023FB6097F90330002B08DAFB78CA
:100EFC0003F07F035B0128337A681344FB6006E040
:100F0C00FB785B0103F50A737A681344FB60FB689A
:100F1C0000229A70FB7803F07F03DAB2FB681A7038
:100F2C0097F90330DBB2DB09DBB21A46FB685A7067
:100F3C007B6893F82834012B01D102230EE07B68E7
:100F4C00012283F828247B681B68F968184602F094
:100F5C00E9FC7B68002283F828240023184610370C
:100F6C00BD4680BD90B589B000AF78600023FB61B1
:100F7C0000237B8300237B760023FB810023BB8132
:100F8C0008E3FB899BB2DBB203F00F037B767B7E1D
:100F9C00002B40F02A81FB899BB203F01003002B3D
:100FAC004DD17B681B681B889BB27A68126823F44E
:100FBC00E14323F070039BB213807B682833FB6101
:100FCC007B681B68B3F850309BB21A46FB691B78E0
:100FDC00DB00134402335B007A681268134403F598
:100FEC0080631B689BB2C3F30902FB69DA61FB697E
:100FFC005A69FB69DB691A44FB695A6100217868FC
:10100C0004F0DEFF7B6893F82430DBB2002B00F099
:10101C00C182FB699B69002B40F0BC827B6893F812
:10102C002430DBB263F07F03DAB27B681B6892B2C8
:10103C00A3F84C207B68002283F82420AAE27B686A
:10104C0003F50A73FB617B681B681B889BB2BB8131
:10105C00BB899BB203F40063002B31D07B681B6807
:10106C00B3F850309BB21A46FB691B78DB00134473
:10107C0006335B007A681268134403F580631B68BF
:10108C009BB2C3F30902FB69DA617B6818687B6861
:10109C0003F22C41FB699A88FB69DB699BB202F075
:1010AC0054FD7B681B681B8899B27B681A6840F6F4
:1010BC008F730B409BB21380786804F057FF69E282
:1010CC00BB899BB21BB2002B80F264827B681B68CD
:1010DC001B8899B27B681A6840F68F730B409BB2E1
:1010EC0013807B681B68B3F850309BB21A46FB69BF
:1010FC001B78DB00134406335B007A6812681344D8
:10110C0003F580631B689BB2C3F30902FB69DA61C8
:10111C00FB69DB69002B11D07B681868FB69596986
:10112C00FB699A88FB69DB699BB202F00EFDFB69D7
:10113C005A69FB69DB691A44FB695A6100217868BA
:10114C0004F026FF7B681B68B3F850309BB2063363
:10115C005B007A681268134403F580633B61FB699A
:10116C001B693E2B18D9FB691B695B09FB82FB6968
:10117C001B6903F01F03002B02D1FB8A013BFB828E
:10118C00FB8A9B029BB26FEA43436FEA53439BB2C9
:10119C001A463B691A6012E0FB691B695B08FB820B
:1011AC00FB691B6903F00103002B02D0FB8A01339E
:1011BC00FB82FB8A9B029BB21A463B691A607B68D6
:1011CC001B681B889BB223F4804323F070039CB2F2
:1011DC0084F480539CB284F400539CB27B681A68EC
:1011EC00984B23439BB21380D4E17B681B681A464F
:1011FC007B7E9B0013441B889BB2BB81BB899BB23B
:10120C001BB2002B80F2D0807B681B681A467B7E59
:10121C009B0013441B8899B27B681B681A467B7E23
:10122C009B001A4440F68F730B409BB213807B7E5D
:10123C005B0103F50A737A681344FB61FB699B7AC3
:10124C00002B22D17B681B68B3F850309BB21A4636
:10125C00FB691B78DB00134406335B007A68126869
:10126C00134403F580631B689BB2C3F309037B83B0
:10127C007B8B002B73D07B681868FB695969FB6901
:10128C009A887B8B02F061FC69E07B681B681A46CC
:10129C00FB691B789B0013441B889BB203F48043AF
:1012AC00002B22D07B681B68B3F850309BB21A46D7
:1012BC00FB691B78DB00134402335B007A6812680D
:1012CC00134403F580631B689BB2C3F309037B8350
:1012DC007B8B002B2BD07B681868FB695969FB69E9
:1012EC00DA887B8B02F031FC21E07B681B68B3F859
:1012FC0050309BB21A46FB691B78DB001344063353
:10130C005B007A681268134403F580631B689BB218
:10131C00C3F309037B837B8B002B08D07B68186895
:10132C00FB695969FB691A897B8B02F00EFC7B689F
:10133C001B681A46FB691B789B0013441B889AB2E6
:10134C0040F60F73134099B27B681B681A46FB6911
:10135C001B789B001A443C4B0B439BB21380FB69DC
:10136C00DA697B8B1A44FB69DA61FB695A697B8BFE
:10137C001A44FB695A61FB699B69002B04D07A8B78
:10138C00FB691B699A4206D2FB691B78194678687F
:10139C0004F0FEFD08E0FB691978FB695A69FB69EA
:1013AC009B697868FFF7B6FCBB899BB203F080039E
:1013BC00002B00F0EF807B7E5B0128337A681344AE
:1013CC00FB617B681B681A467B7E9B0013441B8861
:1013DC009BB27A68126811467A7E92000A4423F412
:1013EC00E14323F070039BB21380FB699B7A002BC3
:1013FC002CD17B681B68B3F850309BB21A46FB6942
:10140C001B78DB00134402335B007A6812681344C8
:10141C0003F580631B689BB2C3F30902FB69DA61B5
:10142C00FB69DB69002B00F083807B681868FB6923
:10143C005969FB699A88FB69DB699BB202F03FFB37
:10144C0076E000BF8080FFFFC080FFFF7B681B68D9
:10145C001A46FB691B789B0013441B889BB203F054
:10146C004003002B26D07B681B68B3F850309BB22E
:10147C001A46FB691B78DB00134402335B007A6865
:10148C001268134403F580631B689BB2C3F3090213
:10149C00FB69DA61FB69DB69002B31D07B6818686A
:1014AC00FB695969FB69DA88FB69DB699BB202F05D
:1014BC0006FB25E07B681B68B3F850309BB21A46DC
:1014CC00FB691B78DB00134406335B007A681268F7
:1014DC00134403F580631B689BB2C3F30902FB69D9
:1014EC00DA61FB69DB69002B0AD07B681868FB6941
:1014FC005969FB691A89FB69DB699BB202F0DFFA57
:10150C007B681B681A46FB691B789B0013441B887D
:10151C009AB240F60F73134099B27B681B681A4657
:10152C00FB691B789B001A44224B0B439BB2138024
:10153C007B681B68B3F850309BB21A46FB691B786A
:10154C00DB00134402335B007A681268134403F522
:10155C0080631B689BB2C3F30902FB69DA61FB6908
:10156C005A69FB69DB691A44FB695A61FB699B691F
:10157C00002B06D1FB691B781946786804F020FD16
:10158C0008E0FB691978FB695A69FB699B69786803
:10159C00FFF711FC7B681B68B3F844309BB21A460A
:1015AC00FA811BB2002BFFF6ECAC00231846243753
:1015BC00BD4690BD80C0FFFF80B487B000AFF8601F
:1015CC007B600B467B8113463B8100237B617B89CF
:1015DC0003F08003002B08D07B8903F07F035B01B1
:1015EC002833FA6813447B6106E07B895B0103F5C1
:1015FC000A73FA6813447B613B89002B07D17B6922
:10160C0000229A727B689AB27B699A800BE07B69A4
:10161C0001229A727B689AB27B69DA807B681B0C18
:10162C009AB27B691A81002318461C37BD4680BCD0
:10163C007047000080B586B000AF786000233B6136
:10164C007B681B6803F00103002B00F08780924B32
:10165C005B6803F00C03042B0CD08F4B5B6803F01E
:10166C000C03082B12D18C4B5B6803F48033B3F55D
:10167C00803F0BD1884B1B6803F40033002B6CD0DC
:10168C007B685B68002B68D101232DE27B685B686B
:10169C00B3F5803F06D1804B1B687F4A43F48033FF
:1016AC0013602EE07B685B68002B0CD17A4B1B68B7
:1016BC00794A23F480331360774B1B68764A23F402
:1016CC00802313601DE07B685B68B3F5A02F0CD101
:1016DC00714B1B68704A43F4802313606E4B1B687C
:1016EC006D4A43F4803313600BE06B4B1B686A4A02
:1016FC0023F480331360684B1B68674A23F4802300
:10170C0013607B685B68002B13D0FEF779FD3861A2
:10171C0008E0FEF775FD02463B69D31A642B01D92C
:10172C000323E1E15C4B1B6803F40033002BF0D086
:10173C0014E0FEF765FD386108E0FEF761FD024636
:10174C003B69D31A642B01D90323CDE1524B1B689F
:10175C0003F40033002BF0D100E000BF7B681B6862
:10176C0003F00203002B63D04B4B5B6803F00C03BC
:10177C00002B0BD0484B5B6803F00C03082B1CD1DF
:10178C00454B5B6803F48033002B16D1424B1B682E
:10179C0003F00203002B05D07B681B69012B01D0E1
:1017AC000123A1E13C4B1B6823F0F8027B685B69C9
:1017BC00DB00394913430B603AE07B681B69002B53
:1017CC0020D0364B01221A60FEF71AFD386108E072
:1017DC00FEF716FD02463B69D31A022B01D90323EF
:1017EC0082E12D4B1B6803F00203002BF0D02A4B37
:1017FC001B6823F0F8027B685B69DB002649134306
:10180C000B6015E0254B00221A60FEF7F9FC3861DD
:10181C0008E0FEF7F5FC02463B69D31A022B01D90E
:10182C00032361E11C4B1B6803F00203002BF0D176
:10183C007B681B6803F00803002B39D07B689B691D
:10184C00002B19D0164B01221A60FEF7D9FC386117
:10185C0008E0FEF7D5FC02463B69D31A022B01D9EE
:10186C00032341E10C4B5B6A03F00203002BF0D025
:10187C00012000F0BBFA1BE0094B00221A60FEF7B6
:10188C00BFFC38610EE0FEF7BBFC02463B69D31A85
:10189C00022B07D9032327E100100240000042422B
:1018AC0080044242924B5B6A03F00203002BEAD1A4
:1018BC007B681B6803F00403002B00F0A680002358
:1018CC00FB758B4BDB6903F08053002B0DD1884BE0
:1018DC00DB69874A43F08053D361854BDB6903F0A6
:1018EC008053FB60FB680123FB75824B1B6803F480
:1018FC008073002B18D17F4B1B687E4A43F4807396
:10190C001360FEF77DFC386108E0FEF779FC0246B7
:10191C003B69D31A642B01D90323E5E0754B1B6893
:10192C0003F48073002BF0D07B68DB68012B06D1AD
:10193C006F4B1B6A6E4A43F0010313622DE07B6808
:10194C00DB68002B0CD16A4B1B6A694A23F001033C
:10195C001362674B1B6A664A23F0040313621CE094
:10196C007B68DB68052B0CD1614B1B6A604A43F02A
:10197C00040313625E4B1B6A5D4A43F0010313625E
:10198C000BE05B4B1B6A5A4A23F001031362584B62
:10199C001B6A574A23F0040313627B68DB68002B35
:1019AC0015D0FEF72DFC38610AE0FEF729FC024643
:1019BC003B69D31A41F28832934201D9032393E055
:1019CC004B4B1B6A03F00203002BEED014E0FEF726
:1019DC0017FC38610AE0FEF713FC02463B69D31A88
:1019EC0041F28832934201D903237DE0404B1B6ABC
:1019FC0003F00203002BEED1FB7D012B05D13C4BF8
:101A0C00DB693B4A23F08053D3617B68DB69002B95
:101A1C0069D0374B5B6803F00C03082B61D07B68F3
:101A2C00DB69022B46D1344B00221A60FEF7E8FB2F
:101A3C00386108E0FEF7E4FB02463B69D31A022B3F
:101A4C0001D9032350E02A4B1B6803F00073002BD1
:101A5C00F0D17B681B6AB3F5803F08D1244B5B68DF
:101A6C0023F400327B689B68214913434B60204B65
:101A7C005B6823F474127B68196A7B685B6A0B439E
:101A8C001B4913434B601C4B01221A60FEF7B8FB39
:101A9C00386108E0FEF7B4FB02463B69D31A022B0F
:101AAC0001D9032320E0124B1B6803F00073002BB9
:101ABC00F0D018E0104B00221A60FEF7A1FB386141
:101ACC0008E0FEF79DFB02463B69D31A022B01D9B5
:101ADC00032309E0064B1B6803F00073002BF0D1C5
:101AEC0001E0012300E0002318461837BD4680BDF5
:101AFC0000100240007000406000424280B584B08B
:101B0C0000AF786039600023FB607E4B1B6803F0EC
:101B1C0007033A689A4210D97A4B1B6823F00702E4
:101B2C0078493B6813430B60764B1B6803F0070343
:101B3C003A689A4201D00123E0E07B681B6803F00D
:101B4C000203002B20D07B681B6803F00403002BDE
:101B5C0005D06D4B5B686C4A43F4E06353607B6863
:101B6C001B6803F00803002B05D0674B5B68664AC3
:101B7C0043F460535360644B5B6823F0F0027B6862
:101B8C009B68614913434B607B681B6803F001033E
:101B9C00002B6AD07B685B68012B07D15A4B1B6802
:101BAC0003F40033002B15D10123A7E07B685B689D
:101BBC00022B07D1544B1B6803F00073002B09D187
:101BCC0001239BE0504B1B6803F00203002B01D157
:101BDC00012393E04C4B5B6823F003027B685B684A
:101BEC00494913434B60FEF70BFBF8607B685B685D
:101BFC00012B12D10AE0FEF703FB0246FB68D31A55
:101C0C0041F28832934201D9032377E03E4B5B6863
:101C1C0003F00C03042BEED127E07B685B68022BEE
:101C2C001DD10AE0FEF7ECFA0246FB68D31A41F22A
:101C3C008832934201D9032360E0334B5B6803F095
:101C4C000C03082BEED110E0FEF7DAFA0246FB6823
:101C5C00D31A41F28832934201D903234EE02A4B26
:101C6C005B6803F00C03002BEED1264B1B6803F0D2
:101C7C0007033A689A4210D2224B1B6823F00702E2
:101C8C0020493B6813430B601E4B1B6803F0070392
:101C9C003A689A4201D0012330E07B681B6803F05C
:101CAC000403002B08D0184B5B6823F4E0627B68BC
:101CBC00DB68154913434B607B681B6803F0080312
:101CCC00002B09D0104B5B6823F460527B681B69B6
:101CDC00DB000D4913434B6000F01CF801460A4B26
:101CEC005B681B0903F00F03084AD35C21FA03F36A
:101CFC00074A13600020FEF741FA002318461037FC
:101D0C00BD4680BD0020024000100240386900082A
:101D1C001801002090B48AB000AF2A4B3C1D0FCBA9
:101D2C0084E80F00284B1B883B800023FB610023B9
:101D3C00BB6100237B6200237B6100233B62234B4E
:101D4C005B68FB61FB6903F00C03042B02D0082BCE
:101D5C0003D02DE01E4B3B622DE0FB699B0C03F086
:101D6C000F0307F12802134413F8243C7B61FB6931
:101D7C0003F48033002B13D0144B5B685B0C03F023
:101D8C00010307F12802134413F8283CBB617B695B
:101D9C000F4A02FB03F2BB69B2FBF3F37B6204E074
:101DAC007B690C4A02FB03F37B627B6A3B6202E0B9
:101DBC00074B3B6200BF3B6A18462837BD4690BCB8
:101DCC00704700BF14690008246900080010024025
:101DDC0000127A0000093D0080B400AF024B1B6872
:101DEC001846BD4680BC70471801002080B485B0F1
:101DFC0000AF78600A4B1B680A4AA2FB03235B0AFC
:101E0C007A6802FB03F3FB6000BFFB685A1EFA60A2
:101E1C00002BF9D100BF1437BD4680BC704700BF02
:101E2C0018010020D34D621080B586B000AF7860E9
:101E3C0000233B610023FB607B681B6803F00103FC
:101E4C00002B7DD00023FB754F4BDB6903F08053D7
:101E5C00002B0DD14C4BDB694B4A43F08053D361C3
:101E6C00494BDB6903F08053BB60BB680123FB75F6
:101E7C00464B1B6803F48073002B18D1434B1B6833
:101E8C00424A43F480731360FEF7BAF9386108E0F4
:101E9C00FEF7B6F902463B69D31A642B01D903232A
:101EAC006DE03A4B1B6803F48073002BF0D0364B7B
:101EBC001B6A03F44073FB60FB68002B2ED07B681D
:101ECC005B6803F44073FA689A4227D02E4B1B6A66
:101EDC0023F44073FB602E4B01221A602C4B002222
:101EEC001A60294AFB681362FB6803F00103002B9C
:101EFC0014D0FEF785F938610AE0FEF781F9024645
:101F0C003B69D31A41F28832934201D9032336E05C
:101F1C001D4B1B6A03F00203002BEED01A4B1B6AFD
:101F2C0023F440727B685B68174913430B62FB7D9B
:101F3C00012B05D1144BDB69134A23F08053D36179
:101F4C007B681B6803F00203002B08D00E4B5B6808
:101F5C0023F440427B689B680B4913434B607B68BE
:101F6C001B6803F01003002B08D0074B5B6823F4AD
:101F7C0080027B68DB68044913434B6000231846DE
:101F8C001837BD4680BD00BF0010024000700040F5
:101F9C004004424280B58CB002AFF860B9607A6000
:101FAC007B800023FB610023BB6100237B61012349
:101FBC007B62002387F82330FB6893F85030012BA9
:101FCC0001D1022382E1FB68012283F85020FEF745
:101FDC0017F97861FB6893F85130DBB2FB61FB6851
:101FEC005B68BB61FB69012B0ED0BB69B3F5827FCB
:101FFC0006D1FB689B68002B02D1FB69042B03D034
:10200C00022387F8233057E1BB68002B05D07B688F
:10201C00002B02D07B88002B03D1012387F82330BF
:10202C004AE1FB6893F85130DBB2012B03D1FB681A
:10203C00052283F85120FB6800225A65FB687A68F8
:10204C009A63FB687A88DA87FB687A889A87FB68D8
:10205C00BA681A63FB687A88DA86FB687A889A868B
:10206C00FB6800221A64FB6800225A64FB681B6838
:10207C001B6803F04003402B07D0FB681B681A68F1
:10208C00FB681B6842F040021A60FB68DB68B3F522
:10209C00006F71D1FB685B68002B04D0FB68DB8E92
:1020AC009BB2012B5DD1BB681A88FB681B68DA6098
:1020BC00BB680233BB60FB68DB8E9BB2013B9AB200
:1020CC00FB68DA864DE07B6A002B1CD0FB68DB8E4C
:1020DC009BB2002B17D0FB681B689B6803F00203B4
:1020EC00022B10D1BB681A88FB681B68DA60BB68CE
:1020FC000233BB60FB68DB8E9BB2013B9AB2FB6880
:10210C00DA8600237B62FB68DB8F9BB2002B18D036
:10211C00FB681B689B6803F00103012B11D1FB6862
:10212C001B68DB689AB27B681A807B6802337B6021
:10213C00FB68DB8F9BB2013B9AB2FB68DA87012309
:10214C007B623B6BB3F1FF3F0BD0FEF759F80246B5
:10215C007B69D31A3A6B9A4203D8032387F823304E
:10216C00AAE0FB68DB8E9BB2002BACD1FB68DB8F4B
:10217C009BB2002BA7D170E0FB685B68002B04D0EE
:10218C00FB68DB8E9BB2012B5DD1FB681B680C33AB
:10219C00BA6812781A70BB680133BB60FB68DB8EBF
:1021AC009BB2013B9AB2FB68DA864CE07B6A002B4F
:1021BC001CD0FB68DB8E9BB2002B17D0FB681B6816
:1021CC009B6803F00203022B10D1BB685A1CBA6047
:1021DC00FA6812680C321B781370FB68DB8E9BB2AA
:1021EC00013B9AB2FB68DA8600237B62FB68DB8FCB
:1021FC009BB2002B17D0FB681B689B6803F0010394
:10220C00012B10D1FB681B68D9687B685A1C7A605B
:10221C00CAB21A70FB68DB8F9BB2013B9AB2FB68A7
:10222C00DA8701237B623B6BB3F1FF3F0BD0FDF7E9
:10223C00E7FF02467B69D31A3A6B9A4203D8032311
:10224C0087F8233038E0FB68DB8E9BB2002BADD1D6
:10225C00FB68DB8F9BB2002BA8D17B6900933B6B97
:10226C0001220221F86800F035F80346002B03D058
:10227C00032387F823301FE07A69396BF86800F084
:10228C0092F80346002B06D0012387F82330FB6815
:10229C0020225A6510E0FB689B68002B0BD10023B1
:1022AC003B61FB681B68DB683B61FB681B689B68D8
:1022BC003B613B6900E000BFFB68012283F85120C1
:1022CC00FB68002283F8502097F8233018462837F3
:1022DC00BD4680BD80B584B000AFF860B9607A604F
:1022EC003B604DE03B68B3F1FF3F49D03B68002BAE
:1022FC0007D0FDF785FF0246BB69D31A3A689A42AC
:10230C003ED8FB681B685A68FB681B6822F0E00229
:10231C005A60FB685B68B3F5827F11D1FB689B68E0
:10232C00B3F5004F04D0FB689B68B3F5806F07D101
:10233C00FB681B681A68FB681B6822F040021A6075
:10234C00FB689B6AB3F5005F10D1FB681B681968CA
:10235C00FB681A684DF6FF730B401360FB681B6833
:10236C001A68FB681B6842F400521A60FB68012271
:10237C0083F85120FB68002283F8502003230EE0E1
:10238C00FB681B689A68BB681340BA689A4201D113
:10239C00012200E000227B689A42A3D10023184658
:1023AC001037BD4680BD80B586B002AFF860B9600D
:1023BC007A607B680093BB6800228021F868FFF785
:1023CC0089FF0346002B07D0FB685B6D43F02002AE
:1023DC00FB685A65032300E0002318461037BD46FE
:1023EC0080BD80B582B000AF78607B68002B01D1D6
:1023FC00012357E07B6800229A627B6893F8513086
:10240C00DBB2002B02D1786803F076FB7B680222EA
:10241C0083F851207B681B681A687B681B6822F064
:10242C0040021A607B685A687B689B681A437B6819
:10243C00DB681A437B681B691A437B685B691A4328
:10244C007B689B6903F400731A437B68DB691A434E
:10245C007B681B6A42EA03017B689A6A7B681B688B
:10246C000A431A607B689B691B0C03F004017B68B0
:10247C005A6A7B681B680A435A607B681B687A68D7
:10248C00D26A1A617B681B68DA697B681B6822F464
:10249C000062DA617B6800225A657B68012283F84E
:1024AC005120002318460837BD4680BD80B582B048
:1024BC0000AF78607B68002B01D101231DE07B68A5
:1024CC0093F83D30DBB2002B06D17B68002283F8F9
:1024DC003C20786803F05AFB7B68022283F83D208D
:1024EC007B681A687B6804331946104600F028F99B
:1024FC007B68012283F83D20002318460837BD462F
:10250C0080BD80B483B000AF78607B68022283F812
:10251C003D207B681B681A687B681B6842F00102CF
:10252C001A607B68012283F83D20002318460C3783
:10253C00BD4680BC704780B483B000AF78607B68C8
:10254C00022283F83D207B681B681A6A41F2111342
:10255C001340002B0FD17B681B681A6A40F244436E
:10256C001340002B07D17B681B681A687B681B68BB
:10257C0022F001021A607B68012283F83D200023BF
:10258C0018460C37BD4680BC704780B584B000AF90
:10259C00786039600023FB607B6893F83C30012B3A
:1025AC0001D10223C8E07B68012283F83C207B68C0
:1025BC00022283F83D207B681B689B68FB60FB68EC
:1025CC0023F07703FB60FB6823F47F43FB607B689D
:1025DC001B68FA689A603B681B68402B77D0402BCD
:1025EC000ED8102B00F08A80102B02D8002B7ED036
:1025FC0099E0202B00F08980302B00F08D8092E048
:10260C00702B16D0702B04D8502B40D0602B4ED092
:10261C0089E0B3F5805F03D0B3F5005F24D082E08E
:10262C007B681B689A687B681B6822F007029A60BB
:10263C0079E07B6818683B6899683B685A683B6826
:10264C00DB6800F067F97B681B689B68FB60FB68C4
:10265C0023F07703FB60FB6843F07703FB607B6838
:10266C001B68FA689A605EE07B6818683B6899683A
:10267C003B685A683B68DB6800F04CF97B681B6868
:10268C009A687B681B6842F480429A604BE07B68D6
:10269C0018683B6859683B68DB681A4600F0B6F866
:1026AC007B681B685021184600F015F93BE07B68ED
:1026BC0018683B6859683B68DB681A4600F0D8F824
:1026CC007B681B686021184600F005F92BE07B68DD
:1026DC0018683B6859683B68DB681A4600F096F846
:1026EC007B681B684021184600F0F5F81BE07B68FE
:1026FC001B680021184600F0EEF814E07B681B689C
:10270C001021184600F0E7F80DE07B681B682021CB
:10271C00184600F0E0F806E07B681B68302118468C
:10272C0000F0D9F800BF7B68012283F83D207B685C
:10273C00002283F83C20002318461037BD4680BD8C
:10274C0080B485B000AF786039600023FB607B6893
:10275C001B68FB607B682A4A93420BD07B68B3F101
:10276C00804F07D07B68274A934203D07B68264A68
:10277C00934208D1FB6823F07003FB603B685B68F5
:10278C00FA681343FB607B681D4A93420BD07B684D
:10279C00B3F1804F07D07B681A4A934203D07B6811
:1027AC00194A934208D1FB6823F44073FB603B68E1
:1027BC00DB68FA681343FB60FB6823F08003FB6063
:1027CC003B685B69FA681343FB607B68FA681A60C4
:1027DC003B689A687B68DA623B681A687B689A6225
:1027EC007B68074A934203D13B681A697B681A637A
:1027FC007B6801225A6100BF1437BD4680BC70470C
:10280C00002C0140000400400008004080B487B058
:10281C0000AFF860B9607A6000237B6100233B61F4
:10282C00FB681B6A3B61FB681B6A23F00102FB68B7
:10283C001A62FB689B697B617B6923F0F0037B6107
:10284C007B681B017A6913437B613B6923F00A03A4
:10285C003B613A69BB6813433B61FB687A699A61D7
:10286C00FB683A691A6200BF1C37BD4680BC7047D2
:10287C0080B487B000AFF860B9607A6000237B61E8
:10288C0000233B61FB681B6A23F01002FB681A6291
:10289C00FB689B697B61FB681B6A3B617B6923F46A
:1028AC0070437B617B681B037A6913437B613B69D3
:1028BC0023F0A0033B61BB681B013A6913433B61E6
:1028CC00FB687A699A61FB683A691A6200BF1C3727
:1028DC00BD4680BC704780B485B000AF78600B46B5
:1028EC007B800023FB607B689B68FB60FB6823F0AC
:1028FC007003FB607B8843F007039BB21A46FB68AE
:10290C001343FB607B68FA689A6000BF1437BD46BE
:10291C0080BC704780B487B000AFF860B9607A6053
:10292C003B6000237B61FB689B687B617B6923F4C4
:10293C007F437B613B681A027B681A43BB68134375
:10294C007A6913437B61FB687A699A6000BF1C3714
:10295C00BD4680BC704780B483B000AF78603960EE
:10296C007B6893F83C30012B01D1022332E07B6869
:10297C00012283F83C207B68022283F83D207B688F
:10298C001B685A687B681B6822F070025A607B686F
:10299C001B6859683B681A687B681B680A435A6055
:1029AC007B681B689A687B681B6822F080029A60BF
:1029BC007B681B6899683B685A687B681B680A438C
:1029CC009A607B68012283F83D207B68002283F8A3
:1029DC003C20002318460C37BD4680BC704784B0A1
:1029EC0080B483B000AF786007F1140080E80E006B
:1029FC00002318460C37BD4680BC04B0704780B429
:102A0C0085B000AF78600023FB604FF43F43FB6060
:102A1C007B68B3F840309AB2FB689BB213439AB20E
:102A2C007B68A3F84020002318461437BD4680BCB1
:102A3C00704780B485B000AF78600023FB604FF422
:102A4C003D43FB607B68B3F840309AB2FB689BB2A5
:102A5C00DB439BB213409AB27B68A3F8402000235F
:102A6C0018461437BD4680BC704780B483B000AFA5
:102A7C0078600B46FB70002318460C37BD4680BCB3
:102A8C00704784B080B582B000AF786007F1140055
:102A9C0080E80E007B680122A3F840207B680022AE
:102AAC00A3F840207B680022A3F844207B68002216
:102ABC00A3F850207868FFF7A2FF002318460837C8
:102ACC00BD46BDE8804004B07047000090B484B0AF
:102ADC0000AF786039603B68DB78032B5FD801A2CC
:102AEC0052F823F0012B00087F2B00082D2B000837
:102AFC00532B00087A683B681B789B0013441B8897
:102B0C009BB223F4EC4323F070039AB279683B68D0
:102B1C001B789B000B4442F4007292B21A803FE087
:102B2C007A683B681B789B0013441B889BB27968BE
:102B3C003A68127892000A4423F4EC4323F07003B1
:102B4C009BB213802CE07A683B681B789B00134483
:102B5C001B889BB223F4EC4323F070039AB2796880
:102B6C003B681B789B000B4442F4C06292B21A8003
:102B7C0016E07A683B681B789B0013441B889BB259
:102B8C0023F4EC4323F070039AB279683B681B780A
:102B9C009B000B4442F4806292B21A8000E000BFAA
:102BAC007A683B681B789B0013441B889AB240F6EA
:102BBC000F7313409AB23B681B789BB2134399B2C4
:102BCC007A683B681B789B001A44754B0B439BB28D
:102BDC0013803B689B7A002B40F0E8803B685B7865
:102BEC00002B4CD03B689B885B089BB259007B68E0
:102BFC00B3F850309BB21A463B681B78DB00134489
:102C0C005A007B68134403F580630A461A607A689D
:102C1C003B681B789B0013441B889BB203F040035A
:102C2C00002B13D07A683B681B789B0013441B88DD
:102C3C009AB240F60F73134099B27A683B681B78CE
:102C4C009B001A44574B0B439BB213807A683B682A
:102C5C001B789B0013441B889BB223F4E04323F0A6
:102C6C0040039CB284F020039CB27A683B681B78CA
:102C7C009B001A444A4B23439BB21380D9E13B6817
:102C8C009B885B089BB259007B68B3F850309BB2B1
:102C9C001A463B681B78DB00134404335A007B68EC
:102CAC00134403F580630A461A607B68B3F850300E
:102CBC009BB21A463B681B78DB00134406335A0060
:102CCC007B68134403F58063BB603B681B693E2B38
:102CDC0018D93B681B695B09FB813B681B6903F0D6
:102CEC001F03002B02D1FB89013BFB81FB899B025B
:102CFC009BB26FEA43436FEA53439BB21A46BB68DD
:102D0C001A6012E03B681B695B08FB813B681B691E
:102D1C0003F00103002B02D0FB890133FB81FB89FB
:102D2C009B029BB21A46BB681A607A683B681B7898
:102D3C009B0013441B889BB203F48043002B13D0DD
:102D4C007A683B681B789B0013441B889AB240F648
:102D5C000F73134099B27A683B681B789B001A4436
:102D6C00114B0B439BB213807A683B681B789B001A
:102D7C0013441B889BB223F4804323F070039CB252
:102D8C0084F480539CB284F400539CB27A683B6800
:102D9C001B789B001A44024B23439BB2138048E1DF
:102DAC008080FFFFC080FFFF80C0FFFF7A683B6818
:102DBC001B789B0013441B889AB240F60F63134098
:102DCC0099B27A683B681B789B001A449C4B0B4366
:102DDC009BB213803B68DB885B089BB259007B6815
:102DEC00B3F850309BB21A463B681B78DB00134497
:102DFC005A007B68134403F580630A461A603B68EB
:102E0C001B895B089BB259007B68B3F850309BB2AE
:102E1C001A463B681B78DB00134404335A007B686A
:102E2C00134403F580630A461A603B685B78002BF9
:102E3C0040F083807A683B681B789B0013441B88A6
:102E4C009BB203F48043002B13D07A683B681B7849
:102E5C009B0013441B889AB240F60F73134099B22F
:102E6C007A683B681B789B001A44764B0B439BB2E9
:102E7C0013807A683B681B789B0013441B889BB2B9
:102E8C0003F04003002B13D07A683B681B789B003F
:102E9C0013441B889AB240F60F73134099B27A68A8
:102EAC003B681B789B001A44674B0B439BB2138007
:102EBC007A683B681B789B0013441B889AB240F6D7
:102ECC000F73134099B27A683B681B789B001A44C5
:102EDC005D4B0B439BB213807A683B681B789B005D
:102EEC0013441B889BB223F4804323F070039CB2E1
:102EFC0084F480539CB284F400539CB27A683B688F
:102F0C001B789B001A44514B23439BB213807A6865
:102F1C003B681B789B0013441B889BB223F4E04353
:102F2C0023F040039CB27A683B681B789B001A44E0
:102F3C00464B23439BB213807BE07A683B681B783B
:102F4C009B0013441B889BB203F48043002B13D0CB
:102F5C007A683B681B789B0013441B889AB240F636
:102F6C000F73134099B27A683B681B789B001A4424
:102F7C00344B0B439BB213807A683B681B789B00E5
:102F8C0013441B889BB203F04003002B13D07A68C8
:102F9C003B681B789B0013441B889AB240F60F7356
:102FAC00134099B27A683B681B789B001A44264BF5
:102FBC000B439BB213807A683B681B789B001344CD
:102FCC001B889AB240F60F73134099B27A683B682B
:102FDC001B789B001A441B4B0B439BB213807A68E3
:102FEC003B681B789B0013441B889BB223F4E04383
:102FFC0023F040039CB27A683B681B789B001A4410
:10300C00124B23439BB213807A683B681B789B005E
:10301C0013441B889BB223F4804323F070039CB2AF
:10302C007A683B681B789B001A44084B23439BB27D
:10303C001380002318461037BD4690BC704700BF64
:10304C008081FFFF80C0FFFFC080FFFF8080FFFFFB
:10305C0090B482B000AF786039603B689B7A002BEB
:10306C006DD13B685B78002B34D07A683B681B7859
:10307C009B0013441B889BB203F04003002B13D01E
:10308C007A683B681B789B0013441B889AB240F605
:10309C000F73134099B27A683B681B789B001A44F3
:1030AC00684B0B439BB213807A683B681B789B0080
:1030BC0013441B889BB223F4E04323F040039CB2DF
:1030CC007A683B681B789B001A445F4B23439BB286
:1030DC00138039E17A683B681B789B0013441B888A
:1030EC009BB203F48043002B13D07A683B681B78A7
:1030FC009B0013441B889AB240F60F73134099B28D
:10310C007A683B681B789B001A44504B0B439BB26C
:10311C0013807A683B681B789B0013441B889BB216
:10312C0023F4804323F070039CB27A683B681B78CD
:10313C009B001A44444B23439BB2138004E13B682D
:10314C005B78002B40F084807A683B681B789B008E
:10315C0013441B889BB203F48043002B13D07A6872
:10316C003B681B789B0013441B889AB240F60F7384
:10317C00134099B27A683B681B789B001A44334B16
:10318C000B439BB213807A683B681B789B001344FB
:10319C001B889BB203F04003002B13D07A683B686A
:1031AC001B789B0013441B889AB240F60F73134094
:1031BC0099B27A683B681B789B001A44214B0B43ED
:1031CC009BB213807A683B681B789B0013441B8866
:1031DC009AB240F60F73134099B27A683B681B7829
:1031EC009B001A44174B0B439BB213807A683B68C5
:1031FC001B789B0013441B889BB223F4804323F061
:10320C0070039CB27A683B681B789B001A440E4B87
:10321C0023439BB213807A683B681B789B00134452
:10322C001B889BB223F4E04323F040039CB27A68E2
:10323C003B681B789B001A44034B23439BB21380BF
:10324C0082E000BFC080FFFF8080FFFF80C0FFFFD7
:10325C007A683B681B789B0013441B889BB203F471
:10326C008043002B13D07A683B681B789B00134477
:10327C001B889AB240F60F73134099B27A683B6878
:10328C001B789B001A44334B0B439BB213807A6818
:10329C003B681B789B0013441B889BB203F04003D4
:1032AC00002B13D07A683B681B789B0013441B8857
:1032BC009AB240F60F73134099B27A683B681B7848
:1032CC009B001A44244B0B439BB213807A683B68D7
:1032DC001B789B0013441B889AB240F60F73134063
:1032EC0099B27A683B681B789B001A44194B0B43C4
:1032FC009BB213807A683B681B789B0013441B8835
:10330C009BB223F4E04323F040039CB27A683B6801
:10331C001B789B001A44114B23439BB213807A6891
:10332C003B681B789B0013441B889BB223F480439F
:10333C0023F070039CB27A683B681B789B001A449C
:10334C00064B23439BB21380002318460837BD4617
:10335C0090BC704780C0FFFFC080FFFF8080FFFFE4
:10336C0090B58DB000AF786039600023FB853B6869
:10337C009B69BB623B685B78012B40F049813B68E1
:10338C009A693B681B699A4209D93B681B69BB6205
:10339C003B689A69BB6AD21A3B689A6105E03B6844
:1033AC009B69BB623B6800229A613B689B7A002B4D
:1033BC001BD13B6859693B689A88BB6A9BB2786899
:1033CC0000F07DFB7B68B3F850309BB21A463B682B
:1033DC001B78DB00134402335A007B68134403F55B
:1033EC0080631A46BB6A1360F6E07A683B681B7808
:1033FC009B0013441B889BB203F04003002B59D055
:10340C003B685B78002B3BD17B68B3F850309BB2A8
:10341C001A463B681B78DB00134406335A007B6862
:10342C00134403F58063BB60BB6A3E2B16D9BB6AA1
:10343C005B09FB84BB6A03F01F03002B02D1FB8CDE
:10344C00013BFB84FB8C9B029BB26FEA43436FEA0C
:10345C0053439BB21A46BB681A6027E0BB6A5B08F1
:10346C00FB84BB6A03F00103002B02D0FB8C0133FD
:10347C00FB84FB8C9B029BB21A46BB681A6015E05E
:10348C003B685B78012B11D17B68B3F850309BB251
:10349C001A463B681B78DB00134402335A007B68E6
:1034AC00134403F580631A46BB6A13603B681B899F
:1034BC00FB8558E03B685B78002B3BD17B68B3F80D
:1034CC0050309BB21A463B681B78DB001344023326
:1034DC005A007B68134403F58063FB60BB6A3E2B88
:1034EC0016D9BB6A5B09BB84BB6A03F01F03002BB4
:1034FC0002D1BB8C013BBB84BB8C9B029BB26FEAA1
:10350C0043436FEA53439BB21A46FB681A6027E0A9
:10351C00BB6A5B08BB84BB6A03F00103002B02D0BF
:10352C00BB8C0133BB84BB8C9B029BB21A46FB68E1
:10353C001A6015E03B685B78012B11D17B68B3F8FE
:10354C0050309BB21A463B681B78DB0013440233A5
:10355C005A007B68134403F580631A46BB6A1360F8
:10356C003B68DB88FB853B685969BB6A9BB2FA8D6B
:10357C00786800F0A4FA3B685B78002B14D17A6869
:10358C003B681B789B0013441B889AB240F60F7360
:10359C00134099B27A683B681B789B001A44924B93
:1035AC000B439BB2138017E03B685B78012B13D164
:1035BC007A683B681B789B0013441B889AB240F6D0
:1035CC000F73134099B27A683B681B789B001A44BE
:1035DC00864B0B439BB213807A683B681B789B002D
:1035EC0013441B889BB223F4E04323F040039CB2AA
:1035FC0084F010039CB284F020039CB27A683B6880
:10360C001B789B001A447A4B23439BB2138022E114
:10361C003B689A693B681B699A4209D93B681B69EC
:10362C00BB623B689A69BB6AD21A3B689A6105E037
:10363C003B689B69BB623B6800229A613B689B7A42
:10364C00002B3BD17B68B3F850309BB21A463B68D9
:10365C001B78DB00134406335A007B68134403F5D4
:10366C0080633B61BB6A3E2B16D9BB6A5B097B84CA
:10367C00BB6A03F01F03002B02D17B8C013B7B84C4
:10368C007B8C9B029BB26FEA43436FEA53439BB222
:10369C001A463B691A60C3E0BB6A5B087B84BB6A51
:1036AC0003F00103002B02D07B8C01337B847B8CD9
:1036BC009B029BB21A463B691A60B1E03B685B788F
:1036CC00002B3BD17B68B3F850309BB21A463B6859
:1036DC001B78DB00134402335A007B68134403F558
:1036EC008063BB61BB6A3E2B16D9BB6A5B093B840A
:1036FC00BB6A03F01F03002B02D13B8C013B3B84C4
:10370C003B8C9B029BB26FEA43436FEA53439BB2E1
:10371C001A46BB691A6027E0BB6A5B083B84BB6A2C
:10372C0003F00103002B02D03B8C01333B843B8C18
:10373C009B029BB21A46BB691A6015E03B685B782A
:10374C00012B11D17B68B3F850309BB21A463B6801
:10375C001B78DB00134402335A007B68134403F5D7
:10376C0080631A46BB6A13603B685B78002B41D1BF
:10377C007B68B3F850309BB21A463B681B78DB0071
:10378C00134406335A007B68134403F580637B6152
:10379C00BB6A3E2B16D9BB6A5B09FB83BB6A03F081
:1037AC001F03002B02D1FB8B013BFB83FB8B9B028A
:1037BC009BB26FEA43436FEA53439BB21A467B6951
:1037CC001A602DE0BB6A5B08FB83BB6A03F0010344
:1037DC00002B02D0FB8B0133FB83FB8B9B029BB238
:1037EC001A467B691A601BE0C080FFFF80C0FFFF98
:1037FC008080FFFF3B685B78012B11D17B68B3F8AD
:10380C0050309BB21A463B681B78DB0013440233E2
:10381C005A007B68134403F580631A46BB6A136035
:10382C007A683B681B789B0013441B889BB223F47B
:10383C00804323F070039CB284F480539CB284F4D4
:10384C0000539CB27A683B681B789B001A44044B6B
:10385C0023439BB21380002318463437BD4690BDDA
:10386C008080FFFF90B482B000AF786039603B6815
:10387C001B78002B18D17A683B681B789B0013448B
:10388C001B889BB24BF6BF741C4084F4805484F0AC
:10389C001004A1B27A683B681B789B001A44204B39
:1038AC000B439BB2138034E03B685B78002B18D041
:1038BC007A683B681B789B0013441B889BB223F4EB
:1038CC00E04323F040039CB284F010039CB27A686E
:1038DC003B681B789B001A44114B23439BB213800B
:1038EC0017E07A683B681B789B0013441B889BB2DB
:1038FC0023F4804323F070039CB284F480539CB275
:10390C007A683B681B789B001A44054B23439BB297
:10391C001380002318460837BD4690BC704700BF83
:10392C008080FFFF90B482B000AF786039603B6854
:10393C005B78002B3AD07A683B681B789B00134469
:10394C001B889BB203F04003002B13D07A683B68B2
:10395C001B789B0013441B889AB240F60F731340DC
:10396C0099B27A683B681B789B001A442F4B0B4327
:10397C009BB213807A683B681B789B0013441B88AE
:10398C009BB223F4E04323F040039CB284F0100379
:10399C009CB284F020039CB27A683B681B789B0035
:1039AC001A44234B23439BB2138039E07A683B685B
:1039BC001B789B0013441B889BB203F48043002BA1
:1039CC0013D07A683B681B789B0013441B889AB20F
:1039DC0040F60F73134099B27A683B681B789B00D2
:1039EC001A44144B0B439BB213807A683B681B78C8
:1039FC009B0013441B889BB223F4804323F0700379
:103A0C009CB284F480539CB284F400539CB27A68C8
:103A1C003B681B789B001A44054B23439BB21380D5
:103A2C00002318460837BD4690BC7047C080FFFF86
:103A3C008080FFFF80C0FFFF80B483B000AF786050
:103A4C000B46FB70FB78002B03D17B688022A3F81C
:103A5C004C20002318460C37BD4680BC704780B400
:103A6C0083B000AF7860002318460C37BD4680BC8D
:103A7C00704780B483B000AF7860002318460C37D1
:103A8C00BD4680BC704780B485B000AF7860002321
:103A9C00FB607B68B3F844309BB2FB60FB68184654
:103AAC001437BD4680BC704780B483B000AF7860DB
:103ABC003960002318460C37BD4680BC704780B473
:103ACC008BB000AFF860B96011461A460B46FB800C
:103ADC001346BB80BB8801335B10FB6100237B6208
:103AEC000023BB6100237B6100233B62FB885B00EE
:103AFC001A46FB68134403F580633B62FB697B62E7
:103B0C001BE0BB681B78BB61BB680133BB60BB6847
:103B1C001B781B021A46BB6913437B613B6A9A1CD8
:103B2C003A627A6992B21A803B6A02333B62BB6892
:103B3C000133BB607B6A013B7B627B6A002BE0D16B
:103B4C0000BF2C37BD4680BC704780B489B000AF35
:103B5C00F860B96011461A460B46FB801346BB80D1
:103B6C00BB8801335B107B610023FB610023BB61CD
:103B7C00FB885B001A46FB68134403F58063BB614A
:103B8C007B69FB610EE0BB691A1DBA611968BB68E1
:103B9C005A1CBA608AB21A80BB680133BB60FB69DD
:103BAC00013BFB61FB69002BEDD100BF2437BD4607
:103BBC0080BC704780B584B000AF78600B46FB705A
:103BCC000023FB737B681B7C002B0ED14FF400731E
:103BDC0002228121786802F0D4FA4FF40073022299
:103BEC000121786802F0CDFA0BE0402302228121FA
:103BFC00786802F0C6FA402302220121786802F0AC
:103C0C00C0FA082303228221786802F0BAFA4FF432
:103C1C00077002F0D7FB02467B68C3F818227B685A
:103C2C00D3F81832002B02D10123FB7326E07B68FA
:103C3C00D3F81832BB607B68D3F81C321B689847EA
:103C4C00BB680022C3F81422BB680022C3F81822F8
:103C5C007B681B7C002B09D1BB68D3F804224FF482
:103C6C0000730121786802F076FB07E0BB68D3F89B
:103C7C00042240230121786802F06DFBFB7B18467F
:103C8C001037BD4680BD80B584B000AF78600B4660
:103C9C00FB700023FB738121786802F098FA0121F4
:103CAC00786802F094FA8221786802F090FA7B68C6
:103CBC00D3F81832002B0ED07B68D3F81C325B681B
:103CCC0098477B68D3F81832184602F087FB7B685C
:103CDC000022C3F81822FB7B18461037BD4680BD66
:103CEC0080B584B000AF786039607B68D3F8183247
:103CFC00FB603B681B7803F06003002B3AD0202B51
:103D0C0000D043E03B68DB88002B29D03B681B7854
:103D1C005BB2002B11DA7B68D3F81C329B683A68D3
:103D2C005078F9683A68D2889847F9683B68DB881C
:103D3C001A46786801F00EF829E03B685A78FB685F
:103D4C0083F800223B68DB88DAB2FB6883F8012237
:103D5C00F9683B68DB881A46786801F029F816E0A8
:103D6C007B68D3F81C329B683A685078002239681B
:103D7C0098470CE03B685B780A2B01D00B2B05E0D5
:103D8C0001220549786800F0E5FF00BF00BF002361
:103D9C0018461037BD4680BDFC01002080B485B0AC
:103DAC0000AF78600B46FB707B68D3F81832FB6071
:103DBC007B68D3F81832002B05D0FB680022C3F8BF
:103DCC001422002300E0022318461437BD4680BCA1
:103DDC00704780B584B000AF78600B46FB707B6891
:103DEC00D3F81832FB60FB781946786802F0D6FAE3
:103DFC000246FB68C3F80C227B68D3F81832002B00
:103E0C000DD07B68D3F81C32DB68FA68D2F8040258
:103E1C00FA6802F5037211469847002300E002236A
:103E2C0018461037BD4680BD80B584B000AF7860B1
:103E3C007B68D3F81832FB607B68D3F81C32002BFC
:103E4C0015D0FB6893F80032FF2B10D07B68D3F8A9
:103E5C001C329B68FA6892F80002F968FA6892F8CA
:103E6C00012292B29847FB68FF2283F800220023BC
:103E7C0018461037BD4680BD80B483B000AF786063
:103E8C007B6843221A80034B18460C37BD4680BC16
:103E9C00704700BF9000002080B483B000AF786002
:103EAC007B6843221A80034B18460C37BD4680BCF6
:103EBC00704700BF4C00002080B483B000AF786026
:103ECC007B6843221A80034B18460C37BD4680BCD6
:103EDC00704700BFD400002080B483B000AF78607E
:103EEC007B680A221A80034B18460C37BD4680BCEF
:103EFC00704700BF0800002080B485B000AF786028
:103F0C0039600223FB733B68002B05D07B683A6851
:103F1C00C3F81C220023FB73FB7B18461437BD46E9
:103F2C0080BC704780B487B000AFF860B9601346AE
:103F3C00FB80FB68D3F818327B617B69BA68C3F8E5
:103F4C000822FA887B69C3F81022002318461C3714
:103F5C00BD4680BC704780B485B000AF78603960D6
:103F6C007B68D3F81832FB60FB683A68C3F804220C
:103F7C00002318461437BD4680BC704780B584B00A
:103F8C0000AF78607B68D3F81832FB607B68D3F89D
:103F9C001832002B17D0FB68D3F81432002B10D139
:103FAC00FB680122C3F81422FB68D3F80822FB68D3
:103FBC00D3F810329BB28121786802F0A9F9002362
:103FCC0002E0012300E0022318461037BD4680BDF5
:103FDC0080B584B000AF78607B68D3F81832FB6092
:103FEC007B68D3F81832002B17D07B681B7C002B16
:103FFC0009D1FB68D3F804224FF4007301217868CF
:10400C0002F0A9F907E0FB68D3F804224023012150
:10401C00786802F0A0F9002300E00223184610375C
:10402C00BD4680BD80B584B000AFF860B960134662
:10403C00FB71FB68002B01D102231AE0FB68D3F85B
:10404C001432002B03D0FB680022C3F81422BB6887
:10405C00002B03D0FB68BA68C3F81022FB6801225E
:10406C0083F8FC21FB68FA791A70F86802F014F8EE
:10407C00002318461037BD4680BD80B485B000AF14
:10408C00786039600023FB733B68002B06D07B689B
:10409C003A68C3F814220023FB7301E00223FB737C
:1040AC00FB7B18461437BD4680BC704780B582B088
:1040BC0000AF7860786802F049F80023184608379A
:1040CC00BD4680BD80B483B000AF78600023184635
:1040DC000C37BD4680BC704780B584B000AF7860AB
:1040EC000B46FB700223FB737B68D3F81432002B56
:1040FC000CD07B68D3F814321B68FA7811467868B8
:10410C0098470346002B01D10023FB73FB7B184619
:10411C001037BD4680BD80B582B000AF78600B46CD
:10412C00FB707B68D3F814325B68FA7811467868B8
:10413C009847002318460837BD4680BD80B582B02D
:10414C0000AF786039607B6803F5027339681846F4
:10415C0000F059FD7B680122C3F8F4217B68B3F8A9
:10416C000E321A467B68C3F8F8217B6893F8083244
:10417C0003F01F03012B0BD0022B11D0002B17D1F6
:10418C007B6803F502731946786800F087F91AE02A
:10419C007B6803F502731946786800F0CFF912E0DA
:1041AC007B6803F502731946786800F0FAF90AE0A7
:1041BC007B6893F8083223F07F03DBB219467868EA
:1041CC0002F024F800BF002318460837BD4680BD16
:1041DC0080B586B000AFF8600B467A60FB72FB7A54
:1041EC00002B38D1FB6803F582737B61FB68D3F835
:1041FC00F431032B42D17B699A687B69DB689A4264
:10420C0014D97B699A687B69DB68D21A7B699A60DE
:10421C007B69DA687B699B68934228BF13469BB223
:10422C001A467968F86800F0E1FD27E0FB68D3F8DE
:10423C0014321B69002B0AD0FB6893F8FC31032B5A
:10424C0005D1FB68D3F814321B69F8689847F868F5
:10425C0000F0DEFD12E0FB68D3F814329B69002BF2
:10426C000CD0FB6893F8FC31032B07D1FB68D3F817
:10427C0014329B69FA7A1146F8689847002318465D
:10428C001837BD4680BD80B586B000AFF8600B46D0
:10429C007A60FB72FB7A002B6CD1FB6814337B6168
:1042AC00FB68D3F8F431022B57D17B699A687B6990
:1042BC00DB689A4215D97B699A687B69DB68D21AEC
:1042CC007B699A607B699B689BB21A467968F8682F
:1042DC0000F05CFD002300220021F86802F03BF89E
:1042EC003BE07B695B687A69D268B3FBF2F102FB55
:1042FC0001F29B1A002B1CD17B695A687B69DB6825
:10430C009A4216D37B695A68FB68D3F8F8319A4203
:10431C000FD200220021F86800F038FDFB68002263
:10432C00C3F8F821002300220021F86802F013F8EA
:10433C0013E0FB68D3F81432DB68002B0AD0FB685F
:10434C0093F8FC31032B05D1FB68D3F81432DB68EE
:10435C00F8689847F86800F06EFDFB6893F8003237
:10436C00012B1AD1F868FFF7ADFEFB68002283F829
:10437C00002212E0FB68D3F814325B69002B0CD0DE
:10438C00FB6893F8FC31032B07D1FB68D3F814328C
:10439C005B69FA7A1146F868984700231846183773
:1043AC00BD4680BD80B582B000AF7860402300224E
:1043BC000021786801F0E5FE7B684022C3F81021EB
:1043CC00402300228021786801F0DBFE7B684022CC
:1043DC001A627B68012283F8FC217B68D3F81832BF
:1043EC00002B09D07B68D3F814325B687A6852686A
:1043FC00D2B2114678689847002318460837BD4654
:10440C0080BD80B483B000AF78600B46FB707B68D6
:10441C00FA781A74002318460C37BD4680BC7047D6
:10442C0080B483B000AF78607B6893F8FC217B6824
:10443C0083F8FD217B68042283F8FC2100231846B5
:10444C000C37BD4680BC704780B483B000AF786039
:10445C007B6893F8FD217B6883F8FC2100231846C8
:10446C000C37BD4680BC704780B582B000AF786019
:10447C007B6893F8FC31032B0BD17B68D3F8143297
:10448C00DB69002B05D07B68D3F81432DB697868C4
:10449C009847002318460837BD4680BD80B584B0C8
:1044AC0000AF786039600023FB733B685B78092BA5
:1044BC0039D801A252F823F0154500082945000807
:1044CC00334500081F45000833450008F744000831
:1044DC00ED440008334500080B4500080145000871
:1044EC003968786800F036F922E03968786800F0AD
:1044FC0025FA1DE03968786800F05EFA18E0396832
:10450C00786800F0E1FA13E03968786800F00EFB87
:10451C000EE03968786800F033FB09E03968786898
:10452C0000F049FB04E03968786800F0A8FB00BF94
:10453C00FB7B18461037BD4680BD00BF80B584B0EC
:10454C0000AF786039600023FB737B6893F8FC3113
:10455C00032B1BD13B689B88DBB2012B11D87B68EA
:10456C00D3F814329B683968786898473B68DB88C5
:10457C00002B10D1FB7B002B0DD1786800F048FC90
:10458C0009E03968786800F07AFB04E039687868EB
:10459C0000F075FB00E000BF002318461037BD4645
:1045AC0080BD80B584B000AF786039600023FB73A8
:1045BC003B689B88BB733B681B7803F06003202B24
:1045CC0008D17B68D3F814329B68396878689847AF
:1045DC000023BAE03B685B78012B39D0032B02D067
:1045EC00002B6BD0B0E07B6893F8FC31022B02D02F
:1045FC00032B0CD025E0BB7B002B27D0BB7B802B67
:10460C0024D0BB7B1946786801F000FE1EE03B68A5
:10461C005B88002B0AD1BB7B002B07D0BB7B802B8C
:10462C0004D0BB7B1946786801F0F0FD7B68D3F8A9
:10463C0014329B68396878689847786800F0E8FB12
:10464C0005E03968786800F01AFB00E000BF7BE0F9
:10465C007B6893F8FC31022B02D0032B0CD024E0A6
:10466C00BB7B002B26D0BB7B802B23D0BB7B19467E
:10467C00786801F0CBFD1DE03B685B88002B1BD1FB
:10468C00BB7B03F07F03002B0BD0BB7B19467868F8
:10469C0001F0DBFD7B68D3F814329B6839687868CD
:1046AC009847786800F0B4FB06E03968786800F049
:1046BC00E6FA02E000BF47E000BF45E07B6893F8F4
:1046CC00FC31022B02D0032B0BD036E0BB7B03F06A
:1046DC007F03002B36D0BB7B1946786801F096FD22
:1046EC0030E097F90E30002B08DABB7B03F07F0328
:1046FC0001331B017A681344043307E0BB7B03F0DE
:10470C007F0310331B017A6813440433BB60BB7BFB
:10471C001946786801F0B8FD0346002B03D0BB683E
:10472C0001221A6002E0BB6800221A60BB680222F8
:10473C001946786800F00EFB05E03968786800F0DF
:10474C009EFA00E000BF00BFFB7B18461037BD4649
:10475C0080BD000080B584B000AF786039603B68E4
:10476C005B881B0A9BB2013B062B00F2C98001A29D
:10477C0052F823F09D470008B5470008F54700089C
:10478C000D4900080D490008B9480008DF48000829
:10479C007B68D3F810321B687A68127C07F10A0127
:1047AC0010469847F860B0E07B681B7C002B0DD15D
:1047BC007B68D3F814329B6A07F10A0210469847BB
:1047CC00F860FB68013302221A709EE07B68D3F814
:1047DC001432DB6A07F10A0210469847F860FB684E
:1047EC00013302221A7090E03B685B88DBB2052B28
:1047FC0056D801A252F823F01D480008354800088D
:10480C004D480008654800087D4800089548000898
:10481C007B68D3F810325B687A68127C07F10A0166
:10482C0010469847F86040E07B68D3F810329B68DC
:10483C007A68127C07F10A0110469847F86034E058
:10484C007B68D3F81032DB687A68127C07F10A01B6
:10485C0010469847F86028E07B68D3F810321B6943
:10486C007A68127C07F10A0110469847F8601CE040
:10487C007B68D3F810325B697A68127C07F10A0105
:10488C0010469847F86010E07B68D3F810329B69AB
:10489C007A68127C07F10A0110469847F86004E028
:1048AC003968786800F0EBF944E02EE07B681B7CFB
:1048BC00002B09D17B68D3F814325B6B07F10A0229
:1048CC0010469847F86020E03968786800F0D7F90E
:1048DC0030E07B681B7C002B0DD17B68D3F8143245
:1048EC001B6B07F10A0210469847F860FB6801330E
:1048FC0007221A7009E03968786800F0C0F919E0ED
:10490C003968786800F0BBF914E07B89002B11D072
:10491C003B68DB88002B0DD03B68DA887B8993429F
:10492C0028BF13469BB27B817B891A46F96878684D
:10493C0000F010FA1037BD4680BD00BF80B584B0C2
:10494C0000AF786039603B689B88002B2CD13B68AA
:10495C00DB88002B28D13B685B88DBB203F07F033C
:10496C00FB737B6893F8FC31032B04D139687868AE
:10497C0000F085F91CE07B68FA7B83F8FE21FB7B59
:10498C001946786801F0A5FC786800F041FAFB7BC9
:10499C00002B04D07B68022283F8FC2108E07B68A2
:1049AC00012283F8FC2103E03968786800F067F98C
:1049BC0000BF1037BD4680BD80B582B000AF7860B7
:1049CC0039603B685B88DAB23E4B1A703D4B1B7802
:1049DC00012B04D93968786800F051F96FE07B68D5
:1049EC0093F8FC31022B02D0032B23D062E0354B21
:1049FC001B78002B1AD0334B1B781A467B685A60F5
:104A0C007B68032283F8FC212E4B1B7819467868AF
:104A1C00FFF762FB0346022B04D13968786800F07B
:104A2C002EF94CE0786800F0F3F948E0786800F073
:104A3C00EFF944E0234B1B78002B12D17B68022248
:104A4C0083F8FC211F4B1B781A467B685A601D4B60
:104A5C001B7819467868FFF75EFB786800F0D8F988
:104A6C002DE0184B1B781A467B685B689A421DD068
:104A7C007B685B68DBB219467868FFF74CFB114B1F
:104A8C001B781A467B685A600E4B1B78194678685F
:104A9C00FFF722FB0346022B04D13968786800F03B
:104AAC00EEF80CE0786800F0B3F908E0786800F0F4
:104ABC00AFF904E03968786800F0E1F800BF083716
:104ACC00BD4680BDFD01002080B582B000AF78608E
:104ADC0039603B68DB88012B04D03968786800F0BA
:104AEC00CEF81FE07B6893F8FC31022B02D0032B2D
:104AFC000BD012E07B6800229A607B68083301229D
:104B0C001946786800F026F90CE07B680433012222
:104B1C001946786800F01EF904E03968786800F0EE
:104B2C00AEF800BF00BF0837BD4680BD80B582B06F
:104B3C0000AF786039607B6893F8FC31023B012B45
:104B4C0015D87B680122DA607B68D3F80432002B1D
:104B5C0005D07B68DB6843F002027B68DA607B6817
:104B6C000C3302221946786800F0F4F804E0396836
:104B7C00786800F084F800BF00BF0837BD4680BDE0
:104B8C0080B582B000AF786039603B685B88012BE0
:104B9C000DD17B680122C3F804227B68D3F8143250
:104BAC009B68396878689847786800F031F900BFDD
:104BBC000837BD4680BD80B582B000AF78603960E3
:104BCC007B6893F8FC31023B012B12D83B685B8865
:104BDC00012B13D17B680022C3F804227B68D3F825
:104BEC0014329B68396878689847786800F010F937
:104BFC0004E03968786800F042F800E000BF00BFBC
:104C0C000837BD4680BD80B483B000AF7860396092
:104C1C003B681A787B681A703B685A787B685A70C4
:104C2C003B6802331B789AB23B6803331B789BB208
:104C3C001B029BB213449AB27B685A803B680433C4
:104C4C001B789AB23B6805331B789BB21B029BB254
:104C5C0013449AB27B689A803B6806331B789AB2ED
:104C6C003B6807331B789BB21B029BB213449AB26E
:104C7C007B68DA8000BF0C37BD4680BC704780B5BE
:104C8C0082B000AF786039608021786801F0BEFA9C
:104C9C000021786801F0BAFA00BF0837BD4680BD24
:104CAC0080B586B000AFF860B9607A600023FB7500
:104CBC00FB68002B33D0F86800F035F8034601335D
:104CCC009BB25B009AB27B681A807B681A88FB7D6A
:104CDC00591CF9751946BB680B44D2B21A70FB7D8E
:104CEC005A1CFA751A46BB68134403221A7012E058
:104CFC00FB685A1CFA60FA7D511CF9751146BA68AA
:104D0C000A441B781370FB7D5A1CFA751A46BB6853
:104D1C00134400221A70FB681B78002BE8D100BFEB
:104D2C001837BD4680BD80B485B000AF78600023D5
:104D3C00FB7305E0FB7B0133FB737B6801337B600A
:104D4C007B681B78002BF5D1FB7B18461437BD46CE
:104D5C0080BC704780B584B000AFF860B960134672
:104D6C00FB80FB680222C3F8F421FA88FB689A6185
:104D7C00FA88FB68DA61FB88BA680021F86801F0F0
:104D8C00C7FA002318461037BD4680BD80B584B0E5
:104D9C0000AFF860B9601346FB80FB88BA6800214D
:104DAC00F86801F0B5FA002318461037BD4680BDEF
:104DBC0080B584B000AFF860B9601346FB80FB6827
:104DCC000322C3F8F421FA88FB68C3F80821FA8897
:104DDC00FB68C3F80C21FB88BA680021F86801F065
:104DEC00BAFA002318461037BD4680BD80B584B092
:104DFC0000AFF860B9601346FB80FB88BA680021ED
:104E0C00F86801F0A8FA002318461037BD4680BD9B
:104E1C0080B582B000AF78607B680422C3F8F421BF
:104E2C00002300220021786801F072FA0023184652
:104E3C000837BD4680BD80B582B000AF78607B6816
:104E4C000522C3F8F421002300220021786801F028
:104E5C0082FA002318460837BD4680BD30B54FF4A2
:104E6C007A7100254FF6FF730D4C0E4A87B0204621
:104E7C00C4E90021C4E902532561A561FDF716FBC5
:104E8C004FF4805306A941F8103D2046FDF77DFBF9
:104E9C0020466946CDE90055FDF75DFD07B030BDF4
:104EAC0000020020000400402DE9F8430F1E16DD1F
:104EBC004FF000080125C1460A4C0B4E2F44C4F894
:104ECC0024903046FDF71DFB636A002BFCD00135A6
:104EDC003046FDF730FBBD42C4F82480EFD1BDE86D
:104EEC00F88300BF000400400002002002382C2888
:104EFC0000F2FB80DFE810F0F300ED00E700E200C9
:104F0C00DD00F900F900F900D800D300CE00C9008B
:104F1C00C400BF00BA00B500B000AB00A600A000F2
:104F2C009A00F900F90094008E00880082007C0041
:104F3C00760070006A0064005E00F900F900580009
:104F4C0052004D00480043003E003900F900330088
:104F5C002D000A4665484FF40071FBF701BC0A4668
:104F6C0062484FF48071FBF7FBBB0A465F48802117
:104F7C00FBF7F6BB0A465D484021FBF7F1BB0A463E
:104F8C005A482021FBF7ECBB0A4658481021FBF786
:104F9C00E7BB0A4655480821FBF7E2BB0A465448D2
:104FAC004FF40041FBF7DCBB0A4651484FF48041FB
:104FBC00FBF7D6BB0A464E484FF40051FBF7D0BB6B
:104FCC000A464B484FF48051FBF7CABB0A46484887
:104FDC004FF40061FBF7C4BB0A4645484FF48061AF
:104FEC00FBF7BEBB0A4642484FF40071FBF7B8BB57
:104FFC000A463F484FF48071FBF7B2BB0A463B4868
:10500C004FF40041FBF7ACBB0A4638484FF48041E3
:10501C00FBF7A6BB0A4635484FF40051FBF7A0BB83
:10502C000A4632484FF48051FBF79ABB0A462F4888
:10503C004FF40061FBF794BB0A462C484FF4806197
:10504C00FBF78EBB0A4629480421FBF789BB0A46AD
:10505C0026480221FBF784BB0A4624480121FBF7B2
:10506C007FBB0A4622488021FBF77ABB0A462048C0
:10507C004021FBF775BB0A461D482021FBF770BB8E
:10508C000A461B481021FBF76BBB0A46184808213F
:10509C00FBF766BB0A4616480421FBF761BB0A46C0
:1050AC0013480221FBF75CBB0A4611480121FBF7B0
:1050BC0057BB0A460F480221FBF752BB0A460D4864
:1050CC000121FBF74DBB0A460B484FF40041FBF79F
:1050DC0047BB0A4608484FF48041FBF741BB0A46E0
:1050EC0005484FF40051FBF73BBB7047000C0140E7
:1050FC00000801400014014000100140F0B50446C6
:10510C0064260D46174685B000790021FFF7EEFEA8
:10511C0045F02005D4F8AC000DF10F020DF10E0195
:10512C00009601238DF80E50FCF734FF04A901F80A
:10513C00037DD4F8AC000DF10F0201230096FCF7AF
:10514C0029FF20790121FFF7D1FE05B0F0BD00BF8A
:10515C002DE9F04106460D4664271C4684B00079C3
:10516C000021904645F02005FFF7C0FED6F8AC00B4
:10517C000DF10F02009701230DF10D018DF80D506B
:10518C00FCF708FF002C11DD08EB840454F8045DD7
:10519C00D6F8AC00012300970DF10F020DF10E01B2
:1051AC008DF80E50FCF7F6FEA045EFD130790121B9
:1051BC00FFF79CFE04B0BDE8F08100BF38B5044693
:1051CC0000F108052A4605231021FFF7C1FF05232E
:1051DC002A4620460A21FFF7BBFF94F8A42020465C
:1051EC001121FFF78BFFD4F89830D3B1012B19D0D4
:1051FC00022B1FD0032B23D0042B07BFA26F0E2131
:10520C00D4F890200F212046FFF778FFD4F898109F
:10521C0020460C4494F8A4201131BDE83840FFF727
:10522C006DBF38BD052304F120020B212046FFF78A
:10523C008FFFEBE7A26C0C212046FFF75FFFE5E741
:10524C00226E0D212046FFF759FFDFE770B50446AB
:10525C0064250E4684B000790021FFF747FED4F890
:10526C00AC000DF10F020DF10E01009501238DF82C
:10527C000E60FCF78FFEFF2304A901F8033DD4F860
:10528C00AC000DF10F0201230095FCF783FE207991
:10529C009DF80F400121FFF729FE204604B070BD98
:1052AC0038B5044600210078FFF720FE2046002187
:1052BC00FFF7CCFF002140F003022046FFF71EFF52
:1052CC0004F10805204670220721FFF717FF2A4634
:1052DC00204605231021FFF73BFF05232A462046D5
:1052EC000A21FFF735FF94F8A42020461121FFF77F
:1052FC0005FF2046FF22E121FFF700FF2046FF2299
:10530C00E221FFF7FBFE20780121FFF7EFFD20469D
:10531C00BDE838400121FFF7C7BD00BF2DE9F041C2
:10532C000C4684B060210546FFF790FF64270646C3
:10533C0000212879FFF7DAFD4FF0610CD5F8AC00AD
:10534C000DF10F02009701230DF10D018DF80DC029
:10535C00FCF720FE002E15DD4FF0FF08013C264423
:10536C00D5F8AC00012300970DF10F020DF10E01E1
:10537C008DF80E80FCF70EFE9DF80F3004F8013FFF
:10538C00B442EDD128790121FFF7B0FD2846402227
:10539C000721FFF7B3FE04B0BDE8F0812DE9F04F13
:1053AC0085B0CDE90232122383649DF83830002693
:1053BC001025112701931323044600F108090366F5
:1053CC00009100F1200AC661C0E90255C0E90455FC
:1053DC0085614663C0E90955C56207620763C66407
:1053EC00C0E90E75C0E910554666C0E91475C0E9F0
:1053FC001655C667C0E91A75C0E91C551420DFF8AC
:10540C0014C24FF0010B4FF0FF08A0679CE803009B
:10541C00C4F89C0015200CF1080CA4F8A010C4F8DA
:10542C009000C4F894609CE80300C4E92075C4F8AB
:10543C00A400A4F8A810C4E9225584F8A26084F84A
:10544C00B16084F8B26084F8B36084F8B46084F816
:10545C00B56084F8A38084F8B0B0FFF7FFFC029B22
:10546C00039A009963602260D0B2C4F8AC10314644
:10547C00FFF73CFD59462079FFF738FD20464FF0E9
:10548C00FF320421FFF73AFE20460621FFF7DEFE2D
:10549C00062140EA01022046FFF730FE2046062195
:1054AC00FFF7D4FE20F0280242F008022046062125
:1054BC00FFF724FE324620461C21FFF71FFE204634
:1054CC0070220721FFF71AFE31462046FFF7BEFE79
:1054DC00314640F070022046FFF710FE3146204660
:1054EC00FFF7B4FE314640F00C022046FFF706FEF3
:1054FC00019A20467D2A28BF7D220521FFF7FEFD5B
:10550C0094F89E2094F89D10920042EA410294F87F
:10551C009F1094F8A0C042EA0B0294F8A10042EA52
:10552C00C10141EA0C1242EA401284F89CB02046B8
:10553C000221FFF7E3FD29464A4620460523FFF7E3
:10554C0007FE4A46204605230A21FFF701FE39468D
:10555C0094F8A4202046FFF7D1FD0523524620469F
:10556C000B21FFF7F5FD94F8A52020461221FFF73B
:10557C00C5FDA26C20460C21FFF7C0FD94F8A620B7
:10558C0020461321FFF7BAFD226E20460D21FFF7AE
:10559C00B5FD94F8A72020461421FFF7AFFDA26FAC
:1055AC0020460E21FFF7AAFD94F8A82020461521CD
:1055BC00FFF7A4FDD4F8902020460F21FFF79EFDA5
:1055CC0094F8A92020461621FFF798FD3146207843
:1055DC00FFF78CFC42462046E121FFF78FFD424647
:1055EC002046E221FFF78AFD20461D21FFF72EFE03
:1055FC001D2140F006022046FFF780FD20463F2289
:10560C001C21FFF77BFD2046FFF74AFE204605B024
:10561C00BDE8F08F2869000810B590F8A230044658
:10562C007BB1002380F8A230FFF7C8FD2046FFF7BE
:10563C0037FE17212046FFF709FEC3070BD50020C4
:10564C0010BD70220721FFF759FD17212046FFF7E7
:10565C00FDFDC307F3D420460721FFF7F7FDC0F388
:10566C004200013010BD00BF38B5684D00222846FD
:10567C004FF40041664CFBF773F83220FAF7CAFD81
:10568C00284601224FF40041FBF76AF8204600221D
:10569C000821FBF765F83220FAF7BCFD2046012201
:1056AC000821FBF75DF8204600221021FBF758F883
:1056BC003220FAF7AFFD204601221021FBF750F8FB
:1056CC00204600222021FBF74BF83220FAF7A2FDEE
:1056DC00204601222021FBF743F8204600224021DE
:1056EC00FBF73EF83220FAF795FD204601224021C7
:1056FC00FBF736F8204600228021FBF731F83220E8
:10570C00FAF788FD204601228021FBF729F8204674
:10571C0000224FF48071FBF723F83220FAF77AFD60
:10572C00204601224FF48071FBF71AF82046002224
:10573C004FF40071FBF714F83220FAF76BFD20469A
:10574C0001224FF40071FBF70BF8204600224FF4B6
:10575C008071FBF705F83220FAF75CFD2046012238
:10576C004FF48071FAF7FCFF204600228021FAF7F3
:10577C00F7FF3220FAF74EFD204601228021FAF77E
:10578C00EFFF204600224021FAF7EAFF3220FAF719
:10579C0041FD204601224021FAF7E2FF204600227B
:1057AC002021FAF7DDFF3220FAF734FD20460122E2
:1057BC002021FAF7D5FF204600221021FAF7D0FF5E
:1057CC003220FAF727FD204601221021FAF7C8FFF4
:1057DC00204600220821FAF7C3FF3220FAF71AFDFF
:1057EC00204601220821FAF7BBFF284600224FF47D
:1057FC000041FAF7B5FF3220FAF70CFD2846BDE858
:10580C00384001224FF40041FAF7AABF00080140CA
:10581C00000C014030B5012200244FF480330225E6
:10582C004FF4E01195B00AA80A920E920B931293C2
:10583C0013910C941195FBF7FDFE0F224FF480632E
:10584C00294605A805920893CDE906540994FCF75E
:10585C0055F9102301A801930494FCF7E5FAFCF721
:10586C00BBFA084BA3FB00308009FAF7F2FD0420C9
:10587C00FAF7FCFD224621464FF0FF30FAF7BFFD48
:10588C0015B030BDD34D6210F0B50125ADF2E45D1D
:10589C00FAF75EFCFFF7BEFF774B0A269A694FF4C6
:1058AC00827742F020029A619A6902F020020392F8
:1058BC00039A9969002241F004019961986940F2B8
:1058CC00155100F00400049004989C696B4844F056
:1058DC0008049C619B69022403F008030593059B53
:1058EC00FAF73EFF2A4648F20A216448FAF738FFD5
:1058FC002A464AF6F9716248FAF732FF002245F25D
:10590C0002015F48FAF72CFF48F21F7308A95B48A5
:10591C00CDE908350B94FAF7C5FD4FF6FB7308A9D2
:10592C00574809950B9400250893FAF7BBFD4FF4E3
:10593C0000721023534C544904F14400C4E917235A
:10594C00C4E91117C4E91B56C4E91355C4E915552C
:10595C00C4E91955FCF745FD00F0ECF94B4B20461A
:10596C002360C4E90155C4E90355A561FCF79EFD0C
:10597C004FF4805308A920460893FCF706FE06A9AD
:10598C002046CDE90655FCF7E6FFC820FAF742FCA5
:10599C00FFF76AFE052304F1440100931F221E2326
:1059AC0008A88DF81850FFF7F9FC04F14401009693
:1059BC001C231D2236A8FFF7F1FC0F2304F1440130
:1059CC0000931B221A2364A8FFF7E8FC142304F1AC
:1059DC00440100931922162392A8FFF7DFFC192328
:1059EC00324604F144010093C0A80B23FFF7D6FC08
:1059FC001E2304F1440100930C220D23EEA8FFF7A3
:105A0C00CDFC232304F1440100930E2212230DF547
:105A1C008E60FFF7C3FC282304F14401009313228A
:105A2C0015230DF5A560FFF7B9FC4FF4B86000F035
:105A3C0048FE0446064600F5B86708AB59196019CC
:105A4C00B83516B1B82200F08FFEB836B742F4D193
:105A5C0004F50A742046FFF7DFFD0028FAD008A9E8
:105A6C002046FFF75BFC08A8FAF76AFB81B208A88E
:105A7C0000F030FAEEE700BF0010024000080140D1
:105A8C00000C0140000200200030014000040040E6
:105A9C00704700BF80B485B000AF154B9B69144AAA
:105AAC0043F001039361124B9B6903F00103BB604C
:105ABC00BB680F4BDB690E4A43F08053D3610C4B30
:105ACC00DB6903F080537B607B680A4B5B68FB608F
